:020000040800F2
:10000000A80400204501000849090008410900082A
:1000100045090008250800082B1200080000000010
:10002000000000000000000000000000390B000884
:100030002908000800000000210A00084D0C0008F3
:100040005F0100085F0100085F0100085F01000810
:100050005F0100085F0100085F0100085F01000800
:100060005F0100085F0100085F0100085F010008F0
:100070005F0100085F0100085F0100085F010008E0
:100080005F0100085F0100085F0100085F010008D0
:100090005F0100085F0100085F0100085F010008C0
:1000A0005F0100085F0100085F0100085F010008B0
:1000B0005F0100085F0100085F0100085F010008A0
:1000C0005F0100085F0100085F0100085F01000890
:1000D0005F0100085F0100085F010008110E0008C1
:1000E0005F0100085F0100085F0100085F01000870
:1000F0005F0100085F0100085F0100085F01000860
:100100005F0100085F0100085F0100085F0100084F
:100110005F0100085F010008B10C00085F010008E2
:100120005F0100085F0100085F0100085F0100082F
:10013000DFF80CD000F054FB00480047911C000889
:10014000A80400200648804706480047FEE7FEE76F
:10015000FEE7FEE7FEE7FEE7FEE7FEE7FEE7FEE777
:10016000510C000831010008F0B480EA0102D40FFC
:100170004200B2EB410F02D20246084611464A0045
:1001800042D0C30DDDB2C1F3C752AD1A202D35DA0E
:10019000C1F3160141F4000204B15242C5F1200638
:1001A00002FA06F12A411044B3EBD05F23D0C4B168
:1001B000012DA0EBC35009DCF0BC4FF0004202EA75
:1001C000C352DBB200F5000000F06DB9400000F151
:1001D000807000EBC350A0F1807040EAD1704900FC
:1001E00009E0490841EAC071A0EBC35000F50000E6
:1001F000400800EBC350F0BC00F04CB96142012252
:1002000002EB4101001BF6E7F0BC704781F00041B2
:10021000AAE780F00040A7E72DE9FE4F804681EA7B
:100220000300C00F0C46009021F0004123F0004570
:10023000B8EB0200A94105D24046214690461C4633
:100240000B46024623F00040104347D0270DC7F36A
:100250000A00C3F30A510290401A019040286BDA59
:10026000C3F3130040F4801B0098924620B1002392
:10027000D2EB030A63EB0B0B01985946C0F1400225
:10028000504600F0E6F806460D4650465946019A9B
:1002900000F0EEF810EB08006141002487EA1152EB
:1002A00084EAE7731A4340D0009A62B3019A012AA4
:1002B0004FEA075215DC001B61EB02014FF00042D0
:1002C00002EA0752CDE90042001C41F58011324696
:1002D0002B4600F025F903B0BDE8F08F40462146DB
:1002E000F9E7001B61EB0201001C41F580130018C7
:1002F0005B412018A2F5001747EB030140EAD570D7
:10030000B6196D4111E06D084FEA360645EAC07531
:100310004FEA0752001B61EB0201001C41F58011FE
:1003200049084FEA30000019514132462B4603B0CC
:10033000BDE8F04F00F0E5B800980122400000232E
:10034000D0EB020263EBE073009821464FEAE074C1
:10035000B8EB000061EB0401E9E783F000435BE7E1
:1003600081F0004158E700F0004230F000400AD030
:10037000C10D01F56071C0F3160042EA0151C208D7
:1003800040071143704700200146704701F00043C9
:1003900030B421F0004150EA010206D00A0DA2F566
:1003A0006072C1F31301002A02DC30BC00207047E8
:1003B000440F44EAC104C100E01830BC00EBC25055
:1003C00000F068B830B50B46014600202022012419
:1003D00009E021FA02F59D4205D303FA02F5491B13
:1003E00004FA02F52844151EA2F10102F1DC30BD29
:1003F0002DE9F05F0546002092469B46884606465A
:10040000814640241BE0284641464746224600F0EC
:10041000F9F953465A46C01A914110D3114618466D
:10042000224600F016F82D1A67EB01084F462246C7
:100430000120002100F00DF817EB00094E41201EAD
:10044000A4F10104DFDC484631462A464346BDE8B4
:10045000F09F202A04DB203A00FA02F100207047C6
:100460009140C2F1200320FA03F3194390407047F2
:10047000202A06DBCB17203A41FA02F043EAE07368
:1004800006E041FA02F3D040C2F120029140084355
:10049000194670470029A8BF7047401C490008BF93
:1004A00020F00100704710B4B0FA80FC00FA0CF0A4
:1004B00050EA010404BF10BC704749B1CCF12004DC
:1004C00021FA04F411FA0CF118BF01212143084369
:1004D000A3EB0C01CB1D4FEA00614FEA102042BF95
:1004E000002010BC704700EBC35010440029A4BF8B
:1004F00010BC7047401C490008BF20F0010010BC30
:10050000704710B5141E73F1000408DA401C41F165
:10051000000192185B411A4301D120F0010010BD87
:100520002DE9F04D92469B4611B1B1FA81F202E0FD
:10053000B0FA80F220329046FFF78BFF04460F4658
:1005400040EA0A0041EA0B0153465A46084313D0D9
:10055000114653EA010019D0C8F14002504600F09C
:1005600051F905460E46504659464246FFF771FF7F
:10057000084305D0012004E020463946BDE8F08D4F
:100580000020054346EAE0762C4337430A9863058A
:10059000E40AA0EB08000022FD0A44EA47540A30AE
:1005A00002D500200146E9E7010510196941DDE99E
:1005B000084500196941BDE8F04DA2E72DE9FE4F5D
:1005C00081EA030404F0004421F0004100944FF05C
:1005D000000B23F0004350EA01045ED052EA03040A
:1005E0005BD0C3F30A54C1F30A552C44A4F2F3348C
:1005F0000194A0FB0254C1F3130141F48011C3F331
:10060000130343F4801301FB024400FB034E840AEE
:10061000970A44EA815447EA8357A4FB0768029586
:100620008D0A05FB07854FEA932C04FB0C54270524
:10063000029D4FEA065847EA1637B5EB08056EEB00
:10064000070C870E920E47EA811742EA8312A7FB36
:100650000201B6EB0B0164EB00042B0D43EA0C33F3
:100660005E1844EB1C50DA465146E7FB0201C5F325
:1006700013044FEA0B3343EA14534FEA0432019C4C
:1006800043EA0603A4F10C040294009CCDE900B4F3
:10069000FFF746FF03B0BDE8F08F00200146F9E701
:1006A0002DE9F04D81EA030404F0004B21F00045F0
:1006B00014464FF0000A23F0004150EA050220D012
:1006C00054EA01021DD0C5F30A570246C5F31303CD
:1006D000C1F31300C1F30A5640F4801543F48013AC
:1006E000A7EB0608101BD64608F2FD3873EB050091
:1006F00002D308F1010801E092185B41B8F1000F44
:1007000003DA00200146BDE8F08D00204FF480118F
:10071000064684460EE0171B73EB050705D3121B34
:1007200063EB050306434CEA010C49084FEA30002D
:1007300092185B4150EA0107EDD152EA030012D052
:1007400082EA040083EA0501084305D0101BAB418F
:1007500006D20122002306E000224FF0004302E00F
:100760006FF0010253101AEB06004CEB085110EB2E
:100770000A0041EB0B01BDE8F04DFFF7C2BEC1F32B
:100780000A52C1F3130140F2FF3341F480119A423F
:1007900002DA00200146704740F233439A42A2F247
:1007A000334202DC524200F02DB8FFF752BE000087
:1007B00030B5041E71F1000404DB4FF000444042E8
:1007C00064EB0101141E73F1000405DB1C464FF0BD
:1007D0000043524263EB0403994208BF904230BD8C
:1007E000064C074D06E0E06840F0010394E807007E
:1007F00098471034AC42F6D3FFF79EFCFC1C00086F
:100800001C1D0008202A04DB203A21FA02F00021F6
:10081000704721FA02F3D040C2F120029140084310
:100820001946704700BFFEE770472DE9F0410246C8
:1008300000250026002000230024002791F803C093
:100840000CF00F0591F803C00CF0100CBCF1000F78
:1008500003D091F802C04CEA050591F800C0BCF144
:10086000000F31D0146800202BE04FF0010C0CFA7F
:1008700000F3B1F800C00CEA03069E4220D18300C9
:100880004FF00F0C0CFA03F7BC4305FA03FC4CEADB
:10089000040491F803C0BCF1280F06D14FF0010CFD
:1008A0000CFA00FCC2F814C00AE091F803C0BCF1D5
:1008B000480F05D14FF0010C0CFA00FCC2F810C033
:1008C000401C0828D1D31460B1F800C0BCF1FF0F60
:1008D00034DD546800202EE000F1080C4FF00108D0
:1008E00008FA0CF3B1F800C00CEA03069E4221D1CD
:1008F00083004FF00F0C0CFA03F7BC4305FA03FC1E
:100900004CEA040491F803C0BCF1280F05D100F1B2
:10091000080C08FA0CF8C2F8148091F803C0BCF176
:10092000480F07D100F1080C4FF0010808FA0CF845
:10093000C2F81080401C0828CED35460BDE8F08176
:1009400000BFFEE700BFFEE7704708B54FF4A060A8
:1009500000F05CF827208DF8000000208DF80100E1
:1009600001208DF802008DF80300684600F016F8AB
:1009700008BD08B54FF4A06000F048F826208DF8B7
:10098000000001208DF8010003208DF802000120F5
:100990008DF80300684600F001F808BD70B500212D
:1009A00000230F22C47804B3154C246804F4E064D7
:1009B000C4F5E064210AC1F10403CA40447804FA92
:1009C00003F184781440214309010E4C0678A155A7
:1009D000047804F01F050124AC4005786D11AD00CA
:1009E00005F1E025C5F8004109E0047804F01F0591
:1009F0000124AC40044D0678761145F8264070BDC0
:100A00000CED00E000E400E080E100E00249014379
:100A1000024A1160704700000000FA050CED00E08A
:100A20007047000029B1064AD2690243044BDA61DB
:100A300004E0034AD2698243014BDA617047000047
:100A40000010024029B1064A92690243044B9A61A0
:100A500004E0034A92698243014B9A6170470000A7
:100A60000010024030B500210022002400232D4D4B
:100A70006D6805F00C0121B1042905D0082923D1A6
:100A800005E0294D056022E0274D05601FE0254D5A
:100A90006D6805F47012234D6D6805F480340225ED
:100AA00005EB92421CB9214D554305600BE01D4DED
:100AB0006D6805F400351DB11C4D5543056002E01D
:100AC000194D5543056002E0174D056000BF00BF9A
:100AD000144D6D6805F0F0010909154D6B5C056852
:100AE000DD4045600F4D6D6805F4E061090A104D69
:100AF0006B5C4568DD4085600A4D6D6805F46051AA
:100B0000C90A0B4D6B5C4568DD40C560054D6D68DD
:100B100005F44041890B074D6B5CC568B5FBF3F5E7
:100B2000056130BD0010024000127A0000093D004E
:100B30001400002024000020704710B500F002F8D7
:100B400010BD00000CB500200190009033480068F3
:100B500040F480303149086000BF3048006800F43C
:100B6000003000900198401C0190009818B901983D
:100B7000B0F5A06FF1D12948006800F4003010B141
:100B80000120009001E0002000900098012843D14E
:100B90002348006840F010002149086008460068BA
:100BA00020F0030008600846006840F0020008607A
:100BB0001A48406819494860084640684860084635
:100BC000406840F4806048600846406820F47C102B
:100BD00048600846406840F4E810486008460068ED
:100BE00040F08070086000BF0C48006800F00070A2
:100BF0000028F9D00948406820F003000749486000
:100C00000846406840F00200486000BF0348406862
:100C100000F00C000828F9D10CBD000000100240C3
:100C200000200240042808D14FF0E021096941F07A
:100C300004014FF0E022116107E04FF0E021096963
:100C400021F004014FF0E02211617047704700006D
:100C500010B51348006840F00100114908600846CB
:100C60004068104908400E494860084600680E492F
:100C700008400B4908600846006820F4802008609E
:100C80000846406820F4FE0048604FF41F0088606A
:100C9000FFF753FF4FF000600449086010BD0000EB
:100CA000001002400000FFF8FFFFF6FE08ED00E034
:100CB00010B50121044800F00CF818B101210248D8
:100CC00000F004F810BD000000100040CA4302828A
:100CD000704730B50246002000230024158A05EA3B
:100CE0000103958905EA010413B10CB1012000E06C
:100CF000002030BD00B585B001210420FFF7A2FE21
:100D000001214804FFF78EFE0420ADF810001820E2
:100D10008DF8130003208DF8120004A91648FFF780
:100D200084FD0820ADF8100004208DF8130004A9FC
:100D30001148FFF77AFD4FF4E13000900020ADF844
:100D40000400ADF80600ADF80800ADF80C000C206A
:100D5000ADF80A006946094800F0F2F9FFF7F5FD21
:100D6000012240F22551054800F0C5F90121034850
:100D700000F07EF905B000BD0008014000440040CD
:100D800000B585B001210820FFF75CFE0121880431
:100D9000FFF748FE4FF48060ADF8100018208DF882
:100DA000130003208DF8120004A91748FFF73DFD3A
:100DB0004FF40060ADF8100004208DF8130004A972
:100DC0001148FFF732FD4FF4E13000900020ADF8FC
:100DD0000400ADF80600ADF80800ADF80C000C20DA
:100DE000ADF80A006946094800F0AAF9FFF7C1FD0D
:100DF000012240F22551054800F07DF90121034808
:100E000000F036F905B000BD000C0140004800407C
:100E10002DE9FF4740F22551864800F042F90028AD
:100E200071D0844800F0F8F900F0FF0ABAF1380FE9
:100E30007AD009DCAAF13000082827D2DFE800F0D8
:100E4000911C273141515A65BAF1630F7BD009DCFF
:100E5000BAF1390F7CD0BAF1610F76D0BAF1620FD6
:100E600014D196E0BAF1640F70D0BAF1650F6ED06C
:100E7000BAF1660FF4D1BCE04FF496706E49086089
:100E80006E4908606E4908606E490860CEE06E48A1
:100E900069490860694908606949086069490860EA
:100EA000C4E04FF4C870644908604FF49670634919
:100EB00008606548643862490860634861490860B1
:100EC000B4E061485C4908605F4864385B49086089
:100ED0004FF496705A4908604FF4C8705949086039
:100EE000A4E04FF07E5159480068FFF73DF957499B
:100EF00008609BE04FF07E5154480068FFF786F988
:100F00005249086092E092E00EE050480068FFF716
:100F10002AFA04464E4A4F4BFFF71FFA0646FFF7E0
:100F200035FA4A49086081E04B480068FFF71BFA30
:100F30000446474A474BFFF76FF90646FFF726FA84
:100F40004549086072E033E002E013E039E041E037
:100F50004FF07E5140480068FFF706F93E490860AF
:100F600064E04FF07E513C480068FFF74FF93A4982
:100F700008605BE038480068FFF7F5F90446344A3A
:100F8000344BFFF7EAF90646FFF700FA32490860EA
:100F90004CE032480068FFF7E6F904462C4A2D4B36
:100FA000FFF73AF90646FFF7F1F92C4908603DE0F2
:100FB0004FF07E5129480068FFF7D6F827490860AE
:100FC00034E04FF07E5125480068FFF71FF92349B0
:100FD00008602BE021480068FFF7C5F904461C4A69
:100FE0001C4BFFF7BAF90646FFF7D0F91B4908601A
:100FF0001CE01A480068FFF7B6F904460D4616488B
:101000000068FFF7B0F906460F4610480068FFF782
:10101000AAF9804642460B460948CDE90067CDE96A
:10102000024501680EA000F011F900BF00BFBDE845
:10103000FF87000000480040280000202C0000200E
:101040003000002034000020D4FEFFFF54000020B8
:101050009A9999999999B93F580000205C0000200D
:1010600025642C25662C25662C25660A00000000C8
:1010700021B1828942F40052828104E082894DF6D6
:10108000FF731A408281704702460020B1F5007F4D
:1010900000D100BF13880B400BB1012000E00020FD
:1010A000704770B50246002400230025002040F65A
:1010B0006A16B14200D100BFC1F3421501F01F030F
:1010C000012606FA03F3012D02D19689334006E08A
:1010D000022D02D1168A334001E0968A33400C1269
:1010E000012606FA04F41688344013B10CB101202D
:1010F00000E0002070BDF0B5034600240026002566
:10110000002040F66A17B94200D100BF1846C1F36B
:10111000421401F01F06012707FA06F5012C01D140
:101120000C3004E0022C01D1103000E014301AB170
:1011300007682F43076002E00768AF430760F0BD10
:101140002DE9F04786B005460E460024A24600BFB2
:10115000A1460027B08900B100BF2F462C8A4CF66B
:10116000FF700440F08804432C82AC894EF6F310E3
:101170000440B08831890843718908430443AC8135
:10118000AC8A4FF6FF400440B0890443AC8201A80A
:10119000FFF768FC1F48874202D1DDF810A001E08C
:1011A000DDF80CA0A88900F4004040B10AEBCA00A9
:1011B00000EB0A1031684900B0FBF1F807E00AEBD8
:1011C000CA0000EB0A1031688900B0FBF1F8642016
:1011D000B8FBF0F004012009642101FB1089A88903
:1011E00000F4004040B1322000EBC900B0FBF1F048
:1011F00000F00700044308E0322000EB09106421EE
:10120000B0FBF1F000F00F0004432C8106B0BDE804
:10121000F08700000038014001468888C0F30800CC
:101220007047C1F308028280704700BFFEE770B5C7
:1012300004460D4629462046FFF7F3FF00BF8021F4
:101240002046FFF721FF0028F9D070BD0FB4054BF1
:1012500010B503A9044A029800F0DAF810BC5DF852
:1012600014FB00006D1C0008A000002002E008C86C
:10127000121F08C1002AFAD170477047002001E010
:1012800001C1121F002AFBD1704700002DE9FF5F4A
:1012900082B00021DDE90430020DDDF840B00343E7
:1012A00018D044F61050A2F2FF32424315141198A0
:1012B00001281FD0A5EB0B00401C5FEA000A4FF08D
:1012C00000064E4FDFF83891B046504615D5CAF1AA
:1012D000000413E0119801244AA3012801D16FEA08
:1012E0000B010298119AC0E90031C0E9024206B030
:1012F000BDE8F09FCBF10000DFE704460021404A43
:10130000491842EB0450CDE9001012E0E00707D085
:1013100032463B4640464946FFF750F980468946EB
:1013200032463B4610461946FFF748F906460F4637
:101330006410002CEAD1DDE90401DDE90023BAF1F3
:10134000000F06DAFFF73AF942464B46FFF736F947
:1013500005E0FFF7A5F942464B46FFF7A1F9044621
:101360000E460022284BFFF723FA03D84FF0FF3038
:10137000014607E00022254B20463146FEF74CFF90
:10138000FFF7FDF9102409E0002C0ADB0A220023F4
:10139000FFF72EF8039B30321A55641E50EA010203
:1013A000F2D1641C039AC4F111031444119A012A66
:1013B00003D0012208430DD10AE0084304D00020E5
:1013C0004FF0110B119072E7A3EB0B056D1E0DE0B2
:1013D0005B4504DD4FF0000205F1010504E003DA8E
:1013E0004FF00002A5F10105002AECD002981199F6
:1013F000C0E90231C0E9004579E70000000014406F
:101400000000F03F300000000000F0430000E03F2B
:101410002DE9FF4F95B09B468946064600250FE211
:10142000252877D100242746F84A0121059400E0B9
:10143000044316F8013F203B01FA03F01042F7D1B4
:1014400030782A2811D06FF02F033078A0F13002C5
:10145000092A16D8059A44F0020402EB820203EB33
:1014600042021044761C0590EFE759F8042B0592D0
:10147000002A03DA504244F40054059044F0020478
:10148000761C30782E2816D116F8010F44F004048B
:101490002A280DD06FF02F023078A0F13003092BED
:1014A00009D807EB870302EB4303C718761CF3E761
:1014B00059F8047B761C30786C280FD006DC4C2859
:1014C00017D068280DD06A2814D104E0742810D0F1
:1014D0007A280FD10DE044F400140AE044F480149B
:1014E00001E044F440147278824202D104F5801481
:1014F000761C761C307866280BD013DC582877D001
:1015000009DC002875D04528F6D04628F4D04728B5
:101510001AD19DE118E0632835D0642879D0652878
:1015200012D195E1702873D008DC6728F1D06928C2
:101530006FD06E280DD06F2806D1B5E073282CD05F
:10154000752875D0782874D05A46179990476D1C25
:1015500075E1C4F30250022809D003280DD0D9F850
:10156000001004280DD00D6009F1040967E1D9F8D5
:101570000010EA17C1E90052F6E7D9F800100D8013
:10158000F2E70D70F0E719F8041B8DF80010002049
:101590008DF80100EA46012003E059F804AB4FF052
:1015A000FF3061074FF0000102D40DE008F10101A6
:1015B0008846B9420FDA8045F8DB1AF8081000298E
:1015C000F4D108E008F1010188468142FADB1AF8FB
:1015D00008100029F6D105985B46A0EB08072146C4
:1015E0003846179A00F094FA284400EB080507E003
:1015F0004DE029E10DE01AF8010B5A461799904782
:10160000B8F10108F7D25B4621463846179A13E134
:1016100042E00A220092C4F302524FF0000A022A6A
:1016200008D059F804CB032A4FEAEC710AD00DE038
:1016300029E02AE009F1070121F00702F2E802C1DE
:10164000914609E00FFA8CFC4FEAEC71042A03D1B1
:101650004FFA8CFC4FEAEC71002907DA0A460021A8
:10166000DCF1000C61EB02012D2202E0220504D521
:101670002B228DF80420012203E0E20701D0202272
:10168000F7E7904659E00A2102E010220DE0102110
:101690004FF0000A00910BE010224FF0000A44F0D6
:1016A00004040827009203E008224FF0000A009289
:1016B000C4F30252022A05D059F804CB0021032AB0
:1016C00008D009E009F1070121F00702F2E802C1A0
:1016D000914605E01FFA8CFC042A01D10CF0FF0CA6
:1016E0004FF00008220728D5702806D0009B83F011
:1016F000100353EA0A0305D00EE040228DF80420BF
:10170000012208E05CEA010206D030228DF80420B4
:101710008DF8050002229046009B83F0080353EAEF
:101720000A030AD15CEA010201D1620705D5302221
:101730008DF804204FF001087F1E582804D034A0F3
:1017400003900EA802900DE036A0F9E753466046DC
:10175000009AFEF74DFE84460398825C0298401E74
:10176000029002705CEA0100F0D1029806A9081A02
:1017700000F1200A600702D524F4803400E001273C
:10178000574502DDA7EB0A0000E0002000EB0A014C
:10179000009005984144401A0590E00306D45B464A
:1017A0002146179A059800F0B3F90544002706E092
:1017B00001A85A46C05D179990476D1C7F1C47458C
:1017C000F6DBE0030CD55B462146179A059800F03E
:1017D0009FF9054404E030205A46179990476D1C44
:1017E0000099481E00900029F5DC08E00298029953
:1017F0005A460078491C0291179990476D1CBAF11E
:101800000001AAF1010AF1DC65E1000009280100EC
:101810003031323334353637383961626364656666
:101820000000000030313233343536373839414228
:10183000434445460000000000F058F90544761C7A
:10184000307800287FF4ECAD19B02846BDE8F08F61
:10185000620700D4062709F1070222F0070CFCE812
:101860000223E14603F000485FEA080C02D00FF2C1
:10187000702C0DE05FEA045C02D50FF2682C07E0E3
:101880005FEAC47C02D00FF2602C01E0AFF2700C72
:101890004FF0FF3823F00043CDF850C065280CD03E
:1018A00006DC452809D046281DD047283DD13DE01B
:1018B000662818D067287ED138E00021112F01DB7F
:1018C000112000E0781CCDE9000106A90EA8FFF761
:1018D000DDFCDDE90F010E9A03910021009207F172
:1018E000010A04914DE04FF000400097CDE901104E
:1018F00006A90EA8FFF7CAFCDDE90F0203920E9BB2
:1019000011990022DDF80CA00093049211B9791C02
:1019100000EB010AB7EB0A0004D4C0F1FF3007F175
:10192000010A0490AAEB0700019044E0012F00DABD
:1019300001270021112F01DD112000E03846CDE9FB
:10194000000106A90EA8FFF7A1FCDDE90F010E9A20
:101950000391002104910092BA4621070CD4039907
:10196000514500DA8A46BAF1010F05DD009AAAF165
:101970000101515C302908D0B84202DA10F1040F9D
:1019800006DA0121CDE9011015E0AAF10101E9E72C
:10199000002805DC049901440491AAEB000102E04F
:1019A000411C514500DD8A460499401A401C0190B3
:1019B0004FF000400290200704D40198504501DB0D
:1019C000CDF8048000208DF84F0002980DF14F07EC
:1019D000B0F1004F25D02B200E9002984FF0020856
:1019E00000280CDA404202902D200E9007E00A21D8
:1019F0000298FEF7E7FC3031029007F8011DB8F1BC
:101A00000001A8F10108F2DC02980028EFD1791E4C
:101A10000E980870307800F0200040F0450007F87C
:101A2000020D12A8C01B00F107081498007800B13D
:101A3000012000EB0A01019801EBE0710598414497
:101A4000401A401E0590E00306D45B462146179AD3
:101A5000059800F05DF805441498007818B15A46CE
:101A6000179990476D1CE00324D55B462146179AD1
:101A7000059800F04DF805441CE00498002807DBA9
:101A8000DDE90301884203DD0098405C179901E01D
:101A9000179930205A469047049805F10105401CDB
:101AA00004900198401E019004D12E205A461799A7
:101AB00090476D1CBAF10001AAF1010ADDDC05E0D6
:101AC00017F8010B5A46179990476D1CB8F10001A1
:101AD000A8F10108F4DC5B462146179A0598ABE6AD
:101AE0002D0000002B000000200000002DE9F04137
:101AF000044600251E461746880404D405E03946EE
:101B00002020B0476D1C641EF9D52846BDE8F08141
:101B10002DE9F041044600251E469046C80301D534
:101B2000302700E02027880404D505E041463846E8
:101B3000B0476D1C641EF9D52846BDE8F08110B58C
:101B400003460021002204E0985C084481B2501C46
:101B5000C2B20B2AF8DB0846CC1701EB146424123E
:101B6000A1EB0424A1B2C8B210BD00002DE9FE43D0
:101B700007460C4615464FF0080812208DF8000065
:101B80004C208DF801008DF8028007208DF80300AD
:101B90008DF80470E0B28DF80500200A8DF806007B
:101BA000E8B28DF80700280A8DF8080000208DF8AB
:101BB0000A008DF809006846FFF7C1FF8DF80B0099
:101BC000002605E01DF806100348FFF730FB761CE1
:101BD0000B2EF7DDBDE8FE830044004010B56FF02A
:101BE0000400FFF71FF80A4800680A49B0FBF1F04B
:101BF000094908700846007800EB4001C1EBC010AD
:101C00004FF6FF7101EAC0000449088010BD0000D2
:101C10000000002000127A00380000203A00002066
:101C20000146114A12884A434FF0E0235A610022CC
:101C30009A611A46126942F001021A6100BF4FF020
:101C4000E022106900F001021AB100F48032002A8B
:101C5000F5D04FF0E022126922F001024FF0E023AC
:101C60001A6100229A6170473A00002070B504465C
:101C70000D46E1B20548FFF7D4FA00BF80210348C2
:101C8000FFF702FA0028F9D0204670BD0048004056
:101C9000FFF776F8FFF72EF8FFF7A0FF15A0FFF784
:101CA000D5FA4FF4FA724FF461710220FFF75EFF2C
:101CB0006420FFF7B5FF4FF4FA6200210320FFF71D
:101CC00055FF6420FFF7ACFF4FF4FA629110042037
:101CD000FFF74CFF6420FFF7A3FF4FF4FA6240F2D6
:101CE0006C710020FFF742FF6420FFF799FF00BFEF
:101CF000FEE70000C4E3CAC7D6ED00001C1D0008C3
:101D000000000020A40000006C120008C01D0008A4
:101D1000A4000020040400007C12000800A24A0471
:101D2000000000000000000001020304060708098B
:101D30000000000001020304010203040607080971
:101D4000020406082C0100002C0100002C010000F8
:101D50002C01000000000000CDCC2C40CDCCCC3EAE
:101D60009A99993FCDCC2C400000003F9A99993F19
:101D700000002040CDCCCC3E9A99993F00004040D5
:101D8000CDCCCC3E000000002C0100000000000083
:101D90000000000000000000000000000000000043
:101DA0000000000000000000000000000000000033
:101DB0000000000000000000000000000000000023
:0400000508000131BD
:00000001FF
