:020000040800F2
:10000000586E00205D0200083D360008292B0008CC
:10001000E13500085B090008913F0008000000007E
:100020000000000000000000000000009D0100082A
:10003000150B000800000000F9010008093800084D
:1000400077020008770200087702000877020008AC
:10005000770200087702000877020008770200089C
:100060007702000877020008770200085D0900089F
:1000700069090008AD090008B909000877020008FD
:10008000C509000877020008770200087702000817
:10009000770200087702000877020008770200085C
:1000A000770200087702000877020008770200084C
:1000B0000D390008193900082539000877020008B1
:1000C000770200087702000877020008770200082C
:1000D00077020008613F00086D3F0008793F000883
:1000E000770200087702000877020008770200080C
:1000F00077020008770200087702000877020008FC
:1001000077020008770200083139000877020008FA
:10011000BD3B0008C93B00083D39000849390008CB
:1001200077020008090A00084D0A00087702000853
:1001300077020008770200087702000877020008BB
:1001400077020008770200087702000877020008AB
:1001500077020008590A0008650A0008853F000870
:10016000770200087702000877020008770200088B
:1001700077020008770200087702000800000000FC
:100180007702000877020008DFF80CD000F096FB39
:1001900000480047055C0008586E00202C4B196889
:1001A0000868B0E8F04F80F30988BFF36F8F4FF015
:1001B000000080F3118870470000000008480068C4
:1001C000006880F308884FF0000080F3148862B65E
:1001D00061B6BFF34F8FBFF36F8F00DF00BF00BF6B
:1001E00008ED00E0DFF80C00016841F470010160E7
:1001F000704700BF88ED00E0EFF30980BFF36F8F19
:10020000134B1A681EF0100F08BF20ED108A20E96A
:10021000F04F106009B44FF0500080F31188BFF325
:100220004F8FBFF36F8F07F0C5F84FF0000080F3DA
:10023000118809BC19680868B0E8F04F1EF0100F6B
:1002400008BFB0EC108A80F30988BFF36F8F704746
:10025000DC030020EFF3058070470000064880476C
:1002600006480047FEE7FEE7FEE7FEE7FEE7FEE79B
:10027000FEE7FEE7FEE7FEE7F13800088901000827
:100280002DE9F05F0546002092469B4688460646CB
:10029000814640241BE0284641464746224600F05E
:1002A0001FF953465A46C01A914110D311461846B9
:1002B000224600F006F92D1A67EB01084F46224648
:1002C0000120002100F0FDF817EB00094E41201E2F
:1002D000A4F10104DFDC484631462A464346BDE826
:1002E000F09F40EA01039B0703D009E008C9121FF1
:1002F00008C0042AFAD203E011F8013B00F8013BE0
:10030000521EF9D27047D2B201E000F8012B491E0B
:10031000FBD270470022F6E710B513460A460446A2
:100320001946FFF7F0FF204610BD421C10F8011BD4
:100330000029FBD1801A70472DE9F04D81EA0304B2
:1003400004F0004B21F0004514464FF0000A23F062
:10035000004150EA050220D054EA01021DD0C5F345
:100360000A570246C5F31303C1F31300C1F30A563B
:1003700040F4801543F48013A7EB0608101BD64603
:1003800008F2FD3873EB050002D308F1010801E023
:1003900092185B41B8F1000F03DA00200146BDE876
:1003A000F08D00204FF48011064684460EE0171BA6
:1003B00073EB050705D3121B63EB050306434CEAF9
:1003C000010C49084FEA300092185B4150EA0107DE
:1003D000EDD152EA030012D082EA040083EA05015B
:1003E000084305D0101BAB4106D20122002306E0D2
:1003F00000224FF0004302E06FF0010253101AEBAD
:1004000006004CEB085110EB0A0041EB0B01BDE874
:10041000F04D00F0ACB80EB5C10F80EAE0700844B2
:10042000CA07002140F233438DE80E000A460B460E
:1004300000F0ACF803B000BD00F0004230F0004026
:100440000AD0C10D01F56071C0F3160042EA0151F6
:10045000C20840071143704700200146704701F071
:10046000004330B421F0004150EA010206D00A0DE9
:10047000A2F56072C1F31301002A02DC30BC002037
:100480007047440F44EAC104C100E01830BC00EBDF
:10049000C25000F035B830B50B460146002020228E
:1004A000012409E021FA02F59D4205D303FA02F581
:1004B000491B04FA02F52844151EA2F10102F1DCE1
:1004C00030BD202A04DB203A00FA02F100207047F8
:1004D0009140C2F1200320FA03F319439040704782
:1004E000202A04DB203A21FA02F00021704721FA89
:1004F00002F3D040C2F120029140084319467047F0
:100500000029A8BF7047401C490008BF20F0010027
:10051000704710B4B0FA80FC00FA0CF050EA010405
:1005200004BF10BC704749B1CCF1200421FA04F497
:1005300011FA0CF118BF012121430843A3EB0C0170
:10054000CB1D4FEA00614FEA102042BF002010BCD3
:10055000704700EBC35010440029A4BF10BC704783
:10056000401C490008BF20F0010010BC704710B5C6
:10057000141E73F1000408DA401C41F100019218C6
:100580005B411A4301D120F0010010BD2DE9F04D6F
:1005900092469B4611B1B1FA81F202E0B0FA80F2C4
:1005A00020329046FFF78DFF04460F4640EA0A00CE
:1005B00041EA0B0153465A46084313D0114653EA09
:1005C000010019D0C8F140025046FFF789FF0546E7
:1005D0000E46504659464246FFF773FF084305D082
:1005E000012004E020463946BDE8F08D0020054397
:1005F00046EAE0762C4337430A986305E40AA0EB09
:1006000008000022FD0A44EA47540A3002D50020BF
:100610000146E9E7010510196941DDE908450019BE
:100620006941BDE8F04DA2E72DE9FE4F804681EA21
:100630000300C00F0C46009021F0004123F000455C
:10064000B8EB0200A94105D24046214690461C461F
:100650000B46024623F00040104347D0270DC7F356
:100660000A00C3F30A510290401A019040286BDA45
:10067000C3F3130040F4801B0098924620B100237E
:10068000D2EB030A63EB0B0B01985946C0F1400211
:100690005046FFF716FF06460D4650465946019A4A
:1006A00000F01EF910EB08006141002487EA1152A6
:1006B00084EAE7731A4340D0009A62B3019A012A90
:1006C0004FEA075215DC001B61EB02014FF00042BC
:1006D00002EA0752CDE90042001C41F58011324682
:1006E0002B46FFF753FF03B0BDE8F08F404621468D
:1006F000F9E7001B61EB0201001C41F580130018B3
:100700005B412018A2F5001747EB030140EAD570C2
:10071000B6196D4111E06D084FEA360645EAC0751D
:100720004FEA0752001B61EB0201001C41F58011EA
:1007300049084FEA30000019514132462B4603B0B8
:10074000BDE8F04FFFF713BF0098012240000023DF
:10075000D0EB020263EBE073009821464FEAE074AD
:10076000B8EB000061EB0401E9E783F000435BE7CD
:1007700081F0004158E72DE9FE4F81EA030404F0BF
:10078000004421F0004100944FF0000B23F000439F
:1007900050EA01045ED052EA03045BD0C3F30A546A
:1007A000C1F30A552C44A4F2F3340194A0FB025483
:1007B000C1F3130141F48011C3F3130343F4801315
:1007C00001FB024400FB034E840A970A44EA815469
:1007D00047EA8357A4FB076802958D0A05FB078546
:1007E0004FEA932C04FB0C542705029D4FEA065850
:1007F00047EA1637B5EB08056EEB070C870E920E2D
:1008000047EA811742EA8312A7FB0201B6EB0B010C
:1008100064EB00042B0D43EA0C335E1844EB1C50D0
:10082000DA465146E7FB0201C5F313044FEA0B33E6
:1008300043EA14534FEA0432019C43EA0603A4F14D
:100840000C040294009CCDE900B4FFF79FFE03B0B6
:10085000BDE8F08F00200146F9E7C1F30A52C1F369
:10086000130140F2FF3341F480119A4202DA002072
:100870000146704740F233439A42A2F2334202DC0F
:100880005242FFF72DBEFFF71CBE000030B5041E1C
:1008900071F1000404DB4FF00044404264EB0101BD
:1008A000141E73F1000405DB1C464FF00043524256
:1008B00063EB0403994208BF904230BD064C074DDC
:1008C00006E0E06840F0010394E807009847103420
:1008D000AC42F6D3FFF75CFC348200085482000877
:1008E000202A06DBCB17203A41FA02F043EAE073F4
:1008F00006E041FA02F3D040C2F1200291400843E1
:100900001946704770B58C1810F8015B15F0070395
:1009100001D110F8013B2A1106D110F8012B03E098
:1009200010F8016B01F8016B5B1EF9D12B0705D4A0
:100930000023521E0DD401F8013BFAE710F8013BE9
:10094000CB1A921C03E013F8015B01F8015B521E05
:10095000F9D5A142D8D3002070BDFEE7014800F0D0
:10096000C5BA00002826002008B5002000900B48DA
:10097000007870B10A486946006806F0DBFE00980E
:1009800038B108494FF080500860BFF34F8FBFF374
:100990006F8F054800F0AAFA08BD00005003002040
:1009A0006003002004ED00E0A8270020014800F0CB
:1009B0009DBA0000C8250020014800F097BA000049
:1009C0000828002008B5002000900B48007870B17E
:1009D0000A486946006806F0ADFE009838B108493B
:1009E0004FF080500860BFF34F8FBFF36F8F054803
:1009F00000F07CFA08BD0000500300205C030020DA
:100A000004ED00E04827002008B5002000900B48C6
:100A1000007870B10A486946006806F08BFE0098BD
:100A200038B108494FF080500860BFF34F8FBFF3D3
:100A30006F8F054800F05AFA08BD000050030020EF
:100A40006403002004ED00E068280020014800F065
:100A50004DBA000088260020014800F047BA000087
:100A6000C8280020014800F041BA0000E826002014
:100A700001681823CAB2103AB2FBF3F2054B6FF3C8
:100A80000901032A9B5CC36500D9091D81650846DD
:100A9000704700007081000810B5014600208B6986
:100AA0008A6A4FF0C07453B1B3F5005F15D072B1CC
:100AB000012A0CD0022A0AD0032A09D104E01AB173
:100AC000012A06D0022A03D1C96AC90100D5012032
:100AD00010BDC96AA142FAD010BD002AF7D0012A80
:100AE000F2D0022AF3D0032AF3D010BD30B5046847
:100AF000256825F480252560046863608368402BA1
:100B0000036803D099600068C26030BD9A600068D5
:100B1000C16030BD704772B6FEE710B590B00446B4
:100B200003AA3221684602F0C5FD6946204600F05E
:100B300025F8684602F08BFD401E81B2684602F03F
:100B4000A4FD10B010BD7FB516460D46044603AA9D
:100B50000321684602F0AEFD2946684602F0FBFD1F
:100B60003146684602F00EFE0DF10D030322092105
:100B7000204600F003F904B0002070BD70B50D46AA
:100B800004460188284602F0FDFDA178284602F0BF
:100B9000E2FDE178284602F0DEFDE278211D2846DC
:100BA00002F0DBFD284602F05DFD01462846BDE867
:100BB000704002F0D0BD000037B58EB01546044637
:100BC0000FAB01220A2100F0D9F86946204600F057
:100BD0004FF8040015D19DF804009DF83C108842A0
:100BE00002D0072011B030BDBDF90500FFF713FC9E
:100BF0009FED051B53EC112BFFF79EFBFFF72FFC1E
:100C000028602046EEE700000000000000002440BD
:100C100037B58EB0154604460FAB0122102100F007
:100C2000ADF86946204600F023F8040019D19DF87C
:100C300004009DF83C10884202D0072011B030BD5E
:100C40009DF80810DDF8050061F31F60FFF7E3FB76
:100C50009FED051B53EC112BFFF76EFBFFF7FFFB1E
:100C600028602046EAE70000000000000000244061
:100C70002DE9F0410646002081F837000746054679
:100C80000C46642002F090FD63E0B06802F0DFFCE7
:100C900078B394F8370001071AD5B06802F059FD0F
:100CA00084F8360094F8370040F0100084F83700DC
:100CB0002046FFF732FF94F83610884204D002F045
:100CC00081FD0620BDE8F08102F07CFD0020F9E7FF
:100CD00041070FD5B06802F03CFDE1197F1C087197
:100CE000E078FFB2B84234D194F8370040F0080001
:100CF00010E02EE0810710D5B06802F02AFDE07008
:100D00002D2803D902F05EFD0520DBE794F83700BB
:100D100040F0040084F837001BE0C0070ED0B06834
:100D200002F017FDA070112803D902F04BFD04203A
:100D3000C8E794F8370040F00200EBE715B1052D45
:100D40000DD005E0B06802F004FD0546052800D08E
:100D5000002502F045FD002897D00220B2E7B068D8
:100D600002F0F7FC45EA0025A5F5E0500538EFD183
:100D7000258094F8370040F00100CBE770B58EB0C5
:100D8000044644F61240ADF800008DF802108DF8CC
:100D900003200021684603E05D5C4618491C35715C
:100DA0009142F9DB6168FFF7E9FE204603F002F9A2
:100DB0000EB070BD2DE9F04116462DED028B86B0C8
:100DC0000F4680461D46B0EE408A03AA07216846BA
:100DD0000E9C02F06FFC18EE100A1D49884202DDDD
:100DE0009FED1C8A06E018EE100A1B49884201D9C3
:100DF0009FED1A8A3946684602F0ADFCB2EE040A4D
:100E000028EE000ABDEEC00A10EE100A01B26846D4
:100E100002F0B2FC3146684602F0B4FC294668464E
:100E200002F0B0FC0DF10D03072208214046FFF748
:100E3000A5FF5CB10022B0EE480A3946404600F0FA
:100E40000FF806B0BDEC028BBDE8F0810020F8E79A
:100E50000000344300003443000034C3000034C3B6
:100E60002DE9F043174E15462DED028B81B0B0EE03
:100E7000408A88468146002442F210776A464146FD
:100E8000484615B1FFF7C4FE01E0FFF795FE9DED62
:100E9000000A38EE400AF0EEC00A10EE900AB042A6
:100EA00005DC002001B0BDEC028BBDE8F083641CC2
:100EB000A4B2BC4201D30120F4E7642002F09AFC02
:100EC000DCE70000CDCC4C3F90F83510022903D070
:100ED0008021416501207047052180F835100068A8
:100EE000016821F001010160002070472DE9F843FD
:100EF00004464FF00009CDF8009063484FF41651B6
:100F0000A56D0068B0FBF1F72E6894F85C1008201E
:100F100000FA01F131420FD021680A6852070BD55F
:100F20000A6822F004020A6094F85C108840A86005
:100F3000606D40F00100606594F85C104FF00108AE
:100F400008FA01F0304208D021684969090604D541
:100F5000A860606D40F00200606594F85C100420A9
:100F60008840304208D021680968890704D5A86004
:100F7000606D40F00400606594F85C1010208840BB
:100F8000304218D021680968090714D5A860206884
:100F90000168490304D50068000308D5A16C07E087
:100FA0000168C90503D4016821F008010160216CC2
:100FB00009B12046884794F85C10202088403042D0
:100FC00031D021680968C9062DD5A86094F835008C
:100FD00005282068016806D0490347D5006800034A
:100FE0001DD4616C1CE021F016010160206841698C
:100FF00021F080014161206C08B9A06C20B120680B
:10100000016821F00801016094F85C103F208840DD
:10101000A86084F8349084F83580216D1FE0E16B7E
:1010200009B120468847606D00282BD0606DC0074D
:1010300014D0052084F835002068016821F00101F2
:1010400001600098401C0090B84203D820680068F6
:10105000C007F6D184F8349084F83580E16C00291B
:1010600010D001B02046BDE8F04308470168C9052B
:10107000D5D4016821F01001016084F8349084F81F
:101080003580CCE7BDE8F883D80300202DE9F04196
:10109000044600F091F906465CB1002584F834500E
:1010A000022084F835002068016821F00101016008
:1010B0000DE00120BDE8F08100F07EF9801B0528DD
:1010C00005D920206065032084F83500F2E7206808
:1010D0000068C007F0D12268116820480140D4E9B7
:1010E00001031843D4E903363343184363691843B3
:1010F000A3691843E3691843236A18430843616AE4
:10110000042903D1D4E90B13194308431060206864
:101110004069666A20F0070130460E430127042823
:101120000CD1A06A0643E06A40B12046FFF7B4FC48
:1011300020B14020606584F83570BAE720684661C8
:101140002046FFF795FC94F85C203F219140816098
:10115000656584F835700020ACE700003F8010F032
:101160002DE9F0410446866D90F8340000250128F1
:101170000DD0012084F8340094F835700020012F40
:1011800007D084F8340002252846BDE8F08102200B
:10119000FBE7022784F8357060652046FFF7A6FC60
:1011A00094F85C103F208840B0602068016841F0EE
:1011B00016010160206C20B12068016841F008012F
:1011C00001602068016841F001010160DCE7000076
:1011D00070B5044600F0F0F80546601C02D00448E3
:1011E0000078044400F0E8F8401BA042FAD370BD38
:1011F000CC0300202DE9F84F00224FF00108032511
:101200004FF00F0E0B6808FA02F42340A3426ED190
:101210004E68012E05D0022E03D0112E01D0122EC1
:1012200012D186684FEA420C05FA0CF7BE43CF682C
:1012300007FA0CF7374387604668A6430C79C4F376
:101240000014944034434460C668570005FA07FC14
:101250008C6826EA0C06BC403443C4604C68022CFF
:1012600001D0122C13D1D40800EB8404A346D4F887
:10127000209054074FEAD46A0EFA0AF629EA0609C2
:101280000E6906FA0AF646EA0906CBF820600668F7
:101290000C7926EA0C0604F00304BC4034430460D5
:1012A0004C68E40065D5364C266846F480462660D6
:1012B000246822F0030604F480440094314C344442
:1012C000A446D4F808489607370F0EFA07F6B44339
:1012D0002D4EB04201D1002624E02C4EB04201D167
:1012E00001261FE02A4EB04202D102261AE040E059
:1012F000284EB04201D1032614E0274EB04201D15E
:1013000004260FE0254EB04201D105260AE0244E06
:10131000B04201D1062605E0224EB04201D1072697
:1013200000E00826BE402643CCF808681E4E34680C
:101330004F689C43FF0300D51C4334601A4C241DA6
:1013400026684F689E43BF0300D51E432660164E95
:10135000083634684F689C43FF0200D51C43346054
:10136000114E0C3634684F689C43BF0200D51C43B5
:101370003460521C102AFFF445AFBDE8F88F00001E
:1013800044380240003001400000024000040240A6
:1013900000080240000C024000100240001402400D
:1013A00000180240001C0240003C01400AB181616B
:1013B00070470904FBE7000001488068704700009F
:1013C000CC03002002488168027811448160704794
:1013D000CC0300200B4810B5016841F40071016096
:1013E000016841F480610160016841F4807101602D
:1013F000032000F08DF8002000F006F800F03EF821
:10140000002010BD003C024010B5014688B000220B
:10141000372000F05DF8372000F04CF81348002426
:10142000016841F020010160006805A900F020007A
:101430000690684600F018F900F036F90C494000B3
:10144000B0FBF1F10C480B4A491E026040F2E73252
:10145000C0E90324C0E9011400F098FB10B1012099
:1014600008B010BD044800F001FCF9E74038024024
:1014700040420F0000140040282900200C4882B090
:10148000016841F480410160006800F480400090F0
:101490000748001F016841F0805101600068002288
:1014A00000F0805000900F21901E02B000F010B8A4
:1014B00044380240002809DB00F01F02012191405E
:1014C0004009800000F1E020C0F8001170470000E2
:1014D000F0B40E4B1B680C46C3F30223C3F107059F
:1014E000042D00D90425191D072901D2002300E08D
:1014F000DB1E012606FA05F1491E214099409E4057
:10150000761E16403143F0BC02F0BABD0CED00E08F
:10151000064900F0070208684FF6FF03184040EA4A
:101520000220034A10430860704700000CED00E001
:101530000000FA052DE9F0470E46050065D0DFF8FA
:101540001481D8F80000F7B200F00F00B04207D2C3
:1015500088F80070D8F8000000F00F00B04254D1B5
:1015600028683D4C810712D5400703D5206840F418
:10157000E05020602878000703D5206840F46040E0
:1015800020602068A96820F0F000084320602878D7
:10159000C0072DD0304968680839012812D00228C8
:1015A00013D0032811D00968890700292DDA216892
:1015B00021F0030101432160FFF7FEFE814641F265
:1015C000883A0EE009688903EFE709688901ECE7CA
:1015D000FFF7F2FEA0EB0901514502D90320BDE857
:1015E000F0872068696800F00C00B0EB810FEFD144
:1015F000D8F80010404601F00F01B14207D907703A
:10160000006800F00F00B04201D00120E7E7287821
:10161000400705D52068E96820F4E05008432060C1
:101620002878000706D52068296920F4604040EA40
:10163000C100206000F058F82168084AC1F3031186
:10164000515CC8400649086006480068FFF7DCFEA8
:101650000020C4E7003C02400838024078810008BE
:10166000D8030020D00300200F2202600C4A136828
:1016700003F003034360136803F0F003836013680F
:1016800003F4E053C36012684FF4E05303EAD2025C
:1016900002610448006800F00F0008607047000015
:1016A00008380240003C02400448054900680968C7
:1016B000044AC1F38221515CC8407047D80300201E
:1016C0000838024088810008044805490068096814
:1016D000044AC1F34231515CC8407047D80300202E
:1016E0000838024088810008154810B5006810F0DD
:1016F0000C02144813D04110042A0FD0082A0ED12E
:101700000F4C241F2268236802F03F025B0207D5BA
:101710002068C0F38810A0FB010106E0084610BD58
:101720002168C1F38811A1FB00010023FEF7A8FD89
:101730002168C1F30141491C4900B0FBF1F010BD23
:10174000083802400024F4002DE9F84F04006ED060
:101750002078DFF83C93C007A9F104054AD009F1CD
:1017600004000168C1F38101012908D00068C0F3B9
:10177000810002280AD1D9F80000400206D5286865
:10178000800337D560680028E1D033E06068B0F5A9
:10179000803F10D0B0F5A02F286810D020F4803002
:1017A0002860286820F4802028606068A8B1FFF7CE
:1017B00003FE06460DE0286840F48030F4E740F46C
:1017C00080202860F7E700BFFFF7F6FD801B642844
:1017D00073D828688003F7D50CE0FFF7EDFD0646C7
:1017E00005E000BFFFF7E8FD801B6428F0D82868FB
:1017F0008003F7D42078DFF89C8280074FF0000A3E
:101800003ED5A348001D016811F00C0F08D00068F8
:10181000C0F3810002280BD1D9F80000400207D4A0
:101820002868800716D5E068012800D112E02BE176
:10183000E068B8B10120C8F80000FFF7BDFD06461A
:1018400005E000BFFFF7B8FD801B0228C0D828685C
:101850008007F7D52868216920F0F80040EAC10028
:1018600028600DE0C8F800A0FFF7A6FD064604E0DA
:10187000FFF7A2FD801B02281FD828688007F7D435
:101880002078000722D5824E83486169703671B195
:1018900001210160FFF790FD074604E0FFF78CFD92
:1018A000C01B022809D830688007F7D50EE0C0F8C1
:1018B00000A0FFF781FD074605E082E0FFF77CFD11
:1018C000C01B02287DD830688007F7D420784007F5
:1018D00068D5DFF8BCB100270BF13C0BDBF800004A
:1018E000C0000BD4DBF8001041F08051CBF80010A1
:1018F000DBF80000012700F080500090674E306850
:10190000C00510D4306840F480703060FFF754FD9B
:10191000009005E0FFF750FD0099401A022850D8CA
:101920003068C005F6D55A4EA0686C3601280FD035
:101930000528306810D020F001003060306820F0B9
:1019400004003060A068B8B1FFF736FD00900FE0EA
:10195000306840F00100F4E740F004003060F7E741
:10196000FFF72AFD0099411A41F28830814266D87A
:1019700030688007F4D50EE0FFF71EFD009007E009
:10198000FFF71AFD0099411A41F28830814256D87A
:1019900030688007F4D42FB1DBF8001021F08051BB
:1019A000CBF80010A069C8B33949091D0968C1F313
:1019B000810102294AD00228504607D0C8F86000A9
:1019C00000E03CE0FFF7F8FC04463BE04746C8F87F
:1019D0006000FFF7F1FC064605E000BFFFF7ECFCF6
:1019E000801B02282BD828688001F7D4D4E907018E
:1019F0000843A16A2A4A490802EB0141626A41EAA6
:101A00008211084394F82C1040EA0161C9F80010D3
:101A100001203866FFF7D0FC044606E036E000BF40
:101A2000FFF7CAFC001B022809D828688001F7D5F7
:101A30002CE000BFFFF7C0FC001B022802D90320E6
:101A4000BDE8F88F28688001F4D41FE00128F7D0A2
:101A5000D9F80000E26900F48001914214D1226AB1
:101A600000F03F0191420FD147F6C071626A014018
:101A7000914209D1A26A00F44031914204D1E16A55
:101A800000F07060884201D00120D9E70020D7E73C
:101A90000438024000004742800E47420070004078
:101AA0000000FFFF7047704710B590F83C20012AF6
:101AB00022D0012280F83C20CA688C6822F440724F
:101AC00022434C6822F4806222430C6822F40062B4
:101AD00022430C6922F4805222434C6922F40052C2
:101AE0002243C969002322F480420A4301684A6400
:101AF00080F83C30002010BD022010BD70B590F879
:101B00003C20012A32D0012480F83C40022280F897
:101B10003D2003685A689D6822F070060A683243C7
:101B20005A60134B02689A4214D0B2F1804F11D020
:101B3000104B9A420ED0104B9A420BD00F4B9A4248
:101B400008D00F4B9A4205D00E4B9A4202D00E4B52
:101B50009A4204D1496825F080031943916080F8C6
:101B60003D40002180F83C10084670BD022070BD49
:101B7000000001400004004000080040000C00404C
:101B800000040140004001400018004010B504006E
:101B900003D094F83D0010B107E0012010BD0020F3
:101BA00084F83C00204600F00DF8022084F83D0047
:101BB000211D206801F0CEFE012084F83D000020A8
:101BC00010BD000008B52349026823488A4211D19C
:101BD000016841F0100101600068002200F010006F
:101BE000009005213620FFF773FCBDE80840362041
:101BF000FFF760BC1849194B091D9A4207D10868C4
:101C000040F400300860086800F4003009E0144B2C
:101C10009A4208D1086840F480200860086800F4FF
:101C20008020009008BD0F498A4207D1016841F029
:101C300080010160006800F08000F2E70A498A42F2
:101C4000F0D1016841F480710160006800F4807097
:101C5000E7E7000000100040403802400044014027
:101C600000480140001C0040002000400168CA6894
:101C700042F00102CA600068816801F0070106298C
:101C800003D0016841F001010160002070472DE997
:101C9000F0410D46040003D094F83D0018B108E06F
:101CA0000120BDE8F081002084F83C00204600F0CF
:101CB0003BF8022084F83D002068816844F2070266
:101CC00091438160211D206801F044FE22689068E4
:101CD0009169166A2B68AF69034340F20330814370
:101CE00041EA0721A868EF6908434FF6FC418843A1
:101CF000E96840EA0720014328692F6A000140EAA9
:101D00000730084369686D6926F0AA0646EA05159A
:101D1000294393602268906120680162012084F861
:101D20003D000020BDE70000F0B587B00446142157
:101D30006846FEF7EFFA57492368002455481039E2
:101D40000225554A554EB3F1804F27D0544FBB4220
:101D500058D1026842F002020260006800F00200FE
:101D60000590086840F0020008600868694600F0C5
:101D70000200059030200090CDE901543046CDE9B5
:101D80000345FFF737FA002205211D20FFF7A0FBCE
:101D90005FF01D00FFF78EFB07B0F0BD036843F056
:101DA00001030360006800F001000590086840F03E
:101DB00001000860086800F001000590086840F024
:101DC000020008600868012700F00200059020204A
:101DD0000090CDE90154CDE9034769461046FFF76D
:101DE00009FA08200090CDE90154CDE9034769467E
:101DF0003046FFF7FFF9002205211C20FFF768FBA2
:101E00001C20C7E7274FBB4220D1026842F00402E2
:101E10000260006800F004000590086840F00200CD
:101E200008600868694600F002000590C020009034
:101E3000CDE901543046CDE90345FFF7DBF9002237
:101E400005211E20FFF744FB1E20A3E7164EB342D8
:101E5000A2D1036843F008030360006800F00800A3
:101E60000590086840F0010008600868694600F0C5
:101E70000100059003200090CDE901541046CDE902
:101E80000345FFF7B7F9002205213220FFF720FBB9
:101E900032207FE740380240000002400004024048
:101EA0000004004000080040000C004010B504464B
:101EB000006891B1042904D00122002101F0AEFD97
:101EC000206801225FF0040101F0A8FD206801688C
:101ED00041F001010160002010BD01220021F3E763
:101EE000704770B50446006801694FF00005C943AA
:101EF000890715D4C168C943890711D4E91E016156
:101F000001202077206880698007204602D0FFF7F3
:101F1000E7FF04E000F02CF9204600F0DDF925771A
:101F200020680169C943490717D4C168C9434907F3
:101F300013D46FF0040101610220207720688069CA
:101F400010F4407F204602D0FFF7CAFF04E000F003
:101F50000FF9204600F0C0F9257720680169C943D0
:101F6000090716D4C168C943090712D46FF00801E4
:101F70000161042020772068C0698007204602D0D4
:101F8000FFF7AEFF04E000F0F3F8204600F0A4F9FC
:101F9000257720680169C943C90617D4C168C943B8
:101FA000C90613D46FF01001016108202077206862
:101FB000C06910F4407F204602D0FFF791FF04E093
:101FC00000F0D6F8204600F087F9257720680169EF
:101FD000C943C90708D1C168C943C90704D1891ECB
:101FE0000161204600F09CF920680169C943090697
:101FF00009D4C168C943090605D46FF080010161A5
:102000002046FFF74FFD20680169C943490609D4FE
:10201000C168C943490605D46FF0400101612046FB
:1020200000F098F920680169C94389060BD4C1689A
:10203000C943890607D46FF0200101612046BDE83D
:102040007040FFF730BD70BD70B586B004461421F6
:102050006846FEF75FF924683A4D00223A490223A8
:102060003A48AC4211D10C6844F010040C60096885
:1020700001F0100105914FF4D4410091CDE90132F6
:102080000121CDE9032169460DE0314E0325B4421B
:102090000DD10C6844F010040C60096801F01001C7
:1020A0000591602146E0FFF7A5F806B070BD294E06
:1020B0002948B44209D10C6844F002040C60096854
:1020C00001F002010591811534E0244EB44209D19A
:1020D0000C6844F002040C60096801F002010591EB
:1020E000711527E01E4E0925B44209D10C6844F051
:1020F00002040C60096801F002010591F10019E089
:10210000184E1948B44209D10C6844F001040C601F
:10211000096801F00101059140210BE0134EB44222
:10212000C3D10C6844F001040C60096801F001019E
:10213000059180210091CDE90132CDE90325694661
:10214000B1E70000000001403038024000100240BA
:1021500000400140004401400004024000480140AA
:1021600000180040001C0040000002400020004019
:10217000704770B5044690F83C000D4601280DD01C
:10218000012684F83C60022084F83D0042B1042A14
:1021900018D0082A2AD00C2A4DD139E0022070BD6F
:1021A000206801F049FC2068816941F008018161E3
:1021B0002068816921F004018161206881692A69B0
:1021C000114311E0206801F067FC2068816941F447
:1021D000006181612068816921F4806181612068EA
:1021E00081692A6941EA0221816124E0206801F0C5
:1021F00089FC2068C16941F00801C1612068C1699A
:1022000021F00401C1612068C1692A69114311E00C
:10221000206801F0ABFC2068C16941F40061C16134
:102220002068C16921F48061C1612068C1692A699F
:1022300041EA0221C16184F83D60002084F83C003D
:1022400070BD10B5040003D094F83D0010B107E054
:10225000012010BD002084F83C00204600F00CF85E
:10226000022084F83D00211D206801F073FB01204D
:1022700084F83D00002010BD08B5134A01681348DA
:10228000914207D1016841F001010160006800F04E
:10229000010009E00E4A914208D1016841F4803101
:1022A0000160006800F48030009008BD0948814258
:1022B000FBD10648001F016841F040010160006841
:1022C00000F04000F0E70000000001404438024008
:1022D00000400140001800407047000010B504465F
:1022E0000068012201F09AFB0B492068884202D065
:1022F0000A49884203D1416C41F40041416420689D
:10230000816801F00701062903D0016841F001014D
:102310000160002010BD00000000014000040140E9
:1023200010B5044600680849884201D1FFF74AF811
:1023300006492068884205D10548016809B101684D
:10234000491E016010BD0000001400400010004054
:10235000000000207047704770B50268044610689E
:10236000D168536910F00F0F52D003F0010501F44A
:1023700090762E435FD0C20705D0CA0503D5E26B25
:1023800042F00102E263420705D5DA0703D0E26BAF
:1023900042F00202E263820705D5DA0703D0E26B5E
:1023A00042F00402E263020707D501F020022A434B
:1023B00003D0E26B42F00802E263E26B002A33D002
:1023C000800604D5880602D5204601F086FC2068E8
:1023D0004069E16BC0F38010090700D428B32046A0
:1023E00001F064FC2068416949061AD5416921F071
:1023F00040014161606BA0B11B490165606BFEF754
:1024000063FD002810D0606B016DBDE87040084787
:10241000830610D58B060ED52046BDE8704001F02E
:102420005CBC2046FFF797FF70BD2046FFF793FF87
:102430000020E06370BD030606D50B0604D52046D8
:10244000BDE8704001F028BD4006F3D54806F1D53F
:10245000D168204621F04001D160202184F8391054
:1024600000F060FB70BD0000D53B000870B50400B3
:1024700004D094F83900002510B106E0012070BDA9
:1024800084F83850204600F023F8242084F83900DE
:102490002068C16821F40051C160204601F068FC49
:1024A0002068016921F4904101612068416921F0AF
:1024B0002A0141612068C16841F40051C160E563AF
:1024C000202084F8390084F83A00002070BD000014
:1024D0002DE9F04F87B0044614216846FDF71AFF36
:1024E000E948DFF8A0831038D4F800C0E64A02219A
:1024F00003270823DFF894E3002506154FF0010BAE
:102500004FF00069C44535D1D2F800C04CF4002C1E
:10251000C2F800C0126802F400220592026842F07C
:1025200004020260006800F004000590B8028DE823
:102530000308CDE9037369467046FEF75BFED54F8D
:10254000D3483860C7E90195C7E903567D61BD618D
:10255000FD613D6238467D62FEF798FD08B1FEF7E9
:10256000DAFA6763002205213420BC63FEF7B0FF6E
:10257000342052E0DFF82083C44553D1D2F800C0A4
:102580004CF4801CC2F800C0126802F4801205925C
:10259000026842F004020260026802F0040205923E
:1025A000026842F00802026000688A4600F00800F3
:1025B00005904FF48050D846CDE9000ACDE9028756
:1025C0009B46694604937046FEF714FE0420CDE94D
:1025D000000ACDE902876946CDF810B0AF48FEF792
:1025E00009FEAC4FAA48603730383860C7E901951A
:1025F000C7E903567D61BD61FD613D6238467D627C
:10260000FEF744FD08B1FEF786FA67630022052154
:102610003520BC63FEF75CFF3520FEF74BFF07B0AB
:10262000BDE8F08FDFF878824FF0070A4FF0400BDB
:10263000C4454CD1944A121D136843F01003136033
:10264000126802F010020592026842F00102026074
:10265000006800F0010005904FF4C0608DE8A3040D
:1026600069469048FEF7C6FD8A4F8F48C037B0468E
:102670003860C7E90195C7E903567D614FF480369C
:10268000BD61C7E9075638467D62FEF7FFFC08B119
:10269000FEF741FA6763BC63844F8348C7E9035878
:1026A0007D61BD61C7E9075678307D6287E8010A20
:1026B0003846FEF7EBFC08B1FEF72DFA276300223F
:1026C00005212520BC63FEF703FF2520A5E7DFF8E1
:1026D000E081C44535D1136843F4003313601268B8
:1026E00002F400320592026842F0010202600068C2
:1026F00000F0010005900C208DE8A30469466948AC
:10270000FEF778FD694F6248603748303860C7E9A6
:102710000195C7E903567D614FF48030BD61C7E97B
:10272000075038467D62FEF7B1FC08B1FEF7F3F9B9
:102730006763002205212620BC63FEF7C9FE262020
:102740006BE7DFF87081C44548D1136843F48023F8
:102750001360126802F480220592026842F00202BD
:102760000260006800F0020005904FF440608DE8C0
:10277000A30469465048FEF73DFD4C4F4448C0371E
:1027800018383860C7E90195C7E903567D61BD6116
:10279000FD613D6238467D62FEF778FC08B1FEF7C8
:1027A000BAF96763BC63454F3948C7E903567D6191
:1027B000BD61FD613D6218307D6287E8010A3846DF
:1027C000FEF764FC08B1FEF7A6F927630022052195
:1027D0002720BC63FEF77CFE27201EE7384A94457D
:1027E0007FF41DAF284A121DD2F800C04CF0200C17
:1027F000C2F800C0126802F020020592026842F09E
:10280000040202600068049300F004000590C020F8
:102810008DE8A30069467046FEF7ECFC274F22487E
:102820006037183838604FF02068C7E90185C7E97C
:1028300003567D61BD61FD613D6238467D62FEF7F4
:1028400025FC08B1FEF767F96763BC631B4F1648A8
:10285000C0376030C7E903567D61BD61FD613D62EF
:102860007D6287E801093846FEF710FC08B1FEF7E3
:1028700052F92763002205214720BC63FEF728FE9A
:102880004720CAE6004C00404038024000080240A1
:1028900040600240C825002000500040000C02406B
:1028A000001001400000024040640240E826002081
:1028B0000044004000480040000402400828002076
:1028C00000140140F8B5044690F83A0020283CD1A5
:1028D000C1B3BAB394F83800012836D0012084F887
:1028E0003800A162A2850025E563222084F83A0021
:1028F000636B1748D863636B16481864636B16489C
:10290000D864606B134605650846666B216802460D
:102910003046091DFEF724FC2068016841680091DB
:1029200084F83850C16841F48071C1602068416901
:1029300041F0010141612068416941F0400141617C
:102940000020F8BDFFE70120FBE70220F9E70000C7
:102950002F3C00086B3C0008E53B000890F83A303B
:10296000202B22D1F9B1F2B190F83830012B1CD0D4
:1029700081628285C2850021C163222280F83A20CB
:1029800080F838100168CA6842F48072CA60016831
:102990004A6942F001024A610068C16841F02001C1
:1029A000C16000207047012070470220704700007E
:1029B00010B50068084988420CD108480849806869
:1029C000097800F0B1FEBDE8104001220449054835
:1029D000FFF7C4BF10BD0000004C0040BC14002035
:1029E000C80300204824002070472DE9F84304461E
:1029F00090F839001F4616460D46202850D1B5B133
:102A0000AEB194F8380001284AD0012084F838008B
:102A10004FF00008C4F83C80212084F83900FEF70C
:102A2000CBFCA6848146E68484F8388026E0012029
:102A3000BDE8F883E08C401EE084A0684B46B0F50A
:102A4000805F4FF000024FF080012046009703D0D6
:102A500001F053FAE8B90DE001F04FFAC8B928883F
:102A60002168C0F308004860206908B16D1C05E0CA
:102A7000AD1C03E0216815F8010B4860E08C0028CC
:102A8000D8D14B46002240212046009701F035FA6C
:102A900008B10320CCE7202084F839000020C7E7E4
:102AA0000220C5E770B5044690F83900202830D1DF
:102AB00069B362B394F8380001282AD0012084F861
:102AC00038002162A284E2840025E563212084F895
:102AD0003900236B1048D863236B10481864236BAC
:102AE0000F48D864206B134605652668206B321D9D
:102AF000FEF736FB21686FF04000086084F838501C
:102B00002068416941F080014161002070BD0120D1
:102B100070BD022070BD0000753C0008A33C000899
:102B2000E53B000870477047FEE700000EB5224CF9
:102B300001205022207021492148FFF7C3FE1F4E7B
:102B40004FF0FF373946E06804F078FF04F01AFAD6
:102B500000251A48715D803002F056F8C0B220712D
:102B6000012805D06D1C502DF3DB10F0FF0F0ED0A7
:102B7000124A00206946803202EB800393ED8E0AF0
:102B800001EB8003401C83ED000A0328F4DB502294
:102B90000A490B48FFF796FE04F014FA00231A4680
:102BA0006946606A04F016FD00231A466946E06A29
:102BB00004F010FDC6E7000050030020201700209D
:102BC000082500202D4808B5016841F48001016006
:102BD000016801F480010091016841F40011016075
:102BE0000068002200F40010009005210B20FEF781
:102BF0006FFC0B20FEF75EFC002205210C20FEF787
:102C000067FC0C20FEF756FC002205210D20FEF784
:102C10005FFC0D20FEF74EFC002205210E20FEF782
:102C200057FC0E20FEF746FC002205211020FEF77F
:102C30004FFC1020FEF73EFC002205213920FEF754
:102C400047FC3920FEF736FC002205213A20FEF72A
:102C50003FFC3A20FEF72EFC002205214520FEF71E
:102C600037FC4520FEF726FC002205214620FEF712
:102C70002FFCBDE808404620FEF71CBC303802405F
:102C800010B5D4B003220021012004F03BFC674CB6
:102C900003220021E060012004F034FC20610322C3
:102CA0000021012004F02EFC60610322002101209C
:102CB00004F028FCA06100221021012004F022FC75
:102CC000E06100221021022004F01CFC206200229E
:102CD0000C21012004F016FC60620022102101206A
:102CE00004F010FCA06200220C21012004F00AFC78
:102CF000E06200221C21012004F004FC2063002279
:102D00001021012004F0FEFB606300220821012055
:102D100004F0F8FBA06300220421012004F0F2FB80
:102D2000E0631C2242496846FDF7DBFA0021684651
:102D300003F0B2F83E49A0641C221C3107A8FDF73D
:102D4000D0FA002107A803F0A7F83949E0641C2253
:102D500038310EA8FDF7C5FA00210EA803F09CF843
:102D6000334920651C22543115A8FDF7BAFA002119
:102D700015A803F091F82E4960651C2270311CA83B
:102D8000FDF7AFFA00211CA803F086F82849A065DA
:102D90001C228C3123A8FDF7A4FA002123A803F0FC
:102DA0007BF82349E0651C22A8312AA8FDF799FA8F
:102DB00000212AA803F070F81D4920661C22C431A6
:102DC00031A8FDF78EFA002131A803F065F8184903
:102DD00060661C22E03138A8FDF783FA002138A88C
:102DE00003F05AF81249A0661C22FC313FA8FDF7F7
:102DF00078FA00213FA803F04FF8E0661C220D4945
:102E000046A8FDF76EFA002146A803F045F80949E7
:102E100020671C221C314DA8FDF763FA00214DA844
:102E200003F03AF8606754B010BD00005003002072
:102E300020800008388100082DE9F04387B0142174
:102E40006846FDF767FA3F480024016841F0100129
:102E50000160016801F010010591016841F0040171
:102E60000160016801F004010591016841F08001F1
:102E70000160016801F080010591016841F00101E4
:102E80000160016801F001010591016841F0020152
:102E90000160016801F002010591016841F008013B
:102EA00001600068284F00F008000590002246F2FB
:102EB00007213846FEF77AFADFF89090002241F2B7
:102EC00002014846FEF772FADFF884804FF47F462D
:102ED000002231464046FEF769FA46F2042000908F
:102EE0000125CDE90154694638460394FEF782F97D
:102EF00028030090CDE90154694648460394FEF743
:102F000079F90096CDE90154694640460394FEF7ED
:102F100071F9E8038DE8310069460E48FEF76AF959
:102F200003208DE8310069463846FEF763F9022038
:102F30008DE8310069464846FEF75CF907B0BDE808
:102F4000F0830000303802400008024000100240C8
:102F5000000C02400000024010B588B01C216846F9
:102F6000FDF7D8F91548144900240160A721C0E9EC
:102F7000011444F61F61C0E903148461FEF706FEE4
:102F800008B1FDF7C8FD0D48FFF75BF908B1FDF783
:102F9000C2FD6020CDE90004029400226946074882
:102FA0000494FFF7E6F808B1FDF7B5FD0348FFF715
:102FB0004BF808B010BD0000004401400823002079
:102FC00010B588B01C216846FDF7A4F915481449CE
:102FD00000240160A721C0E9011444F61F61C0E983
:102FE00003148461FEF7D2FD08B1FDF794FD0D488E
:102FF000FFF727F908B1FDF78EFD6020CDE9000449
:1030000002940022694607480494FFF7B2F808B119
:10301000FDF781FD0348FFF717F808B010BD000069
:10302000004801404823002010B588B01C216846A4
:10303000FDF770F916481549002401605321C0E9D5
:10304000011444F61F61C0E903148461FFF7F9F825
:1030500008B1FDF760FD6020CDE900040294002274
:1030600069460B480494FFF784F808B1FDF753FD57
:10307000042269460648FFF77CF808B1FDF74BFDCE
:103080000348FEF7E1FF08B010BD00000018004043
:103090008823002010B588B01C216846FDF73AF956
:1030A000154814490024016040F28F61C0E9011401
:1030B00040F2E731C0E903148461FEF767FD08B10F
:1030C000FDF729FD0C48FFF7BCF808B1FDF723FD1B
:1030D0006020CDE900040294002269460648049469
:1030E000FFF747F808B1FDF716FD0348FEF7ACFF00
:1030F00008B010BD001C0040C823002010B588B0E7
:103100001C216846FDF706F91548144900240160A2
:1031100040F28F61C0E9011440F2E731C0E90314C5
:103120008461FEF733FD08B1FDF7F5FC0C48FFF7AD
:1031300088F808B1FDF7EFFC6020CDE900040294A7
:103140000022694606480494FFF713F808B1FDF71A
:10315000E2FC0348FEF778FF08B010BD00200040F5
:103160000824002010B592B000240F941C2168465A
:103170001094FDF7CFF8202107A8FDF7CBF82C48D5
:103180002A4901601021C0E9011440F2E731C0E989
:10319000031444618461FFF754F808B1FDF7BBFCE8
:1031A0000F940FA922481094FEF7A8FC08B1FDF770
:1031B000B2FC6020CDE900040294039404940594C9
:1031C000002269461A480694FEF7D3FF08B1FDF7BE
:1031D000A2FC042269461648FEF7CBFF08B1FDF7B2
:1031E0009AFC082269461248FEF7C3FF08B1FDF7B2
:1031F00092FC0C2269460E48FEF7BBFF08B1FDF7B2
:103200008AFC0794089409944FF400500A94CDE97D
:103210000B4007A906480E94FEF746FC08B1FDF7DF
:103220007AFC0348FEF710FF12B010BD0000014009
:103230004821002010B58CB024216846FDF76AF8BB
:103240000024154809944FF080410A94C0E9001405
:103250004FF45251C0E90241046184610320CDE979
:1032600000040120CDE902040494CDE9054007944F
:10327000694609480894FEF70AFD08B1FDF74BFCC2
:10328000099409A904480A94FEF738FC002801D0E3
:10329000FDF741FC0CB010BD8821002010B58CB0AA
:1032A00024216846FDF736F800241648099414498D
:1032B0000A94C0E900144FF45251C0E9024104617C
:1032C00084610320CDE900040120CDE902040494C7
:1032D000CDE90540079469460A480894FEF7D7FCF3
:1032E00008B1FDF718FC099409A906480A94FEF7ED
:1032F00005FC002801D0FDF70EFC0CB010BD00004D
:1033000000040040C821002010B58CB0242168467C
:10331000FDF700F800241648099414490A94C0E9FE
:1033200000144FF45251C0E902410461846103204A
:10333000CDE900040120CDE902040494CDE9054063
:10334000079469460A480894FEF7A1FC08B1FDF706
:10335000E2FB099409A906480A94FEF7CFFB00286E
:1033600001D0FDF7D8FB0CB010BD000000080040F4
:103370000822002010B58CB024216846FCF7CAFF53
:1033800000241648099414490A94C0E900144FF423
:103390005251C0E90241046184610320CDE9000477
:1033A0000120CDE902040494CDE905400794694663
:1033B0000A480894FEF76BFC08B1FDF7ACFB0994D2
:1033C00009A906480A94FEF799FB002801D0FDF7E9
:1033D000A2FB0CB010BD0000000C004048220020F1
:1033E0001CB500240E4800940C490194016053213F
:1033F000C0E9011442F20F718461C160FEF7C6FB9F
:1034000008B1FDF788FB0094694605480194FEF772
:1034100075FB002801D0FDF77EFB1CBD00100040AD
:103420008822002010B588B01C216846FCF772FF86
:103430001648154900240160A721C0E9011444F68B
:103440001F61C0E903148461FEF7FBFE08B1FDF7BC
:1034500062FB6020CDE900040294002269460B481B
:103460000494FEF786FE08B1FDF755FB0422694679
:103470000648FEF77EFE08B1FDF74DFB0348FEF758
:10348000E3FD08B010BD000000400140C82200204C
:103490000C4810B50A4901604FF4E1314160002148
:1034A00081600C22C160C0E904128161C161FEF734
:1034B000DDFF002803D0BDE81040FDF72CBB10BD98
:1034C000004C0040482400200C4810B50A49016017
:1034D0004FF4E1314160002181600C22C160C0E9FC
:1034E00004128161C161FEF7C1FF002803D0BDE86D
:1034F0001040FDF710BB10BD005000408824002094
:103500000C4810B50A4901604FF4E13141600021D7
:1035100081600C22C160C0E904128161C161FEF7C3
:10352000A5FF002803D0BDE81040FDF7F4BA10BD98
:1035300000100140C82400200C4810B50A49016061
:103540004FF4E1314160002181600C22C160C0E98B
:1035500004128161C161FEF789FF002803D0BDE834
:103560001040FDF7D8BA10BD0044004008250020E7
:103570000C4810B50A4901604FF4E1314160002167
:1035800081600C22C160C0E904128161C161FEF753
:103590006DFF002803D0BDE81040FDF7BCBA10BD98
:1035A00000480040482500200C4810B50A49016039
:1035B0004FF4E1314160002181600C22C160C0E91B
:1035C00004128161C161FEF751FF002803D0BDE8FC
:1035D0001040FDF7A0BA10BD00140140882500205E
:1035E000FEE70000144A08280ED00A2814D00C2840
:1035F0001AD00E2807D1106820F4404010601068DF
:1036000040EA813010607047106820F4407010600C
:10361000106840EA0120F5E7106820F4406010606F
:10362000106840EA8120EDE7106820F440501060F7
:10363000106840EA0130E5E7140C0240FEE700B5EF
:1036400003895B1E00F003F8181A80B200BD82885F
:10365000C1888A4203D90089511A401A00E0881AA9
:1036600080B27047F0B50746FFF7F1FF0024064629
:10367000254606E0A9B2384600F007F82044C4B257
:103680006D1CB542F6DB2046F0BD10B50C46034676
:10369000FFF7DDFFA04201D8002010BD9888641C10
:1036A00019892044B0FBF1F201FB1200196880B2C5
:1036B000085C10BD026000228280C280491C01812A
:1036C000114603E003685A54491C89B203898B42AE
:1036D000F8D8704710B50446FFF7B1FF2189491E9D
:1036E00089B2884201D1012010BD002010BD00B573
:1036F000FFF7A5FF08B1002000BD012000BD10B5F7
:103700000446FFF7E7FF08B1002010BDA08821891B
:10371000401CB0FBF1F201FB120081B2A1802268D3
:103720000023505C535410BD30B50D460446FFF7DE
:10373000DEFF10B12046FFF7E2FFE0882189401C40
:10374000B0FBF1F201FB120080B2E08021680D5461
:1037500030BDFFF7D4BFFFF7E7BFF0B515460E4603
:103760000746002405E0315D3846FFF7DDFF641CA5
:10377000A4B2AC42F7D3F0BD03B501A90222FFF712
:10378000ECFF0CBD03B501A90222FFF7E6FF0CBD5B
:10379000044C206880F400502060642002F070FB2C
:1037A000F7E700001408024001B5044900980860DA
:1037B0000348016841F00101016008BD00000020DC
:1037C00000100040044900200860044801684FF6DA
:1037D000FE721140016070470000002000100040A0
:1037E0000348006808B100207047012070470000BE
:1037F0000000002001B403490098086001B000F007
:1038000019B800000000002010B5502080F3118886
:10381000BFF34F8FBFF36F8F04F06CFA18B10449F8
:103820004FF080500860002080F3118810BD000028
:1038300004ED00E00748016841F00101016006491C
:103840000A68002AFCD101684FF6FE72114001603F
:1038500070470000001000400000002030B593B019
:1038600030216846FCF756FD14210CA8FCF752FDE8
:103870001D480025016841F080510160006800F09A
:10388000805011901948016841F48041016000683E
:10389000022400F480401190012003901020049035
:1038A000009406940820CDE90750A820CDE909042A
:1038B00004200B906846FDF747FF08B172B6FEE79B
:1038C0000CA90F2081E831004FF4A0500F904FF465
:1038D0008050109005210CA8FDF72CFE002801D087
:1038E00072B6FEE713B030BD4038024000700040B1
:1038F0000548016841F47001016003494FF0006020
:10390000803908607047000088ED00E00148FEF74C
:10391000E8BA0000882100200148FEF7E2BA000062
:10392000C82100200148FEF7DCBA00000822002070
:103930000148FEF7D6BA0000482200200148FEF7F1
:10394000D0BA0000882200200148FEF7CABA000061
:1039500028290020F0B50268254C264D264E274F19
:10396000274B4FF0804CA04209D0604507D0A842B9
:1039700005D0B04203D0B84201D0984204D122F021
:10398000700E4A6842EA0E02A0421BD0604519D070
:10399000A84217D0B04215D0B84213D0984211D0E7
:1039A000184DA8420ED0184DA8420BD0174DA84272
:1039B00008D0174DA84205D0164DA84202D0164D8A
:1039C000A84203D122F44075CA682A434D6922F007
:1039D00080022A4302608A68C2620A688262A04248
:1039E00001D0984201D10969016301214161F0BD13
:1039F000000001400004004000080040000C0040AE
:103A000000040140004001400044014000480140E2
:103A100000180040001C00400020004010B501F0DC
:103A20001F030121046A99408C430462016A9A4091
:103A30001143016210BD0000F0B5026A22F00102DC
:103A40000262036A42688469124E24F073050C68AE
:103A50002C4323F002058B682B430D4DA84201D067
:103A6000B04205D123F00807CB683B4323F00403A1
:103A7000A84201D0B04205D14D6922F440721543ED
:103A80008A692A4342608461496841630362F0BDE8
:103A90000000014000040140F0B5026A22F010026B
:103AA0000262026A436884690D6824F4E64444EAC9
:103AB00005248D6822F0200242EA05120F4D104EB7
:103AC000A84201D0B04206D1CF6822F0800242EA7B
:103AD000071222F04002A84201D0B04207D14D693E
:103AE00023F4406343EA85038D6943EA8503436019
:103AF0008461496881630262F0BD000000000140FA
:103B000000040140F0B5026A22F480720262026A87
:103B10004368C46922F4007224F073050C68124EE5
:103B20002C438D6842EA05220E4DA84201D0B042D6
:103B300006D1CF6822F4006242EA072222F48062B2
:103B4000A84201D0B04207D14D6923F4405343EA63
:103B500005138D6943EA05134360C4614968C16375
:103B60000262F0BD000001400004014030B5026A6D
:103B700022F480520262046A4268C3690D6823F429
:103B8000E64343EA05238D6824F4005444EA0534EF
:103B9000084DA84202D0084DA84204D14D6922F434
:103BA000804242EA85124260C3614968016404624E
:103BB00030BD000000000140000401400148FEF754
:103BC000CBBB0000482400200148FEF7C5BB000025
:103BD0008824002010B5806B0021C185C184FEF7C8
:103BE000BAFB10BD70B5846B2068406994F8391039
:103BF000C0F3C0100025212904D118B1E584204666
:103C000000F062F82068406994F83A10C0F3801020
:103C1000222904D118B1E585204600F047F8E06B71
:103C200040F01000E0632046FEF795FB70BD10B534
:103C30000146806B09680968C90513D40021C18554
:103C40000168CA6822F48072CA6001684A6922F079
:103C500001024A6101684A6922F040024A6120215A
:103C600080F83A10FEF7A4FE10BD10B5806BFEF789
:103C7000BBFE10BD10B50146806B09680968C90517
:103C80000CD40021C18401684A6922F080024A6193
:103C90000068C16841F04001C16010BDFEF742FFFD
:103CA00010BD10B5806BFEF73EFF10BD0168CA68FD
:103CB00022F49072CA6001684A6922F001024A61E6
:103CC000202180F83A1070470168CA6822F0C002CB
:103CD000CA60202180F83910704710B590F83A106A
:103CE000222901D0022010BD8168B1F5805F11D07A
:103CF0000169002901681FD0496801F07F03816ACA
:103D00004A1C82620B70C18D491E0904090CC185D1
:103D100018D02BE00269816A002A0268526805D037
:103D2000D2B20A80816A491C8162ECE7C2F30802C0
:103D30000A80816A891CF7E74A68816A4B1C8362A2
:103D40000A70E0E70168CA6822F02002CA600168D0
:103D5000CA6822F48072CA6001684A6922F00102CE
:103D60004A61202180F83A10FEF722FE002010BDA3
:103D70002DE9F041044600680169E26821F44051F0
:103D8000114301612169A068E26908436169114337
:103D900008432168CA6849F20C639A430243CA6027
:103DA00020684169A26921F4407111434161E069D1
:103DB000192764253226B0F5004F354A3549206869
:103DC0004FF0000806D0884201D0904236D1FDF76E
:103DD0007BFC35E0884201D0904202D1FDF774FCB3
:103DE00001E0FDF761FC61684A18A0FB070148EBA0
:103DF0000803FCF745FA0146B0FBF5F00201B1FB00
:103E0000F5F06FF01803584301EB800006EBC0009B
:103E1000B0FBF5F000F0F80002EB4002B1FBF5F06A
:103E2000584301EB800006EBC000B0FBF5F000F05A
:103E30000700216810448860BDE8F081FDF734FC7C
:103E400061688B0F8A00A0FB0701FCF719FA014695
:103E5000B0FBF5F06FF01802504301EB800006EB69
:103E60000010B0FBF5F000F0F002B1FBF5F002EB52
:103E70000012B1FBF5F06FF01803584301EB80001E
:103E800006EB0010B0FBF5F000F00F00D1E70000EA
:103E9000001401400010014090F83910212901D090
:103EA000022070478168B1F5805F016A0BD04A1C1F
:103EB0000262026809785160C18C491E0904090C2C
:103EC000C1840ED017E009880268C1F3080151606F
:103ED00001690029016A02D0491C0162ECE7891CD2
:103EE000FBE70168CA6822F08002CA600068C16806
:103EF00041F04001C160002070472DE9F041984633
:103F000017460E460446069D1DE0681C1BD02DB1C9
:103F1000FDF752FAA0EB0800A84214D92068C16846
:103F200021F4D071C1602068416921F00101416133
:103F3000202084F8390084F83A00002084F8380002
:103F40000320BDE8F0812068006836EA000004D054
:103F50000020B842D9D00020F3E70120F9E70000A3
:103F60000148FEF7F9B90000C82400200148FEF717
:103F7000F3B90000082500200148FEF7EDB9000064
:103F8000482500200148FEF7E7B9000088250020F9
:103F9000FEE7000070B505460024291964230122BC
:103FA0000348FEF722FD641C285D0028F5D170BD92
:103FB0008825002010B5044606E06068FFF79FFBE7
:103FC0000146206800F006F86068FFF740FB002813
:103FD000F3D110BD13B56423012201A9FEF705FD3D
:103FE0001CBD000070B5054600244FF47A762919EF
:103FF000334601220348FEF7F8FC641C285D0028C4
:10400000F5D170BD4825002001A0FFF7C3BF000017
:104010004400000001A0FFF7E5BF000042000000DF
:1040200001A0FFF7DFBF00004100000001A0FFF783
:10403000D9BF0000440000000FB4054B10B503A920
:10404000044A029800F0FEF810BC5DF814FB000072
:10405000F55A00083C0400200FB4084B10B504A921
:1040600002AA039800F0EEF8044602A9002000F02E
:1040700080FC204610BC5DF814FB0000734900086A
:104080000907090E002804DB00F1E02080F8001485
:10409000704700F00F0000F1E02080F8141D704719
:1040A00002E008C8121F08C1002AFAD17047704701
:1040B000002001E001C1121F002AFBD1704700005F
:1040C0002DE9FF5F82B00021DDE90430020DDDF84B
:1040D00040B0034318D044F61050A2F2FF324243DE
:1040E0001514119801281FD0A5EB0B00401C5FEAA6
:1040F000000A4FF000064E4FDFF83891B0465046A8
:1041000015D5CAF1000413E0119801244AA301282F
:1041100001D16FEA0B010298119AC0E90031C0E9A0
:10412000024206B0BDE8F09FCBF10000DFE7044695
:104130000021404A491842EB0450CDE9001012E03A
:10414000E00707D032463B4640464946FCF713FBA2
:104150008046894632463B4610461946FCF70BFB23
:1041600006460F466410002CEAD1DDE90401DDE9C2
:104170000023BAF1000F06DAFCF7FDFA42464B467F
:10418000FCF7F9FA05E0FCF7D7F842464B46FCF796
:10419000D3F804460E460022284BFCF777FB03D8E1
:1041A0004FF0FF30014607E00022254B2046314604
:1041B000FCF73AFAFCF751FB102409E0002C0ADB6B
:1041C0000A220023FCF75CF8039B30321A55641E68
:1041D00050EA0102F2D1641C039AC4F111031444A1
:1041E000119A012A03D0012208430DD10AE00843A5
:1041F00004D000204FF0110B119072E7A3EB0B05D8
:104200006D1E0DE05B4504DD4FF0000205F1010578
:1042100004E003DA4FF00002A5F10105002AECD01A
:1042200002981199C0E90231C0E9004579E7000020
:10423000000014400000F03F300000000000F04398
:104240000000E03F2DE9FF4F95B09B4689460646AA
:1042500000250FE2252877D100242746F84A0121BE
:10426000059400E0044316F8013F203B01FA03F0F7
:104270001042F7D130782A2811D06FF02F03307810
:10428000A0F13002092A16D8059A44F0020402EB84
:10429000820203EB42021044761C0590EFE759F8C6
:1042A000042B0592002A03DA504244F4005405908E
:1042B00044F00204761C30782E2816D116F8010F2F
:1042C00044F004042A280DD06FF02F023078A0F1BA
:1042D0003003092B09D807EB870302EB4303C71808
:1042E000761CF3E759F8047B761C30786C280FD0E5
:1042F00006DC4C2817D068280DD06A2814D104E0B9
:10430000742810D07A280FD10DE044F400140AE08C
:1043100044F4801401E044F440147278824202D1E3
:1043200004F58014761C761C307866280BD013DCDC
:10433000582877D009DC002875D04528F6D04628C3
:10434000F4D047281AD19DE118E0632835D06428BD
:1043500079D0652812D195E1702873D008DC6728E0
:10436000F1D069286FD06E280DD06F2806D1B5E046
:1043700073282CD0752875D0782874D05A46179990
:1043800090476D1C75E1C4F30250022809D0032840
:104390000DD0D9F8001004280DD00D6009F10409E2
:1043A00067E1D9F80010EA17C1E90052F6E7D9F839
:1043B00000100D80F2E70D70F0E719F8041B8DF87E
:1043C000001000208DF80100EA46012003E059F8B2
:1043D00004AB4FF0FF3061074FF0000102D40DE055
:1043E00008F101018846B9420FDA8045F8DB1AF876
:1043F00008100029F4D108E008F101018846814243
:10440000FADB1AF808100029F6D105985B46A0EBF4
:10441000080721463846179A00F094FA284400EB22
:10442000080507E04DE029E10DE01AF8010B5A46B6
:1044300017999047B8F10108F7D25B4621463846F4
:10444000179A13E142E00A220092C4F302524FF09D
:10445000000A022A08D059F804CB032A4FEAEC716B
:104460000AD00DE029E02AE009F1070121F0070256
:10447000F2E802C1914609E00FFA8CFC4FEAEC71B8
:10448000042A03D14FFA8CFC4FEAEC71002907DAB9
:104490000A460021DCF1000C61EB02012D2202E052
:1044A000220504D52B228DF80420012203E0E20727
:1044B00001D02022F7E7904659E00A2102E01022BD
:1044C0000DE010214FF0000A00910BE010224FF098
:1044D000000A44F004040827009203E008224FF089
:1044E000000A0092C4F30252022A05D059F804CB04
:1044F0000021032A08D009E009F1070121F0070291
:10450000F2E802C1914605E01FFA8CFC042A01D1B1
:104510000CF0FF0C4FF00008220728D5702806D0B9
:10452000009B83F0100353EA0A0305D00EE04022FB
:104530008DF80420012208E05CEA010206D0302256
:104540008DF804208DF8050002229046009B83F030
:10455000080353EA0A030AD15CEA010201D16207A7
:1045600005D530228DF804204FF001087F1E582811
:1045700004D034A003900EA802900DE036A0F9E715
:1045800053466046009AFBF77BFE84460398825CA4
:104590000298401E029002705CEA0100F0D102987D
:1045A00006A9081A00F1200A600702D524F4803415
:1045B00000E00127574502DDA7EB0A0000E00020DC
:1045C00000EB0A01009005984144401A0590E00371
:1045D00006D45B462146179A059800F0B3F90544C6
:1045E000002706E001A85A46C05D179990476D1C48
:1045F0007F1C4745F6DBE0030CD55B462146179A46
:10460000059800F09FF9054404E030205A461799B8
:1046100090476D1C0099481E00900029F5DC08E0C9
:10462000029802995A460078491C029117999047BE
:104630006D1CBAF10001AAF1010AF1DC65E100008C
:104640000928010030313233343536373839616268
:10465000636465660000000030313233343536372C
:1046600038394142434445460000000000F058F903
:104670000544761C307800287FF4ECAD19B028464C
:10468000BDE8F08F620700D4062709F1070222F087
:10469000070CFCE80223E14603F000485FEA080C3F
:1046A00002D00FF2702C0DE05FEA045C02D50FF22D
:1046B000682C07E05FEAC47C02D00FF2602C01E0B6
:1046C000AFF2700C4FF0FF3823F00043CDF850C02C
:1046D00065280CD006DC452809D046281DD047287F
:1046E0003DD13DE0662818D067287ED138E0002112
:1046F000112F01DB112000E0781CCDE9000106A993
:104700000EA8FFF7DDFCDDE90F010E9A03910021F1
:10471000009207F1010A04914DE04FF0004000972C
:10472000CDE9011006A90EA8FFF7CAFCDDE90F02CA
:1047300003920E9B11990022DDF80CA000930492C5
:1047400011B9791C00EB010AB7EB0A0004D4C0F1DF
:10475000FF3007F1010A0490AAEB0700019044E042
:10476000012F00DA01270021112F01DD112000E0C7
:104770003846CDE9000106A90EA8FFF7A1FCDDE946
:104780000F010E9A0391002104910092BA4621076D
:104790000CD40399514500DA8A46BAF1010F05DDC0
:1047A000009AAAF10101515C302908D0B84202DA1E
:1047B00010F1040F06DA0121CDE9011015E0AAF18C
:1047C0000101E9E7002805DC049901440491AAEB02
:1047D000000102E0411C514500DD8A460499401A5F
:1047E000401C01904FF000400290200704D4019833
:1047F000504501DBCDF8048000208DF84F00029871
:104800000DF14F07B0F1004F25D02B200E900298EC
:104810004FF0020800280CDA404202902D200E9042
:1048200007E00A210298FBF736FE3031029007F8C4
:10483000011DB8F10001A8F10108F2DC029800287E
:10484000EFD1791E0E980870307800F0200040F00B
:10485000450007F8020D12A8C01B00F107081498C4
:10486000007800B1012000EB0A01019801EBE07132
:1048700005984144401A401E0590E00306D45B466B
:104880002146179A059800F05DF8054414980078C1
:1048900018B15A46179990476D1CE00324D55B4622
:1048A0002146179A059800F04DF805441CE004983D
:1048B000002807DBDDE90301884203DD0098405C46
:1048C000179901E0179930205A469047049805F14E
:1048D0000105401C04900198401E019004D12E2037
:1048E0005A46179990476D1CBAF10001AAF1010AC6
:1048F000DDDC05E017F8010B5A46179990476D1C4F
:10490000B8F10001A8F10108F4DC5B462146179AD2
:104910000598ABE62D0000002B00000020000000F1
:104920002DE9F041044600251E461746880404D4AC
:1049300005E039462020B0476D1C641EF9D5284695
:10494000BDE8F0812DE9F041044600251E46904661
:10495000C80301D5302700E02027880404D505E0EE
:1049600041463846B0476D1C641EF9D52846BDE85F
:10497000F0810A68531C0B601070704710B5F0EEA0
:10498000603A0346B0EE404A9FED293ADFED292A0E
:104990009FED292AF0EE610A00F0E4FA10EE100A09
:1049A0002649884207DDBDE81040F0EE630AB0EE0C
:1049B000440A00F073BBF0EE610AB0EE440A00F066
:1049C000D1FA1F491F4AD1ED020A70EE800A10EE9B
:1049D000900AC1ED020A904202DDDFED1B0A06E0FB
:1049E00010EE900A194A904201D3DFED190A20EE29
:1049F000031AC1ED020A81ED030A30EE400A00EE0F
:104A0000A21A4FF47A7000EE021ABDEEC10A10EE3F
:104A1000102A824202DC4042824200DC024699189F
:104A2000981ABDE810400B46024602F04BB8000051
:104A3000666666408FC2F53D000000000000F04150
:104A4000040000200060EA460060EA460060EAC612
:104A50000060EAC62DE9F0410024069E40F21D15D3
:104A600006FB0546B0EE604AF0EE404A4FF448754A
:104A700027469FED583ADFED582A9FED582ADFED83
:104A8000583ADFED580A584CD4F824C0B44505D044
:104A9000DFF858C18CE80F00666211E0534FD7F879
:104AA00000C0A0EB0C0008447968401AB9681044B3
:104AB000401AF9681844401AC11700EB917087102A
:104AC000F11B00EE101AA06A494B0844B8EEC00A68
:104AD000A062226A2E4663EE803A8A1A00EE102AFD
:104AE000B8EEC05AB0EE420A40EE053A00EE100AA7
:104AF000B8EEC00A40EE803ABDEEE30A10EE102A8E
:104B0000AA4201DD324602E09A4200DC1A4641F236
:104B10008833984202DC5B42984200DC18462162EE
:104B20000931A062132908D200231A4619461846F3
:104B300001F0C8FF0120BDE8F081F0EE610AB0EE9F
:104B4000640A00F00FFA10EE100A2A49884206DDC6
:104B5000F0EE440AB0EE640A00F0A0FA38E0F0EE9D
:104B6000610AB0EE640A00F0FDF9D4ED060A2249AC
:104B700070EE800A10EE900AC4ED060A884202DD4B
:104B8000DFED1E0A06E010EE900A1D49884201D3AF
:104B9000DFED1C0A20EE031AC4ED060A84ED070AB5
:104BA00030EE400A00EEA21A4FF4C87100EE021A6D
:104BB000BDEEC10A10EE100A884202DC494288426A
:104BC00000DC08461118101A02460B4601F07AFF65
:104BD0000020B0E7666666408FC2F53D0000000029
:104BE000CDCCCC3D0AD7233C04000020700400202B
:104BF000E0FCFFFF0000F04100409C4500409C4568
:104C000000409CC500409CC5FEB50B4604680026CC
:104C100000F1080134B1621C02606354741E062A5C
:104C20000CD014E04A780A704B70D1B25A2903D1E3
:104C3000A52B01D1022101600020FEBD4389ADF802
:104C400008304360B3F5FD7F01D9066018E0436882
:104C50009B1D9A42F0DB06600546ADF80860042211
:104C600002A800F013F805F10E0102A86A6800F02E
:104C70000DF8A889BDF80810ADF80000884201D0F1
:104C80002046FEBD284601F031F9FEBDF0B503888F
:104C9000002541F221070CE04C5D002683EA042345
:104CA0005C001B0400D57C40761C2346082EF7D3FD
:104CB0006D1C9542F0D30380F0BD000070B5F0EE9E
:104CC000603A0546B0EE404A9FED2A3ADFED2A2AC7
:104CD000B7EE002AF0EE610A00F044F910EE100A77
:104CE0002649884207DDBDE87040F0EE630AB0EE69
:104CF000440A00F0D3B9F0EE610AB0EE440A00F0C5
:104D000031F91F491F4AD1ED040A70EE800A10EEF6
:104D1000900AC1ED040A904202DDDFED1B0A06E0B5
:104D200010EE900A194A904201D3DFED190A20EEE5
:104D3000031AC1ED040A81ED050A30EE400A00EEC7
:104D4000A21A4FF47A7000EE021ABDEEC10A10EEFC
:104D5000101A814202DC4042814200DC01466C1A9A
:104D60006B186242481941422046BDE8704001F08C
:104D7000A9BE000066662640000000000000F04169
:104D8000040000200060EA460060EA460060EAC6CF
:104D90000060EAC62DE9F0410024069E40F231157C
:104DA00006FB0546B0EE604AF0EE404A4FF4167539
:104DB0002746B3EE043A9FED5E2AF7EE002ADFEDB8
:104DC0005D3ADFED5D0A5D4C4FF0000ED4F838C05F
:104DD000B4450DD0DFF868C1B0EE420A8CE80F0090
:104DE000A66384ED0C0AC4F83CE084ED0B0A08E0ED
:104DF00053490A68C968801A1844401A00EBD070F9
:104E00004710F11B00EE101AE06B4E4B0844B8EE51
:104E1000C00AE063626B63EE803A8A1A00EE102AE1
:104E2000B8EEC05AB0EE420A40EE053A00EE100A63
:104E3000B8EEC00A40EE803ABDEEE30A10EE102A4A
:104E4000AA4204DC9A4201DD154600E01D4647F205
:104E50003052904202DC5242904200DC10466163C4
:104E60000931E063132908D200231A46194618466F
:104E700001F028FE0120BDE8F081F0EE610AB0EEFD
:104E8000640A00F06FF810EE100A2F49884206DD20
:104E9000F0EE440AB0EE640A00F000F946E0F0EEED
:104EA000610AB0EE640A00F05DF810EE100A10F12D
:104EB000814F04D810EE100AB0F17E5F2EDDD4EDE4
:104EC0000B0A224970EE800A10EE900AC4ED0B0A1C
:104ED000884202DDDFED1E0A06E010EE900A1D4951
:104EE000884201D3DFED1C0A20EE031AC4ED0B0A41
:104EF00084ED0C0A30EE400A00EE821A00EE221A0F
:104F0000BDEEC10A10EE100A962801DD962006E0DB
:104F10006FF09501884202DC084600E0002041194C
:104F20002B184A42281A414201F0CCFD0020A2E78A
:104F300000000000CDCCCC3D0AD7233C040000206B
:104F400080040020A8FDFFFF0000F04100401C4647
:104F500000401C4600401CC600401CC60A2000F051
:104F60008FFFFBE730EE600AB5EEC00AF1EE10FAF3
:104F700004DD10EE100A0C49884211DD10EE101A03
:104F80000A48814204D8B5EEC00AF1EE10FA07D9FA
:104F900010EE101ADFED060A814202D930EE200A27
:104FA000704730EE600A704700003443000034C39D
:104FB0000000B4439AB02E4C0A220FA9606A02F096
:104FC000A1FC0A2216A9A06A02F09CFC0A2212A9DE
:104FD000E06902F0FDFB00250DF1280606EB8502D5
:104FE0006D1CE9B2A068FBF7E7FD0A2000F048FF5E
:104FF000ADB2052DF2D301F0C5FF1198FBF71CFAF5
:1050000006460F460E98FBF717FA04460D460D9814
:10501000FBF712FACDE900010C98FBF70DFA824676
:105020008B460B98FBF708FA804689460A98FBF7EF
:1050300003FA41EC100B06A853EC102B80E8F000AB
:10504000DDE90001CDE904018DE8000F09A1114857
:10505000FFF702F80F48FBF768F982B20D490E48D6
:10506000FDF720FD01F0AEFF0A2000F009FFA2E7E6
:1050700050030020252E31662C252E31662C252E3E
:1050800031662C252E31662C252E31662C252E32AC
:10509000660A0000C8140020C824002010B5B0EE35
:1050A0000C2A2DED028BB5EE001A9FED308AF0EE42
:1050B000610AFFF757FF2E4C2E49D4ED000A70EE1F
:1050C000800A10EE900AC4ED000A884202DDDFED8E
:1050D0002A0A06E010EE900A2849884201D3DFED43
:1050E000280A10EE100AC4ED000A84ED010AB0F19E
:1050F0003F4F1AD2F0EE401A11EE900AB0F17C5FE9
:1051000013DA00231A461946184601F0DBFC002387
:1051100084ED008A84ED018A1A461946184601F08A
:10512000D1FC0120BDEC028B10BDF0EE401A4FF413
:10513000FA7161EE821A40EE811AF0EE400A30EE0A
:10514000C00A40EE081ABDEEE10A10EE100A8842CD
:1051500002DC4942884200DC08464042434219468C
:10516000024601F0AFFC0020DCE700000000000078
:105170000400002000007A4400007A4400007AC451
:1051800000007AC42DED028BF8A192B0D1E90001A4
:10519000F84C0027CDE90E013E46B946A06D02F05D
:1051A000A3F80020A070607003460246014601F09B
:1051B00089FCDFF8C4A34FF0050B9FEDF08A0A22AB
:1051C00005A9E06A02F09EFB0A22ED49606B02F03D
:1051D00099FB0A2204A9E06B02F094FB0021A0696C
:1051E00002F02CFC012800D18046002209A9A06B06
:1051F00002F088FB012800D10126A078617888425E
:1052000000D00846A07018287ED2DFE800F00C23FA
:1052100036537D92D4B6F8F6F57DF4F3F27DF17D48
:105220007D7D7D7D7DF04FF487700090D4480DF139
:10523000140CB0EE480A0FC8DCEC030AFFF70AFCB6
:1052400001283FD100231A461946184601F03AFCBE
:105250000120F1E305A8B0EE480AD0EC030AFFF7FD
:105260001DFF0128EDD100231A461946184601F00A
:1052700029FC02F097F8022091E04FF402700090B0
:10528000BF480DF1140CB0EE480A0FC8DCEC030A5D
:10529000FFF780FD0128D4D100231A46194618468D
:1052A00001F010FC02F07EF884F802B084F801B03E
:1052B0000026B0E13EB1BDF82800162807D0FEF761
:1052C000B5FE00261DE2FEF7ABFEC8207FE10023FD
:1052D0001A461946184601F0F5FB02F063F8BDF8CE
:1052E0002A00C0F381218DF83810C0F301218DF818
:1052F0003910C0F381118DF83A10C0F301118DF807
:105300003B10C0F3810100E0E9E38DF83C1000F0B0
:1053100003008DF83D0002F021FEFEF787FE02F04B
:1053200041F80420A0706070002602F017FE584675
:10533000D2E340F2D110009091480DF1140CB0EE80
:10534000480A0FC8DCEC030AFFF784FB0128B9D137
:1053500000231A461946184601F0B4FB02F022F861
:105360000720A070607040F2544060F30F0540F2D7
:105370000970002660F31F451AE0BDF81010A8B2AE
:10538000401A401D0A280DD9BDF81210C1EB154076
:10539000401D0A2806D902F005F807206DE1A0702B
:1053A000607038E101F0FEFF0920A07060700026F7
:1053B000FEF73CFE2FE14EB1BDF828000B280CD0C3
:1053C000FEF734FE00264FF4FA7000E14FF4FA7055
:1053D00000F056FDFEF71EFE84E300231A46194630
:1053E000184601F06FFB01F0DDFF082011E126E314
:1053F0005BE050E130E111E1FFE0EDE0FFE7252F58
:1054000079D2DFE807F013284254687D94E7E7E794
:10541000E7A3A7ABAFE7E7E7E7E7E7E7C3C7CBCF8C
:10542000E7E7E7E7E7E7E7D3D7DBDF00B8F1010F0E
:1054300078D0DAE90412DAF818000091CDE90120F9
:105440000AF1040090E80E00DAF8000001F02CFBED
:10545000BAF81800BBE0B8F1010F12D0E0780328C9
:105460006FD0454A803207CA8DE807000AF1740000
:1054700090E80E00DAF8700001F016FBBAF8880028
:105480004DE04FF0000802272CE30EA9E078BDF9AB
:1054900026200956914205D1401CE070D0B2032766
:1054A00010901FE337A0FEF7C7FD64208FE0B8F12E
:1054B000010F0CD0304A9C3207CA8DE807002E48F5
:1054C0008C300FC801F0F0FABAF8A40027E04FF0D2
:1054D0000008042706E3B8F1010F0DD0264AB832C0
:1054E00007CA8DE807002448A8300FC801F0DCFA8D
:1054F000BAF8C00013E06DE04FF000080527F1E2B4
:10550000B8F1010F0FD01C4AD43207CA8DE807004A
:105510001948C4300FC801F0C7FABAF8DC0000F52A
:10552000FA7054E0EAE04FF000080627DAE210983B
:10553000012804D0022805D00328A5D104E00B27B8
:10554000D0E2DFE02127CDE21627CBE2B8F1010F50
:105550007ED02AE1B8F1010F7BD012E1B8F1010F42
:1055600078D0F9E0B8F1010F75D0E2E00102030054
:105570000000000050030020780000200000000020
:10558000E41E002025642C25640A0000B8F1010FF8
:1055900076D08AE1B8F1010F73D069E1B8F1010F5B
:1055A00070D051E1B8F1010F55D039E1B8F1010FD8
:1055B00069D0EEE1B8F1010F70D0D6E1B8F1010F7A
:1055C0006DD0BEE1B8F1010F45D0A6E1C83000F0C2
:1055D00057FC87E209202FE240F262200090FD484C
:1055E0000DF1140CB0EE480A0FC8DCEC030AFFF70B
:1055F00031FA01289AD10A201EE205A8B0EE480A25
:10560000D0EC030AFFF74AFD01288FD101F0CAFE52
:105610000C206070A07002F0A1FC63E2EE480090E4
:10562000EC480DF1140C94ED110A0FC8DCEC030AE0
:10563000FFF7B0FB012886D101F0B4FE40F2BA704A
:1056400060F30F0540F26A4060F31F450D20E0E76C
:105650007BE08EE0A2E0DCE0BDF81010A8B2401ABA
:10566000401D0A2810D9BDF81210C1EB1540401D8D
:105670000A2809D901F096FE0D20206417208EE635
:10568000DBE0EEE00AE155E101F08CFE0027B846D0
:10569000E7700E2083E6272F6FD201E05EE171E113
:1056A000DFE807F014326B6B6B6B6B6B6B6B6B44EF
:1056B000576C8094A86B6B6B6B6BBBCFE3FBFAF9F9
:1056C0006B6B6B6B6BF8F7F6F5F4F300B8F1010F49
:1056D00014D0E078032815D0DAE90412DAF81800BB
:1056E0000091CDE901200AF1040090E80E00DAF8FB
:1056F000000001F0D9F9BAF8180010E74FF00008DF
:105700000127EFE1FA27EDE10EA9E078095601291A
:1057100004D0022904D00329F3D105E00B2700E0CF
:105720002127401CE070DDE11627FAE7B8F1010FF0
:105730000BD0AA4A07CA8DE80700A84810380FC83E
:1057400001F0B2F9BAF84C0140E74FF000080C271D
:10575000C8E1B8F1010F0CD0A04A1C3A07CA8DE885
:1057600007009E482C380FC801F09EF9BAF83001A6
:105770002CE74FF000080D27B4E147E1B8F1010F25
:105780000CD0964A383A07CA8DE807009348483843
:105790000FC801F089F9BAF8140117E74FF00008B3
:1057A0000E279FE1B8F1010F0CD08C4A543A07CA7A
:1057B0008DE80700894864380FC801F075F9BAF818
:1057C000F80003E74FF000080F278BE1B8F1010F55
:1057D0000CD0824AFC3207CA8DE807007F48EC30C3
:1057E0000FC801F061F9BAF84802EFE64FF000087F
:1057F000102777E1B8F1010F0BD0794A07CA8DE87D
:105800000700774810380FC801F04EF9BAF89C022B
:10581000DCE64FF00008474664E1B8F1010F0CD018
:105820006E4A703207CA8DE807006C4860300FC8B6
:1058300001F03AF9BAF8BC01C8E64FF000081727A2
:1058400050E1B8F1010F0CD0644A543207CA8DE818
:105850000700624844300FC801F026F9BAF8A001E9
:10586000B4E64FF0000818273CE1B8F1010F15D05D
:105870005A4A383207CA8DE80700584828300FC8FE
:1058800001F012F9BAF88401A0E6AFE092E07DE001
:1058900068E053E03EE02DE018E003E04FF0000840
:1058A00019271FE1B8F1010F0CD04C4A1C3207CA6E
:1058B0008DE8070049480C300FC801F0F5F8BAF838
:1058C000680183E64FF000081A270BE1B8F1010FD9
:1058D0000CD0434A1C3A07CA8DE8070040482C38D0
:1058E0000FC801F0E1F8BAF880026FE64FF0000847
:1058F0001B27F7E0B8F1010F8BD0394A383207CABD
:105900008DE80700364828300FC801F0CDF8BAF806
:10591000D4025BE6B8F1010F0CD0314A703A07CAE5
:105920008DE807002E4880380FC801F0BDF8BAF89E
:105930002C024BE64FF000082227D3E0B8F1010F0C
:105940000CD0274A8C3A07CA8DE8070024489C38B7
:105950000FC801F0A9F8BAF8100237E64FF00008B6
:105960002327BFE0B8F1010F0CD01C4AA83207CAA8
:105970008DE80700194898300FC801F095F8BAF87B
:10598000F40123E64FF000082427ABE0B8F1010F43
:105990000CD0124A8C3207CA8DE807000F487C30C1
:1059A0000FC801F081F8BAF8D8010FE64FF00008EF
:1059B000252797E0B8F1010F14D0094A383A07CAF1
:1059C0008DE80700064848380FC801F06DF8BAF8AE
:1059D0006402FBE5E41E0020E4FDFFFFBC010020A3
:1059E0000C0300204FF0000826277BE0B8F1010FE0
:1059F0003FF40FAF3E4A07CA8DE807003C48103815
:105A00000FC801F051F8BAF8B802DFE5DAE904127C
:105A1000DAF818000091CDE901200AF1040090E8BD
:105A20000E00DAF8000001F03FF8BAF8180000F5AF
:105A3000FA7000F025FA10206070A07052E0A8B251
:105A4000BDF810100190401A411D0A290DD90028F7
:105A500001DD322001E06FF0310005A9B0EE480A07
:105A6000D1EC030AFEF78AFF3CE0280CBDF81210C7
:105A70000090401A411D0A290DD9002801DD32206D
:105A800001E06FF0310005A9B0EE480AD1EC030A3D
:105A9000FFF714F926E000231A461946184601F0CC
:105AA00011F8C82000F0ECF9B9F1030F12D2BDF8DB
:105AB00010100198401A001D082813D8BDF81210C4
:105AC0000098401A001D08280CD809F1010000F0C8
:105AD000FF0907E094F84000A070607002E0002029
