:020000040800F2
:10000000486600205D0200083D3600081D2B0008F0
:10001000E13500085B090008ED3F00080000000022
:100020000000000000000000000000009D0100082A
:10003000C90B000800000000F9010008653800083D
:1000400077020008770200087702000877020008AC
:10005000770200087702000877020008770200089C
:10006000770200087702000877020008110A0008EA
:100070001D0A0008610A00086D0A000877020008DE
:10008000790A000877020008770200087702000862
:10009000770200087702000877020008770200085C
:1000A000770200087702000877020008770200084C
:1000B000693900087539000881390008770200089D
:1000C000770200087702000877020008770200082C
:1000D00077020008BD3F0008C93F0008D53F00086F
:1000E000770200087702000877020008770200080C
:1000F00077020008770200087702000877020008FC
:1001000077020008770200088D390008770200089E
:10011000193C0008253C000899390008A539000859
:1001200077020008BD0A0008010B000877020008EA
:1001300077020008770200087702000877020008BB
:1001400077020008770200087702000877020008AB
:10015000770200080D0B0008190B0008E13F0008AA
:10016000770200087702000877020008770200088B
:1001700077020008770200087702000800000000FC
:100180007702000877020008DFF80CD000F096FB39
:1001900000480047C95D0008486600202C4B1968DC
:1001A0000868B0E8F04F80F30988BFF36F8F4FF015
:1001B000000080F3118870470000000008480068C4
:1001C000006880F308884FF0000080F3148862B65E
:1001D00061B6BFF34F8FBFF36F8F00DF00BF00BF6B
:1001E00008ED00E0DFF80C00016841F470010160E7
:1001F000704700BF88ED00E0EFF30980BFF36F8F19
:10020000134B1A681EF0100F08BF20ED108A20E96A
:10021000F04F106009B44FF0500080F31188BFF325
:100220004F8FBFF36F8F06F01DFF4FF0000080F37C
:10023000118809BC19680868B0E8F04F1EF0100F6B
:1002400008BFB0EC108A80F30988BFF36F8F704746
:100250009C040020EFF305807047000006488047AB
:1002600006480047FEE7FEE7FEE7FEE7FEE7FEE79B
:10027000FEE7FEE7FEE7FEE74D39000889010008CA
:100280002DE9F05F0546002092469B4688460646CB
:10029000814640241BE0284641464746224600F05E
:1002A0001FF953465A46C01A914110D311461846B9
:1002B000224600F006F92D1A67EB01084F46224648
:1002C0000120002100F0FDF817EB00094E41201E2F
:1002D000A4F10104DFDC484631462A464346BDE826
:1002E000F09F40EA01039B0703D009E008C9121FF1
:1002F00008C0042AFAD203E011F8013B00F8013BE0
:10030000521EF9D27047D2B201E000F8012B491E0B
:10031000FBD270470022F6E710B513460A460446A2
:100320001946FFF7F0FF204610BD421C10F8011BD4
:100330000029FBD1801A70472DE9F04D81EA0304B2
:1003400004F0004B21F0004514464FF0000A23F062
:10035000004150EA050220D054EA01021DD0C5F345
:100360000A570246C5F31303C1F31300C1F30A563B
:1003700040F4801543F48013A7EB0608101BD64603
:1003800008F2FD3873EB050002D308F1010801E023
:1003900092185B41B8F1000F03DA00200146BDE876
:1003A000F08D00204FF48011064684460EE0171BA6
:1003B00073EB050705D3121B63EB050306434CEAF9
:1003C000010C49084FEA300092185B4150EA0107DE
:1003D000EDD152EA030012D082EA040083EA05015B
:1003E000084305D0101BAB4106D20122002306E0D2
:1003F00000224FF0004302E06FF0010253101AEBAD
:1004000006004CEB085110EB0A0041EB0B01BDE874
:10041000F04D00F0ACB80EB5C10F80EAE0700844B2
:10042000CA07002140F233438DE80E000A460B460E
:1004300000F0ACF803B000BD00F0004230F0004026
:100440000AD0C10D01F56071C0F3160042EA0151F6
:10045000C20840071143704700200146704701F071
:10046000004330B421F0004150EA010206D00A0DE9
:10047000A2F56072C1F31301002A02DC30BC002037
:100480007047440F44EAC104C100E01830BC00EBDF
:10049000C25000F035B830B50B460146002020228E
:1004A000012409E021FA02F59D4205D303FA02F581
:1004B000491B04FA02F52844151EA2F10102F1DCE1
:1004C00030BD202A04DB203A00FA02F100207047F8
:1004D0009140C2F1200320FA03F319439040704782
:1004E000202A04DB203A21FA02F00021704721FA89
:1004F00002F3D040C2F120029140084319467047F0
:100500000029A8BF7047401C490008BF20F0010027
:10051000704710B4B0FA80FC00FA0CF050EA010405
:1005200004BF10BC704749B1CCF1200421FA04F497
:1005300011FA0CF118BF012121430843A3EB0C0170
:10054000CB1D4FEA00614FEA102042BF002010BCD3
:10055000704700EBC35010440029A4BF10BC704783
:10056000401C490008BF20F0010010BC704710B5C6
:10057000141E73F1000408DA401C41F100019218C6
:100580005B411A4301D120F0010010BD2DE9F04D6F
:1005900092469B4611B1B1FA81F202E0B0FA80F2C4
:1005A00020329046FFF78DFF04460F4640EA0A00CE
:1005B00041EA0B0153465A46084313D0114653EA09
:1005C000010019D0C8F140025046FFF789FF0546E7
:1005D0000E46504659464246FFF773FF084305D082
:1005E000012004E020463946BDE8F08D0020054397
:1005F00046EAE0762C4337430A986305E40AA0EB09
:1006000008000022FD0A44EA47540A3002D50020BF
:100610000146E9E7010510196941DDE908450019BE
:100620006941BDE8F04DA2E72DE9FE4F804681EA21
:100630000300C00F0C46009021F0004123F000455C
:10064000B8EB0200A94105D24046214690461C461F
:100650000B46024623F00040104347D0270DC7F356
:100660000A00C3F30A510290401A019040286BDA45
:10067000C3F3130040F4801B0098924620B100237E
:10068000D2EB030A63EB0B0B01985946C0F1400211
:100690005046FFF716FF06460D4650465946019A4A
:1006A00000F01EF910EB08006141002487EA1152A6
:1006B00084EAE7731A4340D0009A62B3019A012A90
:1006C0004FEA075215DC001B61EB02014FF00042BC
:1006D00002EA0752CDE90042001C41F58011324682
:1006E0002B46FFF753FF03B0BDE8F08F404621468D
:1006F000F9E7001B61EB0201001C41F580130018B3
:100700005B412018A2F5001747EB030140EAD570C2
:10071000B6196D4111E06D084FEA360645EAC0751D
:100720004FEA0752001B61EB0201001C41F58011EA
:1007300049084FEA30000019514132462B4603B0B8
:10074000BDE8F04FFFF713BF0098012240000023DF
:10075000D0EB020263EBE073009821464FEAE074AD
:10076000B8EB000061EB0401E9E783F000435BE7CD
:1007700081F0004158E72DE9FE4F81EA030404F0BF
:10078000004421F0004100944FF0000B23F000439F
:1007900050EA01045ED052EA03045BD0C3F30A546A
:1007A000C1F30A552C44A4F2F3340194A0FB025483
:1007B000C1F3130141F48011C3F3130343F4801315
:1007C00001FB024400FB034E840A970A44EA815469
:1007D00047EA8357A4FB076802958D0A05FB078546
:1007E0004FEA932C04FB0C542705029D4FEA065850
:1007F00047EA1637B5EB08056EEB070C870E920E2D
:1008000047EA811742EA8312A7FB0201B6EB0B010C
:1008100064EB00042B0D43EA0C335E1844EB1C50D0
:10082000DA465146E7FB0201C5F313044FEA0B33E6
:1008300043EA14534FEA0432019C43EA0603A4F14D
:100840000C040294009CCDE900B4FFF79FFE03B0B6
:10085000BDE8F08F00200146F9E7C1F30A52C1F369
:10086000130140F2FF3341F480119A4202DA002072
:100870000146704740F233439A42A2F2334202DC0F
:100880005242FFF72DBEFFF71CBE000030B5041E1C
:1008900071F1000404DB4FF00044404264EB0101BD
:1008A000141E73F1000405DB1C464FF00043524256
:1008B00063EB0403994208BF904230BD064C074DDC
:1008C00006E0E06840F0010394E807009847103420
:1008D000AC42F6D3FFF75CFCE88000080881000812
:1008E000202A06DBCB17203A41FA02F043EAE073F4
:1008F00006E041FA02F3D040C2F1200291400843E1
:100900001946704770B58C1810F8015B15F0070395
:1009100001D110F8013B2A1106D110F8012B03E098
:1009200010F8016B01F8016B5B1EF9D12B0705D4A0
:100930000023521E0DD401F8013BFAE710F8013BE9
:10094000CB1A921C03E013F8015B01F8015B521E05
:10095000F9D5A142D8D3002070BDFEE72DE9F047BC
:1009600000270425DFF8A080DFF8A09050383E462D
:1009700001F1060A102845D2DFE800F01108130C37
:100980001517191B1D1F21444444442334240325F7
:10099000402702E03D2403252E27012613E03024C2
:1009A00011E037242BE03A2429E041240BE04524D0
:1009B00009E0492407E04D2405E0512403E05524D3
:1009C00001E0D8F82440032A19D04DB16A0009EBA0
:1009D0004400FFF786FCD8F81420294620469047AB
:1009E000002E0FD0720009EB47005146FFF779FC4B
:1009F00031463846D8F81420BDE8F04710470325A3
:100A00000026E3E7BDE8F08704000020320600205E
:100A1000014800F0A9BA00001822002008B5002003
:100A200000900B48007870B10A486946006806F0EB
:100A3000D9FC009838B108494FF080500860BFF3E6
:100A40004F8FBFF36F8F054800F08EFA08BD00008E
:100A5000200400202804002004ED00E0982300205A
:100A6000014800F081BA0000B8210020014800F0E0
:100A70007BBA0000F823002008B5002000900B4846
:100A8000007870B10A486946006806F0ABFC00982F
:100A900038B108494FF080500860BFF34F8FBFF363
:100AA0006F8F054800F060FA08BD000020040020A8
:100AB0002404002004ED00E03823002008B50020C5
:100AC00000900B48007870B10A486946006806F04B
:100AD00089FC009838B108494FF080500860BFF396
:100AE0004F8FBFF36F8F054800F03EFA08BD00003E
:100AF000200400202C04002004ED00E058240020F5
:100B0000014800F031BA000078220020014800F0CE
:100B10002BBA0000B8240020014800F025BA0000DC
:100B2000D822002001681823CAB2103AB2FBF3F2AF
:100B3000054B6FF30901032A9B5CC36500D9091DAE
:100B400081650846704700002080000810B5014606
:100B500000208B698A6A4FF0C07453B1B3F5005F0F
:100B600015D072B1012A0CD0022A0AD0032A09D169
:100B700004E01AB1012A06D0022A03D1C96AC901C8
:100B800000D5012010BDC96AA142FAD010BD002ACB
:100B9000F7D0012AF2D0022AF3D0032AF3D010BDF5
:100BA00030B50468256825F48025256004686360F5
:100BB0008368402B036803D099600068C26030BD31
:100BC0009A600068C16030BD704704F05DBA72B6CB
:100BD000FEE710B590B0044603AA3221684602F041
:100BE00069FD6946204600F00AF8684602F02FFDCC
:100BF000401E81B2684602F048FD10B010BD70B5CD
:100C00000D4604460188284602F0BCFDA17828461E
:100C100002F0A1FDE178284602F09DFDE278211D59
:100C2000284602F09AFD284602F01CFD014628469F
:100C3000BDE8704002F08FBD37B58EB01546044652
:100C40000FAB01220A2100F0D9F86946204600F0D6
:100C50004FF8040015D19DF804009DF83C1088421F
:100C600002D0072011B030BDBDF90500FFF7D3FB5E
:100C70009FED051B53EC112BFFF75EFBFFF7EFFB1E
:100C800028602046EEE7000000000000000024403D
:100C900037B58EB0154604460FAB0122102100F087
:100CA000ADF86946204600F023F8040019D19DF8FC
:100CB00004009DF83C10884202D0072011B030BDDE
:100CC0009DF80810DDF8050061F31F60FFF7A3FB36
:100CD0009FED051B53EC112BFFF72EFBFFF7BFFB1E
:100CE00028602046EAE700000000000000002440E1
:100CF0002DE9F0410646002081F8370007460546F9
:100D00000C46642002F07EFD63E0B06802F09FFCB8
:100D100078B394F8370001071AD5B06802F019FDCE
:100D200084F8360094F8370040F0100084F837005B
:100D30002046FFF74EFF94F83610884204D002F0A8
:100D40006FFD0620BDE8F08102F06AFD0020F9E7A2
:100D500041070FD5B06802F0FCFCE1197F1C087157
:100D6000E078FFB2B84234D194F8370040F0080080
:100D700010E02EE0810710D5B06802F0EAFCE070C8
:100D80002D2803D902F04CFD0520DBE794F837004D
:100D900040F0040084F837001BE0C0070ED0B068B4
:100DA00002F0D7FCA070112803D902F039FD04200D
:100DB000C8E794F8370040F00200EBE715B1052DC5
:100DC0000DD005E0B06802F0C4FC0546052800D04F
:100DD000002502F033FD002897D00220B2E7B0686A
:100DE00002F0B7FC45EA0025A5F5E0500538EFD143
:100DF000258094F8370040F00100CBE770B58EB045
:100E0000044644F61240ADF800008DF802108DF84B
:100E100003200021684603E05D5C4618491C3571DB
:100E20009142F9DB6168FFF7EAFE204603F0F0F833
:100E30000EB070BD2DE9F04116462DED028B86B047
:100E40000F4680461D46B0EE408A03AA0721684639
:100E50000E9C02F02FFC18EE100A1D49884202DD9C
:100E60009FED1C8A06E018EE100A1B49884201D942
:100E70009FED1A8A3946684602F06DFCB2EE040A0C
:100E800028EE000ABDEEC00A10EE100A01B2684654
:100E900002F072FC3146684602F074FC294668464E
:100EA00002F070FC0DF10D03072208214046FFF708
:100EB000A5FF5CB10022B0EE480A3946404600F07A
:100EC0000FF806B0BDEC028BBDE8F0810020F8E71A
:100ED0000000344300003443000034C3000034C336
:100EE0002DE9F04315462DED028B81B0B0EE408A1E
:100EF0008846814600244FF07E5742F210766A46BB
:100F00004146484615B1FFF7C3FE01E0FFF794FEE6
:100F10009DED000A38EE400AF0EEC00A10EE900A8D
:100F2000B84205DC002001B0BDEC028BBDE8F083C7
:100F3000641CA4B2B44201D30120F4E7642002F09F
:100F400087FCDCE790F83510022903D08021416549
:100F500001207047052180F835100068016821F0F4
:100F600001010160002070472DE9F84304464FF06D
:100F70000009CDF8009063484FF41651A56D006844
:100F8000B0FBF1F72E6894F85C10082000FA01F12C
:100F900031420FD021680A6852070BD50A6822F047
:100FA00004020A6094F85C108840A860606D40F00C
:100FB0000100606594F85C104FF0010808FA01F038
:100FC000304208D021684969090604D5A860606DDF
:100FD00040F00200606594F85C10042088403042C4
:100FE00008D021680968890704D5A860606D40F0C1
:100FF0000400606594F85C1010208840304218D0DE
:1010000021680968090714D5A860206801684903A8
:1010100004D50068000308D5A16C07E00168C90584
:1010200003D4016821F008010160216C09B1204658
:10103000884794F85C1020208840304231D02168E5
:101040000968C9062DD5A86094F8350005282068E0
:10105000016806D0490347D5006800031DD4616CC0
:101060001CE021F0160101602068416921F0800137
:101070004161206C08B9A06C20B12068016821F0A2
:101080000801016094F85C103F208840A86084F853
:10109000349084F83580216D1FE0E16B09B1204662
:1010A0008847606D00282BD0606DC00714D00520E4
:1010B00084F835002068016821F001010160009882
:1010C000401C0090B84203D820680068C007F6D1E1
:1010D00084F8349084F83580E16C002910D001B098
:1010E0002046BDE8F04308470168C905D5D401682A
:1010F00021F01001016084F8349084F83580CCE749
:10110000BDE8F883980400202DE9F041044600F082
:1011100091F906465CB1002584F83450022084F829
:1011200035002068016821F0010101600DE0012017
:10113000BDE8F08100F07EF9801B052805D920204C
:101140006065032084F83500F2E720680068C00776
:10115000F0D12268116820480140D4E90103184306
:10116000D4E903363343184363691843A36918432A
:10117000E3691843236A18430843616A042903D1C9
:10118000D4E90B1319430843106020684069666A6C
:1011900020F0070130460E43012704280CD1A06A35
:1011A0000643E06A40B12046FFF7D0FC20B1402062
:1011B000606584F83570BAE7206846612046FFF71D
:1011C000B1FC94F85C203F2191408160656584F812
:1011D00035700020ACE700003F8010F02DE9F041B1
:1011E0000446866D90F83400002501280DD00120BA
:1011F00084F8340094F835700020012F07D084F86B
:10120000340002252846BDE8F0810220FBE70227D2
:1012100084F8357060652046FFF7C2FC94F85C10D6
:101220003F208840B0602068016841F016010160ED
:10123000206C20B12068016841F00801016020683D
:10124000016841F001010160DCE7000070B504466F
:1012500000F0F0F80546601C02D004480078044411
:1012600000F0E8F8401BA042FAD370BD8C040020C7
:101270002DE9F84F00224FF0010803254FF00F0E23
:101280000B6808FA02F42340A3426ED14E68012E87
:1012900005D0022E03D0112E01D0122E12D1866855
:1012A0004FEA420C05FA0CF7BE43CF6807FA0CF779
:1012B000374387604668A6430C79C4F30014944012
:1012C00034434460C668570005FA07FC8C6826EA78
:1012D0000C06BC403443C4604C68022C01D0122C74
:1012E00013D1D40800EB8404A346D4F8209054070B
:1012F0004FEAD46A0EFA0AF629EA06090E6906FAD6
:101300000AF646EA0906CBF8206006680C7926EA58
:101310000C0604F00304BC40344304604C68E40051
:1013200065D5364C266846F480462660246822F04F
:10133000030604F480440094314C3444A446D4F8A9
:1013400008489607370F0EFA07F6B4432D4EB04201
:1013500001D1002624E02C4EB04201D101261FE02D
:101360002A4EB04202D102261AE040E0284EB04296
:1013700001D1032614E0274EB04201D104260FE02C
:10138000254EB04201D105260AE0244EB04201D1DB
:10139000062605E0224EB04201D1072600E00826CD
:1013A000BE402643CCF808681E4E34684F689C4304
:1013B000FF0300D51C4334601A4C241D26684F6877
:1013C0009E43BF0300D51E432660164E0836346880
:1013D0004F689C43FF0200D51C433460114E0C360D
:1013E00034684F689C43BF0200D51C433460521CD4
:1013F000102AFFF445AFBDE8F88F000044380240E2
:101400000030014000000240000402400008024099
:10141000000C02400010024000140240001802407C
:10142000001C0240003C01400AB181617047090480
:10143000FBE7000001488068704700008C04002032
:101440000248816802781144816070478C04002052
:101450000B4810B5016841F400710160016841F466
:1014600080610160016841F480710160032000F037
:101470008DF8002000F006F800F03EF8002010BDC6
:10148000003C024010B5014688B00022372000F031
:101490005DF8372000F04CF813480024016841F053
:1014A00020010160006805A900F020000690684650
:1014B00000F018F900F036F90C494000B0FBF1F1EA
:1014C0000C480B4A491E026040F2E732C0E903248F
:1014D000C0E9011400F098FB10B1012008B010BD64
:1014E000044800F001FCF9E74038024040420F0098
:1014F00000140040182500200C4882B0016841F417
:1015000080410160006800F4804000900748001F9F
:10151000016841F0805101600068002200F08050B5
:1015200000900F21901E02B000F010B84438024025
:10153000002809DB00F01F020121914040098000D2
:1015400000F1E020C0F8001170470000F0B40E4B2D
:101550001B680C46C3F30223C3F10705042D00D911
:101560000425191D072901D2002300E0DB1E0126F6
:1015700006FA05F1491E214099409E40761E16400C
:101580003143F0BC02F06CBE0CED00E0064900F007
:10159000070208684FF6FF03184040EA0220034A9A
:1015A00010430860704700000CED00E00000FA05F1
:1015B0002DE9F0470E46050065D0DFF81481D8F814
:1015C0000000F7B200F00F00B04207D288F80070B8
:1015D000D8F8000000F00F00B04254D128683D4C0C
:1015E000810712D5400703D5206840F4E050206001
:1015F0002878000703D5206840F460402060206808
:10160000A96820F0F000084320602878C0072DD09A
:10161000304968680839012812D0022813D00328FD
:1016200011D00968890700292DDA216821F003010A
:1016300001432160FFF7FEFE814641F2883A0EE049
:1016400009688903EFE709688901ECE7FFF7F2FE13
:10165000A0EB0901514502D90320BDE8F0872068BD
:10166000696800F00C00B0EB810FEFD1D8F80010E2
:10167000404601F00F01B14207D90770006800F041
:101680000F00B04201D00120E7E72878400705D5D8
:101690002068E96820F4E0500843206028780007BB
:1016A00006D52068296920F4604040EAC100206026
:1016B00000F058F82168084AC1F30311515CC84092
:1016C0000649086006480068FFF7DCFE0020C4E712
:1016D000003C02400838024028800008980400209E
:1016E000900400200F2202600C4A136803F00303E9
:1016F0004360136803F0F0038360136803F4E0535E
:10170000C36012684FF4E05303EAD2020261044856
:10171000006800F00F0008607047000008380240C1
:10172000003C02400448054900680968044AC1F3C6
:101730008221515CC840704798040020083802405C
:10174000388000080448054900680968044AC1F364
:101750004231515CC840704798040020083802406C
:1017600038800008154810B5006810F00C021448C5
:1017700013D04110042A0FD0082A0ED10F4C241F79
:101780002268236802F03F025B0207D52068C0F39D
:101790008810A0FB010106E0084610BD2168C1F3D6
:1017A0008811A1FB00010023FEF76AFD2168C1F347
:1017B0000141491C4900B0FBF1F010BD083802405E
:1017C0000024F4002DE9F84F04006ED02078DFF8F3
:1017D0003C93C007A9F104054AD009F1040001684F
:1017E000C1F38101012908D00068C0F381000228FB
:1017F0000AD1D9F80000400206D52868800337D501
:1018000060680028E1D033E06068B0F5803F10D018
:10181000B0F5A02F286810D020F480302860286808
:1018200020F4802028606068A8B1FFF703FE064618
:101830000DE0286840F48030F4E740F48020286010
:10184000F7E700BFFFF7F6FD801B642873D8286810
:101850008003F7D50CE0FFF7EDFD064605E000BF7D
:10186000FFF7E8FD801B6428F0D828688003F7D4D0
:101870002078DFF89C8280074FF0000A3ED5A3480D
:10188000001D016811F00C0F08D00068C0F3810042
:1018900002280BD1D9F80000400207D4286880073D
:1018A00016D5E068012800D112E02BE1E068B8B15C
:1018B0000120C8F80000FFF7BDFD064605E000BFA7
:1018C000FFF7B8FD801B0228C0D828688007F7D52D
:1018D0002868216920F0F80040EAC10028600DE086
:1018E000C8F800A0FFF7A6FD064604E0FFF7A2FD3A
:1018F000801B02281FD828688007F7D420780007AB
:1019000022D5824E83486169703671B10121016030
:10191000FFF790FD074604E0FFF78CFDC01B02288F
:1019200009D830688007F7D50EE0C0F800A0FFF7AF
:1019300081FD074605E082E0FFF77CFDC01B022821
:101940007DD830688007F7D42078400768D5DFF865
:10195000BCB100270BF13C0BDBF80000C0000BD43E
:10196000DBF8001041F08051CBF80010DBF80000EC
:10197000012700F080500090674E3068C00510D4F9
:10198000306840F480703060FFF754FD009005E04F
:10199000FFF750FD0099401A022850D83068C00562
:1019A000F6D55A4EA0686C3601280FD0052830684D
:1019B00010D020F001003060306820F0040030606A
:1019C000A068B8B1FFF736FD00900FE0306840F036
:1019D0000100F4E740F004003060F7E7FFF72AFD6C
:1019E0000099411A41F28830814266D830688007F8
:1019F000F4D50EE0FFF71EFD009007E0FFF71AFD9B
:101A00000099411A41F28830814256D830688007E7
:101A1000F4D42FB1DBF8001021F08051CBF8001086
:101A2000A069C8B33949091D0968C1F381010229B8
:101A30004AD00228504607D0C8F8600000E03CE0D9
:101A4000FFF7F8FC04463BE04746C8F86000FFF7A4
:101A5000F1FC064605E000BFFFF7ECFC801B022806
:101A60002BD828688001F7D4D4E907010843A16A7C
:101A70002A4A490802EB0141626A41EA821108439D
:101A800094F82C1040EA0161C9F800100120386672
:101A9000FFF7D0FC044606E036E000BFFFF7CAFCC3
:101AA000001B022809D828688001F7D52CE000BF68
:101AB000FFF7C0FC001B022802D90320BDE8F88F05
:101AC00028688001F4D41FE00128F7D0D9F800007D
:101AD000E26900F48001914214D1226A00F03F01D2
:101AE00091420FD147F6C071626A0140914209D11B
:101AF000A26A00F44031914204D1E16A00F07060C2
:101B0000884201D00120D9E70020D7E704380240FD
:101B100000004742800E4742007000400000FFFF77
:101B20007047704710B590F83C20012A22D001225E
:101B300080F83C20CA688C6822F4407222434C68CA
:101B400022F4806222430C6822F4006222430C6972
:101B500022F4805222434C6922F400522243C96984
:101B6000002322F480420A4301684A6480F83C3032
:101B7000002010BD022010BD70B590F83C20012A55
:101B800032D0012480F83C40022280F83D200368D6
:101B90005A689D6822F070060A6832435A60134BF7
:101BA00002689A4214D0B2F1804F11D0104B9A4281
:101BB0000ED0104B9A420BD00F4B9A4208D00F4BCD
:101BC0009A4205D00E4B9A4202D00E4B9A4204D153
:101BD000496825F080031943916080F83D40002159
:101BE00080F83C10084670BD022070BD0000014026
:101BF0000004004000080040000C004000040140C8
:101C0000004001400018004010B5040003D094F8D3
:101C10003D0010B107E0012010BD002084F83C0019
:101C2000204600F00DF8022084F83D00211D2068B8
:101C300001F0BEFE012084F83D00002010BD000030
:101C400008B52349026823488A4211D1016841F04E
:101C5000100101600068002200F0100000900521D2
:101C60003620FFF773FCBDE808403620FFF760BC64
:101C70001849194B091D9A4207D1086840F40030F1
:101C80000860086800F4003009E0144B9A4208D15B
:101C9000086840F480200860086800F48020009004
:101CA00008BD0F498A4207D1016841F080010160F7
:101CB000006800F08000F2E70A498A42F0D101682A
:101CC00041F480710160006800F48070E7E7000073
:101CD00000100040403802400044014000480140EC
:101CE000001C0040002000400168CA6842F0010268
:101CF000CA600068816801F00701062903D0016805
:101D000041F001010160002070472DE9F0410D46CE
:101D1000040003D094F83D0018B108E00120BDE8AC
:101D2000F081002084F83C00204600F03BF80220BF
:101D300084F83D002068816844F207029143816085
:101D4000211D206801F034FE226890689169166AAE
:101D50002B68AF69034340F20330814341EA072116
:101D6000A868EF6908434FF6FC418843E96840EAF8
:101D70000720014328692F6A000140EA0730084321
:101D800069686D6926F0AA0646EA0515294393603D
:101D90002268906120680162012084F83D000020E3
:101DA000BDE70000F0B587B0044614216846FEF791
:101DB000B1FA574923680024554810390225554A7D
:101DC000554EB3F1804F27D0544FBB4258D10268D3
:101DD00042F002020260006800F00200059008680C
:101DE00040F0020008600868694600F002000590B3
:101DF00030200090CDE901543046CDE90345FFF78E
:101E000037FA002205211D20FFF7A0FB5FF01D001F
:101E1000FFF78EFB07B0F0BD036843F001030360DA
:101E2000006800F001000590086840F001000860BB
:101E3000086800F001000590086840F002000860A2
:101E40000868012700F00200059020200090CDE9ED
:101E50000154CDE9034769461046FFF709FA082007
:101E60000090CDE90154CDE9034769463046FFF7BC
:101E7000FFF9002205211C20FFF768FB1C20C7E7A3
:101E8000274FBB4220D1026842F004020260006882
:101E900000F004000590086840F00200086008683F
:101EA000694600F002000590C0200090CDE9015481
:101EB0003046CDE90345FFF7DBF9002205211E205E
:101EC000FFF744FB1E20A3E7164EB342A2D10368DE
:101ED00043F008030360006800F0080005900868FC
:101EE00040F0010008600868694600F001000590B4
:101EF00003200090CDE901541046CDE90345FFF7DA
:101F0000B7F9002205213220FFF720FB32207FE7BE
:101F1000403802400000024000040240000400403B
:101F200000080040000C004010B50446006891B164
:101F3000042904D00122002101F09EFD2068012225
:101F40005FF0040101F098FD2068016841F0010193
:101F50000160002010BD01220021F3E7704770B539
:101F60000446006801694FF00005C943890715D48C
:101F7000C168C943890711D4E91E01610120207796
:101F8000206880698007204602D0FFF7E7FF04E061
:101F900000F02CF9204600F0DDF925772068016972
:101FA000C943490717D4C168C943490713D46FF01F
:101FB00004010161022020772068806910F4407FCD
:101FC000204602D0FFF7CAFF04E000F00FF92046D8
:101FD00000F0C0F9257720680169C943090716D4C4
:101FE000C168C943090712D46FF0080101610420D8
:101FF00020772068C0698007204602D0FFF7AEFF37
:1020000004E000F0F3F8204600F0A4F925772068FA
:102010000169C943C90617D4C168C943C90613D4A5
:102020006FF010010161082020772068C06910F46A
:10203000407F204602D0FFF791FF04E000F0D6F881
:10204000204600F087F9257720680169C943C90750
:1020500008D1C168C943C90704D1891E016120465E
:1020600000F09CF920680169C943090609D4C168D8
:10207000C943090605D46FF0800101612046FFF7CE
:102080004FFD20680169C943490609D4C168C943A5
:10209000490605D46FF040010161204600F098F92F
:1020A00020680169C94389060BD4C168C943890600
:1020B00007D46FF0200101612046BDE87040FFF7B2
:1020C00030BD70BD70B586B0044614216846FEF779
:1020D00021F924683A4D00223A4902233A48AC4299
:1020E00011D10C6844F010040C60096801F0100173
:1020F00005914FF4D4410091CDE901320121CDE9A0
:10210000032169460DE0314E0325B4420DD10C6820
:1021100044F010040C60096801F010010591602181
:1021200046E0FFF7A5F806B070BD294E2948B44235
:1021300009D10C6844F002040C60096801F0020146
:102140000591811534E0244EB44209D10C6844F065
:1021500002040C60096801F002010591711527E085
:102160001E4E0925B44209D10C6844F002040C60EB
:10217000096801F002010591F10019E0184E1948B3
:10218000B44209D10C6844F001040C60096801F004
:102190000101059140210BE0134EB442C3D10C68FC
:1021A00044F001040C60096801F0010105918021EF
:1021B0000091CDE90132CDE903256946B1E7000080
:1021C0000000014030380240001002400040014051
:1021D0000044014000040240004801400018004053
:1021E000001C00400000024000200040704770B515
:1021F000044690F83C000D4601280DD0012684F8D5
:102200003C60022084F83D0042B1042A18D0082A1C
:102210002AD00C2A4DD139E0022070BD206801F08F
:1022200039FC2068816941F0080181612068816979
:1022300021F004018161206881692A69114311E05C
:10224000206801F057FC2068816941F400618161D8
:102250002068816921F480618161206881692A692F
:1022600041EA0221816124E0206801F079FC2068C4
:10227000C16941F00801C1612068C16921F0040110
:10228000C1612068C1692A69114311E0206801F029
:102290009BFC2068C16941F40061C1612068C1698B
:1022A00021F48061C1612068C1692A6941EA022183
:1022B000C16184F83D60002084F83C0070BD10B519
:1022C000040003D094F83D0010B107E0012010BDD8
:1022D000002084F83C00204600F00CF8022084F82E
:1022E0003D00211D206801F063FB012084F83D00C2
:1022F000002010BD08B5134A01681348914207D168
:10230000016841F001010160006800F0010009E08E
:102310000E4A914208D1016841F4803101600068A1
:1023200000F48030009008BD09488142FBD1064886
:10233000001F016841F040010160006800F04000AA
:10234000F0E7000000000140443802400040014036
:10235000001800407047000010B5044600680122D4
:1023600001F08AFB0B492068884202D00A49884262
:1023700003D1416C41F4004141642068816801F05F
:102380000701062903D0016841F001010160002026
:1023900010BD0000000001400004014010B50446DB
:1023A00000680849884201D1FFF74AF806492068C9
:1023B000884205D10548016809B10168491E0160DC
:1023C00010BD00000014004000100040000000207C
:1023D0007047704770B5026804461068D168536949
:1023E00010F00F0F52D003F0010501F490762E4348
:1023F0005FD0C20705D0CA0503D5E26B42F00102E7
:10240000E263420705D5DA0703D0E26B42F002022D
:10241000E263820705D5DA0703D0E26B42F00402DB
:10242000E263020707D501F020022A4303D0E26BE2
:1024300042F00802E263E26B002A33D0800604D542
:10244000880602D5204601F076FC20684069E16BE1
:10245000C0F38010090700D428B3204601F054FCD3
:102460002068416949061AD5416921F0400141615E
:10247000606BA0B11B490165606BFEF763FD00282E
:1024800010D0606B016DBDE870400847830610D521
:102490008B060ED52046BDE8704001F04CBC2046AE
:1024A000FFF797FF70BD2046FFF793FF0020E06322
:1024B00070BD030606D50B0604D52046BDE8704066
:1024C00001F018BD4006F3D54806F1D5D168204685
:1024D00021F04001D160202184F8391000F01CFB6C
:1024E00070BD0000313C000870B5040004D094F8C1
:1024F0003900002510B106E0012070BD84F8385085
:10250000204600F023F8242084F839002068C168B0
:1025100021F40051C160204601F058FC2068016997
:1025200021F4904101612068416921F02A01416153
:102530002068C16841F40051C160E563202084F83F
:10254000390084F83A00002070BD00002DE9F04FFA
:1025500087B0044614216846FDF7DCFEE948DFF841
:10256000A0831038D4F800C0E64A022103270823CC
:10257000DFF894E3002506154FF0010B4FF00069DA
:10258000C44535D1D2F800C04CF4002CC2F800C0CC
:10259000126802F400220592026842F0040202600E
:1025A000006800F004000590B8028DE80308CDE94A
:1025B000037369467046FEF75BFED54FD34838601B
:1025C000C7E90195C7E903567D61BD61FD613D62C3
:1025D00038467D62FEF798FD08B1FEF7F8FA6763AA
:1025E000002205213420BC63FEF7B0FF342052E006
:1025F000DFF82083C44553D1D2F800C04CF4801CCE
:10260000C2F800C0126802F480120592026842F01B
:1026100004020260026802F004020592026842F0BD
:102620000802026000688A4600F0080005904FF436
:102630008050D846CDE9000ACDE902879B4669461D
:1026400004937046FEF714FE0420CDE9000ACDE99C
:1026500002876946CDF810B0AF48FEF709FEAC4FCF
:10266000AA48603730383860C7E90195C7E9035692
:102670007D61BD61FD613D6238467D62FEF744FDCE
:1026800008B1FEF7A4FA6763002205213520BC6378
:10269000FEF75CFF3520FEF74BFF07B0BDE8F08F7B
:1026A000DFF878824FF0070A4FF0400BC4454CD159
:1026B000944A121D136843F010031360126802F06D
:1026C00010020592026842F001020260006800F008
:1026D000010005904FF4C0608DE8A304694690485E
:1026E000FEF7C6FD8A4F8F48C037B0463860C7E94D
:1026F0000195C7E903567D614FF48036BD61C7E996
:10270000075638467D62FEF7FFFC08B1FEF75FFA18
:102710006763BC63844F8348C7E903587D61BD612B
:10272000C7E9075678307D6287E8010A3846FEF728
:10273000EBFC08B1FEF74BFA2763002205212520A8
:10274000BC63FEF703FF2520A5E7DFF8E081C44561
:1027500035D1136843F400331360126802F4003279
:102760000592026842F001020260006800F0010078
:1027700005900C208DE8A30469466948FEF778FDB2
:10278000694F6248603748303860C7E90195C7E94A
:1027900003567D614FF48030BD61C7E9075038466C
:1027A0007D62FEF7B1FC08B1FEF711FA6763002203
:1027B00005212620BC63FEF7C9FE26206BE7DFF863
:1027C0007081C44548D1136843F4802313601268B4
:1027D00002F480220592026842F002020260006860
:1027E00000F0020005904FF440608DE8A3046946B4
:1027F0005048FEF73DFD4C4F4448C037183838600C
:10280000C7E90195C7E903567D61BD61FD613D6280
:1028100038467D62FEF778FC08B1FEF7D8F96763A9
:10282000BC63454F3948C7E903567D61BD61FD6111
:102830003D6218307D6287E8010A3846FEF764FC85
:1028400008B1FEF7C4F92763002205212720BC63E5
:10285000FEF77CFE27201EE7384A94457FF41DAF23
:10286000284A121DD2F800C04CF0200CC2F800C05B
:10287000126802F020020592026842F0040202602F
:102880000068049300F004000590C0208DE8A300C8
:1028900069467046FEF7ECFC274F2248603718382F
:1028A00038604FF02068C7E90185C7E903567D61AC
:1028B000BD61FD613D6238467D62FEF725FC08B1D1
:1028C000FEF785F96763BC631B4F1648C03760305D
:1028D000C7E903567D61BD61FD613D627D6287E8A8
:1028E00001093846FEF710FC08B1FEF770F92763BE
:1028F000002205214720BC63FEF728FE4720CAE6D8
:10290000004C004040380240000802404060024055
:10291000B821002000500040000C0240001001408F
:102920000000024040640240D822002000440040E1
:102930000048004000040240F82300200014014039
:10294000F8B5044690F83A0020283CD1C1B3BAB398
:1029500094F83800012836D0012084F83800A162AC
:10296000A2850025E563222084F83A00636B1748AE
:10297000D863636B16481864636B1648D864606B41
:10298000134605650846666B216802463046091DF8
:10299000FEF724FC206801684168009184F83850F3
:1029A000C16841F48071C1602068416941F0010152
:1029B00041612068416941F0400141610020F8BD5A
:1029C000FFE70120FBE70220F9E700008B3C00084D
:1029D000C73C0008413C0008704770472DE9F843A8
:1029E000044690F839001F4616460D46202850D15F
:1029F000B5B1AEB194F8380001284AD0012084F86E
:102A000038004FF00008C4F83C80212084F83900D9
:102A1000FEF710FDA6848146E68484F8388026E01F
:102A20000120BDE8F883E08C401EE084A0684B469E
:102A3000B0F5805F4FF000024FF080012046009714
:102A400003D001F088FAE8B90DE001F084FAC8B9C2
:102A500028882168C0F308004860206908B16D1C0F
:102A600005E0AD1C03E0216815F8010B4860E08C1F
:102A70000028D8D14B46002240212046009701F083
:102A80006AFA08B10320CCE7202084F8390000203E
:102A9000C7E70220C5E7000070B5044690F839008A
:102AA000202830D169B362B394F8380001282AD0C5
:102AB000012084F838002162A284E2840025E563C5
:102AC000212084F83900236B1048D863236B104809
:102AD0001864236B0F48D864206B1346056526687D
:102AE000206B321DFEF77AFB21686FF04000086012
:102AF00084F838502068416941F08001416100202C
:102B000070BD012070BD022070BD0000D13C0008E6
:102B1000FF3C0008413C000870477047FEE700009A
:102B20000EB5254D01205022287024492448FFF776
:102B300007FF224E4FF0FF373946686804F0D6FD94
:102B400004F0B6F80024305D01F0C6FA641C502C85
:102B5000F9DB1C480078D0B11B4A9FED1C0ADFED61
:102B60001C0A0020694600BF02EB4003B3F97A302B
:102B700001EE103A01EB8003401CB8EEC11A0328A5
:102B800021EE001A21EE201A83ED001AECDB502210
:102B90000A490B48FFF7D4FE04F0AAF800231A46AE
:102BA0006946E86904F06EFB00231A466946686AC4
:102BB00004F068FBC0E7000020040020341A002065
:102BC000F820002005000020320600200000003818
:102BD000000034432D4808B5016841F480010160CC
:102BE000016801F480010091016841F40011016065
:102BF0000068002200F40010009005210B20FEF771
:102C0000A5FC0B20FEF794FC002205210C20FEF70A
:102C10009DFC0C20FEF78CFC002205210D20FEF708
:102C200095FC0D20FEF784FC002205210E20FEF706
:102C30008DFC0E20FEF77CFC002205211020FEF703
:102C400085FC1020FEF774FC002205213920FEF7D8
:102C50007DFC3920FEF76CFC002205213A20FEF7AE
:102C600075FC3A20FEF764FC002205214520FEF7A2
:102C70006DFC4520FEF75CFC002205214620FEF796
:102C800065FCBDE808404620FEF752BC30380240E3
:102C900010B5D4B003220021012004F08BFA674C58
:102CA000032200216060012004F084FAA060032266
:102CB0000021012004F07EFAE060032200210120BF
:102CC00004F078FA206100221021012004F072FA49
:102CD000606100221021022004F06CFAA061002241
:102CE0000C21012004F066FAE0610022102101208D
:102CF00004F060FA206200220C21012004F05AFA4C
:102D0000606200221C21012004F054FAA06200221B
:102D10001021012004F04EFAE06200220821012077
:102D200004F048FA206300220821012004F042FA4E
:102D300060631C2242496846FDF7D3FA00216846C9
:102D400003F048F93E49E0631C221C3107A8FDF757
:102D5000C8FA002107A803F03DF9394920641C2274
:102D600038310EA8FDF7BDFA00210EA803F032F9A4
:102D7000334960641C22543115A8FDF7B2FA0021D2
:102D800015A803F027F92E49A0641C2270311CA855
:102D9000FDF7A7FA00211CA803F01CF92849E064FC
:102DA0001C228C3123A8FDF79CFA002123A803F0F4
:102DB00011F9234920651C22A8312AA8FDF791FAB0
:102DC00000212AA803F006F91D4960651C22C431C0
:102DD00031A8FDF786FA002131A803F0FBF8184965
:102DE000A0651C22E03138A8FDF77BFA002138A845
:102DF00003F0F0F81249E0651C22FC313FA8FDF712
:102E000070FA00213FA803F0E5F820661C220D4966
:102E100046A8FDF766FA002146A803F0DBF8094949
:102E200060661C221C314DA8FDF75BFA00214DA8FD
:102E300003F0D0F8A06654B010BD000020040020BC
:102E4000D07E0008E87F00082DE9F04387B0142108
:102E50006846FDF75FFA3B480024016841F0100125
:102E60000160016801F010010591016841F0040161
:102E70000160016801F004010591016841F08001E1
:102E80000160016801F080010591016841F00101D4
:102E90000160016801F001010591016841F0020142
:102EA0000160016801F002010591016841F008012B
:102EB00001600068244F00F008004FF4C4450590FD
:102EC000002229463846FEF7AFFADFF8809000224C
:102ED00041F202014846FEF7A7FADFF874804FF48A
:102EE0007F46002231464046FEF79EFA00950125B6
:102EF000CDE90154694638460394FEF7B9F9280331
:102F00000090CDE90154694648460394FEF7B0F9B4
:102F10000096CDE90154694640460394FEF7A8F9AE
:102F2000E8038DE8310069460A48FEF7A1F902205E
:102F30008DE8310069464846FEF79AF907B0BDE8CA
:102F4000F0830000303802400008024000100240C8
:102F5000000C02400000024010B588B01C216846F9
:102F6000FDF7D8F91548144900240160A721C0E9EC
:102F7000011444F61F61C0E903148461FEF744FEA6
:102F800008B1FDF724FE0D48FFF799F908B1FDF7E8
:102F90001EFE6020CDE90004029400226946074825
:102FA0000494FFF724F908B1FDF711FE0348FFF779
:102FB00089F808B010BD000000440140F81E002050
:102FC00010B588B01C216846FDF7A4F915481449CE
:102FD00000240160A721C0E9011444F61F61C0E983
:102FE00003148461FEF710FE08B1FDF7F0FD0D48F3
:102FF000FFF765F908B1FDF7EAFD6020CDE90004AF
:1030000002940022694607480494FFF7F0F808B1DB
:10301000FDF7DDFD0348FFF755F808B010BD0000CF
:1030200000480140381F002010B588B01C216846B8
:10303000FDF770F916481549002401605321C0E9D5
:10304000011444F61F61C0E903148461FFF737F9E6
:1030500008B1FDF7BCFD6020CDE900040294002218
:1030600069460B480494FFF7C2F808B1FDF7AFFDBD
:10307000042269460648FFF7BAF808B1FDF7A7FD34
:103080000348FFF71FF808B010BD0000001800400B
:10309000781F002010B588B01C216846FDF73AF96A
:1030A000154814490024016040F28F61C0E9011401
:1030B00040F2E731C0E903148461FEF7A5FD08B1D1
:1030C000FDF785FD0C48FFF7FAF808B1FDF77FFD25
:1030D0006020CDE900040294002269460648049469
:1030E000FFF785F808B1FDF772FD0348FEF7EAFF28
:1030F00008B010BD001C0040B81F002010B588B0FB
:103100001C216846FDF706F91548144900240160A2
:1031100040F28F61C0E9011440F2E731C0E90314C5
:103120008461FEF771FD08B1FDF751FD0C48FFF712
:10313000C6F808B1FDF74BFD6020CDE9000402940C
:103140000022694606480494FFF751F808B1FDF7DC
:103150003EFD0348FEF7B6FF08B010BD002000405A
:10316000F81F002010B592B000240F941C2168466F
:103170001094FDF7CFF8202107A8FDF7CBF82C48D5
:103180002A4901601021C0E9011440F2E731C0E989
:10319000031444618461FFF792F808B1FDF717FD4D
:1031A0000F940FA922481094FEF7E6FC08B1FDF732
:1031B0000EFD6020CDE9000402940394049405946C
:1031C000002269461A480694FFF711F808B1FDF786
:1031D000FEFC042269461648FFF709F808B1FDF71E
:1031E000F6FC082269461248FFF701F808B1FDF71E
:1031F000EEFC0C2269460E48FEF7F9FF08B1FDF718
:10320000E6FC0794089409944FF400500A94CDE921
:103210000B4007A906480E94FEF784FC08B1FDF7A1
:10322000D6FC0348FEF74EFF12B010BD000001406F
:10323000381D002010B58CB024216846FDF76AF8CF
:103240000024154809944FF080410A94C0E9001405
:103250004FF45251C0E90241046184610320CDE979
:1032600000040120CDE902040494CDE9054007944F
:10327000694609480894FEF748FD08B1FDF7A7FC28
:10328000099409A904480A94FEF776FC002801D0A5
:10329000FDF79DFC0CB010BD781D002010B58CB062
:1032A00024216846FDF736F800241648099414498D
:1032B0000A94C0E900144FF45251C0E9024104617C
:1032C00084610320CDE900040120CDE902040494C7
:1032D000CDE90540079469460A480894FEF715FDB4
:1032E00008B1FDF774FC099409A906480A94FEF791
:1032F00043FC002801D0FDF76AFC0CB010BD0000B3
:1033000000040040B81D002010B58CB02421684690
:10331000FDF700F800241648099414490A94C0E9FE
:1033200000144FF45251C0E902410461846103204A
:10333000CDE900040120CDE902040494CDE9054063
:10334000079469460A480894FEF7DFFC08B1FDF7C8
:103350003EFC099409A906480A94FEF70DFC0028D2
:1033600001D0FDF734FC0CB010BD00000008004097
:10337000F81D002010B58CB024216846FCF7CAFF68
:1033800000241648099414490A94C0E900144FF423
:103390005251C0E90241046184610320CDE9000477
:1033A0000120CDE902040494CDE905400794694663
:1033B0000A480894FEF7A9FC08B1FDF708FC099437
:1033C00009A906480A94FEF7D7FB002801D0FDF7AB
:1033D000FEFB0CB010BD0000000C0040381E0020A9
:1033E0001CB500240E4800940C490194016053213F
:1033F000C0E9011442F20F718461C160FEF704FC60
:1034000008B1FDF7E4FB0094694605480194FEF716
:10341000B3FB002801D0FDF7DAFB1CBD0010004013
:10342000781E002010B588B01C216846FCF772FF9A
:103430001648154900240160A721C0E9011444F68B
:103440001F61C0E903148461FEF739FF08B1FDF77D
:10345000BEFB6020CDE900040294002269460B48BF
:103460000494FEF7C4FE08B1FDF7B1FB04226946DF
:103470000648FEF7BCFE08B1FDF7A9FB0348FEF7BE
:1034800021FE08B010BD000000400140B81E002021
:103490000C4810B50A4901604FF4E1314160002148
:1034A00081600C22C160C0E904128161C161FFF733
:1034B0001BF8002803D0BDE81040FDF788BB10BD05
:1034C000004C0040382000200C4810B50A4901602B
:1034D0004FF4E1314160002181600C22C160C0E9FC
:1034E00004128161C161FEF7FFFF002803D0BDE82F
:1034F0001040FDF76CBB10BD00500040782000204C
:103500000C4810B50A4901604FF4E13141600021D7
:1035100081600C22C160C0E904128161C161FEF7C3
:10352000E3FF002803D0BDE81040FDF750BB10BDFD
:1035300000100140B82000200C4810B50A49016075
:103540004FF4E1314160002181600C22C160C0E98B
:1035500004128161C161FEF7C7FF002803D0BDE8F6
:103560001040FDF734BB10BD00440040F82000209F
:103570000C4810B50A4901604FF4E1314160002167
:1035800081600C22C160C0E904128161C161FEF753
:10359000ABFF002803D0BDE81040FDF718BB10BDFD
:1035A00000480040382100200C4810B50A4901604D
:1035B0004FF4E1314160002181600C22C160C0E91B
:1035C00004128161C161FEF78FFF002803D0BDE8BE
:1035D0001040FDF7FCBA10BD001401407821002016
:1035E000FEE70000144A08280ED00A2814D00C2840
:1035F0001AD00E2807D1106820F4404010601068DF
:1036000040EA813010607047106820F4407010600C
:10361000106840EA0120F5E7106820F4406010606F
:10362000106840EA8120EDE7106820F440501060F7
:10363000106840EA0130E5E7140C0240FEE700B5EF
:1036400003895B1E00F003F8181A80B200BD82885F
:10365000C1888A4203D90089511A401A00E0881AA9
:1036600080B27047F0B50746FFF7F1FF0024064629
:10367000254606E0A9B2384600F007F82044C4B257
:103680006D1CB542F6DB2046F0BD10B50C46034676
:10369000FFF7DDFFA04201D8002010BD9888641C10
:1036A00019892044B0FBF1F201FB1200196880B2C5
:1036B000085C10BD026000228280C280491C01812A
:1036C000114603E003685A54491C89B203898B42AE
:1036D000F8D8704710B50446FFF7B1FF2189491E9D
:1036E00089B2884201D1012010BD002010BD00B573
:1036F000FFF7A5FF08B1002000BD012000BD10B5F7
:103700000446FFF7E7FF08B1002010BDA08821891B
:10371000401CB0FBF1F201FB120081B2A1802268D3
:103720000023505C535410BD30B50D460446FFF7DE
:10373000DEFF10B12046FFF7E2FFE0882189401C40
:10374000B0FBF1F201FB120080B2E08021680D5461
:1037500030BDFFF7D4BFFFF7E7BFF0B515460E4603
:103760000746002405E0315D3846FFF7DDFF641CA5
:10377000A4B2AC42F7D3F0BD03B501A90222FFF712
:10378000ECFF0CBD03B501A90222FFF7E6FF0CBD5B
:1037900010B50023104A15E0362809D039280BD07F
:1037A0003C2812D054783F2813D044F0800406E01F
:1037B000547844F0010402E0547844F00204401CC0
:1037C00054705B1C8B42E7D310BD547844F008045E
:1037D000F5E744F00404F2E7040000208AB2014651
:1037E00064230148FFF7FAB8F8200020044C206851
:1037F00080F400502060642002F0E0FBF7E7000056
:103800001408024001B504490098086003480168A3
:1038100041F00101016008BD0000002000100040DF
:10382000044900200860044801684FF6FE72114008
:10383000016070470000002000100040034800684D
:1038400008B10020704701207047000000000020F0
:1038500001B403490098086001B000F019B80000F5
:103860000000002010B5502080F31188BFF34F8F67
:10387000BFF36F8F04F096F818B104494FF08050F1
:103880000860002080F3118810BD000004ED00E006
:103890000748016841F00101016006490A68002AF1
:1038A000FCD101684FF6FE721140016070470000C4
:1038B000001000400000002030B593B03021684671
:1038C000FCF728FD14210CA8FCF724FD1D48002559
:1038D000016841F080510160006800F08050119053
:1038E0001948016841F4804101600068022400F435
:1038F00080401190012003901020049000940694C1
:103900000820CDE90750A820CDE9090404200B9038
:103910006846FDF757FF08B172B6FEE70CA90F2005
:1039200081E831004FF4A0500F904FF48050109078
:1039300005210CA8FDF73CFE002801D072B6FEE779
:1039400013B030BD403802400070004005480168A7
:1039500041F47001016003494FF000608039086054
:103960007047000088ED00E00148FEF7F8BA00005B
:10397000781D00200148FEF7F2BA0000B81D0020B3
:103980000148FEF7ECBA0000F81D00200148FEF7E0
:10399000E6BA0000381E00200148FEF7E0BA000039
:1039A000781E00200148FEF7DABA00001825002032
:1039B000F0B50268254C264D264E274F274B4FF079
:1039C000804CA04209D0604507D0A84205D0B04243
:1039D00003D0B84201D0984204D122F0700E4A6858
:1039E00042EA0E02A0421BD0604519D0A84217D06F
:1039F000B04215D0B84213D0984211D0184DA84209
:103A00000ED0184DA8420BD0174DA84208D0174D24
:103A1000A84205D0164DA84202D0164DA84203D1A7
:103A200022F44075CA682A434D6922F080022A4375
:103A300002608A68C2620A688262A04201D098422B
:103A400001D10969016301214161F0BD000001401C
:103A50000004004000080040000C00400004014049
:103A6000004001400044014000480140001800406F
:103A7000001C00400020004010B501F01F03012190
:103A8000046A99408C430462016A9A4011430162BE
:103A900010BD0000F0B5026A22F001020262036A62
:103AA00042688469124E24F073050C682C4323F09D
:103AB00002058B682B430D4DA84201D0B04205D1C1
:103AC00023F00807CB683B4323F00403A84201D04E
:103AD000B04205D14D6922F4407215438A692A43E8
:103AE00042608461496841630362F0BD00000140A7
:103AF00000040140F0B5026A22F010020262026A7C
:103B0000436884690D6824F4E64444EA05248D681A
:103B100022F0200242EA05120F4D104EA84201D0B9
:103B2000B04206D1CF6822F0800242EA071222F0AA
:103B30004002A84201D0B04207D14D6923F440634E
:103B400043EA85038D6943EA8503436084614968DC
:103B500081630262F0BD00000000014000040140EA
:103B6000F0B5026A22F480720262026A4368C46994
:103B700022F4007224F073050C68124E2C438D68F9
:103B800042EA05220E4DA84201D0B04206D1CF68CC
:103B900022F4006242EA072222F48062A84201D0A5
:103BA000B04207D14D6923F4405343EA05138D69B0
:103BB00043EA05134360C4614968C1630262F0BD12
:103BC000000001400004014030B5026A22F4805236
:103BD0000262046A4268C3690D6823F4E64343EA5B
:103BE00005238D6824F4005444EA0534084DA842A6
:103BF00002D0084DA84204D14D6922F4804242EA25
:103C000085124260C36149680164046230BD0000EE
:103C100000000140000401400148FEF7DBBB00004A
:103C2000382000200148FEF7D5BB00007820002096
:103C300010B5806B0021C185C184FEF7CAFB10BDA1
:103C400070B5846B2068406994F83910C0F3C010D7
:103C50000025212904D118B1E584204600F062F83E
:103C60002068406994F83A10C0F38010222904D1EA
:103C700018B1E585204600F047F8E06B40F01000F1
:103C8000E0632046FEF7A5FB70BD10B50146806BD2
:103C900009680968C90513D40021C1850168CA688B
:103CA00022F48072CA6001684A6922F001024A6106
:103CB00001684A6922F040024A61202180F83A10E6
:103CC000FEF78AFE10BD10B5806BFEF786FE10BDB4
:103CD00010B50146806B09680968C9050CD400213C
:103CE000C18401684A6922F080024A610068C168A3
:103CF00041F04001C16010BDFEF70EFF10BD10B5D0
:103D0000806BFEF70AFF10BD0168CA6822F490724A
:103D1000CA6001684A6922F001024A61202180F8E4
:103D20003A1070470168CA6822F0C002CA602021B8
:103D300080F83910704710B590F83A10222901D058
:103D4000022010BD8168B1F5805F11D001690029A2
:103D500001681FD0496801F07F03816A4A1C8262B2
:103D60000B70C18D491E0904090CC18518D02BE0C8
:103D70000269816A002A0268526805D0D2B20A80BC
:103D8000816A491C8162ECE7C2F308020A80816AF9
:103D9000891CF7E74A68816A4B1C83620A70E0E776
:103DA0000168CA6822F02002CA600168CA6822F469
:103DB0008072CA6001684A6922F001024A612021CA
:103DC00080F83A10FEF708FE002010BD2DE9F04102
:103DD000044600680169E26821F440511143016121
:103DE0002169A068E26908436169114308432168B9
:103DF000CA6849F20C639A430243CA602068416969
:103E0000A26921F4407111434161E06919276425D9
:103E10003226B0F5004F354A354920684FF000088A
:103E200006D0884201D0904236D1FDF78BFC35E0B8
:103E3000884201D0904202D1FDF784FC01E0FDF7F9
:103E400071FC61684A18A0FB070148EB0803FCF706
:103E500017FA0146B0FBF5F00201B1FBF5F06FF087
:103E60001803584301EB800006EBC000B0FBF5F0EF
:103E700000F0F80002EB4002B1FBF5F0584301EB13
:103E8000800006EBC000B0FBF5F000F007002168F1
:103E900010448860BDE8F081FDF744FC61688B0F39
:103EA0008A00A0FB0701FCF7EBF90146B0FBF5F037
:103EB0006FF01802504301EB800006EB0010B0FBDE
:103EC000F5F000F0F002B1FBF5F002EB0012B1FBEF
:103ED000F5F06FF01803584301EB800006EB00107B
:103EE000B0FBF5F000F00F00D1E700000014014036
:103EF0000010014090F83910212901D002207047AC
:103F00008168B1F5805F016A0BD04A1C02620268C9
:103F100009785160C18C491E0904090CC1840ED076
:103F200017E009880268C1F308015160016900299E
:103F3000016A02D0491C0162ECE7891CFBE70168B9
:103F4000CA6822F08002CA600068C16841F040017E
:103F5000C160002070472DE9F041984617460E4693
:103F60000446069D1DE0681C1BD02DB1FDF762FACA
:103F7000A0EB0800A84214D92068C16821F4D071D0
:103F8000C1602068416921F001014161202084F86D
:103F9000390084F83A00002084F838000320BDE896
:103FA000F0812068006836EA000004D00020B842A2
:103FB000D9D00020F3E70120F9E700000148FEF71F
:103FC00009BA0000B82000200148FEF703BA00003B
:103FD000F82000200148FEF7FDB90000382100203C
:103FE0000148FEF7F7B9000078210020FEE7000045
:103FF00070B5054600242919642301220348FEF701
:10400000EDFC641C285D0028F5D170BD78210020EE
:1040100010B5044606E06068FFF771FB01462068B2
:1040200000F006F86068FFF712FB0028F3D110BD1E
:1040300013B56423012201A9FEF7D0FC1CBD0000CA
:1040400070B5054600244FF47A76291933460122CB
:104050000348FEF7C3FC641C285D0028F5D170BD41
:104060003821002001A0FFF7C3BF0000410000007D
:1040700001A0FFF7E5BF00004200000001A0FFF72C
:10408000DFBF00004100000001A0FFF7D9BF000022
:104090004400000018B103498861002070476FF0A8
:1040A0000500704704000020032802D96FF00500C6
:1040B0007047034A106211700020D0617047000001
:1040C0000400002018B103494861002070476FF0D8
:1040D00005007047040000202DE9FC413B4C61695C
:1040E000002955D03A49E2698854521CE261206A9D
:1040F000002630B101282FD0022865D0032860D1D6
:1041000062E00878552804D0521E3148491CE2610B
:104110003CE00B2A55D30A252D4F00204FEA00031F
:1041200017F803C05B1C6044C0B2AB42F8D38B7A73
:104130008342E9D14888ADF800008888ADF80200D4
:10414000C888ADF804000889ADF806004878042254
:104150006946FCF703FC37E0022A32D94878032885
:10416000D2D18878401D904212D888180D4630F878
:10417000020C921E47BA91B2154800F05BF88742D4
:1041800008D0E269691C521E1148E261FCF7A9F8E7
:10419000BDE8FC81A8780F4B42080021606A0AE064
:1041A00005EB410701EB000CB7F80370491C7FBA1F
:1041B00023F81C7089B29142F2D31146626990478C
:1041C00002E0B2F5807FE3D1E661E1E70400002080
:1041D000320500203206002018B103494860002053
:1041E00070476FF005007047040000200FB4054BC6
:1041F00010B503A9044A029800F014F910BC5DF848
:1042000014FB0000355D0008FC0400200FB4084BCF
:1042100010B504A902AA039800F004F9044602A903
:10422000002000F096FC204610BC5DF814FB000056
:10423000534B0008F0B5FF23084E1C46002206F53C
:10424000807705E0855C5D40735D63407C5D521C5A
:104250008A42F7DB44EA0320F0BD0000D07C00086E
:104260000907090E002804DB00F1E02080F80014A3
:10427000704700F00F0000F1E02080F8141D704737
:1042800002E008C8121F08C1002AFAD1704770471F
:10429000002001E001C1121F002AFBD1704700007D
:1042A0002DE9FF5F82B00021DDE90430020DDDF869
:1042B00040B0034318D044F61050A2F2FF324243FC
:1042C0001514119801281FD0A5EB0B00401C5FEAC4
:1042D000000A4FF000064E4FDFF83891B0465046C6
:1042E00015D5CAF1000413E0119801244AA301284E
:1042F00001D16FEA0B010298119AC0E90031C0E9BF
:10430000024206B0BDE8F09FCBF10000DFE70446B3
:104310000021404A491842EB0450CDE9001012E058
:10432000E00707D032463B4640464946FCF723FAB1
:104330008046894632463B4610461946FCF71BFA32
:1043400006460F466410002CEAD1DDE90401DDE9E0
:104350000023BAF1000F06DAFCF70DFA42464B468D
:10436000FCF709FA05E0FBF7E7FF42464B46FBF78F
:10437000E3FF04460E460022284BFCF787FA03D8D9
:104380004FF0FF30014607E00022254B2046314622
:10439000FCF74AF9FCF761FA102409E0002C0ADB6B
:1043A0000A220023FBF76CFF039B30321A55641E70
:1043B00050EA0102F2D1641C039AC4F111031444BF
:1043C000119A012A03D0012208430DD10AE00843C3
:1043D00004D000204FF0110B119072E7A3EB0B05F6
:1043E0006D1E0DE05B4504DD4FF0000205F1010597
:1043F00004E003DA4FF00002A5F10105002AECD039
:1044000002981199C0E90231C0E9004579E700003E
:10441000000014400000F03F300000000000F043B6
:104420000000E03F2DE9FF4F95B09B4689460646C8
:1044300000250FE2252877D100242746F84A0121DC
:10444000059400E0044316F8013F203B01FA03F015
:104450001042F7D130782A2811D06FF02F0330782E
:10446000A0F13002092A16D8059A44F0020402EBA2
:10447000820203EB42021044761C0590EFE759F8E4
:10448000042B0592002A03DA504244F400540590AC
:1044900044F00204761C30782E2816D116F8010F4D
:1044A00044F004042A280DD06FF02F023078A0F1D8
:1044B0003003092B09D807EB870302EB4303C71826
:1044C000761CF3E759F8047B761C30786C280FD003
:1044D00006DC4C2817D068280DD06A2814D104E0D7
:1044E000742810D07A280FD10DE044F400140AE0AB
:1044F00044F4801401E044F440147278824202D102
:1045000004F58014761C761C307866280BD013DCFA
:10451000582877D009DC002875D04528F6D04628E1
:10452000F4D047281AD19DE118E0632835D06428DB
:1045300079D0652812D195E1702873D008DC6728FE
:10454000F1D069286FD06E280DD06F2806D1B5E064
:1045500073282CD0752875D0782874D05A461799AE
:1045600090476D1C75E1C4F30250022809D003285E
:104570000DD0D9F8001004280DD00D6009F1040900
:1045800067E1D9F80010EA17C1E90052F6E7D9F857
:1045900000100D80F2E70D70F0E719F8041B8DF89C
:1045A000001000208DF80100EA46012003E059F8D0
:1045B00004AB4FF0FF3061074FF0000102D40DE073
:1045C00008F101018846B9420FDA8045F8DB1AF894
:1045D00008100029F4D108E008F101018846814261
:1045E000FADB1AF808100029F6D105985B46A0EB13
:1045F000080721463846179A00F094FA284400EB41
:10460000080507E04DE029E10DE01AF8010B5A46D4
:1046100017999047B8F10108F7D25B462146384612
:10462000179A13E142E00A220092C4F302524FF0BB
:10463000000A022A08D059F804CB032A4FEAEC7189
:104640000AD00DE029E02AE009F1070121F0070274
:10465000F2E802C1914609E00FFA8CFC4FEAEC71D6
:10466000042A03D14FFA8CFC4FEAEC71002907DAD7
:104670000A460021DCF1000C61EB02012D2202E070
:10468000220504D52B228DF80420012203E0E20745
:1046900001D02022F7E7904659E00A2102E01022DB
:1046A0000DE010214FF0000A00910BE010224FF0B6
:1046B000000A44F004040827009203E008224FF0A7
:1046C000000A0092C4F30252022A05D059F804CB22
:1046D0000021032A08D009E009F1070121F00702AF
:1046E000F2E802C1914605E01FFA8CFC042A01D1D0
:1046F0000CF0FF0C4FF00008220728D5702806D0D8
:10470000009B83F0100353EA0A0305D00EE0402219
:104710008DF80420012208E05CEA010206D0302274
:104720008DF804208DF8050002229046009B83F04E
:10473000080353EA0A030AD15CEA010201D16207C5
:1047400005D530228DF804204FF001087F1E58282F
:1047500004D034A003900EA802900DE036A0F9E733
:1047600053466046009AFBF78BFD84460398825CB3
:104770000298401E029002705CEA0100F0D102989B
:1047800006A9081A00F1200A600702D524F4803433
:1047900000E00127574502DDA7EB0A0000E00020FA
:1047A00000EB0A01009005984144401A0590E0038F
:1047B00006D45B462146179A059800F0B3F90544E4
:1047C000002706E001A85A46C05D179990476D1C66
:1047D0007F1C4745F6DBE0030CD55B462146179A64
:1047E000059800F09FF9054404E030205A461799D7
:1047F00090476D1C0099481E00900029F5DC08E0E8
:10480000029802995A460078491C029117999047DC
:104810006D1CBAF10001AAF1010AF1DC65E10000AA
:104820000928010030313233343536373839616286
:10483000636465660000000030313233343536374A
:1048400038394142434445460000000000F058F921
:104850000544761C307800287FF4ECAD19B028466A
:10486000BDE8F08F620700D4062709F1070222F0A5
:10487000070CFCE80223E14603F000485FEA080C5D
:1048800002D00FF2702C0DE05FEA045C02D50FF24B
:10489000682C07E05FEAC47C02D00FF2602C01E0D4
:1048A000AFF2700C4FF0FF3823F00043CDF850C04A
:1048B00065280CD006DC452809D046281DD047289D
:1048C0003DD13DE0662818D067287ED138E0002130
:1048D000112F01DB112000E0781CCDE9000106A9B1
:1048E0000EA8FFF7DDFCDDE90F010E9A0391002110
:1048F000009207F1010A04914DE04FF0004000974B
:10490000CDE9011006A90EA8FFF7CAFCDDE90F02E8
:1049100003920E9B11990022DDF80CA000930492E3
:1049200011B9791C00EB010AB7EB0A0004D4C0F1FD
:10493000FF3007F1010A0490AAEB0700019044E060
:10494000012F00DA01270021112F01DD112000E0E5
:104950003846CDE9000106A90EA8FFF7A1FCDDE964
:104960000F010E9A0391002104910092BA4621078B
:104970000CD40399514500DA8A46BAF1010F05DDDE
:10498000009AAAF10101515C302908D0B84202DA3C
:1049900010F1040F06DA0121CDE9011015E0AAF1AA
:1049A0000101E9E7002805DC049901440491AAEB20
:1049B000000102E0411C514500DD8A460499401A7D
:1049C000401C01904FF000400290200704D4019851
:1049D000504501DBCDF8048000208DF84F0002988F
:1049E0000DF14F07B0F1004F25D02B200E9002980B
:1049F0004FF0020800280CDA404202902D200E9061
:104A000007E00A210298FBF746FD3031029007F8D3
:104A1000011DB8F10001A8F10108F2DC029800289C
:104A2000EFD1791E0E980870307800F0200040F029
:104A3000450007F8020D12A8C01B00F107081498E2
:104A4000007800B1012000EB0A01019801EBE07150
:104A500005984144401A401E0590E00306D45B4689
:104A60002146179A059800F05DF8054414980078DF
:104A700018B15A46179990476D1CE00324D55B4640
:104A80002146179A059800F04DF805441CE004985B
:104A9000002807DBDDE90301884203DD0098405C64
:104AA000179901E0179930205A469047049805F16C
:104AB0000105401C04900198401E019004D12E2055
:104AC0005A46179990476D1CBAF10001AAF1010AE4
:104AD000DDDC05E017F8010B5A46179990476D1C6D
:104AE000B8F10001A8F10108F4DC5B462146179AF1
:104AF0000598ABE62D0000002B0000002000000010
:104B00002DE9F041044600251E461746880404D4CA
:104B100005E039462020B0476D1C641EF9D52846B3
:104B2000BDE8F0812DE9F041044600251E4690467F
:104B3000C80301D5302700E02027880404D505E00C
:104B400041463846B0476D1C641EF9D52846BDE87D
:104B5000F0810A68531C0B601070704710B5F0EEBE
:104B6000603A0346B0EE404A9FED293ADFED292A2C
:104B70009FED292AF0EE610A00F094FA10EE100A77
:104B80002649884207DDBDE81040F0EE630AB0EE2A
:104B9000440A00F019BBF0EE610AB0EE440A00F0DE
:104BA00081FA1F491F4AD1ED020A70EE800A10EE09
:104BB000900AC1ED020A904202DDDFED1B0A06E019
:104BC00010EE900A194A904201D3DFED190A20EE47
:104BD000031AC1ED020A81ED030A30EE400A00EE2D
:104BE000A21A4FF47A7000EE021ABDEEC10A10EE5E
:104BF000102A824202DC4042824200DC02469918BE
:104C0000981ABDE810400B46024601F02FBE000086
:104C1000666666408FC2F53D000000000000F0416E
:104C20002C0000200060EA460060EA460060EAC608
:104C30000060EAC62DE9F04140F21D16069CB0EE78
:104C4000604A04FB0657F0EE404A4FF448750026D0
:104C50009FED583ADFED582A9FED582ADFED583A7C
:104C6000DFED580A584CD4F824C0BC4505D0DFF815
:104C70005CC18CE80F00676211E0544ED6F800C0AA
:104C8000A0EB0C0008447168401AB1681044401A47
:104C9000F1681844401AC11700EB91708610B91BD7
:104CA00000EE101AA06A4A4B0844B8EEC00AA0628F
:104CB000226A2E4663EE803A8A1A00EE102AB8EE77
:104CC000C05AB0EE420A40EE053A00EE100AB8EEC5
:104CD000C00A40EE803ABDEEE30A10EE102AAA4266
:104CE00001DD324602E09A4200DC1A4643F6982380
:104CF000984202DC5B42984200DC1846216209318E
:104D0000A062132908D200231A461946184601F05A
:104D1000ADFD0120BDE8F081F0EE610AB0EE640A5D
:104D200000F0C0F910EE100A2A49884206DDF0EEC4
:104D3000440AB0EE640A00F047FA38E0F0EE610A87
:104D4000B0EE640A00F0AEF9D4ED060A224970EE26
:104D5000800A10EE900AC4ED060A884202DDDFEDFB
:104D60001F0A06E010EE900A1D49884201D3DFEDCC
:104D70001D0A20EE031AC4ED060A84ED070A30EE80
:104D8000400A00EEA21A4FF4C87100EE021ABDEEFE
:104D9000C10A10EE100A884202DC4942884200DC57
:104DA00008461118101A0B46024601F05FFD00205C
:104DB000B0E70000666666408FC2F53D0000000067
:104DC000CDCCCC3D0AD7233C2C000020840700200A
:104DD000E0FCFFFF0000F04100606A4600606A46A8
:104DE00000606AC600606AC670B5F0EE603A0546BB
:104DF000B0EE404A9FED2A3ADFED2A2AB7EE002AAC
:104E0000F0EE610A00F04EF910EE100A26498842D1
:104E100007DDBDE87040F0EE630AB0EE440A00F032
:104E2000D3B9F0EE610AB0EE440A00F03BF91F4935
:104E30001F4AD1ED040A70EE800A10EE900AC1ED0F
:104E4000040A904202DDDFED1B0A06E010EE900A34
:104E5000194A904201D3DFED190A20EE031AC1ED81
:104E6000040A81ED050A30EE400A00EEA21A4FF462
:104E70007A7000EE021ABDEEC10A10EE101A8142DD
:104E800002DC4042814200DC01466C1A6B1862422F
:104E9000481941422046BDE8704001F0E7BC0000DF
:104EA00066662640000000000000F0412C00002053
:104EB0000060EA460060EA460060EAC60060EAC6B2
:104EC0002DE9F0410024069E40F2311506FB05460F
:104ED000B0EE604AF0EE404A4FF416752746B3EE46
:104EE000043A9FED5E2AF7EE002ADFED5D3ADFED32
:104EF0005D0A5D4C4FF0000ED4F838C0B4450DD0BB
:104F0000DFF868C1B0EE420A8CE80F00A66384EDBA
:104F10000C0AC4F83CE084ED0B0A08E053490A6827
:104F2000C968801A1844401A00EBD0704710F11B72
:104F300000EE101AE06B4E4B0844B8EEC00AE06376
:104F4000626B63EE803A8A1A00EE102AB8EEC05AFD
:104F5000B0EE420A40EE053A00EE100AB8EEC00A82
:104F600040EE803ABDEEE30A10EE102AAA4204DCBD
:104F70009A4201DD154600E01D4647F2305290424C
:104F800002DC5242904200DC104661630931E0636A
:104F9000132908D200231A461946184601F066FC68
:104FA0000120BDE8F081F0EE610AB0EE640A00F085
:104FB00079F810EE100A2F49884206DDF0EE440A17
:104FC000B0EE640A00F000F946E0F0EE610AB0EEDF
:104FD000640A00F067F810EE100A10F1814F04D84F
:104FE00010EE100AB0F17E5F2EDDD4ED0B0A2249DF
:104FF00070EE800A10EE900AC4ED0B0A884202DDC2
:10500000DFED1E0A06E010EE900A1D49884201D32A
:10501000DFED1C0A20EE031AC4ED0B0A84ED0C0A26
:1050200030EE400A00EE821A00EE221ABDEEC10AEE
:1050300010EE100A962801DD962006E06FF095012B
:10504000884202DC084600E0002041192B184A4241
:10505000281A414201F00AFC0020A2E700000000EB
:10506000CDCCCC3D0AD7233C2C0000209407002057
:10507000A8FDFFFF0000F04100401C4600401C4618
:1050800000401CC600401CC610B5002145F2082493
:1050900005E0224602235B1C9342FCD3491C81425B
:1050A000F7D310BD30EE600AB5EEC00AF1EE10FA8B
:1050B00004DD10EE100A0C49884211DD10EE101AC2
:1050C0000A48814204D8B5EEC00AF1EE10FA07D9B9
:1050D00010EE101ADFED060A814202D930EE200AE6
:1050E000704730EE600A704700003443000034C35C
:1050F0000000B44398B0002001F04EFFDFF8948028
:105100000A220CA94446D8F81C0002F053FA0A22DD
:1051100013A9206A02F04EFA0A220FA9606902F070
:10512000AFF901F0C5FD0E98FBF786F906460F466C
:105130000D98FBF781F904460D460C98FBF77CF9B6
:1051400041EC100BDDE91513DDE911020DF1200C26
:105150008CE80F00DDE91320DDE90F310790CDE980
:105160000521CDE903738DE8700053EC102B0AA1E3
:105170001348FFF74BF81248FBF7D7F882B21049F3
:105180001048FDF789FC01F0B3FD462000F016FF42
:10519000B6E7000020040020252E32662C252E3292
:1051A000662C252E32662C25642C25642C25642C37
:1051B00025642C25642C25642C25642C25640A0088
:1051C000DC170020B820002010B5F0EE0C2AB5EE58
:1051D000002A9FED2A1AF0EE610AFFF763FF2848C4
:1051E000284AD0ED000A70EE800A10EE901AC0ED49
:1051F000000A914202DDDFED240A06E010EE901A6B
:10520000224A914201D3DFED220AC0ED000A80ED6F
:10521000010A10EE100AB0F13F4F0ED2F0EE401A24
:1052200011EE900AB0F17C5F07DA00231A461946A6
:10523000184601F01BFB012010BDF0EE401A4FF4A0
:105240007A7161EEA21A40EE821AF0EE400A30EE58
:10525000C00A40EE011ABDEEE10A10EE100A8842C3
:1052600002DC4942884200DC08464042434219467B
:10527000024601F0FBFA002010BD00000000000013
:105280002C0000200060EA460060EA460060EAC6A2
:105290000060EAC62DED028B4FF000089AB0C146BF
:1052A000CDF82880CDF82C804546C3464646434677
:1052B000424641464046CDF8608001F0D7FA4FF0B3
:1052C000FF379FEDFC8AFC4C3A4607A9606A02F062
:1052D00071F93A4603A9E06A02F06CF900212069ED
:1052E00002F004FA012800D18246002211A9206BA5
:1052F00002F060F9012805D1BDF846000125401CE7
:10530000ADF8460000220FA9606B02F053F90128A6
:1053100000D101266078A178884200D008466070EC
:105320000E287CD2DFE800F0071F3656A1C1F6F543
:10533000F4F3F2F1F0EFE1480DF10C0C00909CE871
:105340000F000DF11C0CB0EE480ADCEC030AFFF76D
:10535000B7FD012846D100231A461946184601F028
:1053600085FA01207EE307A8B0EE480AD0EC030AD4
:10537000FFF72AFF0128EDD100231A4619461846E7
:1053800001F074FA01F066FE02206070A070FEF772
:1053900075FEFAE34FF42A700DF10C0C00909CE8B6
:1053A0000F000DF11C0CB0EE480ADCEC030AFFF70D
:1053B00041FC0128CED100231A461946184601F0B7
:1053C00055FA01F047FE03206070A070FEF756FE0C
:1053D0000025DAE33DB1BDF84800162806D0FEF7F7
:1053E00053FE00250FE3FEF749FEB6E000231A4600
:1053F0001946184601F03AFA01F02CFEBDF84A00B1
:10540000C0F381258DF82850C0F3012C8DF829C0F8
:10541000C0F381138DF82A30C0F3011200E0F0E3ED
:10542000C0F3810100F003008DF82C108DF82D00E1
:105430008DF82B20CDE90021029062462946A0A0DC
:10544000FEF7D4FEFEF720FE04206070A070A14895
:10545000002507C88DE807009E4810380FC801F0E6
:10546000B5F902F0D3FB0420FDE240F2C1200DF1BA
:105470000C0C00909CE80F000DF11C0CB0EE480ADB
:10548000DCEC030AFFF7D6FB0128ABD100231A4658
:105490001946184601F0EAF901F0DCFD05206070BC
:1054A000A0700025FEF7F0FD6FE34DB1BDF8480098
:1054B0000B280CD0FEF7E8FD00254FF4FA70C4E28B
:1054C0004FF4FA7000F07AFDFEF7D2FD9BE2BBF1DB
:1054D000020F2FD2BDF94400411C03291BD2002327
:1054E0001A461946184601F0C1F94FF4FA7000F057
:1054F00065FDBDF94400401D0A28E7D80BF1010005
:1055000000F0FF0BF1E3E4E358E33FE3ADE29FE299
:105510007AE2A3E01AE010F1050F02DA6FF0310031
:1055200000E0322007A9B0EE480AD1EC030AFFF7E9
:1055300015FBDAE300231A461946184601F096F9DE
:1055400001F088FD0620A0706070BFE3002E7CD0C3
:10555000BDF840000B2879D101E0C82075E2189809
:10556000C8B1B8F1020F32DABDF93C00811C05293F
:105570001ED200231A461946184601F077F94FF457
:10558000FA7000F01BFDBDF93C004FF0000B401D10
:105590000A287DD9A9E3BDF83C00FF2803D1BDF856
:1055A0003E00FF2802D0012018909EE3502006E024
:1055B00010F1030F02DC6FF0310000E0322007A988
:1055C000B0EE480AD1EC030AFFF70EFC8DE3BDF9FB
:1055D0003E00032806DD6FF027014FF028020B463E
:1055E000104651E306DA4FF028036FF02700024619
:1055F000194649E34FF000031A461946184601F0D0
:1056000035F94FF4967000F0D9FCBDF83E00032840
:1056100003D10BF1010000F0FF0BBBF1020F88D9A1
:1056200025482C4A9DED090A383A80ED0E0A07CA32
:10563000284C8DE80700643C04F11C004FF0000A80
:105640000FC801F0C3F8A08E01E038E2BBE200F021
:10565000B5FC194807218170417046E34846B9F10D
:105660000E0F75D00BDCB9F10E0F20D2DFE809F078
:105670003447627894A9BE1F1F1F1FCCE1F6212872
:1056800067D00BDC16287CD017287BD0182800E0C8
:10569000FDE278D0B9F1190F09D138E1222873D091
:1056A000232872D0242871D0B9F1FA0F6FD00820C6
:1056B000D8E100000000000020040020E8FEFFFF09
:1056C00025642C25642C25642C25642C25642C252C
:1056D000640A000004010020BAF1010F0BD0F84C5D
:1056E00004F1100007C88DE8070094E80F0001F0EE
:1056F0006DF8208BA9E14FF0000A012016E0BAF105
:10570000010F10D0E078032812D0ED4AEC4C803223
:1057100007CA8DE8070004F170000FC801F056F8C1
:10572000B4F8880091E14FF0000A02208146DCE2E3
:10573000FA20FBE70AA9E078BDF946200956914214
:1057400008D1401CE070D0B24FF003091990CCE2B0
:1057500099E0EDE0AFF28C00FEF748FD642074E1C3
:10576000BAF1010F14D0D64A9C3207CA8DE807005F
:10577000D3488C300FC801F029F8D148B0F8A40004
:1057800063E191E0A1E0B1E0E3E0F4E00BE11EE1D0
:105790004FF0000A0420C9E7BAF1010F0DD0C84A42
:1057A000B83207CA8DE80700C548A8300FC801F015
:1057B0000DF8C348B0F8C00047E14FF0000A0520DB
:1057C000B4E7BAF1010F0DD0BD4AD43207CA8DE853
:1057D0000700BB48C4300FC800F0F8FFB848B0F865
:1057E000DC0032E14FF0000A06209FE719980128FB
:1057F00004D0022804D0032899D103E00B2095E7B8
:10580000162093E7212091E7BAF1010F0DD0AC4AA1
:10581000F03207CA8DE80700A948E0300FC800F051
:10582000D5FFA748B0F8F8000FE14FF0000A0C20B0
:105830007CE7BAF1010F0DD0A24A07CA8DE8070034
:10584000A04810380FC800F0C1FF9D48B0F81401FF
:10585000FBE003E04FF0000A0D2067E7BAF1010F0B
:105860000DD0984A1C3207CA8DE8070095480C30C5
:105870000FC800F0ABFF9248B0F83001E5E04FF000
:10588000000A0E2052E7BAF1010F73D08D4838306C
:1058900007C88DE807008B4828300FC800F096FF36
:1058A0008748B0F84C01D0E0BAF1010F75D0854AB5
:1058B000543207CA8DE80700824844300FC800F010
:1058C00085FF7F48B0F86801BFE0BAF1010F64D0EE
:1058D0007C4A703207CA8DE807007A4860300FC8EA
:1058E00000F074FF7648B0F88401AEE0BAF1010F21
:1058F00053D0744A8C3207CA8DE8070071487C3057
:105900000FC800F063FF6E48B0F8A0019DE0BAF147
:10591000010F58D06B4AA83207CA8DE807006948C2
:1059200098300FC800F052FF6548B0F8BC018CE019
:10593000BAF1010F31D0634AC43207CA8DE80700BB
:105940006048B4300FC800F041FF5D48B0F8D8019E
:105950007BE0BAF1010F20D05A4AE03207CA8DE845
:1059600007005848D0300FC800F030FF5448B0F856
:10597000F4016AE027E0BAF1010F0ED0514AFC327F
:1059800007CA8DE807004F48EC300FC800F01EFF33
:105990004B48B0F8100258E0FFE709F101004FF062
:1059A000000AC0B2C2E6BAF1010F0CD0464A07CADB
:1059B0008DE80700444810380FC800F007FF404842
:1059C000B0F82C0241E04FF0000A5046AEE63C4AE7
:1059D0003B4C2C3207CA8DE8070004F11C000FC8AD
:1059E00000F0F4FEA08E00F0E9FA09F1010004F5E0
:1059F000107200F0FF0907CA8DE8070004F50C706B
:105A00000FC800F0E3FE70E14FF4C8700DF10C0C0C
:105A100000909CE80F000DF11C0C94ED0E0ADCECDC
:105A2000030AFFF707F90128EDD127490920A070E3
:105A30003831607007C98DE80700234828300FC847
:105A400000F0C4FE1E48B0F8640200F0B7FA4CE162
:105A500007A894ED0E0AD0EC030AFFF7B5FB012866
:105A600002D10A20A07060703FE146B3BDF840004B
:105A70000B2801D000267FE0B8F1030F2DDABDF925
:105A80003C00FF2803D1BDF83E10FF2902D00028BA
:105A900006D01BDA4FF032031A461946184648E082
:105AA0004FF000031A461946184600F0DFFE4FF487
:105AB000967000F083FABDF83C0090B35CE084E09F
:105AC000A0000020AC010020C402002054DD6FF0D3
:105AD000310003461A4611462BE0B8F1060F12DAE0
