:020000040800F2
:10000000380400204501000885060008490600085C
:1000100071060008B901000843170008000000003D
:100020000000000000000000000000004908000877
:10003000BD01000800000000310700085D0900084C
:100040005F0100085F0100085F0100085F01000810
:100050005F0100085F0100085F0100085F01000800
:100060005F0100085F0100085F0100085F010008F0
:100070005F0100085F0100085F0100085F010008E0
:100080005F0100085F0100085F0100085F010008D0
:100090005F0100085F0100085F0100085F010008C0
:1000A0005F0100085F0100085F0100085F010008B0
:1000B0005F0100085F0100085F0100085F010008A0
:1000C0005F0100085F0100085F0100085F01000890
:1000D0005F0100085F0100085F010008511300087C
:1000E0005F0100085F0100085F0100085F01000870
:1000F0005F0100085F0100085F0100085F01000860
:100100005F0100085F0100085F0100085F0100084F
:100110005F0100085F0100085F0100085F0100083F
:100120005F0100085F0100085F0100085F0100082F
:10013000DFF80CD000F02EF800480047951B0008AF
:10014000380400200648804706480047FEE7FEE7DF
:10015000FEE7FEE7FEE7FEE7FEE7FEE7FEE7FEE777
:10016000610900083101000830B50B460146002046
:100170002022012409E021FA02F59D4205D303FA69
:1001800002F5491B04FA02F52844151EA2F10102EA
:10019000F1DC30BD064C074D06E0E06840F001039D
:1001A00094E8070098471034AC42F6D3FFF7C4FF39
:1001B000381D0008581D000800BFFEE7704700000A
:1001C00000B587B0012140F6040000F0C3FA012118
:1001D000202000F0BFFA4FF44070ADF8000004207A
:1001E0008DF8030069461F4800F05AF904A801F091
:1001F000A5F80020ADF810004FF6FF70ADF8140020
:100200000020ADF81600ADF8120004A9164801F060
:1002100043F800231A460321134800F0E5FD01A826
:1002200000F096FE0A20ADF80C0001A90E4800F07F
:1002300039FE01210C4800F0B9FD012211460A489F
:1002400000F08FFE0021084800F0F8FF47F6FF702D
:100250000549243108800121034800F0AAFD07B0B8
:1002600000BD000000080140002C014000B587B02F
:100270000121084600F05EFA0121084600F06AFA02
:1002800001212F4800F098F901210D2000F062FAB9
:1002900001212C4800F090F94FF40040ADF8000027
:1002A00004208DF803006946274800F0F9F808207B
:1002B000ADF8000004208DF803006946234800F0E3
:1002C000EFF804A801F03AF80020ADF810004FF65E
:1002D000FF70ADF814000020ADF81600ADF8120064
:1002E00004A94FF0804000F0D7FF00231A460321F5
:1002F0004FF0804000F078FD01A800F029FE0A20B0
:10030000ADF80C0001A9400700F0CCFD01218807E1
:1003100000F04CFD01221146900700F022FE002162
:100320004FF0804000F08AFF47F6FF704FF08041A9
:1003300088840121880700F03CFD07B000BD000063
:10034000000230000003180000080140000C0140CA
:1003500000B587B00121042000F0ECF9012109204B
:1003600000F0F8F9C020ADF8000004208DF803007B
:1003700069461F4800F094F804A800F0DFFF002051
:10038000ADF810004FF6FF70ADF814000020ADF886
:100390001600ADF8120004A9164800F07DFF0023F6
:1003A0001A460321134800F01FFD01A800F0D0FDFC
:1003B0000A20ADF80C0001A90E4800F073FD0121E0
:1003C0000C4800F0F3FC012211460A4800F0C9FD78
:1003D0000021084800F032FF47F6FF70054924313C
:1003E00008800121034800F0E4FC07B000BD0000D4
:1003F000000C01400008004000B587B00121082032
:1004000000F098F90121052000F0A4F90320ADF8CF
:10041000000004208DF8030069461F4800F040F8F2
:1004200004A800F08BFF0020ADF810004FF6FF701D
:10043000ADF814000020ADF81600ADF8120004A9C4
:10044000164800F029FF00231A460321134800F044
:10045000CBFC01A800F07CFD0A20ADF80C0001A93E
:100460000E4800F01FFD01210C4800F09FFC012206
:1004700011460A4800F075FD0021084800F0DEFE34
:1004800047F6FF700549243108800121034800F038
:1004900090FC07B000BD000000080140000C0040C7
:1004A0002DE9F0410246002500260020002300240B
:1004B000002791F803C00CF00F0591F803C00CF071
:1004C000100CBCF1000F03D091F802C04CEA0505F6
:1004D00091F800C0BCF1000F31D0146800202BE06F
:1004E0004FF0010C0CFA00F3B1F800C00CEA03065F
:1004F0009E4220D183004FF00F0C0CFA03F7BC434F
:1005000005FA03FC4CEA040491F803C0BCF1280F7F
:1005100006D14FF0010C0CFA00FCC2F814C00AE03E
:1005200091F803C0BCF1480F05D14FF0010C0CFA53
:1005300000FCC2F810C0401C0828D1D31460B1F8E8
:1005400000C0BCF1FF0F34DD546800202EE000F144
:10055000080C4FF0010808FA0CF3B1F800C00CEADF
:1005600003069E4221D183004FF00F0C0CFA03F7D3
:10057000BC4305FA03FC4CEA040491F803C0BCF147
:10058000280F05D100F1080C08FA0CF8C2F8148005
:1005900091F803C0BCF1480F07D100F1080C4FF0EF
:1005A000010808FA0CF8C2F81080401C0828CED3C5
:1005B0005460BDE8F0810000F0B50A460023002435
:1005C0000021002500F00046B6F1004F02D11D4E7B
:1005D000F16901E01B4E7168C0F3034583B200F47A
:1005E0004016B6F5401F08D121F07061154E7668AF
:1005F00026F07066134F7E6012E000F48016B6F5A8
:10060000801F06D1032606FA05F4A14341F070616C
:1006100006E0460D360103FA06F6B14341F070617B
:1006200022B1460D360103FA06F6314300F00046CA
:10063000B6F1004F02D1034EF16101E0014E71604D
:10064000F0BD00000000014000BFFEE708B5012139
:10065000042000F07FF81020ADF8000004208DF891
:10066000030069460148FFF71BFF08BD0008014071
:1006700000BFFEE710B500F0D9FB00F02BFB00F047
:10068000BFFA10BD704708B54FF4A06000F046F8FF
:1006900027208DF8000001208DF801008DF8020060
:1006A0008DF80300684600F001F808BD70B5002120
:1006B00000230F22C47804B3154C246804F4E064CA
:1006C000C4F5E064210AC1F10403CA40447804FA85
:1006D00003F184781440214309010E4C0678A1559A
:1006E000047804F01F050124AC4005786D11AD00BD
:1006F00005F1E025C5F8004109E0047804F01F0584
:100700000124AC40044D0678761145F8264070BDB2
:100710000CED00E000E400E080E100E0024901436C
:10072000024A1160704700000000FA050CED00E07D
:100730007047000029B1064AD2690243044BDA61CE
:1007400004E0034AD2698243014BDA61704700003A
:100750000010024029B1064A92690243044B9A6193
:1007600004E0034A92698243014B9A61704700009A
:100770000010024030B500210022002400232D4D3E
:100780006D6805F00C0121B1042905D0082923D199
:1007900005E0294D056022E0274D05601FE0254D4D
:1007A0006D6805F47012234D6D6805F480340225E0
:1007B00005EB92421CB9214D554305600BE01D4DE0
:1007C0006D6805F400351DB11C4D5543056002E010
:1007D000194D5543056002E0174D056000BF00BF8D
:1007E000144D6D6805F0F0010909154D6B5C056845
:1007F000DD4045600F4D6D6805F4E061090A104D5C
:100800006B5C4568DD4085600A4D6D6805F460519C
:10081000C90A0B4D6B5C4568DD40C560054D6D68D0
:1008200005F44041890B074D6B5CC568B5FBF3F5DA
:10083000056130BD0010024000127A0000093D0041
:100840001400002024000020704710B500F002F8CA
:1008500010BD00000CB500200190009033480068E6
:1008600040F480303149086000BF3048006800F42F
:10087000003000900198401C0190009818B9019830
:10088000B0F5A06FF1D12948006800F4003010B134
:100890000120009001E0002000900098012843D141
:1008A0002348006840F010002149086008460068AD
:1008B00020F0030008600846006840F0020008606D
:1008C0001A48406819494860084640684860084628
:1008D000406840F4806048600846406820F47C101E
:1008E00048600846406840F4E810486008460068E0
:1008F00040F08070086000BF0C48006800F0007095
:100900000028F9D00948406820F0030007494860F2
:100910000846406840F00200486000BF0348406855
:1009200000F00C000828F9D10CBD000000100240B6
:1009300000200240042808D14FF0E021096941F06D
:1009400004014FF0E022116107E04FF0E021096956
:1009500021F004014FF0E022116170477047000060
:1009600010B51348006840F00100114908600846BE
:100970004068104908400E494860084600680E4922
:1009800008400B4908600846006820F48020086091
:100990000846406820F4FE0048604FF41F0088605D
:1009A000FFF753FF4FF000600449086010BD0000DE
:1009B000001002400000FFF8FFFFF6FE08ED00E027
:1009C000F0B50C46154600220021068C4FF6FE7746
:1009D0003E400684028B018C4FF60C7632407E1C22
:1009E00006EA03162E433243104EB0420ED0104E8C
:1009F000B0420BD0B0F1804F08D00E4EB04205D0BF
:100A00000D4EB04202D00D4EB04206D14FF6FD76EB
:100A1000314044F00106314305E04FF6F5763140B0
:100A200044F00106314302830184F0BD002C0140F3
:100A3000003401400004004000080040000C004069
:100A4000F0B50C461546002200210026078C4FF613
:100A5000EF7C07EA0C070784028B018C4FF6FF77C7
:100A600007EA041640F6FF473A404FF6FF7707EAD9
:100A700003373A434FF6FF7707EA05273A43114F0A
:100A8000B8420ED0104FB8420BD0B0F1804F08D012
:100A90000E4FB84205D00E4FB84202D00D4FB842AB
:100AA00006D14FF6DF77394046F01007394305E0AD
:100AB0004FF65F77394044F01007394302830184D1
:100AC000F0BD0000002C0140003401400004004053
:100AD00000080040000C0040F0B50C46154600220E
:100AE00000210026078C4FF6FF6C07EA0C070784ED
:100AF000828B018C4FF6FF7707EA04264FF60C77BE
:100B00003A404FF6FF7707EA03172F433A43114F56
:100B1000B8420ED0104FB8420BD0B0F1804F08D081
:100B20000E4FB84205D00E4FB84202D00D4FB8421A
:100B300006D14FF6FF57394046F48077394305E038
:100B40004FF2FF57394044F4807739438283018460
:100B5000F0BD0000002C01400034014000040040C2
:100B600000080040000C0040F0B50C46154600227D
:100B700000210026078C4EF6FF7C07EA0C0707844D
:100B8000828B018C4FF6FF7707EA043640F6FF4769
:100B90003A404FF6FF7707EA05273A434FF6FF77CB
:100BA00007EA03373A43114FB8420ED0104FB8420C
:100BB0000BD0B0F1804F08D00E4FB84205D00E4F89
:100BC000B84202D00D4FB84206D14DF6FF773940FA
:100BD00046F48057394305E047F6FF57394044F45F
:100BE0008057394382830184F0BD0000002C01400E
:100BF000003401400004004000080040000C0040A8
:100C0000F0B587B0002700240025002640F2E73029
:100C1000ADF814004720ADF810000020ADF8160024
:100C2000ADF8120004A92A4800F036FB6020ADF8A8
:100C300000000120ADF80200ADF806700020ADF80C
:100C400008006946224800F095F90821204800F084
:100C5000DDF90120ADF80200ADF806500020ADF836
:100C6000080069461A4800F0DBF90821184800F02E
:100C700029FA0120ADF80200ADF806600020ADF8B9
:100C800008006946124800F02BFA0821104800F0CD
:100C900077FA0120ADF80200ADF806400020ADF86B
:100CA000080069460A4800F075FA0821084800F073
:100CB000AFFA0121064800F06DF80121044800F068
:100CC00084F80121024800F074F807B0F0BD00007C
:100CD00000040040F0B587B000270024002500265E
:100CE00040F2E730ADF814004720ADF810000020C6
:100CF000ADF81600ADF8120004A9254800F0CCFAB2
:100D00006020ADF800000120ADF80200ADF80670DB
:100D10000020ADF8080069461D4800F02BF90821B5
:100D20001B4800F073F90120ADF80200ADF8064051
:100D30006946174800F074F90821154800F0C2F917
:100D40000120ADF80200ADF806506946104800F0E9
:100D5000C7F908210E4800F013FA0120ADF802008F
:100D6000ADF8066069460A4800F014FA0821084800
:100D700000F04EFA0121064800F00CF80121044869
:100D800000F023F80121024800F013F807B0F0BD8D
:100D90000034014021B1028842F08002028004E068
:100DA00002884FF67F731A4002807047CA4302825E
:100DB000704721B1028842F00102028004E00288FB
:100DC0004FF6FE731A400280704731B1B0F84420EC
:100DD00042F40042A0F8442005E0B0F84420C2F3F9
:100DE0000E02A0F844207047F0B50C4615461E468A
:100DF0000021002200230189028B038C4FF6F87733
:100E0000394021434FF6FC473A4040F201173A433C
:100E10004FF6DD773B404FF6FF7707EA06172F4383
:100E20003B43018102830384F0BD000008B501212A
:100E30004803FFF78FFC01210220FFF77BFC012113
:100E40001D20FFF787FC4FF47070ADF800001820EC
:100E50008DF8030003208DF8020069460E48FFF765
:100E60001FFBC020ADF8000018208DF80300032000
:100E70008DF8020069460948FFF712FB0320ADF820
:100E8000000018208DF8030003208DF80200694649
:100E90000348FFF705FB08BD0010014000080140B2
:100EA000000C014070B505460C46244885420ED022
:100EB000234885420BD0B5F1804F08D021488542A8
:100EC00005D02148854202D02048854200D100E06B
:100ED00000BF208850B92389A28861882846FFF77F
:100EE0006FFDE188284600F0ABF925E02088042852
:100EF0000AD12389A28861882846FFF7A1FDE188ED
:100F0000284600F0A6F917E0208808280AD123898E
:100F1000A28861882846FFF7DFFDE188284600F0B7
:100F2000A5F909E02389A28861882846FFF71CFEFD
:100F3000E188284600F0A3F970BD0000002C0140B4
:100F4000003401400004004000080040000C004054
:100F5000002101804180012181800021C180018127
:100F600070471AB183890B43838102E083898B43E5
:100F70008381704770B5002400220023058C4FF652
:100F8000FE7635400584028C8388048B4FF68F757E
:100F90002C40B51E2C400D882C43751E2A400D890F
:100FA0002A434D882A43144DA8420BD0134DA84222
:100FB00008D0134DA84205D0124DA84202D0124DC0
:100FC000A84213D14FF6F7752A404D892A434FF6B0
:100FD000FB752A408D882A434FF6FF652B404FF65C
:100FE000FF552B408D892B43CD892B438380048370
:100FF000CD888586028470BD002C014000340140FC
:101000000040014000440140004801400A460021E0
:10101000018B4FF6F77319401143018370470000AD
:1010200070B5002400220023058C4FF6EF76354082
:101030000584028C8388048B48F6FF752C404FF69C
:10104000FF452C400D884FF6FF7606EA05252C4318
:101050004FF6DF752A400D8906EA05152A434D88AB
:1010600006EA05152A43154DA84202D0144DA842A0
:101070001DD14FF67F752A404D894FF6FF7606EA5F
:1010800005152A434FF6BF752A408D8806EA0515D7
:101090002A434FF6FF352B404FF2FF752B408D89C9
:1010A00006EA85052B43CD8906EA85052B43838017
:1010B0000483CD880587028470BD0000002C0140A8
:1010C000003401400A460021018B4FF2FF731940A2
:1010D0004FF6FF7303EA02231943018370470000B0
:1010E00070B5002400220023058C4FF6FF663540C2
:1010F0000584028C8388848B4FF68F752C404FF6C5
:10110000FC752C400D882C434FF6FF552A400D8965
:101110004FF6FF7606EA05252A434D8806EA05259F
:101120002A43154DA84202D0144DA8421DD14FF2BA
:10113000FF752A404D894FF6FF7606EA05252A43BA
:101140004FF6FF352A408D8806EA05252A434EF6DC
:10115000FF752B404DF6FF752B408D8906EA05156E
:101160002B43CD8906EA05152B4383808483CD88E4
:101170008587028470BD0000002C014000340140CE
:101180000A460021818B4FF6F77319401143818382
:101190007047000070B5002200230024058C4EF635
:1011A000FF7635400584038C8488828B48F6FF7572
:1011B0002A404FF6FF452A400D884FF6FF7606EA93
:1011C00005252A434DF6FF752B400D8906EA0535A6
:1011D0002B434D8806EA05352B430B4DA84202D020
:1011E0000A4DA84208D14BF6FF752C408D894FF669
:1011F000FF7606EA85152C4384808283CD88A0F88B
:101200004050038470BD0000002C014000340140B8
:101210000A460021818B4FF2FF7319404FF6FF738E
:1012200003EA02231943818370478186704701874F
:10123000704781877047A0F84010704781847047DD
:10124000028B4FF6F3731A400283028B0A43028328
:101250007047028B4FF2FF331A400283028B4FF626
:10126000FF7303EA01231A4302837047828B4FF610
:10127000F3731A408283828B0A4382837047828B86
:101280004FF2FF331A408283828B4FF6FF7303EADB
:1012900001231A4382837047002202881D4B984223
:1012A0000ED01D4B98420BD0B0F1804F08D01B4B95
:1012B000984205D01A4B984202D01A4B984204D15A
:1012C0004FF68F731A404B881A43174B984207D03A
:1012D000164B984204D04FF6FF431A40CB881A436E
:1012E00002808B8883850B8803850A4B98420BD03C
:1012F000094B984208D00E4B984205D00D4B9842AE
:1013000002D00D4B984201D10B7A038601238382D0
:1013100070470000002C01400034014000040040F0
:1013200000080040000C0040001000400014004085
:101330000040014000440140004801404FF6FF7169
:10134000818000210180C1804180017270470000CE
:1013500010B540F225515C4800F02FF9002871D0FB
:1013600040F22551584800F0B7F8574800F0E0F92E
:101370005649087008460078382842D009DCA0F1A8
:101380003100072819D2DFE800F013191F252B3090
:101390003600632861D006DC392838D0612847D070
:1013A00062280AD14FE0642861D06528F9D167E04E
:1013B0004FF4FA71012000F05BFC82E04FF4FA7107
:1013C000022000F055FC7CE04FF4FA71032000F09D
:1013D0004FFC76E04FF4FA71042000F049FC70E015
:1013E000C821012000F044FC6BE04FF4C8710120DB
:1013F00000F03EFC65E04FF41671012000F038FC6F
:101400005FE04FF44871012000F032FC59E0002108
:10141000012000F02DFC0021022000F029FC002119
:10142000032000F025FC0021042000F021FC48E00E
:101430004FF448712648FFF7FAFE00212448FFF7D1
:10144000F4FE3EE03EE04FF42F712148FFF7F1FE3D
:1014500000211F48FFF7EFFE33E04FF416711D48DF
:10146000FFF7E3FE00211B48FFF7E1FE29E0C8215A
:101470001848FFF7DEFE00211648FFF7DCFE20E0EB
:1014800000211448FFF7D5FE00211248FFF7D3FED4
:1014900000211048FFF7C9FE00210E48FFF7C7FEE4
:1014A00000210B48FFF7C3FE00210948FFF7BDFEEE
:1014B00000210748FFF7BDFE00210548FFF7BBFEEE
:1014C00000BF00BF10BD00000048004030000020F9
:1014D000003401400004004010B50022002340F613
:1014E0006A14A14200D100BF0A1201249440A3B2A1
:1014F000DC43048010BD21B1828942F40052828114
:1015000004E082894DF6FF731A4082817047000023
:1015100000B585B001210820FFF71CF901218804DE
:10152000FFF708F94FF48060ADF8100018208DF82F
:10153000130003208DF8120004A91748FEF7B0FF2E
:101540004FF40060ADF8100004208DF8130004A9DA
:101550001148FEF7A5FF4FF4E13000900020ADF8F0
:101560000400ADF80600ADF80800ADF80C000C2042
:10157000ADF80A006946094800F06EF8FFF783F8F5
:10158000012240F22551054800F041F801210348AD
:10159000FFF7B1FF05B000BD000C0140004800405E
:1015A00002460020B1F5007F00D100BF13880B4038
:1015B0000BB1012000E00020704770B50246002406
:1015C00000230025002040F66A16B14200D100BF7A
:1015D000C1F3421501F01F03012606FA03F3012DA2
:1015E00002D19689334006E0022D02D1168A33409B
:1015F00001E0968A33400C12012606FA04F416889C
:10160000344013B10CB1012000E0002070BDF0B5F2
:101610000346002400260025002040F66A17B94240
:1016200000D100BF1846C1F3421401F01F06012784
:1016300007FA06F5012C01D10C3004E0022C01D18F
:10164000103000E014301AB107682F43076002E041
:101650000768AF430760F0BD2DE9F04786B0054647
:101660000E460024A24600BFA1460027B08900B163
:1016700000BF2F462C8A4CF6FF700440F0880443CC
:101680002C82AC894EF6F3100440B08831890843AF
:10169000718908430443AC81AC8A4FF6FF40044093
:1016A000B0890443AC8201A8FFF764F81F48874261
:1016B00002D1DDF810A001E0DDF80CA0A88900F44B
:1016C000004040B10AEBCA0000EB0A103168490043
:1016D000B0FBF1F807E00AEBCA0000EB0A10316832
:1016E0008900B0FBF1F86420B8FBF0F00401200998
:1016F000642101FB1089A88900F4004040B1322028
:1017000000EBC900B0FBF1F000F00700044308E073
:10171000322000EB09106421B0FBF1F000F00F0063
:1017200004432C8106B0BDE8F0870000003801407A
:1017300001468888C0F308007047C1F30802828020
:10174000704700BFFEE700000FB4054B10B503A9BA
:10175000044A029800F018F810BC5DF814FB000071
:101760005D1B00083400002002E008C8121F08C1F9
:10177000002AFAD170477047002001E001C1121F12
:10178000002AFBD1704700002DE9FF4F8BB088463F
:101790000546002606E025280BD0DDE90D1290470E
:1017A0006D1C761C28780028F5D10FB03046BDE8B6
:1017B000F08F0024A146A2460122AE4900E0044376
:1017C00015F8013F203B02FA03F00842F7D12878D0
:1017D0002A2810D06FF02F022878A0F130010929B3
:1017E00015D809EB890102EB410144F0020400EB3A
:1017F00001096D1CF0E758F8041B5FEA010903D5E5
:1018000044F40054C9F1000944F002046D1C287826
:101810002E2817D115F8010F44F004042A280ED001
:101820006FF02F022878A0F1300109290AD80AEBBD
:101830008A0102EB410100EB010A6D1CF2E758F846
:1018400004AB6D1C28786C280FD006DC4C2817D010
:1018500068280DD06A2814D104E0742810D07A28A2
:101860000FD10DE044F400140AE044F4801401E0C8
:1018700044F440146978814202D104F580146D1C4F
:101880006D1C2878692865D006DC00288DD0632877
:1018900027D0642806D15DE06E2808D073282AD0AE
:1018A000752877D0DDE90D129047761CE0E0C4F38F
:1018B0000250022809D003280DD0D8F800100428BF
:1018C0000DD00E6008F10408D2E0D8F80010F2172D
:1018D000C1E90062F6E7D8F800100E80F2E70E705A
:1018E000F0E718F8041B8DF8001000208DF80100B7
:1018F000EB46012003E058F804BB4FF0FF306107CE
:101900004FF0000701D40AE07F1C57450DDA8742EB
:10191000FADB1BF807100029F6D106E07F1C87428E
:10192000FCDB1BF807100029F8D1DDE90D23A9EB3A
:1019300007008146214600F0B1F83044C61904E0A2
:10194000DDE90D121BF8010B90477F1EF8D22146EE
:10195000484688E058F8040BC4F302514FF00A0BD4
:10196000032900D100B2042900D140B2002802DAD4
:1019700040422D2102E0210505D52B218DF82410B0
:10198000012104E006E0E10710D02021F6E708AFCE
:10199000089113E058F8040BC4F302514FF00A0BFE
:1019A000032900D180B2042900D1C0B20021EEE7A2
:1019B0005946FEF7D9FB303107F8011D0028F7D151
:1019C000ADEB070000F1200B600702D524F4803452
:1019D00001E04FF0010ADA4502DDAAEB0B0000E05E
:1019E0000020824600EB0B0108980144A9EB01009E
:1019F0000A90E00306D4DDE90D2321460A9800F0A1
:101A00004DF806444FF0000908E009A911F8090053
:101A1000DDE90D12904709F10109761C0899894505
:101A2000F3DBE0030CD5DDE90D2321460A9800F035
:101A300035F8064404E0DDE90D1230209047761CAD
:101A4000BAF10001AAF1010AF5DC05E0DDE90D12A9
:101A500017F8010B9047761CBBF10001ABF1010BAD
:101A6000F4DC0A982146DDE90D2300F005F8064470
:101A70006D1C97E6092801002DE9F0410446002578
:101A80001E461746880404D405E039462020B04796
:101A90006D1C641EF9D52846BDE8F0812DE9F041A2
:101AA000044600251E469046C80301D5302700E0B5
:101AB0002027880404D505E041463846B0476D1C10
:101AC000641EF9D52846BDE8F081000010B56FF01E
:101AD0000400FEF72FFF0A4800680A49B0FBF1F046
:101AE000094908700846007800EB4001C1EBC010BE
:101AF0004FF6FF7101EAC0000449088010BD0000E4
:101B00000000002000127A00280000202A00002097
:101B10000146114A12884A434FF0E0235A610022DD
:101B20009A611A46126942F001021A6100BF4FF031
:101B3000E022106900F001021AB100F48032002A9C
:101B4000F5D04FF0E022126922F001024FF0E023BD
:101B50001A6100229A6170472A00002070B504467D
:101B60000D46E1B20548FFF7E8FD00BF80210348BC
:101B7000FFF716FD0028F9D0204670BD0048004050
:101B800001468A8CA2F5FE42FF3A10B247F6FF7278
:101B90008A847047FFF7BCFCFFF798FF1EA0FFF791
:101BA000D3FDFEF767FDFEF761FBFEF725FCFEF7B0
:101BB000CFFBFEF705FBFEF749FD2CE01848006857
:101BC000002828D11748FFF7DBFF84B2214616A072
:101BD000FFF7BAFD00244FF08040FFF7D1FF84B239
:101BE000214615A0FFF7B0FD00241748FFF7C8FFF6
:101BF00084B2214615A0FFF7A7FD00241748FFF780
:101C0000BFFF84B2214616A0FFF79EFD00244FF4CB
:101C10007A70FFF77DFFD1E7C4E3CAC7D6ED0000B5
:101C200010012142002C014054494D3120434E54B3
:101C30003A2535642000000054494D3220434E546B
:101C40003A253564200000000008004054494D3416
:101C500020434E543A25356420000000000C00401B
:101C600054494D3520434E543A2535640A0000004E
:101C700070B506460C460125002C01DA64420025A9
:101C8000012E06D0022E17D0032E28D0042E4CD1C0
:101C900038E045B1A1B22648FFF7C7FA0121244830
:101CA000FFF7C5FA07E0A1B22148FFF7C0FA01210A
:101CB0001F48FFF7BAFA38E045B1A1B21C48FFF758
:101CC000BAFA01211A48FFF7B4FA07E0A1B218489E
:101CD000FFF7AFFA01211648FFF7ADFA25E045B14D
:101CE000A1B21448FFF7A3FA01211248FFF79DFAA9
:101CF00007E0A1B20F48FFF798FA01210D48FFF75E
:101D000096FA12E045B1A1B20A48FFF792FA012112
:101D10000848FFF790FA07E0A1B20648FFF78BFAF0
:101D200001210448FFF785FA00BF00BF70BD000025
:101D30000034014000040040581D0008000000204D
:101D40003800000068170008901D000838000020C7
:101D5000000400007817000800A24A0400000000F8
:101D6000000000000102030406070809000000004B
:101D7000010203040102030406070809020406081D
:101D80000000000000000000000000000000000053
:0400000508000131BD
:00000001FF
