:020000040800F2
:10000000C80600209D0100081B0A0008AB08000874
:10001000190A000849070008FD1100080000000047
:10002000000000000000000000000000F50B0008C8
:100030000508000800000000FD0A0008350D000852
:10004000B7010008B7010008B7010008B7010008B0
:10005000B7010008B7010008B7010008B7010008A0
:10006000B7010008B7010008B7010008B701000890
:10007000B7010008B7010008B7010008B701000880
:10008000B7010008B7010008B7010008B701000870
:10009000B7010008B7010008B7010008B701000860
:1000A000B7010008B7010008B7010008B701000850
:1000B000B7010008B7010008B7010008B701000840
:1000C000B7010008B7010008B7010008B701000830
:1000D000B70100083D0E0008250F000801100008B8
:1000E000B7010008B7010008B7010008B701000810
:1000F000B7010008B7010008B7010008B701000800
:10010000B7010008B7010008B7010008B7010008EF
:10011000B7010008B7010008B7010008B7010008DF
:10012000B7010008B7010008B7010008B7010008CF
:10013000B7010008B7010008B7010008B7010008BF
:10014000B7010008B7010008B7010008B7010008AF
:10015000B7010008B7010008B7010008B70100089F
:10016000B7010008B7010008B7010008B70100088F
:10017000B7010008B7010008B7010008B70100087F
:10018000B7010008B7010008DFF80CD000F03CFA16
:1001900000480047611D0008C80600200648804747
:1001A00006480047FEE7FEE7FEE7FEE7FEE7FEE75C
:1001B000FEE7FEE7FEE7FEE7390D000889010008CB
:1001C00040EA01039B0703D009E008C9121F08C0D9
:1001D000042AFAD203E011F8013B00F8013B521E59
:1001E000F9D2704700F0004230F000400AD0C10D53
:1001F00001F56071C0F3160042EA0151C2084007E0
:100200001143704700200146704730B50B46014648
:1002100000202022012409E021FA02F59D4205D3A5
:1002200003FA02F5491B04FA02F52844151EA2F14F
:100230000102F1DC30BD2DE9F05F05460020924659
:100240009B4688460646814640241BE02846414698
:100250004746224600F0F9F953465A46C01A9141E2
:1002600010D311461846224600F0E0F92D1A67EB2C
:1002700001084F4622460120002100F0D7F917EB74
:1002800000094E41201EA4F10104DFDC484631463E
:100290002A464346BDE8F09F2DE9FE4F804681EA9D
:1002A0000300C00F0C46009021F0004123F00045F0
:1002B000B8EB0200A94105D24046214690461C46B3
:1002C0000B46024623F00040104347D0270DC7F3EA
:1002D0000A00C3F30A510290401A019040286BDAD9
:1002E000C3F3130040F4801B0098924620B1002312
:1002F000D2EB030A63EB0B0B01985946C0F14002A5
:10030000504600F093F906460D4650465946019A6C
:1003100000F0ABF910EB08006141002487EA1152AC
:1003200084EAE7731A4340D0009A62B3019A012A23
:100330004FEA075215DC001B61EB02014FF000424F
:1003400002EA0752CDE90042001C41F58011324615
:100350002B4600F0ABF903B0BDE8F08F40462146D4
:10036000F9E7001B61EB0201001C41F58013001846
:100370005B412018A2F5001747EB030140EAD57056
:10038000B6196D4111E06D084FEA360645EAC075B1
:100390004FEA0752001B61EB0201001C41F580117E
:1003A00049084FEA30000019514132462B4603B04C
:1003B000BDE8F04F00F06BB9009801224000002327
:1003C000D0EB020263EBE073009821464FEAE07441
:1003D000B8EB000061EB0401E9E783F000435BE761
:1003E00081F0004158E72DE9FE4F81EA030404F053
:1003F000004421F0004100944FF0000B23F0004333
:1004000050EA01045ED052EA03045BD0C3F30A54FD
:10041000C1F30A552C44A4F2F3340194A0FB025416
:10042000C1F3130141F48011C3F3130343F48013A8
:1004300001FB024400FB034E840A970A44EA8154FC
:1004400047EA8357A4FB076802958D0A05FB0785D9
:100450004FEA932C04FB0C542705029D4FEA0658E3
:1004600047EA1637B5EB08056EEB070C870E920EC0
:1004700047EA811742EA8312A7FB0201B6EB0B01A0
:1004800064EB00042B0D43EA0C335E1844EB1C5064
:10049000DA465146E7FB0201C5F313044FEA0B337A
:1004A00043EA14534FEA0432019C43EA0603A4F1E1
:1004B0000C040294009CCDE900B400F0F7F803B0FE
:1004C000BDE8F08F00200146F9E72DE9F04D81EA03
:1004D000030404F0004B21F0004514464FF0000ADD
:1004E00023F0004150EA050220D054EA01021DD059
:1004F000C5F30A570246C5F31303C1F31300C1F352
:100500000A5640F4801543F48013A7EB0608101B2D
:10051000D64608F2FD3873EB050002D308F1010856
:1005200001E092185B41B8F1000F03DA00200146A8
:10053000BDE8F08D00204FF48011064684460EE0A1
:10054000171B73EB050705D3121B63EB050306436B
:100550004CEA010C49084FEA300092185B4150EA1E
:100560000107EDD152EA030012D082EA040083EAC7
:100570000501084305D0101BAB4106D20122002320
:1005800006E000224FF0004302E06FF0010253103A
:100590001AEB06004CEB085110EB0A0041EB0B0183
:1005A000BDE8F04D00F073B8C1F30A52C1F3130176
:1005B00040F2FF3341F480119A4202DA00200146F2
:1005C000704740F233439A42A2F2334202DC524275
:1005D00000F03BB800F02AB830B5041E71F10004F9
:1005E00004DB4FF00044404264EB0101141E73F140
:1005F000000405DB1C464FF00043524263EB04034A
:10060000994208BF904230BD064C074D06E0E068B5
:1006100040F0010394E8070098471034AC42F6D349
:10062000FFF7B6FD0C2000082C200008202A04DB70
:10063000203A00FA02F1002070479140C2F12003F5
:1006400020FA03F3194390407047202A04DB203A34
:1006500021FA02F00021704721FA02F3D040C2F1E2
:1006600020029140084319467047202A06DBCB1729
:10067000203A41FA02F043EAE07306E041FA02F35D
:10068000D040C2F12002914008431946704710B58E
:10069000141E73F1000408DA401C41F100019218A5
:1006A0005B411A4301D120F0010010BD2DE9F04D4E
:1006B00092469B4611B1B1FA81F202E0B0FA80F2A3
:1006C00020329046FFF7B2FF04460F4640EA0A0088
:1006D00041EA0B0153465A46084313D0114653EAE8
:1006E000010019D0C8F140025046FFF7AEFF0546A1
:1006F0000E46504659464246FFF798FF084305D03C
:10070000012004E020463946BDE8F08D0020054375
:1007100046EAE0762C4337430A986305E40AA0EBE7
:1007200008000022FD0A44EA47540A3002D500209E
:100730000146E9E7010510196941DDE9084500199D
:100740006941BDE8F04DA2E7FEE700002DE9F04762
:100750000027002601F1060904255038DFF89C80A7
:10076000102849D2DFE800F01208140D171A1C1ED9
:1007700020222448484848263424032540270126BF
:100780001AE03D2403252E27012615E0302413E02E
:100790003724032210E03A2403220DE041240BE029
:1007A000452409E0492407E04D2405E0512403E0F5
:1007B000552401E0D8F82440032A01D1032500265E
:1007C000DFF83CA04DB16A000AEB4400FFF7F8FCEB
:1007D000D8F81420294620469047002E0CD07200ED
:1007E0000AEB47004946FFF7EBFC31463846D8F89C
:1007F0001420BDE8F0471047BDE8F0872400002032
:10080000A6010020704701F07DBA2DE9F0410022D9
:1008100001274FF0030C07FA02F50B682B40AB429F
:100820002CD1066853000CFA03F4A64306600E7937
:10083000D0F800809E4046EA080606600E79012E38
:1008400001D0022E12D18668A64386604E79D0F878
:1008500008809E4046EA080686604668AE434660C9
:1008600045688E799640B6B235434560C568A54364
:10087000C560CC799C40C3681C43C460521C102ADC
:10088000C9D3BDE8F08110B54B07DB0E9A40C9080B
:1008900000EB8100016A0F249C40A1430162016AC0
:1008A0001143016210BD01837047FEE71CB50121B1
:1008B000052000F025F90120009000208DF80400AB
:1008C0008DF8070069460548FFF79FFF4FF4005079
:1008D000009069460248FFF798FF1CBD00000240E7
:1008E000000802407CB50121042000F009F94FF412
:1008F0000054009401208DF8040000208DF80600BB
:100900008DF8070002208DF80500054D6946284640
:10091000FFF77BFF21462846FFF7C5FF7CBD00009F
:10092000000802402DE9FF413148007800285CD0E2
:100930000020324B2F499FED300ADFED310A9FED49
:10094000311AF3EE001A03F10C0403F1180800F158
:10095000340231F9122002EE102A03EB8002B8EEC5
:10096000C22A22EE002A22EE212A82ED002A00F17C
:10097000370231F9122002EE102A04EB8002B8EEA1
:10098000C22A22EE002A22EE202A82ED002A00F15D
:100990003D0231F9122002EE102A08EB8002B8EE77
:1009A000C22A22EE002A22EE012A82ED002A401CF1
:1009B0000328CCDBD8F80800FFF714FC04460D46EA
:1009C000D8F80400FFF70EFC06460F46D8F80000E2
:1009D000FFF708FC41EC100B0BA053EC102BCDE9FA
:1009E0000067CDE9024500F0F1FCBDE8FF810000A1
:1009F00025000020A6010020000000385000002043
:100A00000000FA4400003443252E32662C252E3295
:100A1000662C252E32660A00FEE7704708B52520B1
:100A20008DF8000002208DF8010000208DF80200F2
:100A300001208DF80300684600F022F808BD08B5D3
:100A400026208DF8000002208DF8010001208DF88D
:100A500002008DF80300684600F012F808BD08B5E2
:100A600027208DF8000002208DF801008DF802008B
:100A700001208DF80300684600F002F808BD000070
:100A800030B50F23C27801250178002A1FD0154AFE
:100A9000126802F4E062C2F5E062C2F30722C2F11A
:100AA0000404D3404278A24084781C4014432201BD
:100AB00001F1E02181F80024007800F01F018D4051
:100AC0004009800000F1E020C0F8005130BD01F085
:100AD0001F0085404809800000F1E020C0F88051E7
:100AE00030BD00000CED00E00249084302490860F7
:100AF000704700000000FA050CED00E070470000B0
:100B0000054A002903D0116801431160704711683C
:100B1000814311607047000030380240054A0029C7
:100B200003D011680143116070471168814311605F
:100B30007047000040380240054A002903D0116880
:100B400001431160704711688143116070470000D4
:100B50004438024070B5244B196801F00C01234C55
:100B600000291ED0661004291DD008291DD004605C
:100B7000196801F0F00109091D4A545C0168E1405F
:100B800041601C6804F4E054A40A145D21FA04F4E2
:100B900084601B6803F460435B0BD25CD140C1608E
:100BA00070BD0460E4E70660E2E70F4A121F1168B7
:100BB000C1F38055116801F03F0135B1B6FBF1F189
:100BC0001468C4F38814614305E0B4FBF1F11468C0
:100BD000C4F3881461431268C2F30142521C5200EC
:100BE000B1FBF2F10160C3E7083802400024F400D1
:100BF000140000207047000010B50022134B0DE0D8
:100C000036280ED0392811D03C2814D03F2817D0D0
:100C10005C7844F080045C70401C521C8A42EFD324
:100C200010BD5C7844F001045C70F5E75C7844F03A
:100C300002045C70F0E75C7844F008045C70EBE759
:100C40005C7844F004045C70E6E7000024000020B7
:100C500000F0B4BA0CB5002201920092274908684E
:100C600040F4803008604FF4A043086800F400307E
:100C700000900198401C0190009810B9019898428A
:100C8000F3D10868800302D50120009000E00092B3
:100C90000098012831D119484030026842F0805252
:100CA00002601748026842F440420260134808306C
:100CB00002680260026842F400420260026842F484
:100CC000A0520260021F0F4B13600A6842F080724C
:100CD0000A600A689201FCD50B4A40F20571116066
:100CE000016821F003010160016841F00201016027
:100CF0000168C1F381010229FAD10CBD003802401C
:100D00000070004008544007003C0240401EB0F113
:100D1000807F01D3012070474FF0E0214861044AF1
:100D2000F0201070002088610720086100207047C3
:100D300023ED00E07047000010B51248016841F44F
:100D4000700101601048016841F0010101600E4A24
:100D500000210832116002680C4B1A400260031D2A
:100D60000B4A1A60026822F48022026006480C30A6
:100D70000160FFF76FFF03494FF0006080390860A2
:100D800010BD000088ED00E000380240FFFFF6FED5
:100D90001030002470B586B001210846FFF7B0FE80
:100DA00001211020FFF7C8FE00248DF81640012015
:100DB0008DF8170002258DF815508DF8145040025B
:100DC00004901C4E04A93046FFF71FFD8DF8145007
:100DD0006902049104A93046FFF717FD07220A2192
:100DE0003046FFF750FD072209213046FFF74BFD43
:100DF0004FF4E1300090ADF80440ADF80640ADF896
:100E00000840ADF80C400C20ADF80A000A4C6946C9
:100E1000204600F06DF9FFF701FE012240F2255156
:100E2000204600F04AF90121204600F013F906B0EF
:100E300070BD0000000002400010014010B50B4CD6
:100E400040F22551204600F018F900280CD0204629
:100E500000F0ACF9C1B2204600F0ACF92046BDE884
:100E6000104003A100F0D7B910BD000000100140F0
:100E7000555341525431206F6B0A000070B586B053
:100E800001210846FFF73CFE01214804FFF746FE1A
:100E9000224E072203213046FFF7F5FC07220221EC
:100EA0003046FFF7F0FC00248DF8164001208DF845
:100EB000170002258DF81450042104918DF8155067
:100EC00004A93046FFF7A1FC8DF8145008200490C7
:100ED00004A93046FFF799FC4FF4E1300090ADF8DB
:100EE0000440ADF80640ADF80840ADF80C400C20C9
:100EF000ADF80A000A4C6946204600F0F9F8FFF701
:100F00009EFD012240F22551204600F0D6F8012135
:100F1000204600F09FF806B070BD000000000240BF
:100F20000044004070B50B4C40F225552946204640
:100F300000F0A3F800280BD0204600F037F9C0B22B
:100F400000F09CF929462046BDE8704000F07AB8D0
:100F500070BD00000044004070B586B00121022041
:100F6000FFF7CEFD01218804FFF7D8FD224E0722AE
:100F70000A213046FFF787FC07220B213046FFF796
:100F800082FC00248DF8164001208DF81700022500
:100F90008DF81450810204918DF8155004A9304643
:100FA000FFF733FC8DF81450A802049004A93046D2
:100FB000FFF72BFC4FF4E1300090ADF80440ADF8A2
:100FC0000640ADF80840ADF80C400C20ADF80A0022
:100FD0000A4C6946204600F08BF8FFF740FD0122DD
:100FE00040F22551204600F068F80121204600F02B
:100FF00031F806B070BD0000000402400048004017
:1010000010B50B4C40F22551204600F036F8002870
:101010000CD0204600F0CAF8C1B2204600F0CAF851
:10102000BDE8104003A1064800F0F5B810BD00006F
:1010300000480040555341525433206F6B0A000062
:101040000010014040F66A120A0A01219140C9438A
:1010500001807047002904D0818941F400518181C9
:101060007047818921F40051818170470246002038
:1010700012880A4200D00120704770B5002440F663
:101080006A12C1F3421301F01F05012606FA05F2A8
:10109000012B0CD0022B0DD0838A1340090A8E40FD
:1010A000008830400BB100B10124204670BD838917
:1010B0001340F3E7038A1340F0E710B540F66A13D4
:1010C000C1F3421301F01F040121A140012B07D0FD
:1010D000022B07D014303AB102680A43026010BDF7
:1010E0000C30F8E71030F6E702688A43026010BD62
:1010F0007FB504460D46208A20F44051E888084315
:101100002082A08941F20C618843A9882A89114371
:101110006A8902431143A181A08A20F44071A88901
:101120000843A0826846FFF715FD1E48844202D09E
:101130001D48844201D1039800E00298A189090466
:1011400008D500EBC00101EB001029684900B0FB95
:10115000F1F007E000EBC00101EB00102968890005
:10116000B0FBF1F06422B0FBF2F109010B096FF062
:1011700018056B4300EB8300A3891D044FF0320375
:1011800007D503EBC000B0FBF2F000F00700084306
:1011900006E003EB0010B0FBF2F000F00F00084394
:1011A00020817FBD00100140001401408088C0F301
:1011B00008007047C1F30801818070472DE9F041B4
:1011C00005460F4600240C4E0BE080213046FFF709
:1011D0004DFF0028F9D015F8011B3046FFF7EAFF54
:1011E000641CBC42F1D340213046FFF73FFF00288A
:1011F000F9D0BDE8F081000000440040FEE710B5E2
:1012000004462046FFF7D6FF80212046FFF72EFF39
:101210000028F9D010BD70B506460D4600243046B2
:10122000295DFFF7ECFF641C285D0028F7D170BD35
:10123000002803D003498861002070476FF0050043
:101240007047000024000020032802D96FF0050039
:101250007047034A106211700020D061704700008F
:1012600024000020002803D0034948610020704773
:101270006FF0050070470000240000202DE9FC41BC
:10128000494C6169002917D0E369484E5A1CE26154
:10129000F054206A002530B1012840D002287CD0CB
:1012A00003287BD179E03078552807D0521EE261BF
:1012B000711C3E48FEF784FFBDE8FC810B2A6DD30C
:1012C0000A213A4800F0A8F8B27A3146824207D0A3
:1012D000E269521EE261491C3448FEF771FFEBE7F8
:1012E0008878CA7840EA0220ADF8000008794A7987
:1012F00040EA0220ADF802008879CA7940EA02206B
:10130000ADF80400087A4A7A40EA0220ADF80600F7
:10131000487804226946FFF719FAE5613EE0022A9F
:101320003CD97078032806D0521EE261711C1F4818
:10133000FEF746FFC0E7B078401D9042BCD8B01819
:10134000801E4178007841EA0027921E91B217482A
:1013500000F04CF8874207D0E269521EE261711C2E
:101360001248FEF72DFFA7E7B07841080022104F82
:10137000606A0CE006EB420393F804C0DB784CEAA9
:10138000032302EB000C27F81C30521C92B28A4255
:10139000F0D362699047E56100E0E561E069B0F58E
:1013A000807F89D1E56187E724000020A600002026
:1013B000A6010020002803D00349486000207047A0
:1013C0006FF0050070470000240000200FB4054BAB
:1013D00010B503A9044A029800F0FCF810BC5DF8AF
:1013E00014FB00003D1D00084C000020F0B5FF2359
:1013F000FF240022074E06F5807705E0855C5D40FE
:10140000735D63407C5D521C8A42F7DB44EA032033
:10141000F0BD00000C1E000810B50346002000229D
:1014200003E09C5C2044C0B2521C8A42F9D310BD38
:1014300002E008C8121F08C1002AFAD1704770479D
:10144000002001E001C1121F002AFBD170470000FB
:101450002DE9FF5F82B00021DDE90430020DDDF8E7
:1014600040B0034318D044F61050A2F2FF3242437A
:101470001514119801281FD0A5EB0B00401C5FEA42
:10148000000A4FF000064E4FDFF83891B046504644
:1014900015D5CAF1000413E0119801244AA30128CC
:1014A00001D16FEA0B010298119AC0E90031C0E93D
:1014B000024206B0BDE8F09FCBF10000DFE7044632
:1014C0000021404A491842EB0450CDE9001012E0D7
:1014D000E00707D032463B4640464946FEF783FFC9
:1014E0008046894632463B4610461946FEF77BFF4A
:1014F00006460F466410002CEAD1DDE90401DDE95F
:101500000023BAF1000F06DAFEF76DFF42464B46A4
:10151000FEF769FF05E0FEF7D8FF42464B46FEF7AF
:10152000D4FF04460E460022284BFFF755F803D897
:101530004FF0FF30014607E00022254B20463146A0
:10154000FEF7AAFEFFF730F8102409E0002C0ADBB2
:101550000A220023FEF76FFE039B30321A55641EE9
:1015600050EA0102F2D1641C039AC4F1110314443D
:10157000119A012A03D0012208430DD10AE0084341
:1015800004D000204FF0110B119072E7A3EB0B0574
:101590006D1E0DE05B4504DD4FF0000205F1010515
:1015A00004E003DA4FF00002A5F10105002AECD0B7
:1015B00002981199C0E90231C0E9004579E70000BD
:1015C000000014400000F03F300000000000F04335
:1015D0000000E03F2DE9FF4F95B09B468946064647
:1015E00000250FE2252877D100242746F84A01215B
:1015F000059400E0044316F8013F203B01FA03F094
:101600001042F7D130782A2811D06FF02F033078AC
:10161000A0F13002092A16D8059A44F0020402EB20
:10162000820203EB42021044761C0590EFE759F862
:10163000042B0592002A03DA504244F4005405902A
:1016400044F00204761C30782E2816D116F8010FCB
:1016500044F004042A280DD06FF02F023078A0F156
:101660003003092B09D807EB870302EB4303C718A4
:10167000761CF3E759F8047B761C30786C280FD081
:1016800006DC4C2817D068280DD06A2814D104E055
:10169000742810D07A280FD10DE044F400140AE029
:1016A00044F4801401E044F440147278824202D180
:1016B00004F58014761C761C307866280BD013DC79
:1016C000582877D009DC002875D04528F6D0462860
:1016D000F4D047281AD19DE118E0632835D064285A
:1016E00079D0652812D195E1702873D008DC67287D
:1016F000F1D069286FD06E280DD06F2806D1B5E0E3
:1017000073282CD0752875D0782874D05A4617992C
:1017100090476D1C75E1C4F30250022809D00328DC
:101720000DD0D9F8001004280DD00D6009F104097E
:1017300067E1D9F80010EA17C1E90052F6E7D9F8D5
:1017400000100D80F2E70D70F0E719F8041B8DF81A
:10175000001000208DF80100EA46012003E059F84E
:1017600004AB4FF0FF3061074FF0000102D40DE0F1
:1017700008F101018846B9420FDA8045F8DB1AF812
:1017800008100029F4D108E008F1010188468142DF
:10179000FADB1AF808100029F6D105985B46A0EB91
:1017A000080721463846179A00F094FA284400EBBF
:1017B000080507E04DE029E10DE01AF8010B5A4653
:1017C00017999047B8F10108F7D25B462146384691
:1017D000179A13E142E00A220092C4F302524FF03A
:1017E000000A022A08D059F804CB032A4FEAEC7108
:1017F0000AD00DE029E02AE009F1070121F00702F3
:10180000F2E802C1914609E00FFA8CFC4FEAEC7154
:10181000042A03D14FFA8CFC4FEAEC71002907DA55
:101820000A460021DCF1000C61EB02012D2202E0EE
:10183000220504D52B228DF80420012203E0E207C3
:1018400001D02022F7E7904659E00A2102E0102259
:101850000DE010214FF0000A00910BE010224FF034
:10186000000A44F004040827009203E008224FF025
:10187000000A0092C4F30252022A05D059F804CBA0
:101880000021032A08D009E009F1070121F007022D
:10189000F2E802C1914605E01FFA8CFC042A01D14E
:1018A0000CF0FF0C4FF00008220728D5702806D056
:1018B000009B83F0100353EA0A0305D00EE0402298
:1018C0008DF80420012208E05CEA010206D03022F3
:1018D0008DF804208DF8050002229046009B83F0CD
:1018E000080353EA0A030AD15CEA010201D1620744
:1018F00005D530228DF804204FF001087F1E5828AE
:1019000004D034A003900EA802900DE036A0F9E7B1
:1019100053466046009AFEF78EFC84460398825C2C
:101920000298401E029002705CEA0100F0D1029819
:1019300006A9081A00F1200A600702D524F48034B1
:1019400000E00127574502DDA7EB0A0000E0002078
:1019500000EB0A01009005984144401A0590E0030D
:1019600006D45B462146179A059800F0B3F9054462
:10197000002706E001A85A46C05D179990476D1CE4
:101980007F1C4745F6DBE0030CD55B462146179AE2
:10199000059800F09FF9054404E030205A46179955
:1019A00090476D1C0099481E00900029F5DC08E066
:1019B000029802995A460078491C0291179990475B
:1019C0006D1CBAF10001AAF1010AF1DC65E1000029
:1019D0000928010030313233343536373839616205
:1019E00063646566000000003031323334353637C9
:1019F00038394142434445460000000000F058F9A0
:101A00000544761C307800287FF4ECAD19B02846E8
:101A1000BDE8F08F620700D4062709F1070222F023
:101A2000070CFCE80223E14603F000485FEA080CDB
:101A300002D00FF2702C0DE05FEA045C02D50FF2C9
:101A4000682C07E05FEAC47C02D00FF2602C01E052
:101A5000AFF2700C4FF0FF3823F00043CDF850C0C8
:101A600065280CD006DC452809D046281DD047281B
:101A70003DD13DE0662818D067287ED138E00021AE
:101A8000112F01DB112000E0781CCDE9000106A92F
:101A90000EA8FFF7DDFCDDE90F010E9A039100218E
:101AA000009207F1010A04914DE04FF000400097C9
:101AB000CDE9011006A90EA8FFF7CAFCDDE90F0267
:101AC00003920E9B11990022DDF80CA00093049262
:101AD00011B9791C00EB010AB7EB0A0004D4C0F17C
:101AE000FF3007F1010A0490AAEB0700019044E0DF
:101AF000012F00DA01270021112F01DD112000E064
:101B00003846CDE9000106A90EA8FFF7A1FCDDE9E2
:101B10000F010E9A0391002104910092BA46210709
:101B20000CD40399514500DA8A46BAF1010F05DD5C
:101B3000009AAAF10101515C302908D0B84202DABA
:101B400010F1040F06DA0121CDE9011015E0AAF128
:101B50000101E9E7002805DC049901440491AAEB9E
:101B6000000102E0411C514500DD8A460499401AFB
:101B7000401C01904FF000400290200704D40198CF
:101B8000504501DBCDF8048000208DF84F0002980D
:101B90000DF14F07B0F1004F25D02B200E90029889
:101BA0004FF0020800280CDA404202902D200E90DF
:101BB00007E00A210298FEF728FB3031029007F86F
:101BC000011DB8F10001A8F10108F2DC029800281B
:101BD000EFD1791E0E980870307800F0200040F0A8
:101BE000450007F8020D12A8C01B00F10708149861
:101BF000007800B1012000EB0A01019801EBE071CF
:101C000005984144401A401E0590E00306D45B4607
:101C10002146179A059800F05DF80544149800785D
:101C200018B15A46179990476D1CE00324D55B46BE
:101C30002146179A059800F04DF805441CE00498D9
:101C4000002807DBDDE90301884203DD0098405CE2
:101C5000179901E0179930205A469047049805F1EA
:101C60000105401C04900198401E019004D12E20D3
:101C70005A46179990476D1CBAF10001AAF1010A62
:101C8000DDDC05E017F8010B5A46179990476D1CEB
:101C9000B8F10001A8F10108F4DC5B462146179A6F
:101CA0000598ABE62D0000002B000000200000008E
:101CB0002DE9F041044600251E461746880404D449
:101CC00005E039462020B0476D1C641EF9D5284632
:101CD000BDE8F0812DE9F041044600251E469046FE
:101CE000C80301D5302700E02027880404D505E08B
:101CF00041463846B0476D1C641EF9D52846BDE8FC
:101D0000F081000001B50C484FF47A710068B0FB17
:101D1000F1F0FEF7FBFF00204FF0E02103E00A693D
:101D2000D203FCD5401C009A9042F8D3086920F0F9
:101D30000100086108BD00000000002070B50446E5
:101D4000064DE1B22846FFF735FA80212846FFF715
:101D50008DF90028F9D0204670BD00000010014028
:101D60004FF4A060FEF7C0FEFFF714F8FFF786F807
:101D7000FFF7F2F8FEF79AFDFEF7B4FD412119488E
:101D8000FFF73DFA42211848FFF739FA174D432172
:101D90002846FFF734FA164C216881F4005121607F
:101DA00050210020FFF750FA1248FFF703FB1248BA
:101DB000FFF758FA1148FFF73BFAFEF7B3FD20682A
:101DC00040F4005121606420FFF79CFF0CA12846DD
:101DD000FFF721FA206820F4005121606420FFF70A
:101DE00091FFEAE700100140004400400048004035
:101DF00014080240510C0008F90B000807080008FD
:101E00003132333435363738390A000000C1814069
:101E100001C0804101C0804100C1814001C08041BA
:101E200000C1814000C1814001C0804101C08041AA
:101E300000C1814000C1814001C0804100C181409A
:101E400001C0804101C0804100C1814001C080418A
:101E500000C1814000C1814001C0804100C181407A
:101E600001C0804101C0804100C1814000C181406A
:101E700001C0804101C0804100C1814001C080415A
:101E800000C1814000C1814001C0804101C080414A
:101E900000C1814000C1814001C0804100C181403A
:101EA00001C0804101C0804100C1814000C181402A
:101EB00001C0804101C0804100C1814001C080411A
:101EC00000C1814000C1814001C0804100C181400A
:101ED00001C0804101C0804100C1814001C08041FA
:101EE00000C1814000C1814001C0804101C08041EA
:101EF00000C1814000C1814001C0804100C18140DA
:101F000001C0804101C0804100C1814000C0C101C9
:101F1000C30302C2C60607C705C5C404CC0C0DCD59
:101F20000FCFCE0E0ACACB0BC90908C8D81819D9C9
:101F30001BDBDA1A1EDEDF1FDD1D1CDC14D4D515F9
:101F4000D71716D6D21213D311D1D010F03031F1E9
:101F500033F3F23236F6F737F53534F43CFCFD3D19
:101F6000FF3F3EFEFA3A3BFB39F9F83828E8E92909
:101F7000EB2B2AEAEE2E2FEF2DEDEC2CE42425E5B9
:101F800027E7E62622E2E323E12120E0A06061A129
:101F900063A3A26266A6A767A56564A46CACAD6DD9
:101FA000AF6F6EAEAA6A6BAB69A9A86878B8B97949
:101FB000BB7B7ABABE7E7FBF7DBDBC7CB47475B579
:101FC00077B7B67672B2B373B17170B05090915169
:101FD0009353529296565797559594549C5C5D9D99
:101FE0005F9F9E5E5A9A9B5B995958988848498989
:101FF0004B8B8A4A4E8E8F4F8D4D4C8C4484854539
:102000008747468682424383418180402C200008D6
:102010000000002050000000301400087C20000860
:10202000500000207806000040140008007A030ADF
:102030000000000000000000010203040607080978
:10204000000000000102030401020304060708095E
:10205000FF00FF0000000000000000000000000082
:102060000000000000000000000000000000000070
:0C20700000000000000000000000000064
:040000050800018965
:00000001FF
