:020000040800F2
:10000000D88D00205D02000819610008D54600085F
:1000100085600008B50C000855720008000000005B
:100020000000000000000000000000009D0100082A
:10003000B314000800000000F9010008556300082F
:1000400077020008770200087702000877020008AC
:10005000770200087702000877020008770200089C
:100060007702000877020008770200087D12000876
:100070008D120008D1120008E11200087702000872
:10008000F1120008770200087702000877020008E2
:10009000770200087702000877020008770200085C
:1000A000770200087702000877020008770200084C
:1000B0008564000895640008A564000877020008BC
:1000C000770200087702000877020008770200082C
:1000D000770200086D6E00087D6E00088D6E0008C6
:1000E000770200087702000877020008770200080C
:1000F00077020008770200087702000877020008FC
:100100007702000877020008B5640008770200084B
:1001100099670008A9670008C5640008D56400084D
:1001200077020008351300087913000877020008E9
:1001300077020008770200087702000877020008BB
:1001400077020008770200087702000877020008AB
:100150007702000889130008991300089D6E0008B3
:10016000770200087702000877020008770200088B
:1001700077020008770200087702000800000000FC
:100180007702000877020008DFF80CD000F044FC8A
:100190000048004779E90008D88D00202C4B1968E9
:1001A0000868B0E8F04F80F30988BFF36F8F4FF015
:1001B000000080F3118870470000000008480068C4
:1001C000006880F308884FF0000080F3148862B65E
:1001D00061B6BFF34F8FBFF36F8F00DF00BF00BF6B
:1001E00008ED00E0DFF80C00016841F470010160E7
:1001F000704700BF88ED00E0EFF30980BFF36F8F19
:10020000134B1A681EF0100F08BF20ED108A20E96A
:10021000F04F106009B44FF0500080F31188BFF325
:100220004F8FBFF36F8F10F013F94FF0000080F382
:10023000118809BC19680868B0E8F04F1EF0100F6B
:1002400008BFB0EC108A80F30988BFF36F8F704746
:1002500000060020EFF30580704700000648804745
:1002600006480047FEE7FEE7FEE7FEE7FEE7FEE79B
:10027000FEE7FEE7FEE7FEE7696400088901000883
:100280002DE9F05F0546002092469B4688460646CB
:10029000814640241BE0284641464746224600F05E
:1002A0006CFA53465A46C01A914110D3114618466B
:1002B000224600F053FA2D1A67EB01084F462246FA
:1002C0000120002100F04AFA17EB00094E41201EE0
:1002D000A4F10104DFDC484631462A464346BDE826
:1002E000F09F40EA01039B0703D009E008C9121FF1
:1002F00008C0042AFAD203E011F8013B00F8013BE0
:10030000521EF9D27047D2B201E000F8012B491E0B
:10031000FBD270470022F6E710B513460A460446A2
:100320001946FFF7F0FF204610BD421E12F8013FAC
:10033000002BFBD111F8013B02F8013B002BF9D156
:100340007047421C10F8011B0029FBD1801A70472E
:10035000034611F8012B00F8012B002AF9D11846A9
:1003600070472DE9FE4F804681EA0300C00F0C461E
:10037000009021F0004123F00045B8EB0200A941B4
:1003800005D24046214690461C460B46024623F0C5
:100390000040104347D0270DC7F30A00C3F30A51AA
:1003A0000290401A019040286BDAC3F3130040F426
:1003B000801B0098924620B10023D2EB030A63EB26
:1003C0000B0B01985946C0F14002504600F0C6F9A7
:1003D00006460D4650465946019A00F0DEF910EBEC
:1003E00008006141002487EA115284EAE7731A4346
:1003F00040D0009A62B3019A012A4FEA075215DCF5
:10040000001B61EB02014FF0004202EA0752CDE906
:100410000042001C41F5801132462B4600F015FACF
:1004200003B0BDE8F08F40462146F9E7001B61EBC1
:100430000201001C41F5801300185B412018A2F551
:10044000001747EB030140EAD570B6196D4111E082
:100450006D084FEA360645EAC0754FEA0752001BA1
:1004600061EB0201001C41F5801149084FEA3000A0
:100470000019514132462B4603B0BDE8F04F00F061
:10048000D5B90098012240000023D0EB020263EBB3
:10049000E073009821464FEAE074B8EB000061EB8E
:1004A0000401E9E783F000435BE781F0004158E78E
:1004B0002DE9FE4F81EA030404F0004421F00041DD
:1004C00000944FF0000B23F0004350EA01045ED08B
:1004D00052EA03045BD0C3F30A54C1F30A552C4417
:1004E000A4F2F3340194A0FB0254C1F3130141F4CC
:1004F0008011C3F3130343F4801301FB024400FB98
:10050000034E840A970A44EA815447EA8357A4FBBE
:10051000076802958D0A05FB07854FEA932C04FBBB
:100520000C542705029D4FEA065847EA1637B5EBEB
:1005300008056EEB070C870E920E47EA811742EA18
:100540008312A7FB0201B6EB0B0164EB00042B0D39
:1005500043EA0C335E1844EB1C50DA465146E7FB85
:100560000201C5F313044FEA0B3343EA14534FEA75
:100570000432019C43EA0603A4F10C040294009C9B
:10058000CDE900B400F061F903B0BDE8F08F0020C0
:100590000146F9E72DE9F04D81EA030404F0004B30
:1005A00021F0004514464FF0000A23F0004150EAC4
:1005B000050220D054EA01021DD0C5F30A570246B5
:1005C000C5F31303C1F31300C1F30A5640F48015B9
:1005D00043F48013A7EB0608101BD64608F2FD383B
:1005E00073EB050002D308F1010801E092185B41AA
:1005F000B8F1000F03DA00200146BDE8F08D0020BD
:100600004FF48011064684460EE0171B73EB050776
:1006100005D3121B63EB050306434CEA010C4908A2
:100620004FEA300092185B4150EA0107EDD152EADF
:10063000030012D082EA040083EA0501084305D0D2
:10064000101BAB4106D20122002306E000224FF02E
:10065000004302E06FF0010253101AEB06004CEB6E
:10066000085110EB0A0041EB0B01BDE8F04D00F022
:10067000DDB80EB5C10F80EAE0700844CA0700215A
:1006800040F233438DE80E000A460B4600F0DDF8D9
:1006900003B000BD70B5C1F30A5201F0004500245B
:1006A000C1F3130140F2FF3341F480119A4201DAA1
:1006B000002070BD40F233439A42A2F2334203DC81
:1006C000524200F05AF800E090402C43F1D04042F2
:1006D00070BD00F0004230F000400AD0C10D01F5BD
:1006E0006071C0F3160042EA0151C208400711438D
:1006F000704700200146704701F0004330B421F0FC
:10070000004150EA010206D00A0DA2F56072C1F361
:100710001301002A02DC30BC00207047440F44EA79
:10072000C104C100E01830BC00EBC25000F047B873
:1007300030B50B46014600202022012409E021FAB1
:1007400002F59D4205D303FA02F5491B04FA02F5AE
:100750002844151EA2F10102F1DC30BD202A04DB81
:10076000203A00FA02F1002070479140C2F12003C4
:1007700020FA03F3194390407047202A04DB203A03
:1007800021FA02F00021704721FA02F3D040C2F1B1
:1007900020029140084319467047202A06DBCB17F8
:1007A000203A41FA02F043EAE07306E041FA02F32C
:1007B000D040C2F1200291400843194670470029F9
:1007C000A8BF7047401C490008BF20F001007047D7
:1007D00010B4B0FA80FC00FA0CF050EA010404BF37
:1007E00010BC704749B1CCF1200421FA04F411FA8D
:1007F0000CF118BF012121430843A3EB0C01CB1DD1
:100800004FEA00614FEA102042BF002010BC704741
:1008100000EBC35010440029A4BF10BC7047401C1B
:10082000490008BF20F0010010BC704710B5141E2D
:1008300073F1000408DA401C41F1000192185B4199
:100840001A4301D120F0010010BD2DE9F04D924670
:100850009B4611B1B1FA81F202E0B0FA80F2203287
:100860009046FFF77BFF04460F4640EA0A0041EA44
:100870000B0153465A46084313D0114653EA010070
:1008800019D0C8F140025046FFF777FF05460E46E3
:10089000504659464246FFF761FF084305D0012004
:1008A00004E020463946BDE8F08D0020054346EAC5
:1008B000E0762C4337430A986305E40AA0EB08006E
:1008C0000022FD0A44EA47540A3002D500200146BE
:1008D000E9E7010510196941DDE908450019694199
:1008E000BDE8F04DA2E770B521F0004303430CD002
:1008F000C1F30A550024D5EB040564EB0403D617B5
:10090000AD1AB34102DB0020014670BD201841EB57
:10091000025170BD2DE9F04D00231A461B1A8A4181
:1009200003DB00200146BDE8F08DC1F30A52C1F39C
:10093000130141F480154FF0000BD10702D10018CC
:100940006D41521E0027044640F2FF11384601EB6C
:10095000620A3E468046024600204FF48011FFF7AF
:100960000CFFC2197141BB1846EB0100B4EB030C3C
:1009700075EB000C04D3E41A65EB000517460E4630
:10098000241908F101006D4180463428E3DDF9198E
:1009900046EB0600091BA84103D24FF0FF32134675
:1009A00001E0002213461BEB070046EB0A51BDE8AD
:1009B000F04DFFF73BBFC1F30A52C1F3130140F200
:1009C000FF3341F480119A4202DA00200146704759
:1009D00040F233439A42A2F2334202DC5242FFF722
:1009E000CCBEFFF7BBBE000030B5041E71F10004A1
:1009F00004DB4FF00044404264EB0101141E73F12C
:100A0000000405DB1C464FF00043524263EB040335
:100A1000994208BF904230BD064C074D06E0E068A1
:100A200040F0010394E8070098471034AC42F6D335
:100A3000FFF7AEFBF8170108181801080EB540F2D1
:100A4000334102910021CDE900110A460B46FFF720
:100A5000FCFE03B000BD70B58C1810F8015B15F0FA
:100A6000070301D110F8013B2A1106D110F8012B20
:100A700003E010F8016B01F8016B5B1EF9D12B0745
:100A800005D40023521E0DD401F8013BFAE710F8FB
:100A9000013BCB1A921C03E013F8015B01F8015BE8
:100AA000521EF9D5A142D8D3002070BD70B50546BD
:100AB000AC6B206C00F0500050BB206C40F4007018
:100AC00020642068806800F04050E8B9207ED8B9E2
:100AD0002068C06A00F4700020B12068806800F4CB
:100AE000806088B92068406820F020002168486054
:100AF000206C20F480702064206C00F4805018B9C1
:100B0000206C40F001002064204601F097F90BE0D2
:100B1000206C00F0100018B1204601F091F903E0BC
:100B2000A06BC16C2846884770BD70B50546AC6B9C
:100B300040202064606C40F004006064204601F0B6
:100B40007FF970BD70B50446A56B284601F077F9B2
:100B500070BD000055494A6822F440324A604A6834
:100B600043681A434A600268526822F4807203683C
:100B70005A6002685368026943EA022203685A60B5
:100B80000268526822F0407203685A600268526834
:100B900083681A4303685A600268926822F400620C
:100BA00003689A6002689268C3681A4303689A608F
:100BB0003F4B826A9A4218D00268926822F07062B3
:100BC00003689A6002689268836A1A4303689A60AD
:100BD0000268926822F0405203689A600268926844
:100BE000C36A1A4303689A600BE00268926822F0B5
:100BF000706203689A600268926822F0405203684B
:100C00009A600268926822F0020203689A600268A1
:100C10009368027E43EA420203689A602022125CD3
:100C2000A2B10268526842F4006203685A60026826
:100C3000526822F4604203685A6002685368426A4C
:100C4000521E43EA423203685A6005E00268526865
:100C500022F4006203685A600268D26A22F47002C9
:100C60000368DA620268D36A828B521E43EA025238
:100C70000368DA620268926822F4007203689A607C
:100C80000268936890F8302043EA422203689A6031
:100C90000268926822F4806203689A60026893682E
:100CA000426943EA822203689A6070470023014048
:100CB0000100000F00BFFEE70FB410B52DED068B4D
:100CC00082B004469FED610AF0EE409A9FED600A03
:100CD000B0EE40AA9FED5E0AF0EE408A9FED5C0AFE
:100CE000B0EE409A9FED5A0AB0EE408ABDF92C0052
:100CF000C0F1FF3000EE100AB8EEC00AF0EE408AF4
:100D0000BDEEE80A10EE100A002801DB014600E003
:100D10004142032913DA00204E4908709FED4C0A26
:100D2000B0EE409A01204C4988761C222046FFF7FD
:100D3000D8FA02B0BDEC068B10BC5DF814FB454838
:100D4000007840B91C220DA94348FFF7CAFA0120D8
:100D50004049087070E039EE280AB0EE409A29EE5A
:100D6000A80A0AEE090AB0EE408AB0EE080AB4EE0C
:100D7000C08AF1EE10FA02DDB0EE080A0BE0B8EE20
:100D8000080AB4EEC08AF1EE10FA02D2B8EE080AF0
:100D900001E0B0EE480AB0EE408A9FED300AB4EEB2
:100DA000C08AF1EE10FA22D29FED2D0AB4EEC08A6D
:100DB000F1EE10FA1BDDB5EEC08AF1EE10FA02DD9D
:100DC0009FED281B09E0B5EEC08AF1EE10FA02D2C1
:100DD0009FED261B01E09FED271BB0EE410AF0EED0
:100DE000610A51EC100BFFF787FC08EE100A1A4855
:100DF00090ED000A30EE080A80ED000A9FED1F0A10
:100E000028EE000ABCEEC00A10EE100A1249088350
:100E1000002000900846028BD0ED000AB0EE600A78
:100E2000002301211648006800F096FE0A49098B4C
:100E300001F596700DF0C8FE0020074988761C2247
:100E40002046FFF74EFA00BF73E70000295C8F3D94
:100E5000000000003A050020B40700209A99993E4E
:100E60009A9999BE333333333333D33F33333333E8
:100E70003333D3BF00000000000000000000C84270
:100E8000400500200FB410B52DED068B82B004464E
:100E90009FED610AF0EE409A9FED600AB0EE40AA25
:100EA0009FED5E0AF0EE408A9FED5C0AB0EE409A3C
:100EB0009FED5A0AB0EE408ABDF92C006FF0080190
:100EC000081A00EE100AB8EEC00AF0EE408ABDEE35
:100ED000E80A10EE100A002801DB014600E041425A
:100EE000032913DA00204E4908709FED4C0AB0EE3A
:100EF000409A01204B4988761C222046FFF7F1F9E1
:100F000002B0BDEC068B10BC5DF814FB44480078C1
:100F100040B91C220DA94348FFF7E3F901204049DD
:100F2000087070E039EE280AB0EE409A29EEA80A5F
:100F30000AEE090AB0EE408AB0EE080AB4EEC08AA2
:100F4000F1EE10FA02DDB0EE080A0BE0B8EE080A86
:100F5000B4EEC08AF1EE10FA02D2B8EE080A01E04F
:100F6000B0EE480AB0EE408A9FED2F0AB4EEC08A78
:100F7000F1EE10FA22D29FED2D0AB4EEC08AF1EE06
:100F800010FA1BDDB5EEC08AF1EE10FA02DD9FED1E
:100F9000281B09E0B5EEC08AF1EE10FA02D29FEDEF
:100FA000261B01E09FED261BB0EE410AF0EE610A20
:100FB00051EC100BFFF7A0FB08EE100A194890ED5A
:100FC000000A30EE080A80ED000A9FED1F0A28EEA5
:100FD000000ABCEEC00A10EE100A12490883002075
:100FE00000900846028BD0ED000AB0EE600A0023A4
:100FF00001211648006800F0AFFD0A49098B01F590
:1010000096700DF0E1FD0020064988761C222046EE
:10101000FFF767F900BF73E7295C8F3D0000000010
:1010200039050020980700209A99993E9A9999BE0F
:10103000333333333333D33F333333333333D3BFA8
:1010400000000000000000000000C8424005002031
:101050000FB410B52DED068B82B004469FED610AEA
:10106000F0EE409A9FED600AB0EE40AA9FED5E0A56
:10107000F0EE408A9FED5C0AB0EE409A9FED5A0A6E
:10108000B0EE408ABDF92C006FF00101081A00EEA5
:10109000100AB8EEC00AF0EE408ABDEEE80A10EE83
:1010A000100A002801DB014600E04142032913DA5F
:1010B00000204E4908709FED4C0AB0EE409A012086
:1010C0004B4988761C222046FFF70BF902B0BDEC95
:1010D000068B10BC5DF814FB4448007840B91C2214
:1010E0000DA94348FFF7FDF801204049087070E062
:1010F00039EE280AB0EE409A29EEA80A0AEE090A4B
:10110000B0EE408AB0EE080AB4EEC08AF1EE10FAF2
:1011100002DDB0EE080A0BE0B8EE080AB4EEC08AB1
:10112000F1EE10FA02D2B8EE080A01E0B0EE480A79
:10113000B0EE408A9FED2F0AB4EEC08AF1EE10FAAD
:1011400022D29FED2D0AB4EEC08AF1EE10FA1BDD1B
:10115000B5EEC08AF1EE10FA02DD9FED281B09E022
:10116000B5EEC08AF1EE10FA02D29FED261B01E027
:101170009FED261BB0EE410AF0EE610A51EC100B18
:10118000FFF7BAFA08EE100A194890ED000A30EE9F
:10119000080A80ED000A9FED1F0A28EE000ABCEE47
:1011A000C00A10EE100A1249088300200090084679
:1011B000028BD0ED000AB0EE600A00230121164830
:1011C000006800F0C9FC0A49098B01F596700DF022
:1011D000FBFC0020064988761C222046FFF781F898
:1011E00000BF73E7295C8F3D000000003805002038
:1011F0007C0700209A99993E9A9999BE33333333EC
:101200003333D33F333333333333D3BF00000000A2
:10121000000000000000C8424005002010B502A0F8
:1012200006F034F810BD00004200000010B502A026
:1012300006F02CF810BD00004700000010B502A019
:1012400006F024F810BD00004500000010B502A013
:1012500006F01CF810BD00004300000010B502A00D
:1012600006F014F810BD00004600000010B502A002
:1012700006F00CF810BD00004400000010B5024854
:1012800000F054FF10BD0000A429002008B5002084
:1012900000900B48007870B169460A4800680FF06A
:1012A00021FB009838B14FF0805007490860BFF328
:1012B0004F8FBFF36F8F054800F038FF08BD000067
:1012C0003C0500205405002004ED00E0242B002004
:1012D00010B5024800F02AFF10BD0000442900208C
:1012E00010B5024800F022FF10BD0000842B002042
:1012F00008B5002000900B48007870B169460A4894
:1013000000680FF0EFFA009838B14FF080500749AD
:101310000860BFF34F8FBFF36F8F054800F006FFE3
:1013200008BD00003C0500205005002004ED00E051
:10133000C42A002008B5002000900B48007870B146
:1013400069460A4800680FF0CDFA009838B14FF0AE
:10135000805007490860BFF34F8FBFF36F8F054878
:1013600000F0E4FE08BD00003C0500205805002008
:1013700004ED00E0E42B002010B5024800F0D6FE9A
:1013800010BD0000042A002010B5024800F0CEFE77
:1013900010BD0000442C002010B5024800F0C6FE2D
:1013A00010BD0000642A0020014608781038182378
:1013B000B0FBF3F20848805CC865032A05D90868C9
:1013C0006FF30900001D886503E008686FF30900EA
:1013D0008865886D70470000581401080146002098
:1013E0008A6A8B69CBB932B1012A0DD0022A03D0A7
:1013F000032A10D10EE000BFCB6A03F08073B3F173
:10140000807F00D1012007E0CB6AB3F1C07F00D11B
:10141000012001E000E000BF34E08B69B3F5005F1C
:101420001AD132B1012A07D0022A03D0032A11D1DE
:101430000AE000BF01200EE0CB6A03F08073B3F135
:10144000807F00D1012006E0CB6AB3F1C07F00D1DC
:10145000012000E000BF15E032B1012A05D0022AC8
:1014600004D0032A0CD103E000BF00BF012008E034
:10147000CB6A03F08073B3F1807F00D1012000E0DC
:1014800000BF00BF704730B50468246824F480248E
:1014900005682C60046863608468402C04D104688B
:1014A000A2600468E16003E00468A1600468E2608F
:1014B00030BD70472DE9FF4F2DED060B2DED108B44
:1014C00087B0F0EE40FAF0EE428A2A9E0EF0B8FFA6
:1014D0004FF4B970069000200590DDE9050106FB88
:1014E00001060027B846B946BA46BB464FF4966493
:1014F0000025002004909FEDCC0AB0EE409A9FEDAD
:10150000CA0AF0EE409A9FEDC80A8DED030A9FEDDE
:10151000C70A8DED020A9FEDC60A8DED010A9FED07
:10152000C20AB0EE40FAC3480068B0421BD0C148BE
:1015300006609FEDBD0AC04880ED000ABDEEC00AFE
:10154000BE4880ED000A9FEDB80ABB4880ED000A56
:10155000BB4880ED000A00231A461946B9480068C6
:101560000FF0ECF812E01D9A002A01DB134600E0B0
:1015700053421E98002801DB844601E0C0F1000CB4
:1015800003EB0C0101EBD1735B1004930498351A43
:10159000AA4800682844A94908600846006841F242
:1015A0007071884201DD084608E0A4480068A64939
:1015B000884202DDA148006800E0A3489F49086016
:1015C000DDED020A00EE105AB8EEC00A20EE800AE5
:1015D0009E480068281A00EE900AF8EEE00A0FEE26
:1015E000200ADDED010A084690ED001AB8EEC11A96
:1015F00000EE810ABDEEC00A10EE109AA14501DD91
:10160000204605E06042814501DD484600E0604239
:1016100081468E4805600FF003FEB5F5167F1EDA91
:1016200015F5167F1BDD00231A46194618460EF0E5
:101630009BF89FED7D0A824880ED000A00207F49DB
:10164000086000231A4619467E4800680FF076F8B5
:10165000012007B0BDEC108B0AB0BDE8F08F9DED06
:101660001A0AF0EE400AB0EE6F0A08F083FFF3EEBC
:101670000E0AB4EEE00AF1EE10FA0ADDDDED1A1AF8
:101680009DED191ADDED180AB0EE6F0A09F030F879
:10169000C7E09DED1A0AF0EE400AB0EE6F0A08F0BE
:1016A00069FFB0EE408A6648D0ED000AB0EE480A05
:1016B00030EE800A80ED000A90ED000ADFED640A4A
:1016C000B4EEE00AF1EE10FA02DD9FED610A0EE0E1
:1016D0005B4890ED000ADFED5F0AB4EEE00AF1EE40
:1016E00010FA02DD90ED000A01E09FED5A0A54481D
:1016F00080ED000A504880ED008A28EE090A504823
:10170000D0ED000A00EEA90A4B48D0ED000A38EEF1
:10171000601ADDED030A01EE200ABDEEC00A10EEEC
:10172000108A234604EBD37C4FEA6C0CC44505DADF
:10173000224602EBD27C4FEA6C0C0DE0614201EBD9
:10174000D17C4FEA6C0CC44501DAC44604E0604227
:1017500000EBD07C4FEA6C0CE046C8F100079FED2F
:101760003E0A38EE800A10EE101A0846FEF7B1FF66
:1017700041EC1E0B9FED390B53EC102BFEF798FE3E
:1017800041EC1D0BB0EE4D0AF0EE6D0A07F0A4F926
:10179000B0EE40BAF0EE60BA4846FEF76AFF41ECA0
:1017A0001C0B53EC1B2BFEF783FE41EC1A0BFEF7D0
:1017B00071FF82469FED280A38EEC00A10EE101A1B
:1017C0000846FEF786FF41EC1E0B9FED240B53EC01
:1017D000102BFEF76DFE41EC1D0BB0EE4D0AF0EE46
:1017E0006D0A07F079F9B0EE40BAF0EE60BA4846FB
:1017F000FEF73FFF41EC1C0B53EC1B2BFEF758FE92
:1018000041EC1A0BFEF746FF8346AAEB0703ABEB4E
:1018100007020BEB07010AEB07000DF0A5FF002004
:1018200017E7002015E70000000000004260E53CDB
:10183000A69BC43AB4000020AC000020B8000020F1
:10184000A80000206005002090E8FFFFB000002005
:1018500000007A4500007AC500003442449D52A23F
:1018600046DF913F72B600BFFEE770B590B0044608
:101870006A4632210DA804F0A1FC0DA9204600F013
:101880000DF80DA804F056FC401E86B231460DA896
:1018900004F07EFC0546284610B070BD70B50446C5
:1018A0000D462188284604F00AFDA178284604F058
:1018B000E6FCE178284604F0E2FCE278211D2846A7
:1018C00004F0E5FC284604F04FFC06463146284665
:1018D00004F0D5FC70BD00002DE9F7432DED048B1D
:1018E0008EB0804614464FF0010913AB01220A2145
:1018F000404600F011F96946404600F071F807468D
:1019000017BB9DF804509DF84C00854205D0072078
:101910000EB0BDEC048BBDE8FE839DF805109DF86C
:10192000060041EA002006B23046FEF7A2FE41EC76
:10193000190B9FED060B53EC102BFEF72BFE41EC21
:10194000180BFEF7D9FE20603846E1E700000000E2
:10195000000024402DE9F7432DED048B8EB0804626
:1019600014464FF0010913AB01221021404600F04C
:10197000D3F86946404600F033F807464FBB9DF860
:1019800004509DF84C00854205D007200EB0BDECF8
:10199000048BBDE8FE839DF805109DF8060041EA22
:1019A00000219DF8070041EA00419DF8080041EA46
:1019B00000663046FEF75DFE41EC190B9FED060B0D
:1019C00053EC102BFEF7E6FD41EC180BFEF794FEEE
:1019D00020603846DAE700000000000000002440E4
:1019E0002DE9F04105460C46002084F83700002719
:1019F0000026642004F07AFC87E0A86804F09AFBD3
:101A000000B982E094F8370000F00800C8B1A86877
:101A100004F02FFC04F8360F607840F0100060707E
:101A2000363C2046FFF721FF94F83610884204D058
:101A300004F06CFC0620BDE8F08104F067FC002097
:101A4000F9E794F8370000F0040080B1A86804F0CA
:101A500010FC211DC855781CC7B2E078B84253D19C
:101A600094F8370040F0080084F837004CE094F810
:101A7000370000F0020088B1A86804F0FAFBE070BB
:101A8000E0782D2803DD04F041FC0520D3E794F82D
:101A9000370040F0040084F8370035E094F8370050
:101AA00000F0010088B1A86804F0E3FBA070A07802
:101AB000112803DD04F02AFC0420BCE794F8370069
:101AC00040F0020084F837001EE03EB9A86804F038
:101AD000D0FB0646052E17D0002615E0052E12D1A4
:101AE000A86804F0C6FB46EA002641F60540864297
:101AF00001D0002608E0268094F8370040F001006D
:101B000084F8370000E0002600BF04F00FFC002836
:101B10003FF473AF02208EE7F0B58FB005460E4656
:101B200014461F4644F61240ADF804008DF80660D6
:101B30008DF80740002003E03A5C02A90A54401CDB
:101B4000A042F9DB01A86968FFF7A8FE284605F066
:101B500083FB0FB0F0BD00002DE9F0432DED028BAB
:101B600085B006460F46B0EE408A14461D46DDF8A5
:101B700038804FF0070903AA0721684604F01EFBCE
:101B80009FED230AB4EEC08AF1EE10FA04DD9FED5A
:101B9000200AB0EE408A0AE09FED1E0AB4EEC08A29
:101BA000F1EE10FA03D29FED1B0AB0EE408A3946DF
:101BB000684604F064FBB2EE040A28EE000ABDEEAB
:101BC000C00A10EE100A01B2684604F06FFB21460D
:101BD000684604F074FB2946684604F070FB0DF17A
:101BE0000D03072208213046FFF796FFB8F1000FDA
:101BF0000BD00022B0EE480A3946304600F00CF80F
:101C000005B0BDEC028BBDE8F0830020F8E70000D2
:101C100000003443000034C3F0B52DED028B81B0D9
:101C200006460F46B0EE408A1446002528E02CB147
:101C30006A4639463046FFF78DFE04E06A4639466B
:101C40003046FFF749FE9DED000A38EE400AF0EEFF
:101C5000C08A9FED0C0AF4EEC08AF1EE10FA04D8A7
:101C6000002001B0BDEC028BF0BD681C85B242F2D1
:101C70001070854201DB0120F3E7642004F060FB73
:101C8000D5E70000CDCC4C3F0EB505A207CA8DE8C4
:101C90000700642309226946044802F05EFC0EBD79
:101CA0007E000801000201ABCD00000004290020E5
:101CB00038B502460020009000BF92F83C00012891
:101CC00001D1022038BD012082F83C0000BF086825
:101CD000092816D91068C0680C780A3C04EB440542
:101CE0000724AC40A0431468E0600C780A3C04EB85
:101CF00044048868A0401468E46820431468E060E5
:101D000013E0106800690C7804EB44050724AC402C
:101D1000A043146820610C7804EB44048868A04058
:101D2000146824692043146820614868072817D282
:101D30001068406B0C79641E04EB84051F24AC40D2
:101D4000A04314686063088880B20C79641E04EBB9
:101D50008404A0401468646B20431468606331E01D
:101D600048680D2817D21068006B0C79E41F04EB4B
:101D700084051F24AC40A04314682063088880B207
:101D80000C79E41F04EB8404A0401468246B204306
:101D90001468206316E01068C06A0C790D3C04EBEF
:101DA00084051F24AC40A0431468E062088880B218
:101DB0000C790D3C04EB8404A0401468E46A2043D1
:101DC0001468E062194B1A4C1068A04206D10868EA
:101DD000122803D1586840F480005860144C1068F1
:101DE000A0421CD10868102802D00868112816D11A
:101DF000586840F400005860086810280FD10D485A
:101E000000680D4CB0FBF4F000EB80004000009047
:101E100002E00098401E009000980028F9D100BF11
:101E2000002082F83C0000BF00BF4BE700230140C8
:101E300000200140FC05002040420F007047704721
:101E40007047000070B5044600250CB9012070BD34
:101E50001549A06A884200D000BF206C30B92046E6
:101E600000F024F80020606484F83C00206C00F04E
:101E7000100088B9206C20F4885040F002002064E3
:101E80002046FEF767FE00206064206C20F0020010
:101E900040F00100206400E0012500BF002084F82C
:101EA0003C0000BF2846D2E70100000F10B586B005
:101EB0000446142101A8FEF72DFA2C492068884217
:101EC00051D100BF002000902948006840F4807084
:101ED000274908600846006800F48070009000BF41
:101EE00000BF00BF0020009021481438006840F077
:101EF00002001F49143908600846006800F002001B
:101F0000009000BF00BF022001900320029000203B
:101F1000039001A9174800F0FDFA17481749086017
:101F200000204860002115488160C16001614FF4C4
:101F300000614161890081614911C1610021016233
:101F4000416200F013FA08B1FFF78CFC00BF0B48A8
:101F5000A063846300BF00221146122000F090FCB1
:101F6000122000F07DFC06B010BD000000200140F2
:101F7000443802400004024010640240B0060020D1
:101F8000F8B504460D4616460020009000BF94F8B0
:101F90003C00012801D10220F8BD012084F83C005A
:101FA00000BF2068806800F00100A0B92068806848
:101FB00040F0010021688860494800684949B0FB49
:101FC000F1F000EB4000009002E00098401E00900D
:101FD00000980028F9D12068806800F001000028EE
:101FE0007CD0206C40F20161884340F48070206412
:101FF0002068406800F4806028B1206C20F4005014
:1020000040F480502064206C00F48050B0F5805F74
:1020100004D1606C20F00600606401E00020606480
:1020200000BF002084F83C0000BF2F4F2F48A16B59
:10203000C8632F48A16B08642E48A16BC8646FF079
:102040002200216808602068406840F080602168B4
:1020500048602068806840F4807021688860226849
:1020600002F14C0133462A46A06B00F0F5F978687E
:1020700000F01F0018BB20492068884213D01F4978
:102080002068884204D1381D006800F01F0050B15C
:102090001B492068884221D11348001D006800F0C8
:1020A0001F0010281AD22068806800F0405028B91C
:1020B0002068806840F08040216888600EE00E490A
:1020C000206888420AD12068806800F0405028B912
:1020D0002068806840F080402168886000205BE7CD
:1020E000FC05002040420F0000230140AD0A00081B
:1020F000450B00082B0B0008002001400021014087
:1021000000220140014691F83500022803D08020CA
:10211000486501207047052081F83500086800688F
:1021200020F001000A6810600020F3E7F8B50446CB
:10213000002000908C4800684FF41651B0FBF1F776
:10214000A56D2E6894F85C1008208840304098B146
:102150002068006800F0040070B12068006820F07A
:1021600004002168086094F85C1008208840A8608A
:10217000606D40F00100606594F85C1001208840BB
:10218000304068B12068406900F0800040B194F8A8
:102190005C1001208840A860606D40F0020060651E
:1021A00094F85C1004208840304068B120680068D2
:1021B00000F0020040B194F85C1004208840A86050
:1021C000606D40F00400606594F85C101020884059
:1021D000304078B32068006800F0080050B394F8ED
:1021E0005C1010208840A8602068006800F48020FF
:1021F00080B12068006800F4002028B9206CC8B1C4
:102200002046216C884715E0A06C98B12046A16C4F
:1022100088470FE02068006800F4807028B92068C3
:10222000006820F0080021680860206C10B120468A
:10223000216C884794F85C102020884030400028AA
:1022400065D02068006800F0100000285FD094F886
:102250005C1020208840A86094F83500052828D11B
:102260002068006820F01600216808602068406936
:1022700020F0800021684861206C08B9A06C28B16A
:102280002068006820F008002168086094F85C105D
:102290003F208840A86000BF002084F8340000BFC1
:1022A000012084F83500206D10B12046216D88474B
:1022B000F8BD2068006800F4802080B120680068C4
:1022C00000F4002028B9606C10B12046616C88478A
:1022D0001DE0E06BD8B12046E16B884717E020682D
:1022E000006800F4807068B92068006820F0100071
:1022F0002168086000BF002084F8340000BF01207E
:1023000084F83500E06B10B12046E16B8847606DC2
:1023100038B3606D00F00100F0B1052084F835009D
:102320002068006820F001002168086000BF009864
:10233000401C0090B84200D905E02068006800F019
:1023400001000028F3D100BF00BF002084F8340052
:1023500000BF012084F83500E06C10B12046E16C2C
:10236000884700BFA4E70000FC0500202DE9F041EC
:102370000446002500F0D4F9074614B90120BDE851
:10238000F081606A00B100BF00BF002084F8340013
:1023900000BF022084F835002068006820F00100AA
:1023A000216808600AE000F0BBF9C01B052805D9C8
:1023B00020206065032084F83500E0E7206800688D
:1023C00000F001000028EED1206805682148054092
:1023D000D4E901010843E1680843216908436169C0
:1023E0000843A1690843E1690843216A084305439A
:1023F000606A042803D1D4E90B010843054320682F
:1024000005602068456925F00705606A0543606A34
:1024100004280DD1A06A0543E06A48B12046FEF7C2
:10242000DDFF28B140206065012084F83500A6E773
:10243000206845612046FEF7B7FF064694F85C1019
:102440003F208840B06000206065012084F835009E
:10245000002094E73F8010F02DE9F04704460D4638
:1024600016461F464FF00008D4F8589000BF94F865
:102470003400012802D10220BDE8F087012084F851
:10248000340000BF94F83500012825D1022084F8DB
:102490003500002060653B46324629462046FEF75F
:1024A000F2FF94F85C103F208840C9F808002068CB
:1024B000006840F0160021680860206C28B1206890
:1024C000006840F00800216808602068006840F05B
:1024D00001002168086006E000BF002084F8340095
:1024E00000BF4FF002084046C6E7000070B5044642
:1024F00000F016F906462546681C10B1044800781D
:10250000054400BF00F00CF9801BA842FAD370BD4F
:10251000F8050020F8B502460B46002500240020EF
:102520000021DCE0012606FA01F51E6806EA050432
:10253000AC4273D15E68012E08D05E68022E05D0D1
:102540005E68112E02D05E68122E13D190684F0083
:102550000326BE40B0434F00DE68BE40304390606B
:10256000506801268E40B0431E79C6F300168E4097
:1025700030435060D0684F000326BE40B0434F0048
:102580009E68BE403043D0605E68022E02D05E6816
:10259000122E13D1CF0802F1200656F827004E075D
:1025A000F70E0F26BE40B0434F07FF0E1E69BE4018
:1025B0003043CF0802F1200646F8270010684F008C
:1025C0000326BE40B0431E7906F003064F00BE400E
:1025D000304310605E6806F08056B6F1805F7DD1B2
:1025E00000BF00260096404E366846F480463E4FB7
:1025F0003E603E46366806F48046009600BF00BF47
:102600003A4E8F0856F827008E07370F0F26BE4028
:10261000B043374EB24202D1002624E05EE0354E90
:10262000B24201D101261EE0334EB24201D1022650
:1026300019E0324EB24201D1032614E0304EB242CC
:1026400001D104260FE02F4EB24201D105260AE047
:102650002D4EB24201D1062605E02C4EB24201D1E8
:10266000072600E008268F073F0FBE4030431F4E6D
:102670008F0846F82700264E3068A0435E6806F4AF
:102680008036B6F5803F00D12043214E3060361DA4
:102690003068A0435E6806F40036B6F5003F00D10E
:1026A00020431B4E361D3060361D3068A0435E68E7
:1026B00006F48016B6F5801F00D12043144E08366C
:1026C0003060361D3068A0435E6806F40016B6F52B
:1026D000001F00D120430E4E0C363060491C1029DB
:1026E000FFF420AFF8BD0000443802400838014034
:1026F000000002400004024000080240000C0240BA
:10270000001002400014024000180240001C024069
:10271000003C01400AB1816101E00B048361704714
:102720000148006870470000F00500200348006879
:10273000034909780844014908607047F005002002
:10274000F805002010B50D48006840F400700B49F2
:1027500008600846006840F4806008600846006829
:1027600040F480700860032000F0C8F8002000F0FA
:1027700007F800F04BF8002010BD0000003C0240BC
:1027800070B588B004460025002600222146372077
:1027900000F076F8372000F063F800BF00200190C9
:1027A0001648006840F02000144908600846006898
:1027B00000F02000019000BF00BF02A903A800F0B4
:1027C00073F900F099F945000D48B5FBF0F0461E8D
:1027D0000C480D49086040F2E7310B48C160466083
:1027E00000210161816000F0D9FC20B9064800F0A9
:1027F0006FFD08B070BD0120FBE7000040380240CB
:1028000040420F0000140040A42C002008B500BF77
:10281000002000901148006840F480400F49086093
:102820000846006800F48040009000BF00BF00BF71
:1028300000200090081F006840F08050091F0860C9
:102840000846006800F08050009000BF00BF0022E2
:102850000F21901E00F014F808BD0000443802401B
:1028600001460846002809DB00F01F0301229A40B8
:1028700043099B0003F1E023C3F8002100BF704728
:102880002DE9F05F80460D461646002704F0B4FDA2
:10289000074639462A46334601F00700C0F1070AC9
:1028A000BAF1040F02D94FF0040A01E0C0F1070A9F
:1028B000D14600F1040ABAF1070F02D24FF0000A24
:1028C00001E0A0F1030AD4464FF0010A0AFA09FA1E
:1028D000AAF1010A0AEA020A0AFA0CFA4FF0010BFD
:1028E0000BFA0CFBABF1010B0BEA030B4AEA0B04EE
:1028F0002146404604F088FDBDE8F09F00BF00F08F
:102900000702064B19684FF6FF031940044B0B43AF
:1029100043EA0221014B196000BF70470CED00E053
:102920000000FA0570B504460D460CB9012070BDD3
:102930005848006800F00F00A84209D255490D70B0
:102940000846006800F00F00A84201D00120EEE721
:10295000207800F0020002281DD1207800F0040049
:10296000042805D14C48006840F4E0504A4908600A
:10297000207800F00800082805D14748006840F496
:102980006040454908604448006820F0F000A168B4
:10299000084341490860207800F00100A8B360684E
:1029A000012807D13C4808380068C0F34040B8B956
:1029B0000120BCE76068022802D06068032807D1C4
:1029C000354808380068C0F3406048B90120AEE7D8
:1029D000314808380068C0F3400008B90120A6E774
:1029E0002D48006820F00300616808432A49086008
:1029F000FFF796FE064609E0FFF792FE801B41F2C4
:102A00008831884202D9032091E707E02248006814
:102A100000F00C006168B0EB810FEDD11D4800683B
:102A200000F00F00A84209D91A490D700846006845
:102A300000F00F00A84201D0012078E7207800F0D4
:102A40000400042807D11448006820F4E050E1682D
:102A5000084311490860207800F00800082808D1D0
:102A60000D48006820F46040216940EAC1000A492D
:102A7000086000F061F808490968C1F30311074ACA
:102A8000515CC8400649086006480068FFF778FEB8
:102A900000204CE7003C0240083802406014010866
:102AA000FC050020F40500200F2202600D4A126888
:102AB00002F0030242600B4A126802F0F0028260E8
:102AC000084A126802F4E052C260064A126802F430
:102AD0006042D2080261044A126802F00F020A60E2
:102AE0007047000008380240003C0240014800687E
:102AF00070470000FC05002000B5FFF7F7FF044910
:102B00000968C1F38221034A515CC84000BD00003E
:102B1000083802407014010800B5FFF7E7FF0449C8
:102B20000968C1F34231034A515CC84000BD00004E
:102B300008380240701401082DE9F04700240025F0
:102B40000026A1462548006800F00C0020B10428AA
:102B500005D008283AD105E0DFF8849039E0DFF8A5
:102B6000849036E01D48001F006800F03F041B48B9
:102B7000001F006800F4800078B11A481749091F47
:102B80000968C1F38811A0FB0170014622460023A9
:102B90003846FDF775FB05460EE011480F49091F41
:102BA0000968C1F38811A0FB017001462246002389
:102BB0003846FDF765FB05460848001F0068C0F36E
:102BC0000140401C4600B5FBF6F902E0DFF810902A
:102BD00000BF00BF4846BDE8F0870000083802404B
:102BE0000024F40000127A00F8B504460CB9012064
:102BF000F8BD207800F00100002874D0F948006882
:102C000000F00C0004280DD0F648006800F00C001D
:102C1000082813D1F348001F006800F48000B0F5C5
:102C2000800F0BD1EF4808380068C0F340400028FF
:102C300059D06068002856D10120D9E700BF6068EC
:102C4000B0F5803F08D1E7480838006840F480308C
:102C5000E449083908601EE06068B0F5A02F0DD186
:102C6000E0480838006840F48020DE4908390860F0
:102C70000846006840F4803008600CE0D948083805
:102C8000006820F48030D749083908600846006899
:102C900020F48020086000BF606890B1FFF740FD1D
:102CA000054606E0FFF73CFD401B642801D90320E0
:102CB0009EE7CC4808380068C0F340400028F1D0B7
:102CC00011E0FFF72DFD054606E0FFF729FD401B4B
:102CD000642801D903208BE7C24808380068C0F394
:102CE00040400028F1D1207800F0020002285FD196
:102CF000BC48006800F00C0058B1BA48006800F009
:102D00000C0008281CD1B748001F006800F48000A0
:102D1000B0B9B44808380068C0F3400020B1E0689A
:102D2000012801D0012063E7AE480838006820F090
:102D3000F800216940EAC100AA490839086037E073
:102D4000E06800B30120A8490860FFF7E9FC0546E8
:102D500006E0FFF7E5FC401B022801D9032047E706
:102D6000A04808380068C0F340000028F1D09D4812
:102D70000838006820F0F800216940EAC10099494C
:102D80000839086014E0002097490860FFF7C8FC84
:102D9000054606E0FFF7C4FC401B022801D90320CA
:102DA00026E7904808380068C0F340000028F1D1B9
:102DB000207800F0080008282CD16069A8B1012013
:102DC0008A490860FFF7ACFC054606E0FFF7A8FC5F
:102DD000401B022801D903200AE782486C300068B2
:102DE000C0F340000028F1D014E000207F490860C3
:102DF000FFF796FC054606E0FFF792FC401B022811
:102E000001D90320F4E677486C300068C0F3400035
:102E10000028F1D1207800F00400042870D10027A8
:102E200070483830006800F0805090B900BF002032
:102E300000906C483830006840F080506949383163
:102E400008600846006800F08050009000BF00BF96
:102E500001276748006800F48070B0B964480068D2
:102E600040F4807062490860FFF75AFC054606E0AE
:102E7000FFF756FC401B022801D90320B8E65C4846
:102E8000006800F480700028F2D000BFA06801281C
:102E900008D154486830006840F001005149683159
:102EA00008601DE0A06805280DD14E486830006814
:102EB00040F004004B49683108600846006840F063
:102EC000010008600CE047486830006820F001000D
:102ED0004449683108600846006820F00400086032
:102EE00000BFA068A8B1FFF71BFC054609E0FFF78B
:102EF00017FC401B41F28831884202D9032077E653
:102F000026E0384868300068C0F340000028EED062
:102F100013E0FFF705FC054608E0FFF701FC401B46
:102F200041F28831884201D9032061E62D4868309A
:102F30000068C0F340000028EFD1012F07D12948D5
:102F40003830006820F0805026493831086000BFD2
:102F5000A069002845D02348006800F00C0008282C
:102F60005DD0A069022845D100201F490866FFF7FF
:102F7000D7FB054606E0FFF7D3FB401B022801D92B
:102F8000032035E6174808380068C0F34060002881
:102F9000F1D1D4E907010843616A40EA81110122B5
:102FA000A06AC2EB500041EA00412C20005D41EADA
:102FB00000600C49091F086001200B490866FFF7F3
:102FC000AFFB054606E0FFF7ABFB401B022801D92B
:102FD00003200DE6034808380068C0F3406000286D
:102FE000F1D03FE00838024000004742800E4742DF
:102FF0000070004000201C490866FFF791FB054661
:1030000006E0FFF78DFB401B022801D90320EFE506
:1030100016480068C0F340600028F2D122E0A069A1
:10302000012800D1E4E51148001D066806F480017E
:10303000E069814214D106F03F01206A81420FD13C
:1030400047F6C0703040616A884209D106F44031C9
:10305000A06A814204D106F07061E06A814201D029
:103060000120C5E50020C3E50000474200380240CA
:103070007047704710B50346002200BF93F83C002C
:10308000012801D1022010BD012083F83C0000BFBF
:1030900022F0FF00CC6840EA040222F440708C6801
:1030A00040EA040222F480604C6840EA040222F400
:1030B00000600C6840EA040222F480500C6940EA87
:1030C000040222F400504C6940EA040222F48040D9
:1030D000CC6940EA04021868426400BF002083F80B
:1030E0003C0000BF00BFCEE730B502460B4600BF34
:1030F00092F83C00012801D1022030BD012082F865
:103100003C0000BF022082F83D001068446810684F
:10311000816824F070041868044310684460184DF6
:103120001068A8421BD01068B0F1804F17D0154D21
:103130001068A84213D0144D1068A8420FD0134D48
:103140001068A8420BD0124D1068A84207D0114D4C
:103150001068A84203D0104D1068A84205D121F094
:1031600080015868014310688160012082F83D00A9
:1031700000BF002082F83C0000BF00BFBDE7000098
:10318000000001400004004000080040000C004026
:1031900000040140004001400018004010B5044602
:1031A0000CB9012010BD94F83D0028B9002084F826
:1031B0003C00204600F00CF8022084F83D00211D60
:1031C000206803F08FF9012084F83D000020E9E732
:1031D00038B5044638492068884218D100BF00201D
:1031E00000903648006840F01000344908600846F6
:1031F000006800F01000009000BF00BF0022052111
:103200003620FFF73DFB3620FFF72AFB53E02C4921
:103210002068884211D100BF002000902748001D7F
:10322000006840F400302549091D08600846006820
:1032300000F40030009000BF3DE022492068884241
:1032400011D100BF002000901C48001D006840F410
:1032500080201A49091D08600846006800F4802093
:10326000009000BF27E01849206888420FD100BFB6
:10327000002000901148006840F080000F4908606D
:103280000846006800F08000009000BF13E00F497E
:10329000206888420FD100BF0020009007480068D6
:1032A00040F48070054908600846006800F48070AA
:1032B000009000BF00BF38BD001000404038024001
:1032C0000044014000480140001C00400020004034
:1032D00001460868C06840F001000B68D8600868C3
:1032E000806800F00702062A05D00868006840F0F0
:1032F00001000B681860002070472DE9F04104467A
:103300000D4614B90120BDE8F08194F83D0028B9BC
:10331000002084F83C00204600F046F8022084F8A3
:103320003D002068806844F2070188432168886076
:10333000211D206803F0D6F82068D0F808802068A6
:1033400086692068076A286840EA080840F2033066
:103350008643A969A86840EA0120064340F60C406C
:1033600086434FF2F0008643E969E86840EA0120AD
:10337000064328690001296A40EA0130064327F024
:10338000220727F088076969686840EA0110074347
:103390002068C0F8088020688661206807620120E4
:1033A00084F83D000020AEE710B586B00446142135
:1033B00001A8FCF7AFFF2068B0F1804F53D100BFE8
:1033C000002000908248006840F0010080490860B9
:1033D0000846006800F00100009000BF00BF00BF79
:1033E000002000907A481038006840F001007849C9
:1033F000103908600846006800F00100009000BF26
:1034000000BF00BF002000900846006840F00200A6
:1034100008600846006800F00200009000BF00BF8E
:1034200020200190022002900020039004900120AF
:10343000059001A96748FFF76DF808200190022068
:1034400002900020039004900120059001A9624899
:10345000FFF760F8002205211C20FFF711FA1C205D
:10346000FFF7FEF9B2E05D492068884237D100BF1E
:10347000002000905648006840F00200544908605F
:103480000846006800F00200009000BF00BF00BFC7
:10349000002000904E481038006840F002004C496F
:1034A000103908600846006800F00200009000BF74
:1034B00000BF302001900220029000200390049071
:1034C0000220059001A94448FFF724F800220521B5
:1034D0001D20FFF7D5F91D20FFF7C2F976E040491E
:1034E0002068884237D100BF00200090384800682B
:1034F00040F00400364908600846006800F0040007
:10350000009000BF00BF00BF00200090304810387E
:10351000006840F002002E49103908600846006833
:1035200000F00200009000BF00BFC0200190022008
:1035300002900020039004900220059001A92648E3
:10354000FEF7E8FF002205211E20FFF799F91E2053
:10355000FFF786F93AE023492068884236D100BF58
:10356000002000901A48006840F0080018490860E0
:103570000846006800F00800009000BF00BF00BFD0
:103580000020009012481038006840F001001049F7
:10359000103908600846006800F00100009000BF84
:1035A00000BF0320019002200290002003900490AD
:1035B0000220059001A90748FEF7ACFF0022052173
:1035C0003220FFF75DF93220FFF74AF906B010BD4F
:1035D0004038024000000240000402400004004065
:1035E00000080040000C004030B504460D4615B1FF
:1035F000042D0CD105E001220021206802F0DEFF3D
:1036000010E001220421206802F0D8FF0AE0012224
:103610000021206802F0D2FF01220421206802F07C
:10362000CDFF00BF00BF2068006840F001002168A6
:103630000860002030BD704710B50446206800695E
:10364000C0F34000D8B12068C068C0F34000B0B1FA
:103650006FF00200216808610120207720688069EE
:1036600000F0030018B12046FFF7E5FF05E0204613
:1036700000F0BCF9204600F0A1FA00202077206875
:103680000069C0F38000D8B12068C068C0F3800032
:10369000B0B16FF004002168086102202077206833
:1036A000806900F4407018B12046FFF7C4FF05E0C0
:1036B000204600F09BF9204600F080FA0020207799
:1036C00020680069C0F3C000D8B12068C068C0F3AA
:1036D000C000B0B16FF008002168086104202077B5
:1036E0002068C06900F0030018B12046FFF7A3FF6F
:1036F00005E0204600F07AF9204600F05FFA00204D
:10370000207720680069C0F30010D8B12068C06835
:10371000C0F30010B0B16FF01000216808610820FC
:1037200020772068C06900F4407018B12046FFF788
:1037300082FF05E0204600F059F9204600F03EFAED
:10374000002020772068006900F0010058B120684F
:10375000C06800F0010030B16FF00100216808611D
:10376000204600F059FA20680069C0F3C01058B133
:103770002068C068C0F3C01030B16FF080002168CD
:1037800008612046FFF774FC20680069C0F38010D0
:1037900058B12068C068C0F3801030B16FF04000AD
:1037A00021680861204600F057FA20680069C0F3DC
:1037B000401058B12068C068C0F3401030B16FF0BD
:1037C0002000216808612046FFF753FC10BD00006F
:1037D00010B586B00446142101A8FCF79BFD78497A
:1037E000206888421ED100BF002000907548006804
:1037F00040F01000734908600846006800F01000AF
:10380000009000BF00BF4FF4D4400190022002900E
:103810000020039004900120059001A96A48FEF75A
:1038200079FECBE06949206888421DD100BF0020A5
:1038300000906448006840F0100062490860084643
:10384000006800F01000009000BF00BF60200190F1
:10385000022002900020039004900320059001A90B
:103860005948FEF757FEA9E05949206888421DD102
:1038700000BF002000905348006840F0020051490A
:1038800008600846006800F00200009000BF00BF1A
:1038900088150190022002900020039004900320DC
:1038A000059001A94B48FEF735FE87E04A4920689C
:1038B00088421DD100BF002000904248006840F0BF
:1038C0000200404908600846006800F002000090CD
:1038D00000BF00BF48150190022002900020039015
:1038E00004900320059001A93A48FEF713FE65E015
:1038F0003A49206888421ED100BF0020009031481C
:10390000006840F002002F4908600846006800F097
:103910000200009000BF00BF4FF440400190022021
:1039200002900020039004900920059001A92948E5
:10393000FEF7F0FD42E02A49206888421DD100BF11
:10394000002000901F48006840F001001D490860F9
:103950000846006800F00100009000BF00BF402052
:10396000019002200290002003900490092005900D
:1039700001A91C48FEF7CEFD20E01B4920688842C3
:103980001CD100BF002000900E48006840F00100EC
:103990000C4908600846006800F00100009000BF74
:1039A00000BF80200190022002900020039004902C
:1039B0000920059001A90B48FEF7ACFD06B010BD2B
:1039C0000000014030380240001002400040014039
:1039D000004401400004024000480140001800403B
:1039E000001C00400000024000200040704770B5FD
:1039F00004460D46164600BF94F83C00012801D14C
:103A0000022070BD012084F83C0000BF022084F831
:103A10003D0036B1042E1BD0082E31D00C2E5ED1C5
:103A200045E02946206802F0DBFD2068806940F00F
:103A30000800216888612068806920F004002168FE
:103A4000886120688069296908432168886147E0A6
:103A50002946206802F0FCFD2068806940F400607F
:103A6000216888612068806920F48060216888610D
:103A700020688069296940EA0120216888612FE077
:103A80002946206802F022FE2068C06940F0080044
:103A90002168C8612068C06920F004002168C861FD
:103AA0002068C069296908432168C86118E029466F
:103AB000206802F047FE2068C06940F40060216879
:103AC000C8612068C06920F480602168C8612068EE
:103AD000C069296940EA01202168C86100E000BF8F
:103AE00000BF012084F83D0000BF002084F83C00A6
:103AF00000BF00BF85E710B504460CB9012010BD1A
:103B000094F83D0028B9002084F83C00204600F0DD
:103B10000DF8022084F83D00211D206802F0E2FC2F
:103B2000012084F83D000020E9E7000008B51F4AA5
:103B3000016891420FD100BF002100911C49096822
:103B400041F001011A4A11601146096801F00101B2
:103B5000009100BF29E0174A016891420FD100BFD0
:103B6000002100911249096841F48031104A116026
:103B70001146096801F48031009100BF15E00E4A3A
:103B80000168914211D100BF002100910849091F2D
:103B9000096841F04001064A121F11601146096888
:103BA00001F04001009100BF00BF08BD00000140CE
:103BB00044380240004001400018004070470000B7
:103BC00070B504460E4601223146206802F0F6FC2C
:103BD0000F492068884203D00E492068884201D1ED
:103BE000012000E0002028B12068406C40F4004033
:103BF000216848642068806800F00705062D05D01C
:103C00002068006840F0010021680860002070BD55
:103C1000000001400004014010B504460B49206833
:103C2000884201D1FEF782FD0949206888420BD104
:103C30000848006828B107480068401E0549086028
:103C400002E000200349086010BD0000001400409D
:103C50000010004000000020704770472DE9F04739
:103C60000446206805682068C668206847694FF0E8
:103C70000008C14605F00F08B8F1000F0AD105F0A1
:103C8000200038B106F0200020B1204602F03CFEB2
:103C9000BDE8F087B8F1000F72D007F0010018B945
:103CA00006F4907000286BD005F0010030B106F4E6
:103CB000807018B1E06B40F00100E06305F0040093
:103CC00030B107F0010018B1E06B40F00200E06392
:103CD00005F0020030B107F0010018B1E06B40F0D0
:103CE0000400E06305F0080048B106F0200010B9B8
:103CF00007F0010018B1E06B40F00800E063E06BF2
:103D000070B305F0200028B106F0200010B1204665
:103D100002F0FAFD20684069C0F38019E06B00F002
:103D2000080010B9B9F1000F23D0204602F0C2FDFF
:103D30002068406900F04000402816D120684069A2
:103D400020F0400021684861606B50B11748616BFA
:103D50000865606BFEF7D6F910B1606B016D88479E
:103D60000CE02046FFF779FF08E02046FFF775FFDB
:103D700004E02046FFF771FF0020E06388E7FFE7DB
:103D800005F0800030B106F0800018B1204603F045
:103D900003F87DE705F0400030B106F0400018B1AF
:103DA000204602F097FD73E700BF71E7B96700088E
:103DB00010B504460CB9012010BDA06900B100E0A7
:103DC00000BF94F8390028B9002084F83800204654
:103DD00000F028F8242084F839002068C06820F416
:103DE00000502168C860204602F0E2FD20680069AA
:103DF00020F49040216808612068406920F02A0082
:103E0000216848612068C06840F400502168C8609B
:103E10000020E063202084F8390084F83A00002074
:103E2000CAE7000010B586B00446142101A8FCF7CB
:103E300071FAFE492068884255D100BF00200090E9
:103E4000FB48006840F40020F94908600846006813
:103E500000F40020009000BF00BF00BF00200090D1
:103E6000F3481038006840F00400F1491039086048
:103E70000846006800F00400009000BF00BF4FF447
:103E800040600190022002900120039003200490E2
:103E90000820059001A9E748FEF73CFBE648E74902
:103EA0000860400548600021E4488160C1604FF42B
:103EB00080610161002141618161C16101624162F2
:103EC000FEF754FA08B1FDF7CDFC00BFDB48606394
:103ED000846300BF002205213420FEF7D1FC34208A
:103EE000FEF7BEFC6FE2D6492068884273D100BF5E
:103EF00000200090CE48006840F48010CC49086053
:103F00000846006800F48010009000BF00BF00BFAA
:103F100000200090C6481038006840F00400C449F2
:103F2000103908600846006800F00400009000BFE7
:103F300000BF00BF002000900846006840F0080065
:103F400008600846006800F00800009000BF00BF4D
:103F50008814019002200290012003900320049015
:103F60000820059001A9B348FEF7D4FA0420019077
:103F70000220029001200390032004900820059065
:103F800001A9B048FEF7C6FAAB483038AE49086020
:103F9000C00548600021AC488160C1604FF4806179
:103FA0000161002141618161C16101624162FEF7ED
:103FB000DDF908B1FDF756FC00BFA34860638463D8
:103FC00000BF002205213520FEF75AFC3520FEF700
:103FD00047FCF8E1FFE79D49206888427ED100BF99
:103FE000002000909248001D006840F010009049A9
:103FF000091D08600846006800F01000009000BF2E
:1040000000BF00BF0020009089481038006840F0D1
:1040100001008749103908600846006800F0010077
:10402000009000BF00BF4FF4C060019002200290DA
:1040300000200390032004900720059001A98448E4
:10404000FEF768FA8348844908604FF000604860D2
:10405000002181488160C1604FF4806101610021CD
:1040600041618161C1614FF480310162002141628F
:10407000FEF77CF908B1FDF7F5FB00BF76486063F9
:10408000846300BF73487830744908604FF0006063
:1040900048604021714881600021C1604FF4806117
:1040A0000161002141618161C1614FF48031016290
:1040B00000214162FEF75AF908B1FDF7D3FB00BFBA
:1040C00066482063846300BF002205212520FEF797
:1040D000D7FB2520FEF7C4FB75E1FFE760492068A8
:1040E000884259D100BF002000905148006840F438
:1040F00000304F4908600846006800F40030009026
:1041000000BF00BF00BF0020009049481038006881
:1041100040F001004649103908600846006800F088
:104120000100009000BF00BF0C200190022002900F
:1041300000200390032004900720059001A9444823
:10414000FEF7E8F93C484830464908604FF0006007
:104150004860002143488160C1604FF48061016183
:10416000002141618161C1614FF480310162002110
:104170004162FEF7FBF808B1FDF774FB00BF394858
:104180006063846300BF002205212620FEF778FBD0
:104190002620FEF765FB16E133492068884269D185
:1041A00000BF002000902248006840F48020204991
:1041B00008600846006800F48020009000BF00BF3F
:1041C00000BF002000901A481038006840F002003C
:1041D0001749103908600846006800F00200009096
:1041E00000BF00BF4FF44060019002200290002009
:1041F0000390032004900720059001A91B48FEF7B7
:1042000089F90D4818381A4908604FF00060486075
:10421000002117488160C1604FF480610161002175
:1042200041618161C1610162416224E0004C004052
:10423000403802400008024040600240442900200B
:1042400000500040000C0240A42900200010014052
:104250000000024040640240042A0020642A00203A
:1042600000440040C42A00200048004000040240EE
:10427000242B002030E0FEF779F808B1FDF7F2FAC0
:1042800000BF52486063846300BF514851490860D1
:104290004FF00060486040214E4881600021C160BD
:1042A0004FF480610161002141618161C16101625E
:1042B0004162FEF75BF808B1FDF7D4FA00BF45484C
:1042C0002063846300BF002205212720FEF7D8FA6F
:1042D0002720FEF7C5FA76E03F492068884272D170
:1042E00000BF002000903D48006840F020003B499E
:1042F00008600846006800F02000009000BF00BF82
:1043000000BF0020009035481438006840F00400D9
:104310003249143908600846006800F00400009033
:1043200000BF00BFC0200190022002900020039037
:10433000032004900820059001A92948FEF7EAF817
:104340002848294908608005486000212648816086
:10435000C1604FF480610161002141618161C161EF
:1043600001624162FEF702F808B1FDF77BFA00BF77
:104370001D486063846300BF1A4878301B49086099
:104380004FF0206048604021184881600021C160E2
:104390004FF480610161002141618161C16101626D
:1043A0004162FDF7E3FF08B1FDF75CFA00BF0F487B
:1043B0002063846300BF002205214720FEF760FAD6
:1043C0004720FEF74DFA06B010BD0000242B002058
:1043D00058600240842B0020001401404438024001
:1043E0000008024028640240E42B0020442C0020F6
:1043F00077B581B00446154694F83A00202850D18C
:10440000029800B115B9012004B070BD00BF94F846
:104410003800012801D10220F6E7012084F8380095
:1044200000BF0298A062A5850020E063222084F8E6
:104430003A001D48616BC8631C48616B08641C48E6
:10444000616BC8640020616B086502AE3268236846
:10445000191D2B46606BFDF7FFFF00BF0020009089
:1044600020680068009020684068009000BF00BF8E
:1044700000BF002084F8380000BF2068C06840F406
:1044800080702168C8602068406940F001002168A0
:1044900048612068406940F0400021684861002080
:1044A000B2E70220B0E700001D680008636800085A
:1044B000CD67000810B5034693F83A0020282FD1A5
:1044C00001B10AB9012010BD00BF93F838000128DE
:1044D00001D10220F7E7012083F8380000BF99627C
:1044E0009A85DA850020D863222083F83A0000BF3D
:1044F000002083F8380000BF1868C06840F480705E
:104500001C68E0601868406940F001001C68606148
:104510001868C06840F020001C68E0600020D2E706
:104520000220D0E710B504460749206888420AD126
:10453000064988680649097801F085FE0122044988
:104540000448FFF7B7FF10BD004C0040EC170020F7
:10455000ED050020C427002070472DE9F8430446EC
:104560000D4616461F464FF0000994F839002028E2
:104570005DD105B116B90120BDE8F88300BF94F8FC
:104580003800012801D10220F6E7012084F8380024
:1045900000BF0020E063212084F83900FEF7C0F856
:1045A0008146A684E68400BF002084F8380000BF5E
:1045B0002BE0E08C401EE084A068B0F5805F16D14F
:1045C0004B46002280212046009702F019FC08B1DA
:1045D0000320D1E7A846B8F80000C0F3080021681E
:1045E0004860206908B9AD1C0FE06D1C0DE04B461A
:1045F000002280212046009702F002FC08B103202F
:10460000BAE715F8010B21684860E08C0028D0D18A
:104610004B46002240212046009702F0F1FB08B1F2
:104620000320A9E7202084F839000020A4E7022015
:10463000A2E70000F7B50446154694F83900202893
:104640003DD1019800B10DB90120FEBD00BF94F825
:104650003800012801D10220F7E7012084F8380052
:1046600000BF01982062A584E5840020E06321203A
:1046700084F839001348216BC8631348216B086420
:104680001248216BC8640020216B086501AE2368C5
:104690001A1D31682B46206BFDF7DEFE6FF04000DF
:1046A0002168086000BF002084F8380000BF20683F
:1046B000406940F08000216848610020C5E7022081
:1046C000C3E7000071680008A7680008CD6700080C
:1046D0007047704700BFFEE786B023A103C9CDE94C
:1046E00004016423052204A92148FFF736FF0120B5
:1046F000204908702D2220491D48FFF779FE00BF90
:104700004FF0FF311D4800680CF010FA0BF0C6FBAB
:10471000194802F0CDFD8DED030A9DED030ADFED92
:10472000180AB4EE600AF1EE10FA15D09DED030AF6
:10473000DFED140A30EE200A8DED030A00231A463D
:1047400001A9114800680BF0F9FF00231A4601A9DE
:104750000E4800680BF0F2FF2D2207490448FFF7CE
:1047600047FE0BF0C5FBCBE7FFAA76000000000078
:10477000842800203C050020501A0020500500200D
:104780000000C843000000007805002080050020DC
:104790001FB5002000900190029003901548164923
:1047A00008604FF480304860002113488160012187
:1047B00001610176002180F82010C1620F498162F9
:1047C0000021C1600121C16180F830104161FDF715
:1047D00039FB08B1FDF746F809200090012001904F
:1047E0000020029069460448FDF762FA08B1FDF71F
:1047F00039F81FBD00200140680600200100000FAD
:1048000008B500BF002000903248006840F48000E6
:10481000304908600846006800F48000009000BF3E
:1048200000BF00BF002000900846006840F4001060
:1048300008600846006800F40010009000BF00BF48
:10484000002205210B20FEF71BF80B20FEF708F8CD
:10485000002205210C20FEF713F80C20FEF700F8CB
:10486000002205210D20FEF70BF80D20FDF7F8FFC3
:10487000002205210E20FEF703F80E20FDF7F0FFC1
:10488000002205211020FDF7FBFF1020FDF7E8FFB7
:10489000002205213920FDF7F3FF3920FDF7E0FF65
:1048A000002205213A20FDF7EBFF3A20FDF7D8FF63
:1048B000002205214520FDF7E3FF4520FDF7D0FF4D
:1048C000002205214620FDF7DBFF4620FDF7C8FF4B
:1048D00008BD00003038024000B5CDB003220021F1
:1048E00001200BF0AFFE7B4908600322002101206C
:1048F0000BF0A8FE784908600322002101200BF08C
:10490000A1FE764908600322002101200BF09AFEE7
:10491000734908600322002101200BF093FE7149C6
:1049200008600322002101200BF08CFE6E49086014
:104930000322002101200BF085FE6C490860032250
:10494000002101200BF07EFE694908600022102141
:1049500001200BF077FE6749086000221021022039
:104960000BF070FE6449086000220C2101200BF05E
:1049700069FE624908600022102101200BF062FEEE
:104980005F49086000220C2101200BF05BFE5D49AD
:10499000086000221C2101200BF054FE5A490860D7
:1049A0000022102101200BF04DFE58490860002222
:1049B000082101200BF046FE554908600022042121
:1049C00001200BF03FFE534908601C22524946A8C3
:1049D000FBF787FC002146A80AF007F94F49086059
:1049E0001C224D491C313FA8FBF77BFC00213FA84E
:1049F0000AF0FBF84A4908601C224749383138A8B8
:104A0000FBF76FFC002138A80AF0EFF84549086071
:104A10001C224149543131A8FBF763FC002131A825
:104A20000AF0E3F8404908601C223B4970312AA88B
:104A3000FBF757FC00212AA80AF0D7F83B49086089
:104A40001C2235498C3123A8FBF74BFC002123A8FD
:104A50000AF0CBF8364908601C222F49A8311CA85F
:104A6000FBF73FFC00211CA80AF0BFF831490860A1
:104A70001C222949C43115A8FBF733FC002115A8D5
:104A80000AF0B3F82C4908601C222349E0310EA833
:104A9000FBF727FC00210EA80AF0A7F827490860B9
:104AA0001C221D49FC3107A8FBF71BFC002107A8AD
:104AB0000AF09BF8224908601C2222496846FBF74D
:104AC00010FC002168460AF090F81F4908604DB0BC
:104AD00000BD0000500500205405002058050020AE
:104AE0005C050020600500206405002068050020AA
:104AF0006C0500207005002074050020780500205A
:104B00007C05002080050020840500208805002009
:104B10008C05002090050020241301089405002036
:104B2000980500209C050020A0050020A405002079
:104B3000AC050020B0050020B4050020B805002019
:104B4000BC0500203C140108C005002000B587B05A
:104B5000142102A8FBF7DEFB00BF0020019057489C
:104B6000006840F01000554908600846006800F0F1
:104B70001000019000BF00BF00BF00200190084658
:104B8000006840F0040008600846006800F0040077
:104B9000019000BF00BF00BF0020019008460068E0
:104BA00040F0800008600846006800F08000019036
:104BB00000BF00BF00BF002001900846006840F021
:104BC000010008600846006800F00100019000BF85
:104BD00000BF00BF002001900846006840F00200BE
:104BE00008600846006800F00200019000BF00BFA6
:104BF00000BF002001900846006840F008000860EF
:104C00000846006800F00800019000BF00BF0022C5
:104C100046F207212A48FDF77DFD002241F20201FC
:104C20002848FDF777FD00224FF47F412648FDF725
:104C300071FD46F21820029001200390002004909C
:104C4000059002A91E48FDF765FC4FF480500290C4
:104C50000120039000200490059002A91948FDF757
:104C600059FC4FF6807002900120039000200490C0
:104C7000059002A91448FDF74DFC4FF40040029046
:104C8000002003900120049002A91048FDF742FC87
:104C90000F200290002003900120049002A90848F0
:104CA000FDF738FC022002900020039001200490C0
:104CB00002A90448FDF72EFC07B000BD30380240C1
:104CC0000008024000100240000C024000000240B8
:104CD00000B587B01C216846FBF71CFB1548164938
:104CE0000860A720486000211348816044F61F61D6
:104CF000C160002101618161FEF750FA08B1FCF743
:104D0000B1FD0D48FEF7F7FE08B1FCF7ABFD6020E2
:104D1000009000200190029004900022694606480D
:104D2000FEF765FE08B1FCF79DFD0348FEF750FD58
:104D300007B000BD004401408426002000B587B0C4
:104D40001C216846FBF7E6FA154816490860A720BB
:104D5000486000211348816044F61F61C160002152
:104D600001618161FEF71AFA08B1FCF77BFD0D487D
:104D7000FEF7C1FE08B1FCF775FD60200090002031
:104D8000019002900490002269460648FEF72FFE2B
:104D900008B1FCF767FD0348FEF71AFD07B000BD38
:104DA00000480140C426002000B587B01C21684699
:104DB000FBF7B0FA164817490860532048600021F5
:104DC0001448816044F61F61C16000210161816166
:104DD000FEF791FE08B1FCF745FD60200090002031
:104DE000019002900490002269460A48FEF7FFFDF8
:104DF00008B1FCF737FD042269460648FEF7F7FDC7
:104E000008B1FCF72FFD0348FEF7E2FC07B000BD38
:104E1000001800400427002000B587B01C21684618
:104E2000FBF778FA16481749086040F28F6048602F
:104E300000211448816040F2E731C1600021016126
:104E40008161FEF7ABF908B1FCF70CFD0D48FEF7E8
:104E500052FE08B1FCF706FD602000900020019092
:104E600002900490002269460648FEF7C0FD08B192
:104E7000FCF7F8FC0348FEF7ABFC07B000BD0000F0
:104E8000001C00404427002000B587B01C21684664
:104E9000FBF740FA16481749086040F28F604860F7
:104EA00000211448816040F2E731C16000210161B6
:104EB0008161FEF773F908B1FCF7D4FC0D48FEF7E9
:104EC0001AFE08B1FCF7CEFC602000900020019093
:104ED00002900490002269460648FEF788FD08B15A
:104EE000FCF7C0FC0348FEF773FC07B000BD0000F0
:104EF000002000408427002000B591B000200F90D2
:104F000010901C2108A8FBF705FA20216846FBF742
:104F100001FA2F482F4908600120486000212D48E0
:104F2000816040F6B831C160002101614161816159
:104F3000FEF7E1FD08B1FCF795FC00200F90109002
:104F40000FA92448FEF7D0F808B1FCF78BFC6020CD
:104F50000890002009900A900B900C900D900E90F4
:104F6000002208A91B48FEF742FD08B1FCF77AFCB5
:104F7000042208A91748FEF73AFD08B1FCF772FCB5
:104F8000082208A91348FEF732FD08B1FCF76AFCB5
:104F90000C2208A90F48FEF72AFD08B1FCF762FCB5
:104FA0000020009001900290039004904FF4005074
:104FB00005900020079069460648FEF75BF808B1A7
:104FC000FCF750FC0348FEF703FC11B000BD0000E5
:104FD00000000140C424002000B58BB0242102A8A9
:104FE000FBF798F90020009001904FF0804017499E
:104FF0000860002048600021144881604FF452513D
:10500000C1600021016181610320029000200390B2
:105010000120049000200590069007900120089040
:10502000002009900A9002A90848FEF766F908B125
:10503000FCF718FC00200090019069460348FEF739
:1050400053F808B1FCF70EFC0BB000BD042500209E
:1050500000B58BB0242102A8FBF75CF9002000907A
:10506000019018481849086000204860002116483F
:1050700081604FF45251C1600021016181610320C0
:1050800002900020039001200490002005900690DB
:10509000079001200890002009900A9002A90A4870
:1050A000FEF72BF908B1FCF7DDFB00200090019022
:1050B00069460548FEF718F808B1FCF7D3FB0BB0BA
:1050C00000BD0000000400404425002000B58BB066
:1050D000242102A8FBF71EF9002000900190184837
:1050E00018490860002048600021164881604FF48C
:1050F0005251C160002101618161032002900020B2
:105100000390012004900020059006900790012054
:105110000890002009900A9002A90A48FEF7EDF8CD
:1051200008B1FCF79FFB00200090019069460548FC
:10513000FDF7DAFF08B1FCF795FB0BB000BD0000EE
:10514000000800408425002000B58BB0242102A86F
:10515000FBF7E0F80020009001901848184908601B
:10516000002048600021164881604FF45251C16010
:105170000021016181610320029000200390012041
:1051800004900020059006900790012008900020D0
:1051900009900A9002A90A48FEF7AFF808B1FCF797
:1051A00061FB00200090019069460548FDF79CFFD7
:1051B00008B1FCF757FB0BB000BD0000000C00402D
:1051C000C42500201CB50020009001900E480F4916
:1051D00008605320486000210C48816042F20F7142
:1051E000C16000218161FDF7D9FF08B1FCF73AFBEE
:1051F00000200090019069460448FDF775FF08B152
:10520000FCF730FB1CBD000000100040042600200D
:1052100000B587B01C216846FBF77CF81648174993
:105220000860A720486000211448816044F61F618F
:10523000C160002101618161FEF75DFC08B1FCF7EE
:1052400011FB602000900020019002900490002249
:1052500069460A48FEF7CBFB08B1FCF703FB0422C2
:1052600069460648FEF7C3FB08B1FCF7FBFA0348A2
:10527000FEF7AEFA07B000BD004001404426002012
:1052800010B50B480B4908604FF4E130486000212D
:1052900008488160C16001610C2141610021816188
:1052A000C161FEF785FD08B1FCF7DCFA10BD000016
:1052B000004C0040C427002010B50B480B49086083
:1052C0004FF416504860002108488160C1600161B8
:1052D0000C21416100218161C161FEF769FD08B1C6
:1052E000FCF7C0FA10BD0000005000400428002068
:1052F00010B50B480B4908604FF4E13048600021BD
:1053000008488160C16001610C2141610021816117
:10531000C161FEF74DFD08B1FCF7A4FA10BD000015
:10532000001001404428002010B50B480B490860CC
:105330004FF4E1304860002108488160C16001619C
:105340000C21416100218161C161FEF731FD08B18D
:10535000FCF788FA10BD00000044004084280020BB
:1053600010B50B480B4908604FF4E130486000214C
:1053700008488160C16001610C21416100218161A7
:10538000C161FEF715FD08B1FCF76CFA10BD000015
:1053900000480040C428002010B50B480B490860A5
:1053A0004FF4E1304860002108488160C16001612C
:1053B0000C21416100218161C161FEF7F9FC08B156
:1053C000FCF750FA10BD0000001401400429002031
:1053D0000FB42DE9F0412DED108B96B080460D46AF
:1053E00014469FEDF50B8DED120B002C00DD644291
:1053F0002846FBF73EF90F460646F148041B2046B7
:10540000FBF737F941EC1C0B9DED120B53EC102B05
:10541000FBF74EF8CDE914019DED300ADFEDE90A06
:1054200030EEC00A10EE101A0846FBF752F941ECB4
:10543000190B9DED310ADFEDE40A30EEC00A10EEE3
:10544000101A0846FBF745F941EC1A0B9FEDDF0BEC
:1054500053EC102B51EC190BFBF72AF841EC1F0B06
:10546000B0EE4F0AF0EE6F0A03F036FBB0EE40EA02
:10547000F0EE60EA9FEDD70B53EC102B51EC1E0BB6
:10548000FBF716F841EC1C0B9FEDD00B53EC102BE7
:1054900051EC1A0BFBF70CF841EC1F0BB0EE4F0A66
:1054A000F0EE6F0A03F018FBB0EE40EAF0EE60EAAF
:1054B0009FEDCA0B53EC102B51EC1E0BFAF7F8FFC3
:1054C00041EC1D0B53EC1C2BFAF7ECFF41EC1B0BD2
:1054D0009FEDBE0B53EC102B51EC190BFAF7E8FFC4
:1054E00041EC1F0BB0EE4F0AF0EE6F0A02F068FCC1
:1054F000B0EE40EAF0EE60EA9FEDB60B53EC102BF5
:1055000051EC1E0BFAF7D4FF41EC1C0B9FEDAF0BD7
:1055100053EC102B51EC1A0BFAF7CAFF41EC1F0B9E
:10552000B0EE4F0AF0EE6F0A02F04AFCB0EE40EA2D
:10553000F0EE60EA9FEDA90B53EC102B51EC1E0B23
:10554000FAF7B6FF41EC1D0B53EC1C2BFAF709FFE1
:1055500041EC180B47EC1B6B9DED140B53EC102B1F
:1055600051EC180BFAF7FDFE41EC180B53EC182B1D
:1055700051EC1B0BFBF70EF841EC1C0BB0EE4C0A88
:10558000F0EE6C0A02F0B0FA8DED0C0B9FED951B5E
:10559000B0EE4B0AF0EE6B0A02F076FCB0EE40EA99
:1055A000F0EE60EA9FED8F1BB0EE480AF0EE680A5D
:1055B00002F06AFCB0EE40FAF0EE60FA53EC1E2BFB
:1055C00051EC1F0BFAF7CDFE41EC1D0BB0EE4D0A6E
:1055D000F0EE6D0A03F0E4FAB0EE40CAF0EE60CAF5
:1055E0009FED820B53EC102B51EC1C0BFAF760FF74
:1055F0009FED7C1BB0EE4B0AF0EE6B0ACDE9060185
:1056000002F042FCB0EE40CAF0EE60CA9FED751B9E
:105610009FED700B02F038FCB0EE40EAF0EE60EA6D
:105620009FED701B9FED6D0B02F02EFC8DED000BBE
:105630009FED6C1BB0EE480AF0EE680A02F024FC05
:10564000B0EE40FAF0EE60FA9DED000B53EC102B3B
:1056500051EC1F0BFAF785FE53EC1E2BCDE902012E
:105660009DED020B51EC100BFAF71CFF41EC1D0BEA
:1056700053EC1C2BFAF775FECDE904019DED060BEA
:1056800053EC102B9DED040B51EC100BFAF782FF3D
:10569000CDE908019DED080B02F076F88DED0A0BBF
:1056A0009DED0C0B53EC102B9DED0A0B51EC100BE8
:1056B000FAF7F8FE9FED450B53EC102BCDE90E01E8
:1056C0009DED0E0B51EC100BFAF764FF9FED490BAB
:1056D00053EC102BCDE910019DED100B51EC100B8C
:1056E000FAF7E3FE41EC190B9FED380B53EC102B4E
:1056F00051EC190BFAF7DCFECDE90E019DED0E0B16
:1057000002F05EFBB0EE40FAF0EE60FA9FED330B74
:1057100053EC102B51EC1F0BFAF7CAFE53EC182B6D
:10572000CDE910019DED100B51EC100BFAF7BDFE09
:1057300041EC1E0B9FED270B53EC102BFAF72AFFC1
:1057400041EC1D0BB0EE4D0AF0EE6D0A01F070FE5B
:10575000B0EE40CAF0EE60CA9FED1C0B53EC102B6C
:1057600051EC1C0BFAF716FF41EC1A0B53EC192BFA
:105770009FED220B51EC100BFAF794FE41EC1C0B41
:10578000FAF7BAFF309053EC1A2B9FED1E0B51EC39
:10579000100BFAF787FE41EC1C0BFAF7ADFF3190C6
:1057A0001C222FA94046FAF79CFD16B0BDEC108BC9
:1057B000BDE8F0015DF814FB000000000000E03FD0
:1057C000CEFEFFFF0000AA4200004242449D52A2CA
:1057D00046DF913F0000000000406140CDCCCCCCC2
:1057E000CC0C60400000000000000040CDCCCCCCD0
:1057F000CC0C70400000000000805640000000000B
:105800000040554000000000004048400FB42DE922
:10581000F0412DED108B96B080460D4614469FED5D
:10582000F60B8DED120B002C00DD64422846FAF7D2
:1058300020FF0F4606466FF4C570041B2046FAF79A
:1058400018FF41EC1C0B9DED120B53EC102BFAF7DB
:105850002FFECDE914019DED300ADFEDE90A30EEAF
:10586000C00A10EE101A0846FAF733FF41EC190B84
:105870009DED310ADFEDE30A30EEC00A10EE101A9A
:105880000846FAF726FF41EC1A0B9FEDDF0B53ECAD
:10589000102B51EC190BFAF70BFE41EC1F0BB0EE7D
:1058A0004F0AF0EE6F0A03F017F9B0EE40EAF0EE9F
:1058B00060EA9FEDD70B53EC102B51EC1E0BFAF75F
:1058C000F7FD41EC1C0B9FEDD00B53EC102B51EC72
:1058D0001A0BFAF7EDFD41EC1F0BB0EE4F0AF0EE9C
:1058E0006F0A03F0F9F8B0EE40EAF0EE60EA9FEDDF
:1058F000CA0B53EC102B51EC1E0BFAF7D9FD41ECFF
:105900001D0B53EC1C2BFAF7CDFD41EC1B0B9FED4F
:10591000BE0B53EC102B51EC190BFAF7C9FD41ECFF
:105920001F0BB0EE4F0AF0EE6F0A02F049FAB0EE2C
:1059300040EAF0EE60EA9FEDB60B53EC102B51EC11
:105940001E0BFAF7B5FD41EC1C0B9FEDAF0B53ECB2
:10595000102B51EC1A0BFAF7ABFD41EC1F0BB0EE1C
:105960004F0AF0EE6F0A02F02BFAB0EE40EAF0EECA
:1059700060EA9FEDA90B53EC102B51EC1E0BFAF7CC
:1059800097FD41EC1D0B53EC1C2BFAF7EAFC41ECA4
:10599000180B47EC1B6B9DED140B53EC102B51ECCB
:1059A000180BFAF7DEFC41EC180B53EC182B51ECFA
:1059B0001B0BFAF7EFFD41EC1C0BB0EE4C0AF0EEBE
:1059C0006C0A02F091F88DED0C0B9FED951BB0EE7B
:1059D0004B0AF0EE6B0A02F057FAB0EE40EAF0EE36
:1059E00060EA9FED8F1BB0EE480AF0EE680A02F005
:1059F0004BFAB0EE40FAF0EE60FA53EC1E2B51EC8D
:105A00001F0BFAF7AEFC41EC1D0BB0EE4D0AF0EEA9
:105A10006D0A03F0C5F8B0EE40CAF0EE60CA9FED23
:105A2000820B53EC102B51EC1C0BFAF741FD9FED50
:105A30007C1BB0EE4B0AF0EE6B0ACDE9060102F0DA
:105A400023FAB0EE40CAF0EE60CA9FED751B9FEDE1
:105A5000700B02F019FAB0EE40EAF0EE60EA9FED4A
:105A6000701B9FED6D0B02F00FFA8DED000B9FED9B
:105A70006C1BB0EE480AF0EE680A02F005FAB0EED0
:105A800040FAF0EE60FA9DED000B53EC102B51EC58
:105A90001F0BFAF766FC53EC1E2BCDE902019DEDBE
:105AA000020B51EC100BFAF7FDFC41EC1D0B53EC13
:105AB0001C2BFAF756FCCDE904019DED060B53ECC7
:105AC000102B9DED040B51EC100BFAF763FDCDE9A3
:105AD00008019DED080B01F057FE8DED0A0B9DEDC1
