:020000040800F2
:10000000688C00205D0200083D4300083936000876
:10001000BD420008D7090008A154000800000000F4
:100020000000000000000000000000009D0100082A
:10003000430C000800000000F90100088545000895
:1000400077020008770200087702000877020008AC
:10005000770200087702000877020008770200089C
:100060007702000877020008770200080D0A0008EE
:100070001D0A0008610A0008710A000877020008DA
:10008000810A00087702000877020008770200085A
:10009000770200087702000877020008770200085C
:1000A000770200087702000877020008770200084C
:1000B000BD460008CD460008DD460008770200086E
:1000C000770200087702000877020008770200082C
:1000D00077020008B9500008C9500008D95000083C
:1000E000770200087702000877020008770200080C
:1000F00077020008770200087702000877020008FC
:100100007702000877020008ED4600087702000831
:10011000E5490008F5490008FD4600080D470008BC
:1001200077020008C50A0008090B000877020008DA
:1001300077020008770200087702000877020008BB
:1001400077020008770200087702000877020008AB
:1001500077020008190B0008290B0008E950000875
:10016000770200087702000877020008770200088B
:1001700077020008770200087702000800000000FC
:100180007702000877020008DFF80CD000F0E2FBED
:100190000048004785A30008688C00202C4B196894
:1001A0000868B0E8F04F80F30988BFF36F8F4FF015
:1001B000000080F3118870470000000008480068C4
:1001C000006880F308884FF0000080F3148862B65E
:1001D00061B6BFF34F8FBFF36F8F00DF00BF00BF6B
:1001E00008ED00E0DFF80C00016841F470010160E7
:1001F000704700BF88ED00E0EFF30980BFF36F8F19
:10020000134B1A681EF0100F08BF20ED108A20E96A
:10021000F04F106009B44FF0500080F31188BFF325
:100220004F8FBFF36F8F0CF0C7F84FF0000080F3D3
:10023000118809BC19680868B0E8F04F1EF0100F6B
:1002400008BFB0EC108A80F30988BFF36F8F704746
:10025000F8050020EFF3058070470000064880474E
:1002600006480047FEE7FEE7FEE7FEE7FEE7FEE79B
:10027000FEE7FEE7FEE7FEE7A14600088901000869
:100280002DE9F05F0546002092469B4688460646CB
:10029000814640241BE0284641464746224600F05E
:1002A00073FA53465A46C01A914110D31146184664
:1002B000224600F05AFA2D1A67EB01084F462246F3
:1002C0000120002100F051FA17EB00094E41201ED9
:1002D000A4F10104DFDC484631462A464346BDE826
:1002E000F09F40EA01039B0703D009E008C9121FF1
:1002F00008C0042AFAD203E011F8013B00F8013BE0
:10030000521EF9D27047D2B201E000F8012B491E0B
:10031000FBD270470022F6E710B513460A460446A2
:100320001946FFF7F0FF204610BD421E12F8013FAC
:10033000002BFBD111F8013B02F8013B002BF9D156
:100340007047421C10F8011B0029FBD1801A70472E
:10035000034611F8012B00F8012B002AF9D11846A9
:1003600070472DE9FE4F804681EA0300C00F0C461E
:10037000009021F0004123F00045B8EB0200A941B4
:1003800005D24046214690461C460B46024623F0C5
:100390000040104347D0270DC7F30A00C3F30A51AA
:1003A0000290401A019040286BDAC3F3130040F426
:1003B000801B0098924620B10023D2EB030A63EB26
:1003C0000B0B01985946C0F14002504600F0CDF9A0
:1003D00006460D4650465946019A00F0E5F910EBE5
:1003E00008006141002487EA115284EAE7731A4346
:1003F00040D0009A62B3019A012A4FEA075215DCF5
:10040000001B61EB02014FF0004202EA0752CDE906
:100410000042001C41F5801132462B4600F01CFAC8
:1004200003B0BDE8F08F40462146F9E7001B61EBC1
:100430000201001C41F5801300185B412018A2F551
:10044000001747EB030140EAD570B6196D4111E082
:100450006D084FEA360645EAC0754FEA0752001BA1
:1004600061EB0201001C41F5801149084FEA3000A0
:100470000019514132462B4603B0BDE8F04F00F061
:10048000DCB90098012240000023D0EB020263EBAC
:10049000E073009821464FEAE074B8EB000061EB8E
:1004A0000401E9E783F000435BE781F0004158E78E
:1004B0002DE9FE4F81EA030404F0004421F00041DD
:1004C00000944FF0000B23F0004350EA01045ED08B
:1004D00052EA03045BD0C3F30A54C1F30A552C4417
:1004E000A4F2F3340194A0FB0254C1F3130141F4CC
:1004F0008011C3F3130343F4801301FB024400FB98
:10050000034E840A970A44EA815447EA8357A4FBBE
:10051000076802958D0A05FB07854FEA932C04FBBB
:100520000C542705029D4FEA065847EA1637B5EBEB
:1005300008056EEB070C870E920E47EA811742EA18
:100540008312A7FB0201B6EB0B0164EB00042B0D39
:1005500043EA0C335E1844EB1C50DA465146E7FB85
:100560000201C5F313044FEA0B3343EA14534FEA75
:100570000432019C43EA0603A4F10C040294009C9B
:10058000CDE900B400F068F903B0BDE8F08F0020B9
:100590000146F9E72DE9F04D81EA030404F0004B30
:1005A00021F0004514464FF0000A23F0004150EAC4
:1005B000050220D054EA01021DD0C5F30A570246B5
:1005C000C5F31303C1F31300C1F30A5640F48015B9
:1005D00043F48013A7EB0608101BD64608F2FD383B
:1005E00073EB050002D308F1010801E092185B41AA
:1005F000B8F1000F03DA00200146BDE8F08D0020BD
:100600004FF48011064684460EE0171B73EB050776
:1006100005D3121B63EB050306434CEA010C4908A2
:100620004FEA300092185B4150EA0107EDD152EADF
:10063000030012D082EA040083EA0501084305D0D2
:10064000101BAB4106D20122002306E000224FF02E
:10065000004302E06FF0010253101AEB06004CEB6E
:10066000085110EB0A0041EB0B01BDE8F04D00F022
:10067000E4B80EB5C10F80EAE0700844CA07002153
:1006800040F233438DE80E000A460B4600F0E4F8D2
:1006900003B000BD0EB540F2334102910021CDE917
:1006A00000110A460B4600F0D7F803B000BDC1F3B5
:1006B0000A5210B5C1F3130140F2FF3341F4801127
:1006C0009A4201DA002010BD40F233439A42A2F26E
:1006D000334203DC524200F057F810BD904010BD89
:1006E00000F0004230F000400AD0C10D01F5607109
:1006F000C0F3160042EA0151C20840071143704797
:1007000000200146704701F0004330B421F0004161
:1007100050EA010206D00A0DA2F56072C1F313017E
:10072000002A02DC30BC00207047440F44EAC104B8
:10073000C100E01830BC00EBC25000F047B830B543
:100740000B46014600202022012409E021FA02F58F
:100750009D4205D303FA02F5491B04FA02F5284429
:10076000151EA2F10102F1DC30BD202A04DB203A83
:1007700000FA02F1002070479140C2F1200320FAF4
:1007800003F3194390407047202A04DB203A21FAF2
:1007900002F00021704721FA02F3D040C2F120029A
:1007A0009140084319467047202A06DBCB17203AB0
:1007B00041FA02F043EAE07306E041FA02F3D04066
:1007C000C2F1200291400843194670470029A8BF92
:1007D0007047401C490008BF20F00100704710B46A
:1007E000B0FA80FC00FA0CF050EA010404BF10BC1F
:1007F000704749B1CCF1200421FA04F411FA0CF14C
:1008000018BF012121430843A3EB0C01CB1D4FEA84
:1008100000614FEA102042BF002010BC704700EB7F
:10082000C35010440029A4BF10BC7047401C4900AD
:1008300008BF20F0010010BC704710B5141E73F102
:10084000000408DA401C41F1000192185B411A4390
:1008500001D120F0010010BD2DE9F04D92469B46DC
:1008600011B1B1FA81F202E0B0FA80F22032904682
:10087000FFF77BFF04460F4640EA0A0041EA0B01FE
:1008800053465A46084313D0114653EA010019D083
:10089000C8F140025046FFF777FF05460E46504626
:1008A00059464246FFF761FF084305D0012004E0A6
:1008B00020463946BDE8F08D0020054346EAE07643
:1008C0002C4337430A986305E40AA0EB0800002292
:1008D000FD0A44EA47540A3002D500200146E9E700
:1008E000010510196941DDE9084500196941BDE8B4
:1008F000F04DA2E7C1F30A52C1F3130140F2FF33F6
:1009000041F480119A4202DA00200146704740F219
:1009100033439A42A2F2334202DC5242FFF734BF21
:10092000FFF723BF30B5041E71F1000404DB4FF064
:100930000044404264EB0101141E73F1000405DB26
:100940001C464FF00043524263EB0403994208BF38
:10095000904230BD064C074D06E0E06840F00103D0
:1009600094E8070098471034AC42F6D3FFF710FC28
:1009700010D6000830D6000870B58D1810F8014B5D
:1009800014F0030201D110F8012B231106D110F845
:10099000013B03E010F8016B01F8016B521EF9D125
:1009A000ABB110F8012B04F00C048A1A0C2C03D004
:1009B000A2EB84129B1C08E010F8014BA2EB04226E
:1009C000F8E712F8014B01F8014B5B1EF9D5A9427B
:1009D000D4D3002070BD00BFFEE7000010B502A018
:1009E00004F07AFD10BD00004200000010B502A026
:1009F00004F072FD10BD00004100000010B502A01F
:100A000004F06AFD10BD00004400000010B502486B
:100A100000F03EFB10BD00003428002008B5002087
:100A200000900B48007870B169460A4800680BF0E6
:100A30000DFF009838B14FF0805007490860BFF3B0
:100A40004F8FBFF36F8F054800F022FB08BD0000F9
:100A5000500500206005002004ED00E0B4290020CE
:100A600010B5024800F014FB10BD0000D427002090
:100A700010B5024800F00CFB10BD0000142A002045
:100A800008B5002000900B48007870B169460A480C
:100A900000680BF0DBFE009838B14FF0805007493A
:100AA0000860BFF34F8FBFF36F8F054800F0F0FA77
:100AB00008BD0000500500205C05002004ED00E0AA
:100AC0005429002008B5002000900B48007870B130
:100AD00069460A4800680BF0B9FE009838B14FF03B
:100AE000805007490860BFF34F8FBFF36F8F0548F1
:100AF00000F0CEFA08BD000050050020640500207B
:100B000004ED00E0742A002010B5024800F0C0FA9D
:100B100010BD00009428002010B5024800F0B8FA7B
:100B200010BD0000D42A002010B5024800F0B0FA31
:100B300010BD0000F4280020014608781038182362
:100B4000B0FBF3F20848805CC865032A05D9086841
:100B50006FF30900001D886503E008686FF3090062
:100B60008865886D704700004CD50008014600205C
:100B70008A6A8B69CBB932B1012A0DD0022A03D01F
:100B8000032A10D10EE000BFCB6A03F08073B3F1EB
:100B9000807F00D1012007E0CB6AB3F1C07F00D194
:100BA000012001E000E000BF34E08B69B3F5005F95
:100BB0001AD132B1012A07D0022A03D0032A11D157
:100BC0000AE000BF01200EE0CB6A03F08073B3F1AE
:100BD000807F00D1012006E0CB6AB3F1C07F00D155
:100BE000012000E000BF15E032B1012A05D0022A41
:100BF00004D0032A0CD103E000BF00BF012008E0AD
:100C0000CB6A03F08073B3F1807F00D1012000E054
:100C100000BF00BF704730B50468246824F4802406
:100C200005682C60046863608468402C04D1046803
:100C3000A2600468E16003E00468A1600468E26007
:100C400030BD704772B600BFFEE770B590B0044685
:100C50006A4632210DA803F0C9FB0DA9204600F019
:100C60000DF80DA803F07EFB401E86B231460DA89C
:100C700003F0A6FB0546284610B070BD70B50446CB
:100C80000D462188284603F032FCA178284603F05F
:100C90000EFCE178284603F00AFCE278211D284684
:100CA00003F00DFC284603F077FB06463146284644
:100CB00003F0FDFB70BD00002DE9F7432DED048B23
:100CC0008EB0804614464FF0010913AB01220A2171
:100CD000404600F011F96946404600F071F80746B9
:100CE00017BB9DF804509DF84C00854205D00720A5
:100CF0000EB0BDEC048BBDE8FE839DF805109DF899
:100D0000060041EA002006B23046FFF7B2FC41EC93
:100D1000190B9FED060B53EC102BFFF73BFC41EC3E
:100D2000180BFFF7F0FC20603846E1E700000000F8
:100D3000000024402DE9F7432DED048B8EB0804652
:100D400014464FF0010913AB01221021404600F078
:100D5000D3F86946404600F033F807464FBB9DF88C
:100D600004509DF84C00854205D007200EB0BDEC24
:100D7000048BBDE8FE839DF805109DF8060041EA4E
:100D800000219DF8070041EA00419DF8080041EA72
:100D900000663046FFF76DFC41EC190B9FED060B2A
:100DA00053EC102BFFF7F6FB41EC180BFFF7ABFCF5
:100DB00020603846DAE70000000000000000244010
:100DC0002DE9F04105460C46002084F83700002745
:100DD0000026642003F0A2FB87E0A86803F0C2FAB3
:100DE00000B982E094F8370000F00800C8B1A868A4
:100DF00003F057FB04F8360F607840F01000607085
:100E0000363C2046FFF721FF94F83610884204D084
:100E100003F094FB0620BDE8F08103F08FFB002077
:100E2000F9E794F8370000F0040080B1A86803F0F7
:100E300038FB211DC855781CC7B2E078B84253D1A1
:100E400094F8370040F0080084F837004CE094F83C
:100E5000370000F0020088B1A86803F022FBE070C0
:100E6000E0782D2803DD03F069FB0520D3E794F833
:100E7000370040F0040084F8370035E094F837007C
:100E800000F0010088B1A86803F00BFBA070A07807
:100E9000112803DD03F052FB0420BCE794F837006F
:100EA00040F0020084F837001EE03EB9A86803F065
:100EB000F8FA0646052E17D0002615E0052E12D1A9
:100EC000A86803F0EEFA46EA002641F6054086429D
:100ED00001D0002608E0268094F8370040F0010099
:100EE00084F8370000E0002600BF03F037FB00283D
:100EF0003FF473AF02208EE7F0B58FB005460E4683
:100F000014461F4644F61240ADF804008DF8066002
:100F10008DF80740002003E03A5C02A90A54401C07
:100F2000A042F9DB01A86968FFF7A8FE284604F093
:100F3000B9FA0FB0F0BD00002DE9F0432DED028BA2
:100F400085B006460F46B0EE408A14461D46DDF8D1
:100F500038804FF0070903AA0721684603F046FAD4
:100F60009FED230AB4EEC08AF1EE10FA04DD9FED86
:100F7000200AB0EE408A0AE09FED1E0AB4EEC08A55
:100F8000F1EE10FA03D29FED1B0AB0EE408A39460B
:100F9000684603F08CFAB2EE040A28EE000ABDEEB1
:100FA000C00A10EE100A01B2684603F097FA214613
:100FB000684603F09CFA2946684603F098FA0DF15A
:100FC0000D03072208213046FFF796FFB8F1000F06
:100FD0000BD00022B0EE480A3946304600F00CF83B
:100FE00005B0BDEC028BBDE8F0830020F8E70000FF
:100FF00000003443000034C3F0B52DED028B81B006
:1010000006460F46B0EE408A1446002528E02CB173
:101010006A4639463046FFF78DFE04E06A46394697
:101020003046FFF749FE9DED000A38EE400AF0EE2B
:10103000C08A9FED0C0AF4EEC08AF1EE10FA04D8D3
:10104000002001B0BDEC028BF0BD681C85B242F2FD
:101050001070854201DB0120F3E7642003F088FA79
:10106000D5E70000CDCC4C3F014691F83500022871
:1010700003D08020486501207047052081F83500A5
:101080000868006820F001000A6810600020F3E79B
:10109000F8B50446002000908C4800684FF41651C3
:1010A000B0FBF1F7A56D2E6894F85C10082088401D
:1010B000304098B12068006800F0040070B12068EA
:1010C000006820F004002168086094F85C10082093
:1010D0008840A860606D40F00100606594F85C1085
:1010E00001208840304068B12068406900F08000ED
:1010F00040B194F85C1001208840A860606D40F019
:101100000200606594F85C1004208840304068B1AB
:101110002068006800F0020040B194F85C100420E0
:101120008840A860606D40F00400606594F85C1031
:1011300010208840304078B32068006800F0080034
:1011400050B394F85C1010208840A86020680068B4
:1011500000F4802080B12068006800F4002028B9E5
:10116000206CC8B12046216C884715E0A06C98B16E
:101170002046A16C88470FE02068006800F480706A
:1011800028B92068006820F0080021680860206CF9
:1011900010B12046216C884794F85C1020208840CC
:1011A0003040002865D02068006800F0100000285A
:1011B0005FD094F85C1020208840A86094F8350037
:1011C000052828D12068006820F0160021680860F2
:1011D0002068406920F0800021684861206C08B9CF
:1011E000A06C28B12068006820F008002168086021
:1011F00094F85C103F208840A86000BF002084F86D
:10120000340000BF012084F83500206D10B1204665
:10121000216D8847F8BD2068006800F4802080B107
:101220002068006800F4002028B9606C10B12046E6
:10123000616C88471DE0E06BD8B12046E16B8847C0
:1012400017E02068006800F4807068B920680068C2
:1012500020F010002168086000BF002084F83400EE
:1012600000BF012084F83500E06B10B12046E16B2F
:101270008847606D38B3606D00F00100F0B1052063
:1012800084F835002068006820F0010021680860BB
:1012900000BF0098401C0090B84200D905E02068CB
:1012A000006800F001000028F3D100BF00BF00205B
:1012B00084F8340000BF012084F83500E06C10B1E0
:1012C0002046E16C884700BFA4E70000F405002039
:1012D0002DE9F0410446002500F0D4F9074614B981
:1012E0000120BDE8F081606A00B100BF00BF0020AE
:1012F00084F8340000BF022084F8350020680068BC
:1013000020F00100216808600AE000F0BBF9C01B72
:10131000052805D920206065032084F83500E0E722
:101320002068006800F001000028EED12068056800
:1013300021480540D4E901010843E16808432169D7
:10134000084361690843A1690843E1690843216AC8
:1013500008430543606A042803D1D4E90B0108431C
:101360000543206805602068456925F00705606A27
:101370000543606A04280DD1A06A0543E06A48B1BC
:101380002046FFF7F3FB28B140206065012084F878
:101390003500A6E7206845612046FFF7CDFB0646ED
:1013A00094F85C103F208840B06000206065012008
:1013B00084F83500002094E73F8010F02DE9F047D5
:1013C00004460D4616461F464FF00008D4F85890C4
:1013D00000BF94F83400012802D10220BDE8F08754
:1013E000012084F8340000BF94F83500012825D18D
:1013F000022084F83500002060653B4632462946CD
:101400002046FFF708FC94F85C103F208840C9F89C
:1014100008002068006840F0160021680860206C11
:1014200028B12068006840F0080021680860206842
:10143000006840F001002168086006E000BF00205D
:1014400084F8340000BF4FF002084046C6E70000B1
:1014500070B5044600F016F906462546681C10B122
:1014600004480078054400BF00F00CF9801BA84236
:10147000FAD370BDF0050020F8B502460B460025F2
:10148000002400200021DCE0012606FA01F51E6898
:1014900006EA0504AC4273D15E68012E08D05E688E
:1014A000022E05D05E68112E02D05E68122E13D176
:1014B00090684F000326BE40B0434F00DE68BE4038
:1014C00030439060506801268E40B0431E79C6F3C9
:1014D00000168E4030435060D0684F000326BE4057
:1014E000B0434F009E68BE403043D0605E68022E1D
:1014F00002D05E68122E13D1CF0802F1200656F8F2
:1015000027004E07F70E0F26BE40B0434F07FF0ED1
:101510001E69BE403043CF0802F1200646F827007E
:1015200010684F000326BE40B0431E7906F0030644
:101530004F00BE40304310605E6806F08056B6F142
:10154000805F7DD100BF00260096404E366846F48D
:1015500080463E4F3E603E46366806F48046009622
:1015600000BF00BF3A4E8F0856F827008E07370F8E
:101570000F26BE40B043374EB24202D1002624E0CF
:101580005EE0354EB24201D101261EE0334EB2423A
:1015900001D1022619E0324EB24201D1032614E0F5
:1015A000304EB24201D104260FE02F4EB24201D19B
:1015B00005260AE02D4EB24201D1062605E02C4E4A
:1015C000B24201D1072600E008268F073F0FBE4038
:1015D00030431F4E8F0846F82700264E3068A04340
:1015E0005E6806F48036B6F5803F00D12043214E78
:1015F0003060361D3068A0435E6806F40036B6F5EC
:10160000003F00D120431B4E361D3060361D306830
:10161000A0435E6806F48016B6F5801F00D1204313
:10162000144E08363060361D3068A0435E6806F4FC
:101630000016B6F5001F00D120430E4E0C36306068
:10164000491C1029FFF420AFF8BD000044380240C7
:101650000838014000000240000402400008024037
:10166000000C02400010024000140240001802402A
:10167000001C0240003C01400AB1816101E00B0402
:10168000836170470148006870470000E80500204A
:101690000348006803490978084401490860704715
:1016A000E8050020F005002010B50D48006840F462
:1016B00000700B4908600846006840F480600860CC
:1016C0000846006840F480700860032000F0C8F805
:1016D000002000F007F800F04BF8002010BD0000DB
:1016E000003C024070B588B0044600250026002268
:1016F0002146372000F076F8372000F063F800BF6D
:10170000002001901648006840F02000144908604D
:101710000846006800F02000019000BF00BF02A949
:1017200003A800F073F900F099F945000D48B5FBE6
:10173000F0F0461E0C480D49086040F2E7310B48B6
:10174000C160466000210161816000F0D9FC20B9D0
:10175000064800F06FFD08B070BD0120FBE70000F7
:101760004038024040420F0000140040342B00205B
:1017700008B500BF002000901148006840F4804088
:101780000F4908600846006800F48040009000BFE0
:1017900000BF00BF00200090081F006840F080508C
:1017A000091F08600846006800F08050009000BFE4
:1017B00000BF00220F21901E00F014F808BD0000A9
:1017C0004438024001460846002809DB00F01F03A8
:1017D00001229A4043099B0003F1E023C3F8002152
:1017E00000BF70472DE9F05F80460D461646002782
:1017F00003F0A8FE074639462A46334601F00700A3
:10180000C0F1070ABAF1040F02D94FF0040A01E04F
:10181000C0F1070AD14600F1040ABAF1070F02D25B
:101820004FF0000A01E0A0F1030AD4464FF0010A8C
:101830000AFA09FAAAF1010A0AEA020A0AFA0CFAF1
:101840004FF0010B0BFA0CFBABF1010B0BEA030B96
:101850004AEA0B042146404603F07CFEBDE8F09FB7
:1018600000BF00F00702064B19684FF6FF0319404E
:10187000044B0B4343EA0221014B196000BF704740
:101880000CED00E00000FA0570B504460D460CB9F9
:10189000012070BD5848006800F00F00A84209D22E
:1018A00055490D700846006800F00F00A84201D0AD
:1018B0000120EEE7207800F0020002281DD12078F8
:1018C00000F00400042805D14C48006840F4E050C2
:1018D0004A490860207800F00800082805D14748E8
:1018E000006840F46040454908604448006820F0C2
:1018F000F000A168084341490860207800F0010029
:10190000A8B36068012807D13C4808380068C0F3D4
:101910004040B8B90120BCE76068022802D0606886
:10192000032807D1354808380068C0F3406048B93B
:101930000120AEE7314808380068C0F3400008B91C
:101940000120A6E72D48006820F0030061680843E5
:101950002A490860FFF796FE064609E0FFF792FE67
:10196000801B41F28831884202D9032091E707E0C9
:101970002248006800F00C006168B0EB810FEDD1E7
:101980001D48006800F00F00A84209D91A490D70DF
:101990000846006800F00F00A84201D0012078E757
:1019A000207800F00400042807D11448006820F4CF
:1019B000E050E168084311490860207800F0080011
:1019C000082808D10D48006820F46040216940EAE9
:1019D000C1000A49086000F061F808490968C1F3CC
:1019E0000311074A515CC840064908600648006870
:1019F000FFF778FE00204CE7003C02400838024028
:101A000054D50008F4050020EC0500200F220260E8
:101A10000D4A126802F0030242600B4A126802F09B
:101A2000F0028260084A126802F4E052C260064A7C
:101A3000126802F46042D2080261044A126802F09D
:101A40000F020A607047000008380240003C024064
:101A50000148006870470000F405002000B5FFF75A
:101A6000F7FF04490968C1F38221034A515CC84069
:101A700000BD00000838024064D5000800B5FFF73B
:101A8000E7FF04490968C1F34231034A515CC84089
:101A900000BD00000838024064D500082DE9F04779
:101AA000002400250026A1462548006800F00C000F
:101AB00020B1042805D008283AD105E0DFF8849049
:101AC00039E0DFF8849036E01D48001F006800F020
:101AD0003F041B48001F006800F4800078B11A48DA
:101AE0001749091F0968C1F38811A0FB017001465D
:101AF000224600233846FEF7C3FB05460EE0114898
:101B00000F49091F0968C1F38811A0FB0170014644
:101B1000224600233846FEF7B3FB05460848001F5F
:101B20000068C0F30140401C4600B5FBF6F902E036
:101B3000DFF8109000BF00BF4846BDE8F087000006
:101B4000083802400024F40000127A00F8B5044678
:101B50000CB90120F8BD207800F00100002874D0F5
:101B6000F948006800F00C0004280DD0F648006821
:101B700000F00C00082813D1F348001F006800F49F
:101B80008000B0F5800F0BD1EF4808380068C0F333
:101B90004040002859D06068002856D10120D9E77C
:101BA00000BF6068B0F5803F08D1E748083800689A
:101BB00040F48030E449083908601EE06068B0F500
:101BC000A02F0DD1E0480838006840F48020DE499D
:101BD000083908600846006840F4803008600CE06E
:101BE000D9480838006820F48030D749083908609F
:101BF0000846006820F48020086000BF606890B14B
:101C0000FFF740FD054606E0FFF73CFD401B64285A
:101C100001D903209EE7CC4808380068C0F3404053
:101C20000028F1D011E0FFF72DFD054606E0FFF793
:101C300029FD401B642801D903208BE7C2480838DE
:101C40000068C0F340400028F1D1207800F0020085
:101C500002285FD1BC48006800F00C0058B1BA48B7
:101C6000006800F00C0008281CD1B748001F00686D
:101C700000F48000B0B9B44808380068C0F34000F0
:101C800020B1E068012801D0012063E7AE480838A0
:101C9000006820F0F800216940EAC100AA4908392B
:101CA000086037E0E06800B30120A8490860FFF74A
:101CB000E9FC054606E0FFF7E5FC401B022801D9D8
:101CC000032047E7A04808380068C0F34000002818
:101CD000F1D09D480838006820F0F800216940EAFA
:101CE000C10099490839086014E00020974908604C
:101CF000FFF7C8FC054606E0FFF7C4FC401B0228BE
:101D000001D9032026E7904808380068C0F3400056
:101D10000028F1D1207800F0080008282CD1606953
:101D2000A8B101208A490860FFF7ACFC054606E02F
:101D3000FFF7A8FC401B022801D903200AE78248CC
:101D40006C300068C0F340000028F1D014E000209F
:101D50007F490860FFF796FC054606E0FFF792FC16
:101D6000401B022801D90320F4E677486C30006854
:101D7000C0F340000028F1D1207800F004000428CE
:101D800070D1002770483830006800F0805090B95A
:101D900000BF002000906C483830006840F0805050
:101DA0006949383108600846006800F080500090AA
:101DB00000BF00BF01276748006800F48070B0B919
:101DC0006448006840F4807062490860FFF75AFC7C
:101DD000054606E0FFF756FC401B022801D9032008
:101DE000B8E65C48006800F480700028F2D000BFBC
:101DF000A068012808D154486830006840F001000C
:101E00005149683108601DE0A06805280DD14E4891
:101E10006830006840F004004B49683108600846AB
:101E2000006840F0010008600CE047486830006836
:101E300020F001004449683108600846006820F03D
:101E40000400086000BFA068A8B1FFF71BFC0546AE
:101E500009E0FFF717FC401B41F28831884202D9A4
:101E6000032077E626E0384868300068C0F3400079
:101E70000028EED013E0FFF705FC054608E0FFF769
:101E800001FC401B41F28831884201D9032061E600
:101E90002D4868300068C0F340000028EFD1012FC2
:101EA00007D129483830006820F080502649383161
:101EB000086000BFA069002845D02348006800F0F2
:101EC0000C0008285DD0A069022845D100201F49D8
:101ED0000866FFF7D7FB054606E0FFF7D3FB401B7C
:101EE000022801D9032035E6174808380068C0F3F6
:101EF00040600028F1D1D4E907010843616A40EA53
:101F000081110122A06AC2EB500041EA00412C205D
:101F1000005D41EA00600C49091F086001200B497F
:101F20000866FFF7AFFB054606E0FFF7ABFB401B7B
:101F3000022801D903200DE6034808380068C0F3E1
:101F400040600028F1D03FE00838024000004742DE
:101F5000800E47420070004000201C490866FFF7D1
:101F600091FB054606E0FFF78DFB401B022801D9D7
:101F70000320EFE516480068C0F340600028F2D166
:101F800022E0A069012800D1E4E51148001D06689F
:101F900006F48001E069814214D106F03F01206A15
:101FA00081420FD147F6C0703040616A884209D142
:101FB00006F44031A06A814204D106F07061E06A03
:101FC000814201D00120C5E50020C3E50000474261
:101FD000003802407047704710B50346002200BF2A
:101FE00093F83C00012801D1022010BD012083F8A4
:101FF0003C0000BF22F0FF00CC6840EA040222F45B
:1020000040708C6840EA040222F480604C6840EA28
:10201000040222F400600C6840EA040222F48050BA
:102020000C6940EA040222F400504C6940EA0402C0
:1020300022F48040CC6940EA04021868426400BF80
:10204000002083F83C0000BF00BFCEE730B5024659
:102050000B4600BF92F83C00012801D1022030BDA0
:10206000012082F83C0000BF022082F83D00106889
:1020700044681068816824F070041868044310688C
:102080004460184D1068A8421BD01068B0F1804F12
:1020900017D0154D1068A84213D0144D1068A842EF
:1020A0000FD0134D1068A8420BD0124D1068A842F3
:1020B00007D0114D1068A84203D0104D1068A842F7
:1020C00005D121F08001586801431068816001202A
:1020D00082F83D0000BF002082F83C0000BF00BF36
:1020E000BDE700000000014000040040000800407F
:1020F000000C004000040140004001400018004076
:1021000010B504460CB9012010BD94F83D0028B963
:10211000002084F83C00204600F00CF8022084F8EF
:102120003D00211D206802F0F9FA012084F83D00ED
:102130000020E9E738B5044638492068884218D1BC
:1021400000BF002000903648006840F0100034497D
:1021500008600846006800F01000009000BF00BF53
:10216000002205213620FFF73DFB3620FFF72AFB32
:1021700053E02C492068884211D100BF0020009014
:102180002748001D006840F400302549091D0860FB
:102190000846006800F40030009000BF3DE022498E
:1021A0002068884211D100BF002000901C48001D0B
:1021B000006840F480201A49091D0860084600683C
:1021C00000F48020009000BF27E018492068884272
:1021D0000FD100BF002000901148006840F080003F
:1021E0000F4908600846006800F08000009000BFBA
:1021F00013E00F49206888420FD100BF00200090F3
:102200000748006840F48070054908600846006887
:1022100000F48070009000BF00BF38BD0010004087
:10222000403802400044014000480140001C00408A
:102230000020004001460868C06840F001000B68BB
:10224000D8600868806800F00702062A05D0086890
:10225000006840F001000B681860002070472DE90D
:10226000F04104460D4614B90120BDE8F08194F810
:102270003D0028B9002084F83C00204600F046F8D4
:10228000022084F83D002068806844F207018843FA
:1022900021688860211D206802F040FA2068D0F88B
:1022A0000880206886692068076A286840EA08086C
:1022B00040F203308643A969A86840EA012006433A
:1022C00040F60C4086434FF2F0008643E969E86827
:1022D00040EA0120064328690001296A40EA0130EA
:1022E000064327F0220727F088076969686840EAF3
:1022F000011007432068C0F80880206886612068C4
:102300000762012084F83D000020AEE710B586B0DA
:102310000446142101A8FDF7FDFF2068B0F1804FAD
:1023200053D100BF002000908248006840F00100B7
:10233000804908600846006800F00100009000BF76
:1023400000BF00BF002000907A481038006840F0BD
:1023500001007849103908600846006800F0010063
:10236000009000BF00BF00BF00200090084600683A
:1023700040F0020008600846006800F0020000908B
:1023800000BF00BF20200190022002900020039097
:1023900004900120059001A96748FFF76DF8082017
:1023A00001900220029000200390049001200590EB
:1023B00001A96248FFF760F8002205211C20FFF701
:1023C00011FA1C20FFF7FEF9B2E05D49206888424F
:1023D00037D100BF002000905648006840F002004E
:1023E000544908600846006800F00200009000BFF1
:1023F00000BF00BF002000904E481038006840F039
:1024000002004C49103908600846006800F00200DC
:10241000009000BF00BF30200190022002900020F9
:10242000039004900220059001A94448FFF724F886
:10243000002205211D20FFF7D5F91D20FFF7C2F965
:1024400076E040492068884237D100BF00200090E4
:102450003848006840F004003649086008460068C3
:1024600000F00400009000BF00BF00BF00200090FB
:1024700030481038006840F002002E4910390860DA
:102480000846006800F00200009000BF00BFC020B6
:1024900001900220029000200390049002200590F9
:1024A00001A92648FEF7E8FF002205211E20FFF7BC
:1024B00099F91E20FFF786F93AE0234920688842FF
:1024C00036D100BF002000901A48006840F0080094
:1024D000184908600846006800F00800009000BF36
:1024E00000BF00BF0020009012481038006840F084
:1024F00001001049103908600846006800F001002A
:10250000009000BF00BF0320019002200290002035
:10251000039004900220059001A90748FEF7ACFF44
:10252000002205213220FFF75DF93220FFF74AF93A
:1025300006B010BD403802400000024000040240D6
:102540000004004000080040000C004030B5044684
:102550000D4615B1042D0CD105E0012200212068A3
:1025600002F048F910E001220421206802F042F94B
:102570000AE001220021206802F03CF90122042136
:10258000206802F037F900BF00BF2068006840F003
:10259000010021680860002030BD704710B5044676
:1025A00020680069C0F34000D8B12068C068C0F35B
:1025B0004000B0B16FF0020021680861012020776F
:1025C0002068806900F0030018B12046FFF7E5FF9E
:1025D00005E0204600F0BCF9204600F0A1FA0020FA
:1025E000207720680069C0F38000D8B12068C068F7
:1025F000C0F38000B0B16FF00400216808610220D0
:1026000020772068806900F4407018B12046FFF7F9
:10261000C4FF05E0204600F09BF9204600F080FA58
:102620000020207720680069C0F3C000D8B120687E
:10263000C068C0F3C000B0B16FF008002168086145
:10264000042020772068C06900F0030018B12046FC
:10265000FFF7A3FF05E0204600F07AF9204600F0DE
:102660005FFA0020207720680069C0F30010D8B11D
:102670002068C068C0F30010B0B16FF0100021688E
:102680000861082020772068C06900F4407018B104
:102690002046FFF782FF05E0204600F059F920466A
:1026A00000F03EFA002020772068006900F0010069
:1026B00058B12068C06800F0010030B16FF001002F
:1026C00021680861204600F059FA20680069C0F3CB
:1026D000C01058B12068C068C0F3C01030B16FF0AE
:1026E0008000216808612046FFF774FC20680069BB
:1026F000C0F3801058B12068C068C0F3801030B1BA
:102700006FF0400021680861204600F057FA206809
:102710000069C0F3401058B12068C068C0F3401091
:1027200030B16FF02000216808612046FFF753FCAC
:1027300010BD000010B586B00446142101A8FDF7B5
:10274000E9FD7849206888421ED100BF0020009032
:102750007548006840F0100073490860084600683A
:1027600000F01000009000BF00BF4FF4D440019073
:10277000022002900020039004900120059001A9FE
:102780006A48FEF779FECBE06949206888421DD18E
:1027900000BF002000906448006840F010006249CB
:1027A00008600846006800F01000009000BF00BFFD
:1027B00060200190022002900020039004900320EA
:1027C000059001A95948FEF757FEA9E0594920682C
:1027D00088421DD100BF002000905348006840F09F
:1027E0000200514908600846006800F002000090AD
:1027F00000BF00BF881501900220029000200390C6
:1028000004900320059001A94B48FEF735FE87E0B0
:102810004A49206888421DD100BF002000904248EC
:10282000006840F00200404908600846006800F077
:102830000200009000BF00BF4815019002200290E6
:102840000020039004900320059001A93A48FEF768
:1028500013FE65E03A49206888421ED100BF00207F
:1028600000903148006840F002002F490860084697
:10287000006800F00200009000BF00BF4FF440402D
:1028800001900220029000200390049009200590FE
:1028900001A92948FEF7F0FD42E02A492068884254
:1028A0001DD100BF002000901F48006840F00100CB
:1028B0001D4908600846006800F00100009000BF54
:1028C00000BF40200190022002900020039004905D
:1028D0000920059001A91C48FEF7CEFD20E01B4908
:1028E000206888421CD100BF002000900E4800687C
:1028F00040F001000C4908600846006800F0010043
:10290000009000BF00BF80200190022002900020B4
:10291000039004900920059001A90B48FEF7ACFD37
:1029200006B010BD000001403038024000100240E7
:1029300000400140004401400004024000480140C2
:1029400000180040001C0040000002400020004031
:10295000704770B504460D46164600BF94F83C001B
:10296000012801D1022070BD012084F83C0000BF85
:10297000022084F83D0036B1042E1BD0082E31D041
:102980000C2E5ED145E02946206801F045FF206805
:10299000806940F00800216888612068806920F023
:1029A00004002168886120688069296908432168DA
:1029B000886147E02946206801F066FF2068806949
:1029C00040F40060216888612068806920F480609C
:1029D0002168886120688069296940EA01202168AE
:1029E00088612FE02946206801F08CFF2068C069CB
:1029F00040F008002168C8612068C06920F0040028
:102A00002168C8612068C069296908432168C861D4
:102A100018E02946206801F0B1FF2068C06940F441
:102A200000602168C8612068C06920F48060216866
:102A3000C8612068C069296940EA01202168C8612D
:102A400000E000BF00BF012084F83D0000BF00206F
:102A500084F83C0000BF00BF85E710B504460CB900
:102A6000012010BD94F83D0028B9002084F83C00F6
:102A7000204600F00DF8022084F83D00211D20685A
:102A800001F04CFE012084F83D000020E9E7000041
:102A900008B51F4A016891420FD100BF0021009183
:102AA0001C49096841F001011A4A11601146096880
:102AB00001F00101009100BF29E0174A016891422D
:102AC0000FD100BF002100911249096841F4803103
:102AD000104A11601146096801F48031009100BF6D
:102AE00015E00E4A0168914211D100BF002100910A
:102AF0000849091F096841F04001064A121F116088
:102B00001146096801F04001009100BF00BF08BDF7
:102B100000000140443802400040014000180040DD
:102B20007047000070B504460E4601223146206809
:102B300001F060FE0F492068884203D00E492068EA
:102B4000884201D1012000E0002028B12068406CBB
:102B500040F40040216848642068806800F0070560
:102B6000062D05D02068006840F00100216808604B
:102B7000002070BD000001400004014010B5044673
:102B80000B492068884201D1FEF782FD094920687F
:102B900088420BD10848006828B107480068401EE9
:102BA0000549086002E000200349086010BD0000EC
:102BB00000140040001000400000002070477047E3
:102BC0002DE9F0470446206805682068C66820683B
:102BD00047694FF00008C14605F00F08B8F1000F33
:102BE0000AD105F0200038B106F0200020B12046BF
:102BF00001F0B0FFBDE8F087B8F1000F72D007F028
:102C0000010018B906F4907000286BD005F001009F
:102C100030B106F4807018B1E06B40F00100E06361
:102C200005F0040030B107F0010018B1E06B40F08E
:102C30000200E06305F0020030B107F0010018B1B6
:102C4000E06B40F00400E06305F0080048B106F0D6
:102C5000200010B907F0010018B1E06B40F0080047
:102C6000E063E06B70B305F0200028B106F02000AF
:102C700010B1204601F06EFF20684069C0F3801952
:102C8000E06B00F0080010B9B9F1000F23D0204626
:102C900001F036FF2068406900F04000402816D15E
:102CA0002068406920F0400021684861606B50B1A5
:102CB0001748616B0865606BFEF7D6F910B1606B61
:102CC000016D88470CE02046FFF779FF08E02046B9
:102CD000FFF775FF04E02046FFF771FF0020E06377
:102CE00088E7FFE705F0800030B106F0800018B1FA
:102CF000204602F077F97DE705F0400030B106F09C
:102D0000400018B1204601F00BFF73E700BF71E7E8
:102D1000054A000810B504460CB9012010BDA06991
:102D200000B100E000BF94F8390028B9002084F811
:102D30003800204600F028F8242084F83900206864
:102D4000C06820F400502168C860204601F056FF9A
:102D50002068006920F4904021680861206840697B
:102D600020F02A00216848612068C06840F40050C3
:102D70002168C8600020E063202084F8390084F8CE
:102D80003A000020CAE7000010B586B004461421BE
:102D900001A8FDF7BFFAFE492068884255D100BF5F
:102DA00000200090FB48006840F40020F9490860CA
:102DB0000846006800F40020009000BF00BF00BF7C
:102DC00000200090F3481038006840F00400F149FA
:102DD000103908600846006800F00400009000BF49
:102DE00000BF4FF440600190022002900120039048
:102DF000032004900820059001A9E748FEF73CFB5A
:102E0000E648E7490860400548600021E4488160E1
:102E1000C1604FF480610161002141618161C16144
:102E200001624162FEF754FA08B1FDF70BFF00BFE3
:102E3000DB486063846300BF002205213420FEF775
:102E4000D1FC3420FEF7BEFC6FE2D64920688842F0
:102E500073D100BF00200090CE48006840F480107D
:102E6000CC4908600846006800F48010009000BF5C
:102E700000BF00BF00200090C6481038006840F036
:102E80000400C449103908600846006800F00400D6
:102E9000009000BF00BF00BF0020009008460068FF
:102EA00040F0080008600846006800F00800009044
:102EB00000BF00BF881401900220029001200390FF
:102EC000032004900820059001A9B348FEF7D4FA26
:102ED000042001900220029001200390032004901E
:102EE0000820059001A9B048FEF7C6FAAB48303873
:102EF000AE490860C00548600021AC488160C160EF
:102F00004FF480610161002141618161C161016211
:102F10004162FEF7DDF908B1FDF794FE00BFA3485A
:102F20006063846300BF002205213520FEF75AFC50
:102F30003520FEF747FCF8E1FFE79D49206888420D
:102F40007ED100BF002000909248001D006840F034
:102F500010009049091D08600846006800F0100044
:102F6000009000BF00BF00BF0020009089481038CB
:102F7000006840F001008749103908600846006881
:102F800000F00100009000BF00BF4FF4C06001904E
:102F90000220029000200390032004900720059057
:102FA00001A98448FEF768FA8348844908604FF015
:102FB00000604860002181488160C1604FF48061F9
:102FC0000161002141618161C1614FF48031016281
:102FD00000214162FEF77CF908B1FDF733FE00BF26
:102FE00076486063846300BF734878307449086032
:102FF0004FF0006048604021714881600021C1604D
:103000004FF480610161002141618161C1614FF430
:103010008031016200214162FEF75AF908B1FDF7E3
:1030200011FE00BF66482063846300BF00220521B3
:103030002520FEF7D7FB2520FEF7C4FB75E1FFE74F
:1030400060492068884259D100BF00200090514853
:10305000006840F400304F4908600846006800F4FA
:103060000030009000BF00BF00BF00200090494822
:103070001038006840F001004649103908600846E1
:10308000006800F00100009000BF00BF0C2001901C
:103090000220029000200390032004900720059056
:1030A00001A94448FEF7E8F93C4848304649086021
:1030B0004FF000604860002143488160C1604FF4D8
:1030C00080610161002141618161C1614FF4803102
:1030D000016200214162FEF7FBF808B1FDF7B2FD85
:1030E00000BF39486063846300BF002205212620A9
:1030F000FEF778FB2620FEF765FB16E133492068D2
:10310000884269D100BF002000902248006840F446
:103110008020204908600846006800F48020009064
:1031200000BF00BF00BF002000901A4810380068A0
:1031300040F002001749103908600846006800F0A6
:103140000200009000BF00BF4FF4406001900220D9
:10315000029000200390032004900720059001A90D
:103160001B48FEF789F90D4818381A4908604FF0D6
:1031700000604860002117488160C1604FF48061A1
:103180000161002141618161C1610162416224E00C
:10319000004C0040403802400008024040600240BD
:1031A000D427002000500040000C024034280020AA
:1031B00000100140000002404064024094280020BA
:1031C000F42800200044004054290020004800401A
:1031D00000040240B429002030E0FEF779F808B17D
:1031E000FDF730FD00BF52486063846300BF514863
:1031F000514908604FF00060486040214E488160AE
:103200000021C1604FF48061016100214161816151
:10321000C16101624162FEF75BF808B1FDF712FD82
:1032200000BF45482063846300BF0022052127209A
:10323000FEF7D8FA2720FEF7C5FA76E03F49206866
:10324000884272D100BF002000903D48006840F0E5
:1032500020003B4908600846006800F0200000900C
:1032600000BF00BF00BF0020009035481438006840
:1032700040F004003249143908600846006800F044
:103280000400009000BF00BFC02001900220029007
:1032900000200390032004900820059001A92948EC
:1032A000FEF7EAF8284829490860800548600021AF
:1032B00026488160C1604FF4806101610021416155
:1032C0008161C16101624162FEF702F808B1FDF758
:1032D000B9FC00BF1D486063846300BF1A487830A2
:1032E0001B4908604FF02060486040211848816009
:1032F0000021C1604FF48061016100214161816161
:10330000C16101624162FDF7E3FF08B1FDF79AFC7C
:1033100000BF0F482063846300BF002205214720BF
:10332000FEF760FA4720FEF74DFA06B010BD000028
:10333000B429002058600240142A002000140140E3
:10334000443802400008024028640240742A0020E9
:10335000D42A002077B581B00446154694F83A0087
:10336000202850D1029800B115B9012004B070BDD9
:1033700000BF94F83800012801D10220F6E70120AF
:1033800084F8380000BF0298A062A5850020E063A1
:10339000222084F83A001D48616BC8631C48616BA9
:1033A00008641C48616BC8640020616B086502AE4C
:1033B00032682368191D2B46606BFDF7FFFF00BFC5
:1033C000002000902068006800902068406800900D
:1033D00000BF00BF00BF002084F8380000BF206895
:1033E000C06840F480702168C8602068406940F07F
:1033F0000100216848612068406940F04000216870
:1034000048610020B2E70220B0E70000694A0008E6
:10341000AF4A0008194A000810B5034693F83A006D
:1034200020282FD101B10AB9012010BD00BF93F8A7
:103430003800012801D10220F7E7012083F8380085
:1034400000BF99629A85DA850020D863222083F82C
:103450003A0000BF002083F8380000BF1868C06839
:1034600040F480701C68E0601868406940F001001A
:103470001C6860611868C06840F020001C68E0604B
:103480000020D2E70220D0E710B5044607492068A3
:1034900088420AD1064988680649097800F0EBFF9E
:1034A000012204490448FFF7B7FF10BD004C00405B
:1034B000C8160020E50500205426002070472DE99D
:1034C000F84304460D4616461F464FF0000994F88F
:1034D000390020285DD105B116B90120BDE8F88377
:1034E00000BF94F83800012801D10220F6E701203E
:1034F00084F8380000BF0020E063212084F8390000
:10350000FEF7C0F88146A684E68400BF002084F858
:10351000380000BF2BE0E08C401EE084A068B0F5CE
:10352000805F16D14B46002280212046009701F093
:103530008DFD08B10320D1E7A846B8F80000C0F31C
:10354000080021684860206908B9AD1C0FE06D1CB7
:103550000DE04B46002280212046009701F076FDC9
:1035600008B10320BAE715F8010B21684860E08C28
:103570000028D0D14B46002240212046009701F080
:1035800065FD08B10320A9E7202084F83900002058
:10359000A4E70220A2E70000F7B50446154694F818
:1035A000390020283DD1019800B10DB90120FEBDA0
:1035B00000BF94F83800012801D10220F7E701206C
:1035C00084F8380000BF01982062A584E5840020BB
:1035D000E063212084F839001348216BC863134845
:1035E000216B08641248216BC8640020216B0865B8
:1035F00001AE23681A1D31682B46206BFDF7DEFEF5
:103600006FF040002168086000BF002084F8380097
:1036100000BF2068406940F08000216848610020B8
:10362000C5E70220C3E70000BD4A0008F34A0008CE
:10363000194A00087047704700BFFEE70EB5012029
:1036400028490870502228492848FFF783FE00BF08
:103650004FF0FF312648006809F0D4FA08F0D2FB99
:1036600000240CE02048015D224802F0F7FD2249C9
:10367000087008460078012800D102E0641C502C34
:10368000F0DB00BF1C480078B0B100240AE01B4802
:1036900000EB840090ED000A684600EB840080EDAA
:1036A000000A641C032CF2DB9DED020AF7EE000A0F
:1036B00030EE600A8DED020A50220B490B48FFF7ED
:1036C00049FE08F0C9FB00231A4669460C48006809
:1036D00008F0E8FF00231A4669460A48006808F027
:1036E000E1FFB5E7500500202C1900201427002029
:1036F0005C050020AC19002058050020E41B0020C8
:10370000780500208005002008B500BF002000904B
:103710003248006840F4800030490860084600687C
:1037200000F48000009000BF00BF00BF00200090A8
:103730000846006840F4001008600846006800F47D
:103740000010009000BF00BF002205210B20FEF7F3
:1037500049F80B20FEF736F8002205210C20FEF771
:1037600041F80C20FEF72EF8002205210D20FEF76F
:1037700039F80D20FEF726F8002205210E20FEF76D
:1037800031F80E20FEF71EF8002205211020FEF76A
:1037900029F81020FEF716F8002205213920FEF73F
:1037A00021F83920FEF70EF8002205213A20FEF715
:1037B00019F83A20FEF706F8002205214520FEF709
:1037C00011F84520FDF7FEFF002205214620FEF7F7
:1037D00009F84620FDF7F6FF08BD0000303802402A
:1037E00000B5D5B003220021012008F0DFFE7649A4
:1037F000086003220021012008F0D8FE7349086008
:1038000003220021012008F0D1FE71490860032243
:103810000021012008F0CAFE6E4908600322002141
:10382000012008F0C3FE6C4908600022102101202D
:1038300008F0BCFE6949086000221021022008F04F
:10384000B5FE6749086000220C21012008F0AEFE99
:103850006449086000221021012008F0A7FE624997
:10386000086000220C21012008F0A0FE5F490860DA
:1038700000221C21012008F099FE5D490860002209
:103880001021012008F092FE5A4908600022082108
:10389000012008F08BFE5849086000220421012015
:1038A00008F084FE554908601C2255494EA8FCF7D3
:1038B00018FD00214EA806F0B5FE524908601C22F2
:1038C0004F491C3147A8FCF70CFD002147A806F022
:1038D000A9FE4D4908601C224949383140A8FCF72F
:1038E00000FD002140A806F09DFE484908601C220A
:1038F0004349543139A8FCF7F4FC002139A806F0FB
:1039000091FE434908601C223D49703132A8FCF702
:10391000E8FC002132A806F085FE3E4908601C2222
:1039200037498C312BA8FCF7DCFC00212BA806F0D2
:1039300079FE394908601C223149A83124A8FCF7D6
:10394000D0FC002124A806F06DFE344908601C223A
:103950002B49C4311DA8FCF7C4FC00211DA806F0AA
:1039600061FE2F4908601C222549E03116A8FCF7AA
:10397000B8FC002116A806F055FE2A4908601C2252
:103980001F49FC310FA8FCF7ACFC00210FA806F082
:1039900049FE254908601C22244908A8FCF7A1FC1F
:1039A000002108A806F03EFE214908601C221F499C
:1039B0001C3101A8FCF795FC002101A806F032FE9D
:1039C0001C49086055B000BD5C0500206005002062
:1039D00064050020680500206C05002070050020AB
:1039E00074050020780500207C050020800500205B
:1039F00084050020880500208C050020900500200B
:103A0000FCD3000894050020980500209C050020A8
:103A1000A0050020A4050020A8050020AC0500207A
:103A2000B0050020B4050020B805002014D500081A
:103A3000BC050020C005002000B587B0142102A8F5
:103A4000FCF768FC00BF002001905748006840F078
:103A50001000554908600846006800F01000019009
:103A600000BF00BF00BF002001900846006840F082
:103A7000040008600846006800F00400019000BFE0
:103A800000BF00BF002001900846006840F08000A1
:103A900008600846006800F08000019000BF00BF89
:103AA00000BF002001900846006840F00100086057
:103AB0000846006800F00100019000BF00BF00BF91
:103AC000002001900846006840F0020008600846A7
:103AD000006800F00200019000BF00BF00BF00209E
:103AE00001900846006840F0080008600846006839
:103AF00000F00800019000BF00BF002246F207213D
:103B00002A48FDF7B9FD002241F202012848FDF7DD
:103B1000B3FD00224FF47F412648FDF7ADFD46F28C
:103B2000042002900120039000200490059002A937
:103B30001E48FDF7A1FC4FF4805002900120039035
:103B400000200490059002A91948FDF795FC4FF458
:103B50007F4002900120039000200490059002A96C
:103B60001448FDF789FC4FF40040029000200390B8
:103B70000120049002A91048FDF77EFC032002906A
:103B8000002003900120049002A90848FDF774FC6E
:103B900002200290002003900120049002A9044812
:103BA000FDF76AFC07B000BD303802400008024053
:103BB00000100240000C02400000024000B587B037
:103BC0001C216846FCF7A6FB154816490860A7208B
:103BD000486000211348816044F61F61C1600021E4
:103BE00001618161FEF78CFA08B1FDF72BF80D48F1
:103BF000FEF733FF08B1FDF725F8602000900020A4
:103C0000019002900490002269460648FEF7A1FE4A
:103C100008B1FDF717F80348FEF78CFD07B000BDAB
:103C2000004401401425002000B587B01C216846DF
:103C3000FCF770FB154816490860A7204860002172
:103C40001348816044F61F61C160002101618161F8
:103C5000FEF756FA08B1FCF7F5FF0D48FEF7FDFE3A
:103C600008B1FCF7EFFF6020009000200190029067
:103C70000490002269460648FEF76BFE08B1FCF787
:103C8000E1FF0348FEF756FD07B000BD00480140C4
:103C90005425002000B587B01C216846FCF73AFB8C
:103CA0001648174908605320486000211448816075
:103CB00044F61F61C160002101618161FEF7CDFE04
:103CC00008B1FCF7BFFF6020009000200190029037
:103CD0000490002269460A48FEF73BFE08B1FCF753
:103CE000B1FF042269460648FEF733FE08B1FCF72F
:103CF000A9FF0348FEF71EFD07B000BD00180040F5
:103D00009425002000B587B01C216846FCF702FB13
:103D100016481749086040F28F6048600021144837
:103D2000816040F2E731C160002101618161FEF7ED
:103D3000E7F908B1FCF786FF0D48FEF78EFE08B1E3
:103D4000FCF780FF6020009000200190029004901A
:103D5000002269460648FEF7FCFD08B1FCF772FF39
:103D60000348FEF7E7FC07B000BD0000001C004060
:103D7000D425002000B587B01C216846FCF7CAFA9C
:103D800016481749086040F28F60486000211448C7
:103D9000816040F2E731C160002101618161FEF77D
:103DA000AFF908B1FCF74EFF0D48FEF756FE08B11B
:103DB000FCF748FF602000900020019002900490E2
:103DC000002269460648FEF7C4FD08B1FCF73AFF39
:103DD0000348FEF7AFFC07B000BD00000020004024
:103DE0001426002000B591B000200F9010901C21E7
:103DF00008A8FCF78FFA20216846FCF78BFA2F48B9
:103E00002F4908600120486000212D48816040F65C
:103E1000B831C1600021016141618161FEF71DFE81
:103E200008B1FCF70FFF00200F9010900FA9244855
:103E3000FEF70CF908B1FCF705FF602008900020A0
:103E400009900A900B900C900D900E90002208A9FA
:103E50001B48FEF77EFD08B1FCF7F4FE042208A91A
:103E60001748FEF776FD08B1FCF7ECFE082208A91A
:103E70001348FEF76EFD08B1FCF7E4FE0C2208A91A
:103E80000F48FEF766FD08B1FCF7DCFE002000904D
:103E900001900290039004904FF400500590002090
:103EA000079069460648FEF797F808B1FCF7CAFE86
:103EB0000348FEF73FFC11B000BD000000000140C8
:103EC0005423002000B58BB0242102A8FCF722FA6D
:103ED0000020009001904FF08040174908600020BA
:103EE00048600021144881604FF45251C1600021A4
:103EF0000161816103200290002003900120049061
:103F0000002005900690079001200890002009905D
:103F10000A9002A90848FEF7A2F908B1FCF792FE40
:103F200000200090019069460348FEF78FF808B121
:103F3000FCF788FE0BB000BD9423002000B58BB0C9
:103F4000242102A8FCF7E6F900200090019018480F
:103F500018490860002048600021164881604FF42D
:103F60005251C16000210161816103200290002053
:103F700003900120049000200590069007900120F6
:103F80000890002009900A9002A90A48FEF767F9F4
:103F900008B1FCF757FE00200090019069460548E3
:103FA000FEF754F808B1FCF74DFE0BB000BD000061
:103FB00000040040D423002000B58BB0242102A8C7
:103FC000FCF7A8F9002000900190184818490860F3
:103FD000002048600021164881604FF45251C160B2
:103FE00000210161816103200290002003900120E3
:103FF0000490002005900690079001200890002072
:1040000009900A9002A90A48FEF729F908B1FCF7BD
:1040100019FE00200090019069460548FEF716F849
:1040200008B1FCF70FFE0BB000BD00000008004017
:104030001424002000B58BB0242102A8FCF76AF9F3
:10404000002000900190184818490860002048603E
:104050000021164881604FF45251C1600021016176
:104060008161032002900020039001200490002031
:1040700005900690079001200890002009900A9072
:1040800002A90A48FEF7EBF808B1FCF7DBFD0020B7
:104090000090019069460548FDF7D8FF08B1FCF78C
:1040A000D1FD0BB000BD0000000C004054240020E6
:1040B0001CB50020009001900E480F490860532065
:1040C000486000210C48816042F20F71C1600021FC
:1040D0008161FEF715F808B1FCF7B4FD00200090EF
:1040E000019069460448FDF7B1FF08B1FCF7AAFD4D
:1040F0001CBD0000001000409424002000B587B0D3
:104100001C216846FCF706F9164817490860A720E5
:10411000486000211448816044F61F61C16000219D
:1041200001618161FEF799FC08B1FCF78BFD60200D
:1041300000900020019002900490002269460A48F5
:10414000FEF707FC08B1FCF77DFD0422694606482E
:10415000FEF7FFFB08B1FCF775FD0348FEF7EAFA2E
:1041600007B000BD00400140D424002010B50B482A
:104170000B4908604FF4E130486000210848816035
:10418000C16001610C21416100218161C161FEF7C3
:10419000C1FD08B1FCF756FD10BD0000004C004009
:1041A0005426002010B50B480B4908604FF41650F8
:1041B0004860002108488160C16001610C214161B3
:1041C00000218161C161FEF7A5FD08B1FCF73AFD50
:1041D00010BD0000005000409426002010B50B4890
:1041E0000B4908604FF4E1304860002108488160C5
:1041F000C16001610C21416100218161C161FEF753
:1042000089FD08B1FCF71EFD10BD00000010014043
:10421000D426002010B50B480B4908604FF4E1305C
:104220004860002108488160C16001610C21416142
:1042300000218161C161FEF76DFD08B1FCF702FD4F
:1042400010BD0000004400401427002010B50B48AA
:104250000B4908604FF4E130486000210848816054
:10426000C16001610C21416100218161C161FEF7E2
:1042700051FD08B1FCF7E6FC10BD0000004800400D
:104280005427002010B50B480B4908604FF4E1306B
:104290004860002108488160C16001610C214161D2
:1042A00000218161C161FEF735FD08B1FCF7CAFC50
:1042B00010BD0000001401409427002000BFFEE75D
:1042C000082806D00A2810D00C281AD00E2830D181
:1042D00023E0194A126822F44072174B1A601A46FA
:1042E000126842EA01221A6023E0134A126822F49B
:1042F0004062114B1A601A46126842EA81221A6023
:1043000017E00D4A126822F440520B4B1A601A460D
:10431000126842EA01321A600BE0074A126822F47E
:104320004042054B1A601A46126842EA81321A600E
:1043300000BF00BF70470000140C024000BFFEE742
:1043400008B5016800919DED000A08BD30B504462E
:10435000204600F01CF80546204600F003F8281A15
:1043600080B230BD00B502469088D188884209DD10
:10437000104600F00CF89188D388C91A491E401ADB
:1043800080B200BDD0889188401A80B2F9E701461A
:104390000889401E80B27047F0B506463046FFF7E8
:1043A000E1FF07460025002406E0A1B2304600F0F8
:1043B00007F82844C5B2641CBC42F6DBE8B2F0BD85
:1043C00070B504460D462046FFF7CCFFA84201DC3D
:1043D000002070BDA0882844401C218990FBF1F288
:1043E00001FB120086B22068805DF2E730B50B4613
:1043F000026000218180C180591C0181002104E0FC
:10440000002405686C544C1CA1B204898C42F7DC72
:1044100030BD10B504462046FFF798FF02462046FF
:10442000FFF7B5FF824201D1012010BD0020FCE75B
:1044300010B504462046FFF789FF08B9012010BDDA
:104440000020FCE730B504462046FFF7E2FF08B144
:10445000002030BDA088401C218990FBF1F201FBB7
:104460001200A080A1882068455C0020A2882168F5
:1044700088542846EDE730B504460D462046FFF740
:10448000D7FF10B12046FFF7DDFFE088401C2189EF
:1044900090FBF1F201FB1200E080E18820684554B6
:1044A00030BD10B504462046FFF7CCFF10BD30B537
:1044B00004460D4629462046FFF7DDFF30BDF0B526
:1044C00007460D461646002405E0295D3846FFF7ED
:1044D000D2FF601C84B2B442F7DBF0BD33B50446B2
:1044E00001AD022229462046FFF7E9FF3CBD33B566
:1044F000044601AD022229462046FFF7E0FF3CBDFD
:1045000000BF0548006880F400500349086064203B
:1045100006F077F8F5E700001408024001B50549F8
:10452000009808600448006840F0010002490860F3
:1045300008BD0000000000200010004000200549D8
:104540000860054800684FF6FE710840024908609F
:104550007047000000000020001000400348006881
:1045600008B9012070470020FCE70000000000208F
:1045700001B503490098086000F01EF808BD00006E
:104580000000002010B500BF502080F31188BFF359
:104590004F8FBFF36F8F00BF08F0F6FC18B14FF0DC
:1045A00080500449086000BF002080F3118800BFDC
:1045B00010BD000004ED00E00948006840F0010073
:1045C0000749086000BF074800680028FBD104487D
:1045D00000684FF6FE71084001490860704700000E
:1045E000001000400000002000B593B0302107A863
:1045F000FBF790FE142102A8FBF78CFE00BF002001
:1046000001902548006840F0805023490860084622
:10461000006800F08050019000BF00BF00BF002084
:1046200001901E48006840F480401C49086008461C
:10463000006800F48040019000BF00BF0220079096
:1046400001200A9010200B9002200D9000210E9165
:1046500008210F91A821109102211191042112919A
:1046600007A8FDF773FA08B1FCF7ECFA0F200290E7
:1046700002200390002004904FF4A05005904FF4C6
:1046800080500690052102A8FDF7FEF808B1FCF75E
:10469000D9FA13B000BD000040380240007000405D
:1046A0000548006840F47000034908604FF000605E
:1046B000014980390860704788ED00E010B5024874
:1046C000FDF76CFF10BD00009423002010B50248D8
:1046D000FDF764FF10BD0000D423002010B5024890
:1046E000FDF75CFF10BD00001424002010B5024847
:1046F000FDF754FF10BD00005424002010B50248FF
:10470000FDF74CFF10BD00009424002010B50248B6
:10471000FDF744FF10BD0000342B002010B50268E7
:10472000294B98420ED0B0F1804F0BD0274B9842C6
:1047300008D0274B984205D0264B984202D0264BF2
:10474000984203D122F070024B681A431E4B9842E4
:1047500020D0B0F1804F1DD01C4B98421AD01C4B7A
:10476000984217D01B4B984214D01B4B984211D043
:104770001A4B98420ED01A4B98420BD0194B9842C4
:1047800008D0194B984205D0184B984202D0184BCC
:10479000984203D122F44072CB681A4322F080037E
:1047A0004C6943EA040202608B68C3620B6883624F
:1047B000054B984202D0084B984201D10B69036324
:1047C0000123436110BD00000000014000040040CF
:1047D00000080040000C004000040140004001407F
:1047E000004401400048014000180040001C004007
:1047F0000020004030B501F01F05012404FA05F344
:10480000046A9C430462046A01F01F0502FA05F57C
:104810002C43046230BD000030B5056A25F0010567
:104820000562026A4368846924F0700424F003047A
:104830000D682C4322F002028D682A43104DA842D5
:1048400000D103E00F4DA84206D100BF22F00802BC
:10485000CD682A4322F00402094DA84202D0094D36
:10486000A84207D123F4807323F400734D692B43CE
:104870008D692B43436084614D684563026230BD9E
:10488000000001400004014030B5056A25F0100524
:104890000562026A4368846924F4E04424F44074A5
:1048A0000D6844EA052422F020028D6842EA0512D0
:1048B000124DA84200D103E0114DA84207D100BF1C
:1048C00022F08002CD6842EA051222F040020B4D30
:1048D000A84202D00A4DA84209D123F4806323F4F0
:1048E00000634D6943EA85038D6943EA85034360AC
:1048F00084614D688563026230BD000000000140A4
:104900000004014030B5056A25F480750562026A2D
:104910004368C46924F0700424F003040D682C4338
:1049200022F400728D6842EA0522124DA84200D19D
:1049300003E0114DA84207D100BF22F40062CD6808
:1049400042EA052222F480620A4DA84202D00A4DB2
:10495000A84209D123F4805323F400534D6943EA5C
:1049600005138D6943EA05134360C4614D68C5634F
:10497000026230BD000001400004014030B5056A0C
:1049800025F480550562036A4468C26922F4E04256
:1049900022F440720D6842EA052223F400538D6828
:1049A00043EA0533084DA84202D0084DA84204D17D
:1049B00024F480444D6944EA85144460C2614D6822
:1049C0000564036230BD00000000014000040140A6
:1049D00008B5014608880090BDF8000008BD0146F2
:1049E0000868704710B50248FEF7EAF810BD0000ED
:1049F0005426002010B50248FEF7E2F810BD000072
:104A00009426002070B50546AC6B0020E085E0845C
:104A10002046FEF7D4F870BD70B506460025B46B8D
:104A200020684069C0F3C01594F83900212805D1E9
:104A300025B10020E084204600F082F8206840691B
:104A4000C0F3801594F83A00222805D125B1002042
:104A5000E085204600F054F8E06B40F01000E06381
:104A60002046FEF7ACF870BD70B50546AC6B286803
:104A7000006800F48070B0B90020E0852068C0684C
:104A800020F480702168C8602068406920F001002F
:104A9000216848612068406920F040002168486131
:104AA000202084F83A002046FEF7EEFC70BD70B579
:104AB0000446A56B2846FEF701FD70BD70B505469E
:104AC000AC6B2868006800F4807070B90020E08446
:104AD0002068406920F08000216848612068C06833
:104AE00040F040002168C86002E02046FEF7A2FDC9
:104AF00070BD70B50446A56B2846FEF79CFD70BDE1
:104B00000168C96821F490710268D160016849693F
:104B100021F0010102685161202180F83A107047AC
:104B200010B504462068C06820F040002168C860C5
:104B3000202084F839002046FEF77CFD002010BDBF
:104B40000168C96821F0C0010268D160202180F8A5
:104B50003910704770B5044694F83A0022284AD1BB
:104B6000A068B0F5805F13D1A56A206940B92068BC
:104B70004068C0F308002880A06A801CA06219E089
:104B800020684068C0B22880A06A401CA06211E082
:104B9000206938B920684068C1B2A26A501CA0627E
:104BA000117007E02068406800F07F01A26A501C85
:104BB000A0621170E08D401E80B2E085C8B9206807
:104BC000C06820F020002168C8602068C06820F418
:104BD00080702168C8602068406920F00100216869
:104BE0004861202084F83A002046FEF74DFC002062
:104BF00070BD0020FCE70220FAE700002DE9F84F25
:104C000004462068006920F44050E16808432168A8
:104C100008612169A068084361690843E1690843A4
:104C200000902068C06849F20C61884300990843ED
:104C30002168C8602068406920F44070A169084379
:104C400021684861E069B0F5004F75D1E3492068FB
:104C5000884203D0E249206888426FD1FCF70EFFFA
:104C6000814602206168A0FB01510B461920A9FB77
:104C700000712A463846FBF703FB6421B0FBF1F0D4
:104C80004FEA001A02206168A0FB01510B4619206F
:104C9000A9FB00712A463846FBF7F2FA07460220C4
:104CA0006168A0FB01510B461920A9FB00B12A46FF
:104CB0005846FBF7E5FA6421B0FBF1F000EBC001C8
:104CC00001EB0010A7EB8000322101EBC000642152
:104CD000B0FBF1F000F0F8000AEB400A0220616836
:104CE000A0FB01510B461920A9FB00712A4638464A
:104CF000FBF7C6FA074602206168A0FB01510B468C
:104D00001920A9FB00B12A465846FBF7B9FA6421DD
:104D1000B0FBF1F000EBC00101EB0010A7EB80004D
:104D2000322101EBC0006421B0FBF1F000F007007C
:104D30005044216888604FE16EE0FFE7FCF78EFE8B
:104D4000814602206168A0FB01510B461920A9FB96
:104D500000712A463846FBF793FA6421B0FBF1F064
:104D60004FEA001A02206168A0FB01510B4619208E
:104D7000A9FB00712A463846FBF782FA0746022053
:104D80006168A0FB01510B461920A9FB00B12A461E
:104D90005846FBF775FA6421B0FBF1F000EBC00157
:104DA00001EB0010A7EB8000322101EBC000642171
:104DB000B0FBF1F000F0F8000AEB400A0220616855
:104DC000A0FB01510B461920A9FB00712A46384669
:104DD000FBF756FA074602206168A0FB0150034624
:104DE0001920A9FB00B12A465846FBF749FA64216D
:104DF000B0FBF1F000EBC00101EB0010A7EB80006D
:104E0000322101EBC0006421B0FBF1F000F007009B
:104E1000504421688860DFE070492068884203D0F0
:104E20006F49206888426BD1FCF728FE8146042038
:104E30006168A0FB01510B461920A9FB00712A46AD
:104E40003846FBF71DFA824604206168A0FB015139
:104E50000B461920A9FB00712A463846FBF710FAC9
:104E60006421B0FBF1F000EBC00101EB0010AAEBF4
:104E70008000322101EB00106421B0FBF1F000F062
:104E8000F00A04206168A0FB015003461920A9FB29
:104E900000712A463846FBF7F3F96421B0FBF1F0C4
:104EA0000AEB001A04206168A0FB01510B4619208F
:104EB000A9FB00712A463846FBF7E2F907460420B1
:104EC0006168A0FB015003461920A9FB00B12A46E6
:104ED0005846FBF7D5F96421B0FBF1F000EBC001B7
:104EE00001EB0010A7EB8000322101EB00106421E0
:104EF000B0FBF1F000F00F005044216888606BE0D7
:104F0000FCF7ACFD814604206168A0FB015003461C
:104F10001920A9FB00712A463846FBF7B1F98246F1
:104F200004206168A0FB015003461920A9FB007111
:104F30002A463846FBF7A4F96421B0FBF1F000EBF8
:104F4000C00101EB0010AAEB8000322101EB001040
:104F50006421B0FBF1F000F0F00A04206168A0FBCE
:104F6000015003461920A9FB00712A463846FBF779
:104F700087F96421B0FBF1F00AEB001A04206168A4
:104F8000A0FB017003461920A9FB005001463A46D8
:104F90002846FBF775F9074604206168A0FB01501D
:104FA00003461920A9FB00B12A465846FBF768F9C9
:104FB0006421B0FBF1F000EBC00101EB0010A7EBA6
:104FC0008000322101EB00106421B0FBF1F000F011
:104FD0000F00504421688860BDE8F88F0010014040
:104FE00000140140014691F8390021282CD188682D
:104FF000B0F5805F0FD10A6A1088C0F308000B6813
:105000005860086918B9086A801C086209E0086AD3
:10501000401C086205E00B6A581C086218780B688F
:105020005860C88C401E80B2C88458B90868C068EF
:1050300020F080000B68D8600868C06840F040002D
:105040000B68D860002070470220FCE72DE9F04192
:1050500004460D4617469846069E21E0701CF8B19E
:105060002EB1FCF70FFBA0EB0800B04218D9206866
:10507000C06820F4D0702168C8602068406920F0C2
:10508000010021684861202084F8390084F83A0042
:1050900000BF002084F8380000BF0320BDE8F08185
:1050A000206800682840A84201D1012000E00020CB
:1050B000B842D3D00020F1E710B50248FDF780FDDB
:1050C00010BD0000D426002010B50248FDF778FD81
:1050D00010BD00001427002010B50248FDF770FD38
:1050E00010BD00005427002010B50248FDF768FDF0
:1050F00010BD00009427002030B58FB00446082C66
:105100007ED2DFE804F004132231404F5E6D3EA1F1
:10511000684600F003FA6846FBF713F985B264238A
:105120002A4669463F48FEF7CAF96AE03EA168464A
:1051300000F0F4F96846FBF704F985B264232A46C7
:1051400069463848FEF7BBF95BE03FA1684600F0CE
:10515000E5F96846FBF7F5F885B264232A46694607
:105160003048FEF7ACF94CE03EA1684600F0D6F9B5
:105170006846FBF7E6F885B264232A466946294863
:10518000FEF79DF93DE03FA1684600F0C7F968468B
:10519000FBF7D7F885B264232A4669462148FEF713
:1051A0008EF92EE03EA1684600F0B8F96846FBF79C
:1051B000C8F885B264232A4669461A48FEF77FF983
:1051C0001FE041A1684600F0A9F96846FBF7B9F86D
:1051D00085B264232A4669461248FEF770F910E04A
:1051E00040A1684600F09AF96846FBF7AAF885B234
:1051F00064232A4669460B48FEF761F901E0FFE7A0
:1052000000BF00BF0FB030BD6D61696E2E74617359
:105210006B2E7478743D22BFAACABCBFA922FFFFBF
:10522000FF000000942600206D61696E2E7461738A
:105230006B2E7478743D22C9A8C3E8B6FECEACC20A
:10524000EB22FFFFFF0000006D61696E2E74617339
:105250006B2E7478743D22C4C3C8A1CEEFC1CF2297
:10526000FFFFFF006D61696E2E7461736B2E7478A1
:10527000743D22D7DFBFA962697562697522FFFF9D
:10528000FF0000006D61696E2E7461736B2E74787F
:10529000743D22B7C5D6C3CEEFC1CF22FFFFFF00BA
:1052A0006D61696E2E7461736B2E7478743D22D4B7
:1052B000D9C4C3C6F0C0B4A3A8D5E6B7D1CAC2A3A7
:1052C000A922FFFFFF0000006D61696E2E746173FB
:1052D0006B2E7478743D22C2EBB6E2CED8CED822C3
:1052E000FFFFFF006D61696E2E7461736B2E747821
:1052F000743D22BBD8BCD2BFA922FFFFFF00000033
:1053000030B52DED028B8BB0B0EE408A00249FEDBE
:105310000D0A28EE000ABDEEC00A10EE104A224621
:1053200009A101A800F0FAF801A8FBF70AF885B274
:1053300064232A4601A90A48FEF7C1F80BB0BDEC68
:10534000028B30BD0000C8426D61696E2E616E67D0
:105350006C652E76616C3D2564FFFFFF0000000048
:10536000942600202DE9F0478EB004460D461646DF
:105370001F46DDE916892B4622460AA104A88DE8BE
:10538000C00300F0CBF804A8FAF7DBFF1FFA80FA9D
:105390006423524604A90B48FEF791F80EB0BDE80D
:1053A000F08700006D61696E2E6E756D2E747874D5
:1053B0003D222564256425642B256425642564220B
:1053C000FFFFFF009426002070B58AB004460D460A
:1053D00022460FA1684600F0A1F86846FAF7B1FF2F
:1053E00086B26423324669460E48FEF768F82A46BC
:1053F0000DA1684600F092F86846FAF7A2FF86B25F
:105400006423324669460748FEF759F80AB070BD72
:105410006D61696E2E782E76616C3D2564FFFFFF0D
:1054200000000000942600206D61696E2E792E76B2
:10543000616C3D2564FFFFFF0000000030B595B0B2
:10544000044610A30FCB02AD0FC512A103C9CDE9CD
:10545000000102A906A8FAF77BFF214606A8FAF781
:1054600064FF694606A8FAF760FF06A8FAF769FF25
:1054700085B264232A4606A90848FEF720F815B02D
:1054800030BD00006D61696E2E7461736B2E74788F
:10549000743D220022FFFFFF000000009426002040
:1054A00000BFFEE770B5044607E06068FEF7CAFF7C
:1054B00005462946206800F006F86068FEF752FFAE
:1054C0000028F2D170BD13B504466423012201A95E
:1054D0002046FDF7F4FF1CBD70B50446002500BF53
:1054E00061194FF47A7301220348FDF7E8FF6D1C40
:1054F000605D0028F4D170BD542700200FB4054B27
:1055000010B503A9044A029800F00AF910BC5DF82E
:1055100014FB000001A30008580600200FB4084B3C
:1055200010B504A902AA039800F0FAF8044602A9EB
:10553000002000F08CFC204610BC5DF814FB00003D
:105540004F5E000802480068C0F302207047000068
:105550000CED00E010B5002804DB0A07130E054A25
:10556000135406E00A07140E034A00F00F031B1F32
:10557000D45410BD00E400E018ED00E002E008C8DB
:10558000121F08C1002AFAD170477047002001E0BD
:1055900001C1121F002AFBD1704700002DE9FF5FF7
:1055A00082B00021DDE90430020DDDF840B0034394
:1055B00018D044F61050A2F2FF324243151411984D
:1055C00001281FD0A5EB0B00401C5FEA000A4FF03A
:1055D00000064E4FDFF83891B046504615D5CAF157
:1055E000000413E0119801244AA3012801D16FEAB5
:1055F0000B010298119AC0E90031C0E9024206B0DD
:10560000BDE8F09FCBF10000DFE704460021404AEF
:10561000491842EB0450CDE9001012E0E00707D032
:1056200032463B4640464946FAF742FF80468946A5
:1056300032463B4610461946FAF73AFF06460F46F1
:105640006410002CEAD1DDE90401DDE90023BAF1A0
:10565000000F06DAFAF72CFF42464B46FAF728FF0E
:1056600005E0FAF797FF42464B46FAF793FF0446E8
:105670000E460022284BFBF755F903D84FF0FF30B8
:10568000014607E00022254B20463146FAF769FE25
:10569000FBF730F9102409E0002C0ADB0A22002372
:1056A000FAF7EEFD039B30321A55641E50EA0102F0
:1056B000F2D1641C039AC4F111031444119A012A13
:1056C00003D0012208430DD10AE0084304D0002092
:1056D0004FF0110B119072E7A3EB0B056D1E0DE05F
:1056E0005B4504DD4FF0000205F1010504E003DA3B
:1056F0004FF00002A5F10105002AECD002981199A3
:10570000C0E90231C0E9004579E70000000014401B
:105710000000F03F300000000000F0430000E03FD8
:105720002DE9FF4F95B09B468946064600250FE2BE
:10573000252877D100242746F84A0121059400E066
:10574000044316F8013F203B01FA03F01042F7D161
:1057500030782A2811D06FF02F033078A0F1300272
:10576000092A16D8059A44F0020402EB820203EBE0
:1057700042021044761C0590EFE759F8042B05927D
:10578000002A03DA504244F40054059044F0020425
:10579000761C30782E2816D116F8010F44F0040438
:1057A0002A280DD06FF02F023078A0F13003092B9A
:1057B00009D807EB870302EB4303C718761CF3E70E
:1057C00059F8047B761C30786C280FD006DC4C2806
:1057D00017D068280DD06A2814D104E0742810D09E
:1057E0007A280FD10DE044F400140AE044F4801448
:1057F00001E044F440147278824202D104F580142E
:10580000761C761C307866280BD013DC582877D0AD
:1058100009DC002875D04528F6D04628F4D0472862
:105820001AD19DE118E0632835D0642879D0652825
:1058300012D195E1702873D008DC6728F1D069286F
:105840006FD06E280DD06F2806D1B5E073282CD00C
:10585000752875D0782874D05A46179990476D1CD2
:1058600075E1C4F30250022809D003280DD0D9F8FD
:10587000001004280DD00D6009F1040967E1D9F882
:105880000010EA17C1E90052F6E7D9F800100D80C0
:10589000F2E70D70F0E719F8041B8DF800100020F6
:1058A0008DF80100EA46012003E059F804AB4FF0FF
:1058B000FF3061074FF0000102D40DE008F1010153
:1058C0008846B9420FDA8045F8DB1AF8081000293B
:1058D000F4D108E008F1010188468142FADB1AF8A8
:1058E00008100029F6D105985B46A0EB0807214671
:1058F0003846179A00F094FA284400EB080507E0B0
:105900004DE029E10DE01AF8010B5A46179990472E
:10591000B8F10108F7D25B4621463846179A13E1E1
:1059200042E00A220092C4F302524FF0000A022A17
:1059300008D059F804CB032A4FEAEC710AD00DE0E5
:1059400029E02AE009F1070121F00702F2E802C18B
:10595000914609E00FFA8CFC4FEAEC71042A03D15E
:105960004FFA8CFC4FEAEC71002907DA0A46002155
:10597000DCF1000C61EB02012D2202E0220504D5CE
:105980002B228DF80420012203E0E20701D020221F
:10599000F7E7904659E00A2102E010220DE01021BD
:1059A0004FF0000A00910BE010224FF0000A44F083
:1059B00004040827009203E008224FF0000A009236
:1059C000C4F30252022A05D059F804CB0021032A5D
:1059D00008D009E009F1070121F00702F2E802C14D
:1059E000914605E01FFA8CFC042A01D10CF0FF0C53
:1059F0004FF00008220728D5702806D0009B83F0BE
:105A0000100353EA0A0305D00EE040228DF804206B
:105A1000012208E05CEA010206D030228DF8042061
:105A20008DF8050002229046009B83F0080353EA9C
:105A30000A030AD15CEA010201D1620705D53022CE
:105A40008DF804204FF001087F1E582804D034A0A0
:105A500003900EA802900DE036A0F9E75346604689
:105A6000009AFAF70DFC84460398825C0298401E67
:105A7000029002705CEA0100F0D1029806A9081AAF
:105A800000F1200A600702D524F4803400E00127E9
:105A9000574502DDA7EB0A0000E0002000EB0A01F9
:105AA000009005984144401A0590E00306D45B46F7
:105AB0002146179A059800F0B3F90544002706E03F
:105AC00001A85A46C05D179990476D1C7F1C474539
:105AD000F6DBE0030CD55B462146179A059800F0EB
