:020000040800F2
:10000000E804002045010008910E00087D0E00085C
:10001000810E00089B090008AB1F000800000000CB
:10002000000000000000000000000000591000085F
:100030009F09000800000000410F00086D11000832
:100040005F0100085F0100085F0100085F01000810
:100050005F0100085F0100085F0100085F01000800
:100060005F0100085F0100085F0100085F010008F0
:100070005F0100085F0100085F0100085F010008E0
:100080005F0100085F0100085F0100085F010008D0
:100090005F0100085F0100085F0100085F010008C0
:1000A0005F0100085F0100085F0100085F010008B0
:1000B0005F0100085F0100085F0100085F010008A0
:1000C0005F0100085F0100085F0100085F01000890
:1000D0005F0100085F0100085F010008891C00083B
:1000E0005F0100085F0100085F0100085F01000870
:1000F0005F0100085F0100085F0100085F01000860
:100100005F0100085F0100085F0100085F0100084F
:100110005F0100085F010008311500085F01000859
:100120005F0100085F0100085F0100085F0100082F
:10013000DFF80CD000F0D4FB00480047B5290008D8
:10014000E80400200648804706480047FEE7FEE72F
:10015000FEE7FEE7FEE7FEE7FEE7FEE7FEE7FEE777
:100160007111000831010008F0B480EA0102D40FD7
:100170004200B2EB410F02D20246084611464A0045
:1001800042D0C30DDDB2C1F3C752AD1A202D35DA0E
:10019000C1F3160141F4000204B15242C5F1200638
:1001A00002FA06F12A411044B3EBD05F23D0C4B168
:1001B000012DA0EBC35009DCF0BC4FF0004202EA75
:1001C000C352DBB200F5000000F05FBA400000F15E
:1001D000807000EBC350A0F1807040EAD1704900FC
:1001E00009E0490841EAC071A0EBC35000F50000E6
:1001F000400800EBC350F0BC00F03EBA614201225F
:1002000002EB4101001BF6E7F0BC704781F00041B2
:10021000AAE780F00040A7E780EA010210B502F0EB
:100220000043400022D04A001FD0010E01EB1261B2
:10023000C0F35600C2F3560240F4000042F400023C
:10024000A0FB022000047F39140400D0401C50EAB7
:10025000124001D44000491EC2B20C0604EBD0107B
:10026000401C4008802A02D003E0002010BD20F08E
:100270000100002900DA0020184310BD30B480EAE4
:10028000010202F0004530F0004221F0004013D09E
:1002900090B1C30DD40DC2F31601C0F31600E41AD9
:1002A00041F4000140F400027D34914201D3641C0A
:1002B00000E04900002C02DA30BC002070474FF407
:1002C00000000023914201D3891A034340084FEAFA
:1002D0004101F7D151B1914202D14FF0004105E007
:1002E00002D24FF0010101E06FF0010103EBC450B5
:1002F000284430BC00F0C0B92DE9FE4F804681EAA9
:100300000300C00F0C46009021F0004123F000458F
:10031000B8EB0200A94105D24046214690461C4652
:100320000B46024623F00040104347D0270DC7F389
:100330000A00C3F30A510290401A019040286BDA78
:10034000C3F3130040F4801B0098924620B10023B1
:10035000D2EB030A63EB0B0B01985946C0F1400244
:10036000504600F068F906460D4650465946019A37
:1003700000F070F910EB08006141002487EA115287
:1003800084EAE7731A4340D0009A62B3019A012AC3
:100390004FEA075215DC001B61EB02014FF00042EF
:1003A00002EA0752CDE90042001C41F580113246B5
:1003B0002B4600F0A7F903B0BDE8F08F4046214678
:1003C000F9E7001B61EB0201001C41F580130018E6
:1003D0005B412018A2F5001747EB030140EAD570F6
:1003E000B6196D4111E06D084FEA360645EAC07551
:1003F0004FEA0752001B61EB0201001C41F580111E
:1004000049084FEA30000019514132462B4603B0EB
:10041000BDE8F04F00F067B90098012240000023CA
:10042000D0EB020263EBE073009821464FEAE074E0
:10043000B8EB000061EB0401E9E783F000435BE700
:1004400081F0004158E72DE9FE4F81EA030404F0F2
:10045000004421F0004100944FF0000B23F00043D2
:1004600050EA01045ED052EA03045BD0C3F30A549D
:10047000C1F30A552C44A4F2F3340194A0FB0254B6
:10048000C1F3130141F48011C3F3130343F4801348
:1004900001FB024400FB034E840A970A44EA81549C
:1004A00047EA8357A4FB076802958D0A05FB078579
:1004B0004FEA932C04FB0C542705029D4FEA065883
:1004C00047EA1637B5EB08056EEB070C870E920E60
:1004D00047EA811742EA8312A7FB0201B6EB0B0140
:1004E00064EB00042B0D43EA0C335E1844EB1C5004
:1004F000DA465146E7FB0201C5F313044FEA0B331A
:1005000043EA14534FEA0432019C43EA0603A4F180
:100510000C040294009CCDE900B400F0F3F803B0A1
:10052000BDE8F08F00200146F9E7C10F80EAE070D6
:100530000844CA079623002100F0A7B800F0004243
:1005400020F00040C10DC0F3160040F400007F29E8
:1005500001DA00207047962903DCC1F19601C840FA
:1005600001E096398840002AF4D04042704700F0FC
:10057000004230F000400AD0C10D01F56071C0F3B7
:10058000160042EA0151C20840071143704700209B
:1005900001467047002801DBC0F10040002901DB63
:1005A000C1F100418142704730B50B460146002041
:1005B0002022012409E021FA02F59D4205D303FA25
:1005C00002F5491B04FA02F52844151EA2F10102A6
:1005D000F1DC30BD2DE9F05F0546002092469B46D8
:1005E00088460646814640241BE028464146474649
:1005F000224600F087F953465A46C01A914110D35B
:1006000011461846224600F016F82D1A67EB01082D
:100610004F4622460120002100F00DF817EB00099B
:100620004E41201EA4F10104DFDC484631462A4633
:100630004346BDE8F09F202A04DB203A00FA02F18D
:10064000002070479140C2F1200320FA03F31943C0
:1006500090407047202A06DBCB17203A41FA02F07F
:1006600043EAE07306E041FA02F3D040C2F120020F
:1006700091400843194670470029A8BF7047401CA5
:10068000490008BF20F00100704710B4B0FA80FCA8
:1006900000FA0CF050EA010404BF10BC704749B1E5
:1006A000CCF1200421FA04F411FA0CF118BF012155
:1006B00021430843A3EB0C01CB1D4FEA00614FEA35
:1006C000102042BF002010BC704700EBC350104404
:1006D0000029A4BF10BC7047401C490008BF20F08F
:1006E000010010BC704710B5141E73F1000408DA45
:1006F000401C41F1000192185B411A4301D120F0E6
:10070000010010BD2DE9F04D92469B4611B1B1FAA2
:1007100081F202E0B0FA80F220329046FFF78BFFC0
:1007200004460F4640EA0A0041EA0B0153465A4686
:10073000084313D0114653EA010019D0C8F1400212
:10074000504600F0DFF805460E46504659464246F0
:10075000FFF771FF084305D0012004E02046394629
:10076000BDE8F08D0020054346EAE0762C43374390
:100770000A986305E40AA0EB08000022FD0A44EA97
:1007800047540A3002D500200146E9E70105101957
:100790006941DDE9084500196941BDE8F04DA2E76E
:1007A0002DE9F04D81EA030404F0004B21F00045EF
:1007B00014464FF0000A23F0004150EA050220D011
:1007C00054EA01021DD0C5F30A570246C5F31303CC
:1007D000C1F31300C1F30A5640F4801543F48013AB
:1007E000A7EB0608101BD64608F2FD3873EB050090
:1007F00002D308F1010801E092185B41B8F1000F43
:1008000003DA00200146BDE8F08D00204FF480118E
:10081000064684460EE0171B73EB050705D3121B33
:1008200063EB050306434CEA010C49084FEA30002C
:1008300092185B4150EA0107EDD152EA030012D051
:1008400082EA040083EA0501084305D0101BAB418E
:1008500006D20122002306E000224FF0004302E00E
:100860006FF0010253101AEB06004CEB085110EB2D
:100870000A0041EB0B01BDE8F04DFFF734BFC1F3B7
:100880000A52C1F3130140F2FF3341F480119A423E
:1008900002DA00200146704740F233439A42A2F246
:1008A000334202DC524200F02DB8FFF7C4BE000014
:1008B00030B5041E71F1000404DB4FF000444042E7
:1008C00064EB0101141E73F1000405DB1C464FF0BC
:1008D0000043524263EB0403994208BF904230BD8B
:1008E000064C074D06E0E06840F0010394E807007D
:1008F00098471034AC42F6D3FFF71EFCC42F000813
:10090000E42F0008202A04DB203A21FA02F000211B
:10091000704721FA02F3D040C2F12002914008430F
:100920001946704710B500F023F800F001F810BD2B
:100930000EB50121102000F005FB42F20F70ADF85A
:1009400004004720ADF800006946084801F040F96E
:100950000121064800F0EEFE01221146034800F096
:100960009CFF0121014800F0EBFE0EBD001000408D
:1009700008B54FF4E06000F0D9FA36208DF8000099
:1009800000208DF8010003208DF8020001208DF871
:100990000300684600F092FA08BD00BFFEE770470A
:1009A00000B587B0012140F6040000F0DBFA012118
:1009B000202000F0D7FA4FF44070ADF8000004207A
:1009C0008DF8030069461F4800F05AF904A801F0A9
:1009D00051F90020ADF810004FF6FF70ADF814008B
:1009E0000020ADF81600ADF8120004A9164801F079
:1009F000EFF800231A460321134800F0BCFE01A8BB
:100A000000F042FF0A20ADF80C0001A90E4800F0EA
:100A1000E5FE01210C4800F08DFE012211460A4836
:100A200000F03BFF0021084801F0A4F847F6FF70F2
:100A30000549243108800121034800F081FE07B0F8
:100A400000BD000000080140002C014000B587B047
:100A50000121084600F076FA0121084600F082FAEA
:100A600001212F4800F098F901210D2000F07AFAB9
:100A700001212C4800F090F94FF40040ADF800003F
:100A800004208DF803006946274800F0F9F8082093
:100A9000ADF8000004208DF803006946234800F0FB
:100AA000EFF804A801F0E6F80020ADF810004FF6CA
:100AB000FF70ADF814000020ADF81600ADF812007C
:100AC00004A94FF0804001F083F800231A46032167
:100AD0004FF0804000F04FFE01A800F0D5FE0A2044
:100AE000ADF80C0001A9400700F078FE012188074D
:100AF00000F020FE01221146900700F0CEFE0021FA
:100B00004FF0804001F036F847F6FF704FF080411B
:100B100088840121880700F013FE07B000BD0000A3
:100B2000000230000003180000080140000C0140E2
:100B300000B587B00121042000F004FA012109204A
:100B400000F010FAC020ADF8000004208DF803007A
:100B500069461F4800F094F804A801F08BF80020C3
:100B6000ADF810004FF6FF70ADF814000020ADF89E
:100B70001600ADF8120004A9164801F029F8002368
:100B80001A460321134800F0F6FD01A800F07CFE90
:100B90000A20ADF80C0001A90E4800F01FFE01214B
:100BA0000C4800F0C7FD012211460A4800F075FE0E
:100BB0000021084800F0DEFF47F6FF7005492431A8
:100BC00008800121034800F0BBFD07B000BD000014
:100BD000000C01400008004000B587B0012108204A
:100BE00000F0B0F90121052000F0BCF90320ADF8B8
:100BF000000004208DF8030069461F4800F040F80B
:100C000004A801F037F80020ADF810004FF6FF708F
:100C1000ADF814000020ADF81600ADF8120004A9DC
:100C2000164800F0D5FF00231A460321134800F0B0
:100C3000A2FD01A800F028FE0A20ADF80C0001A9D1
:100C40000E4800F0CBFD01210C4800F073FD01229D
:100C500011460A4800F021FE0021084800F08AFFF2
:100C600047F6FF700549243108800121034800F050
:100C700067FD07B000BD000000080140000C004007
:100C80002DE9F04102460025002600200023002423
:100C9000002791F803C00CF00F0591F803C00CF089
:100CA000100CBCF1000F03D091F802C04CEA05050E
:100CB00091F800C0BCF1000F31D0146800202BE087
:100CC0004FF0010C0CFA00F3B1F800C00CEA030677
:100CD0009E4220D183004FF00F0C0CFA03F7BC4367
:100CE00005FA03FC4CEA040491F803C0BCF1280F98
:100CF00006D14FF0010C0CFA00FCC2F814C00AE057
:100D000091F803C0BCF1480F05D14FF0010C0CFA6B
:100D100000FCC2F810C0401C0828D1D31460B1F800
:100D200000C0BCF1FF0F34DD546800202EE000F15C
:100D3000080C4FF0010808FA0CF3B1F800C00CEAF7
:100D400003069E4221D183004FF00F0C0CFA03F7EB
:100D5000BC4305FA03FC4CEA040491F803C0BCF15F
:100D6000280F05D100F1080C08FA0CF8C2F814801D
:100D700091F803C0BCF1480F07D100F1080C4FF007
:100D8000010808FA0CF8C2F81080401C0828CED3DD
:100D90005460BDE8F0810000F0B50A46002300244D
:100DA0000021002500F00046B6F1004F02D11D4E93
:100DB000F16901E01B4E7168C0F3034583B200F492
:100DC0004016B6F5401F08D121F07061154E7668C7
:100DD00026F07066134F7E6012E000F48016B6F5C0
:100DE000801F06D1032606FA05F4A14341F0706185
:100DF00006E0460D360103FA06F6B14341F0706194
:100E000022B1460D360103FA06F6314300F00046E2
:100E1000B6F1004F02D1034EF16101E0014E716065
:100E2000F0BD00000000014010B50446012C06D0C2
:100E3000022C09D0032C0DD0042C15D10FE00C4846
:100E400001F064FD03460FE04FF0804001F05EFDCD
:100E5000434209E0074801F059FD034604E0064813
:100E600001F054FD434200BF00BF184610BD000012
:100E7000002C014000080040000C004000BFFEE7CD
:100E800000BFFEE710B500F0B5FB00F0C1FA10BDE1
:100E9000704708B54FF4A06000F048F827208DF89F
:100EA000000000208DF8010001208DF802008DF86F
:100EB0000300684600F002F808BD000070B500218C
:100EC00000230F22C47804B3154C246804F4E064B2
:100ED000C4F5E064210AC1F10403CA40447804FA6D
:100EE00003F184781440214309010E4C0678A15582
:100EF000047804F01F050124AC4005786D11AD00A5
:100F000005F1E025C5F8004109E0047804F01F056B
:100F10000124AC40044D0678761145F8264070BD9A
:100F20000CED00E000E400E080E100E00249014354
:100F3000024A1160704700000000FA050CED00E065
:100F40007047000029B1064AD2690243044BDA61B6
:100F500004E0034AD2698243014BDA617047000022
:100F60000010024029B1064A92690243044B9A617B
:100F700004E0034A92698243014B9A617047000082
:100F80000010024030B500210022002400232D4D26
:100F90006D6805F00C0121B1042905D0082923D181
:100FA00005E0294D056022E0274D05601FE0254D35
:100FB0006D6805F47012234D6D6805F480340225C8
:100FC00005EB92421CB9214D554305600BE01D4DC8
:100FD0006D6805F400351DB11C4D5543056002E0F8
:100FE000194D5543056002E0174D056000BF00BF75
:100FF000144D6D6805F0F0010909154D6B5C05682D
:10100000DD4045600F4D6D6805F4E061090A104D43
:101010006B5C4568DD4085600A4D6D6805F4605184
:10102000C90A0B4D6B5C4568DD40C560054D6D68B8
:1010300005F44041890B074D6B5CC568B5FBF3F5C2
:10104000056130BD0010024000127A0000093D0029
:101050001400002024000020704710B500F002F8B2
:1010600010BD00000CB500200190009033480068CE
:1010700040F480303149086000BF3048006800F417
:10108000003000900198401C0190009818B9019818
:10109000B0F5A06FF1D12948006800F4003010B11C
:1010A0000120009001E0002000900098012843D129
:1010B0002348006840F01000214908600846006895
:1010C00020F0030008600846006840F00200086055
:1010D0001A48406819494860084640684860084610
:1010E000406840F4806048600846406820F47C1006
:1010F00048600846406840F4E810486008460068C8
:1011000040F08070086000BF0C48006800F000707C
:101110000028F9D00948406820F0030007494860DA
:101120000846406840F00200486000BF034840683D
:1011300000F00C000828F9D10CBD0000001002409E
:1011400000200240042808D14FF0E021096941F055
:1011500004014FF0E022116107E04FF0E02109693E
:1011600021F004014FF0E022116170477047000048
:1011700010B51348006840F00100114908600846A6
:101180004068104908400E494860084600680E490A
:1011900008400B4908600846006820F48020086079
:1011A0000846406820F4FE0048604FF41F00886045
:1011B000FFF753FF4FF000600449086010BD0000C6
:1011C000001002400000FFF8FFFFF6FE08ED00E00F
:1011D000F0B50C46154600220021068C4FF6FE772E
:1011E0003E400684028B018C4FF60C7632407E1C0A
:1011F00006EA03162E433243104EB0420ED0104E74
:10120000B0420BD0B0F1804F08D00E4EB04205D0A6
:101210000D4EB04202D00D4EB04206D14FF6FD76D3
:10122000314044F00106314305E04FF6F576314098
:1012300044F00106314302830184F0BD002C0140DB
:10124000003401400004004000080040000C004051
:10125000F0B50C461546002200210026078C4FF6FB
:10126000EF7C07EA0C070784028B018C4FF6FF77AF
:1012700007EA041640F6FF473A404FF6FF7707EAC1
:1012800003373A434FF6FF7707EA05273A43114FF2
:10129000B8420ED0104FB8420BD0B0F1804F08D0FA
:1012A0000E4FB84205D00E4FB84202D00D4FB84293
:1012B00006D14FF6DF77394046F01007394305E095
:1012C0004FF65F77394044F01007394302830184B9
:1012D000F0BD0000002C014000340140000400403B
:1012E00000080040000C0040F0B50C4615460022F6
:1012F00000210026078C4FF6FF6C07EA0C070784D5
:10130000828B018C4FF6FF7707EA04264FF60C77A5
:101310003A404FF6FF7707EA03172F433A43114F3E
:10132000B8420ED0104FB8420BD0B0F1804F08D069
:101330000E4FB84205D00E4FB84202D00D4FB84202
:1013400006D14FF6FF57394046F48077394305E020
:101350004FF2FF57394044F4807739438283018448
:10136000F0BD0000002C01400034014000040040AA
:1013700000080040000C0040F0B50C461546002265
:1013800000210026078C4EF6FF7C07EA0C07078435
:10139000828B018C4FF6FF7707EA043640F6FF4751
:1013A0003A404FF6FF7707EA05273A434FF6FF77B3
:1013B00007EA03373A43114FB8420ED0104FB842F4
:1013C0000BD0B0F1804F08D00E4FB84205D00E4F71
:1013D000B84202D00D4FB84206D14DF6FF773940E2
:1013E00046F48057394305E047F6FF57394044F447
:1013F0008057394382830184F0BD0000002C0140F6
:10140000003401400004004000080040000C00408F
:10141000F0B589B000270024002500260121022014
:10142000FFF790FD01210D20FFF79CFDC020ADF8D6
:10143000140018208DF8170003208DF8160005A958
:101440003848FFF71DFC0320ADF8140018208DF874
:10145000170003208DF8160005A93348FFF710FC8C
:1014600040F2E730ADF81C004720ADF8180000202E
:10147000ADF81E00ADF81A0006A92C4800F0A8FB34
:101480006020ADF804000120ADF80600ADF80A7048
:101490000020ADF80C0001A9244800F007FA08214B
:1014A000224800F04FFA0120ADF80600ADF80A50CE
:1014B0000020ADF80C0001A91C4800F04DFA0821ED
:1014C0001A4800F09BFA0120ADF80600ADF80A605A
:1014D0000020ADF80C0001A9144800F09DFA082185
:1014E000124800F0E9FA0120ADF80600ADF80A4014
:1014F0000020ADF80C0001A90C4800F0E7FA082123
:101500000A4800F021FB0121084800F007F90121F9
:10151000064800F021F90121044800F011F909B052
:10152000F0BD000000080140000C01400004004034
:1015300010B50121254800F03FF9002844D00120D2
:10154000FFF772FC2249096808442149086002201B
:10155000FFF76AFC1F49096808441E490860032018
:10156000FFF762FC1C49096808441B490860042015
:10157000FFF75AFC194909680844184908601848D7
:101580000068092817D117480368174802681748E8
:1015900001681748006801F037FA00201049086018
:1015A0000B4908600B4908600B4908600B4908604B
:1015B00001F0FAFB04E00A480068401C0849086092
:1015C0000121024800F0B9F810BD000000100040F1
:1015D000280000202C0000203000002034000020D3
:1015E0004800002044000020400000203C00002073
:1015F0003800002010B501214803FFF7B3FC01219A
:101600001020FFF7AFFC4248806940F40050404989
:1016100088610846806940F0100088613D48406854
:1016200020F0FF003B4948600846406840F0BB009E
:1016300048600846006820F07F400860084600685F
:1016400040F03B40086040F2E730334908804720D3
:10165000091F088030481438008840F060002E4987
:10166000143908800846008840F4C0400880081DEE
:10167000008840F06000091D08800846008840F49A
:10168000C0400880081F008840F00800091F08803B
:101690000846008840F400600880081D008840F07B
:1016A0000800091D08800846008840F40060088092
:1016B000081D008840F00100091D088008460088C8
:1016C00040F0100008800846008840F480700880D0
:1016D0000846008840F48050088000200E490831F8
:1016E0000880091D0880091D0880091D0880081D43
:1016F000008840F40040091D08804FF4004006496E
:101700002C3908800846008840F00100088010BD90
:1017100000100240001001402C34014021B1028829
:1017200042F08002028004E002884FF67F731A4084
:1017300002807047CA4302827047CA4302827047E0
:1017400021B1028842F00102028004E002884FF6D3
:10175000FE731A400280704731B1B0F8442042F461
:101760000042A0F8442005E0B0F84420C2F30E0285
:10177000A0F844207047F0B50C4615461E460021DF
:10178000002200230189028B038C4FF6F877394041
:1017900021434FF6FC473A4040F201173A434FF6D7
:1017A000DD773B404FF6FF7707EA06172F433B43B1
:1017B000018102830384F0BD30B50246002000237E
:1017C0000024158A05EA0103958905EA010413B18D
:1017D0000CB1012000E0002030BD000070B50546CE
:1017E0000C46244885420ED0234885420BD0B5F1E3
:1017F000804F08D02148854205D02148854202D03B
:101800002048854200D100E000BF208850B92389DC
:10181000A28861882846FFF7DBFCE188284600F0B3
:10182000ABF925E0208804280AD12389A2886188A1
:101830002846FFF70DFDE188284600F0A6F917E0DD
:10184000208808280AD12389A28861882846FFF7C2
:101850004BFDE188284600F0A5F909E02389A2881C
:1018600061882846FFF788FDE188284600F0A3F943
:1018700070BD0000002C0140003401400004004015
:1018800000080040000C004000210180418001213F
:1018900081800021C180018170471AB183890B4387
:1018A000838102E083898B438381704770B5002474
:1018B00000220023058C4FF6FE7635400584028C0D
:1018C0008388048B4FF68F752C40B51E2C400D88F5
:1018D0002C43751E2A400D892A434D882A43144DF6
:1018E000A8420BD0134DA84208D0134DA84205D0F2
:1018F000124DA84202D0124DA84213D14FF6F775EF
:101900002A404D892A434FF6FB752A408D882A4389
:101910004FF6FF652B404FF6FF552B408D892B432B
:10192000CD892B4383800483CD888586028470BD56
:10193000002C0140003401400040014000440140BF
:10194000004801400A460021018B4FF6F773194009
:10195000114301837047000070B50024002200236A
:10196000058C4FF6EF7635400584028C8388048B16
:1019700048F6FF752C404FF6FF452C400D884FF67A
:10198000FF7606EA05252C434FF6DF752A400D89C0
:1019900006EA05152A434D8806EA05152A43154D22
:1019A000A84202D0144DA8421DD14FF67F752A409F
:1019B0004D894FF6FF7606EA05152A434FF6BF75A7
:1019C0002A408D8806EA05152A434FF6FF352B403D
:1019D0004FF2FF752B408D8906EA85052B43CD8993
:1019E00006EA85052B4383800483CD88058702841E
:1019F00070BD0000002C0140003401400A46002167
:101A0000018B4FF2FF7319404FF6FF7303EA022375
:101A1000194301837047000070B5002400220023A1
:101A2000058C4FF6FF6635400584028C8388848BD5
:101A30004FF68F752C404FF6FC752C400D882C43CB
:101A40004FF6FF552A400D894FF6FF7606EA052529
:101A50002A434D8806EA05252A43154DA84202D09F
:101A6000144DA8421DD14FF2FF752A404D894FF603
:101A7000FF7606EA05252A434FF6FF352A408D8872
:101A800006EA05252A434EF6FF752B404DF6FF75F5
:101A90002B408D8906EA05152B43CD8906EA0515ED
:101AA0002B4383808483CD888587028470BD0000AA
:101AB000002C0140003401400A460021818B4FF682
:101AC000F7731940114381837047000070B50022FD
:101AD00000230024058C4EF6FF7635400584038CE8
:101AE0008488828B48F6FF752A404FF6FF452A40CE
:101AF0000D884FF6FF7606EA05252A434DF6FF7559
:101B00002B400D8906EA05352B434D8806EA05353D
:101B10002B430B4DA84202D00A4DA84208D14BF6E8
:101B2000FF752C408D894FF6FF7606EA85152C430C
:101B300084808283CD88A0F84050038470BD00006B
:101B4000002C0140003401400A460021818B4FF2F5
:101B5000FF7319404FF6FF7303EA02231943818391
:101B60007047818670470187704781877047A0F86A
:101B70004010704781847047028B4FF6F3731A4010
:101B80000283028B0A4302837047028B4FF2FF33BA
:101B90001A400283028B4FF6FF7303EA01231A43B4
:101BA00002837047828B4FF6F3731A408283828BD5
:101BB0000A4382837047828B4FF2FF331A4082833D
:101BC000828B4FF6FF7303EA01231A438283704727
:101BD000002202881D4B98420ED01D4B98420BD01C
:101BE000B0F1804F08D01B4B984205D01A4B984259
:101BF00002D01A4B984204D14FF68F731A404B888B
:101C00001A43174B984207D0164B984204D04FF610
:101C1000FF431A40CB881A4302808B8883850B8848
:101C200003850A4B98420BD0094B984208D00E4BC3
:101C3000984205D00D4B984202D00D4B984201D1ED
:101C40000B7A03860123838270470000002C014039
:101C5000003401400004004000080040000C004037
:101C600000100040001400400040014000440140CA
:101C7000004801404FF6FF71818000210180C18042
:101C8000418001727047000010B540F225512C4888
:101C900000F0C7F8002852D0294800F07DF9294902
:101CA000294AB2F90020885408462749B1F90010A2
:101CB000405C30380A2841D2DFE800F02C050C12D5
:101CC000191F264040331E224FF07E51002000F0A5
:101CD00027FE33E01E221D49002000F021FE2DE0EA
:101CE0001E2200214FF07E5000F01AFE26E01E2238
:101CF0000021164800F014FE20E01E224FF07E5115
:101D0000084600F00DFE19E01E221049084600F0BA
:101D100007FE13E000224FF07E51084600F000FE5F
:101D20000CE01E200A49086040420A4908601E2053
:101D30000949086040420949086000BF00BF10BD62
:101D400000480040D40000204C000020000080BF6C
:101D5000380000203C00002040000020440000200B
:101D600021B1828942F40052828104E082894DF6D9
:101D7000FF731A408281704700B585B001210820A9
:101D8000FFF7F0F801218804FFF7DCF84FF48060DA
:101D9000ADF8100018208DF8130003208DF8120004
:101DA00004A91748FEF76CFF4FF40060ADF810006F
:101DB00004208DF8130004A91148FEF761FF4FF4C9
:101DC000E13000900020ADF80400ADF80600ADF859
:101DD0000800ADF80C000C20ADF80A00694609486F
:101DE00000F06EF8FFF755F8012240F22551054842
:101DF00000F041F801210348FFF7B2FF05B000BD34
:101E0000000C01400048004002460020B1F5007F70
:101E100000D100BF13880B400BB1012000E000206F
:101E2000704770B50246002400230025002040F6CC
:101E30006A16B14200D100BFC1F3421501F01F0381
:101E4000012606FA03F3012D02D19689334006E0FC
:101E5000022D02D1168A334001E0968A33400C12DB
:101E6000012606FA04F41688344013B10CB101209F
:101E700000E0002070BDF0B50346002400260025D8
:101E8000002040F66A17B94200D100BF1846C1F3DE
:101E9000421401F01F06012707FA06F5012C01D1B3
:101EA0000C3004E0022C01D1103000E014301AB1E3
:101EB00007682F43076002E00768AF430760F0BD83
:101EC0002DE9F04786B005460E460024A24600BF25
:101ED000A1460027B08900B100BF2F462C8A4CF6DE
:101EE000FF700440F08804432C82AC894EF6F31056
:101EF0000440B08831890843718908430443AC81A8
:101F0000AC8A4FF6FF400440B0890443AC8201A87C
:101F1000FFF738F81F48874202D1DDF810A001E032
:101F2000DDF80CA0A88900F4004040B10AEBCA001B
:101F300000EB0A1031684900B0FBF1F807E00AEB4A
:101F4000CA0000EB0A1031688900B0FBF1F8642088
:101F5000B8FBF0F004012009642101FB1089A88975
:101F600000F4004040B1322000EBC900B0FBF1F0BA
:101F700000F00700044308E0322000EB0910642160
:101F8000B0FBF1F000F00F0004432C8106B0BDE877
:101F9000F08700000038014001468888C0F308003F
:101FA0007047C1F308028280704700BFFEE700005F
:101FB0000FB4054B10B503A9044A029800F0DAF8F3
:101FC00010BC5DF814FB0000E9280008D0000020D8
:101FD00002E008C8121F08C1002AFAD170477047F2
:101FE000002001E001C1121F002AFBD17047000050
:101FF0002DE9FF5F82B00021DDE90430020DDDF83C
:1020000040B0034318D044F61050A2F2FF324243CE
:102010001514119801281FD0A5EB0B00401C5FEA96
:10202000000A4FF000064E4FDFF83891B046504698
:1020300015D5CAF1000413E0119801244AA3012820
:1020400001D16FEA0B010298119AC0E90031C0E991
:10205000024206B0BDE8F09FCBF10000DFE7044686
:102060000021404A491842EB0450CDE9001012E02B
:10207000E00707D032463B4640464946FEF7E3F9C3
:102080008046894632463B4610461946FEF7DBF944
:1020900006460F466410002CEAD1DDE90401DDE9B3
:1020A0000023BAF1000F06DAFEF7CDF942464B469F
:1020B000FEF7C9F905E0FEF773FB42464B46FEF713
:1020C0006FFB04460E460022284BFEF7F1FB03D8B7
:1020D0004FF0FF30014607E00022254B20463146F5
:1020E000FEF70AF9FEF7CBFB102409E0002C0ADB0F
:1020F0000A220023FEF76EFA039B30321A55641E43
:1021000050EA0102F2D1641C039AC4F11103144491
:10211000119A012A03D0012208430DD10AE0084395
:1021200004D000204FF0110B119072E7A3EB0B05C8
:102130006D1E0DE05B4504DD4FF0000205F1010569
:1021400004E003DA4FF00002A5F10105002AECD00B
:1021500002981199C0E90231C0E9004579E7000011
:10216000000014400000F03F300000000000F04389
:102170000000E03F2DE9FF4F95B09B46894606469B
:1021800000250FE2252877D100242746F84A0121AF
:10219000059400E0044316F8013F203B01FA03F0E8
:1021A0001042F7D130782A2811D06FF02F03307801
:1021B000A0F13002092A16D8059A44F0020402EB75
:1021C000820203EB42021044761C0590EFE759F8B7
:1021D000042B0592002A03DA504244F4005405907F
:1021E00044F00204761C30782E2816D116F8010F20
:1021F00044F004042A280DD06FF02F023078A0F1AB
:102200003003092B09D807EB870302EB4303C718F8
:10221000761CF3E759F8047B761C30786C280FD0D5
:1022200006DC4C2817D068280DD06A2814D104E0A9
:10223000742810D07A280FD10DE044F400140AE07D
:1022400044F4801401E044F440147278824202D1D4
:1022500004F58014761C761C307866280BD013DCCD
:10226000582877D009DC002875D04528F6D04628B4
:10227000F4D047281AD19DE118E0632835D06428AE
:1022800079D0652812D195E1702873D008DC6728D1
:10229000F1D069286FD06E280DD06F2806D1B5E037
:1022A00073282CD0752875D0782874D05A46179981
:1022B00090476D1C75E1C4F30250022809D0032831
:1022C0000DD0D9F8001004280DD00D6009F10409D3
:1022D00067E1D9F80010EA17C1E90052F6E7D9F82A
:1022E00000100D80F2E70D70F0E719F8041B8DF86F
:1022F000001000208DF80100EA46012003E059F8A3
:1023000004AB4FF0FF3061074FF0000102D40DE045
:1023100008F101018846B9420FDA8045F8DB1AF866
:1023200008100029F4D108E008F101018846814233
:10233000FADB1AF808100029F6D105985B46A0EBE5
:10234000080721463846179A00F094FA284400EB13
:10235000080507E04DE029E10DE01AF8010B5A46A7
:1023600017999047B8F10108F7D25B4621463846E5
:10237000179A13E142E00A220092C4F302524FF08E
:10238000000A022A08D059F804CB032A4FEAEC715C
:102390000AD00DE029E02AE009F1070121F0070247
:1023A000F2E802C1914609E00FFA8CFC4FEAEC71A9
:1023B000042A03D14FFA8CFC4FEAEC71002907DAAA
:1023C0000A460021DCF1000C61EB02012D2202E043
:1023D000220504D52B228DF80420012203E0E20718
:1023E00001D02022F7E7904659E00A2102E01022AE
:1023F0000DE010214FF0000A00910BE010224FF089
:10240000000A44F004040827009203E008224FF079
:10241000000A0092C4F30252022A05D059F804CBF4
:102420000021032A08D009E009F1070121F0070281
:10243000F2E802C1914605E01FFA8CFC042A01D1A2
:102440000CF0FF0C4FF00008220728D5702806D0AA
:10245000009B83F0100353EA0A0305D00EE04022EC
:102460008DF80420012208E05CEA010206D0302247
:102470008DF804208DF8050002229046009B83F021
:10248000080353EA0A030AD15CEA010201D1620798
:1024900005D530228DF804204FF001087F1E582802
:1024A00004D034A003900EA802900DE036A0F9E706
:1024B00053466046009AFEF78DF884460398825C86
:1024C0000298401E029002705CEA0100F0D102986E
:1024D00006A9081A00F1200A600702D524F4803406
:1024E00000E00127574502DDA7EB0A0000E00020CD
:1024F00000EB0A01009005984144401A0590E00362
:1025000006D45B462146179A059800F0B3F90544B6
:10251000002706E001A85A46C05D179990476D1C38
:102520007F1C4745F6DBE0030CD55B462146179A36
:10253000059800F09FF9054404E030205A461799A9
:1025400090476D1C0099481E00900029F5DC08E0BA
:10255000029802995A460078491C029117999047AF
:102560006D1CBAF10001AAF1010AF1DC65E100007D
:102570000928010030313233343536373839616259
:10258000636465660000000030313233343536371D
:1025900038394142434445460000000000F058F9F4
:1025A0000544761C307800287FF4ECAD19B028463D
:1025B000BDE8F08F620700D4062709F1070222F078
:1025C000070CFCE80223E14603F000485FEA080C30
:1025D00002D00FF2702C0DE05FEA045C02D50FF21E
:1025E000682C07E05FEAC47C02D00FF2602C01E0A7
:1025F000AFF2700C4FF0FF3823F00043CDF850C01D
:1026000065280CD006DC452809D046281DD047286F
:102610003DD13DE0662818D067287ED138E0002102
:10262000112F01DB112000E0781CCDE9000106A983
:102630000EA8FFF7DDFCDDE90F010E9A03910021E2
:10264000009207F1010A04914DE04FF0004000971D
:10265000CDE9011006A90EA8FFF7CAFCDDE90F02BB
:1026600003920E9B11990022DDF80CA000930492B6
:1026700011B9791C00EB010AB7EB0A0004D4C0F1D0
:10268000FF3007F1010A0490AAEB0700019044E033
:10269000012F00DA01270021112F01DD112000E0B8
:1026A0003846CDE9000106A90EA8FFF7A1FCDDE937
:1026B0000F010E9A0391002104910092BA4621075E
:1026C0000CD40399514500DA8A46BAF1010F05DDB1
:1026D000009AAAF10101515C302908D0B84202DA0F
:1026E00010F1040F06DA0121CDE9011015E0AAF17D
:1026F0000101E9E7002805DC049901440491AAEBF3
:10270000000102E0411C514500DD8A460499401A4F
:10271000401C01904FF000400290200704D4019823
:10272000504501DBCDF8048000208DF84F00029861
:102730000DF14F07B0F1004F25D02B200E900298DD
:102740004FF0020800280CDA404202902D200E9033
:1027500007E00A210298FDF727FF3031029007F8C1
:10276000011DB8F10001A8F10108F2DC029800286F
:10277000EFD1791E0E980870307800F0200040F0FC
:10278000450007F8020D12A8C01B00F107081498B5
:10279000007800B1012000EB0A01019801EBE07123
:1027A00005984144401A401E0590E00306D45B465C
:1027B0002146179A059800F05DF8054414980078B2
:1027C00018B15A46179990476D1CE00324D55B4613
:1027D0002146179A059800F04DF805441CE004982E
:1027E000002807DBDDE90301884203DD0098405C37
:1027F000179901E0179930205A469047049805F13F
:102800000105401C04900198401E019004D12E2027
:102810005A46179990476D1CBAF10001AAF1010AB6
:10282000DDDC05E017F8010B5A46179990476D1C3F
:10283000B8F10001A8F10108F4DC5B462146179AC3
:102840000598ABE62D0000002B00000020000000E2
:102850002DE9F041044600251E461746880404D49D
:1028600005E039462020B0476D1C641EF9D5284686
:10287000BDE8F0812DE9F041044600251E46904652
:10288000C80301D5302700E02027880404D505E0DF
:1028900041463846B0476D1C641EF9D52846BDE850
:1028A000F081000010B56FF00400FEF74BFC0A4801
:1028B00000680A49B0FBF1F0094908700846007841
:1028C00000EB4001C1EBC0104FF6FF7101EAC00000
:1028D0000449088010BD00000000002000127A00AA
:1028E0004E0000205000002070B504460D46E1B2B5
:1028F0000548FFF756FB00BF80210348FFF784FA25
:102900000028F9D0204670BD0048004001468A8C5E
:10291000A2F5FE42FF3A10B247F6FF728A84704772
:102920002DE9F05F0646884615461B480068FDF70E
:10293000FCFD82463146FDF76CFC81461748006875
:10294000FDF7F3FD82464146FDF763FC0746002193
:102950003846FDF71FFE01D1114C08E049463846C4
:10296000FDF754FC82463946FDF788FC04460D48C5
:1029700005600D4805602846FDF7D7FD83462146D2
:10298000FDF74AFC8246FDF7D9FD08490860084971
:102990000860BDE8F09F000084000020880000204F
:1029A000000080BF440000203800002040000020CC
:1029B0003C000020FFF7E0F9FFF774FF10A0FFF7DD
:1029C000F7FAFEF75FFAFEF741F8FEF705F9FEF7B2
:1029D000AFF8FDF7E5FF0021012000F081FA0021AA
:1029E000022000F07DFA0021032000F079FA002196
:1029F000042000F075FAFDF795FF00BFFEE7000028
:102A0000C4E3CAC7D6ED00002DE9F04F8DB0804673
:102A1000894692469B4601200C900B900A900990A3
:102A2000BA4800680A2190FBF1F0B8490860B8483C
:102A300000680A2190FBF1F0B5490860B5480068CC
:102A40000A2190FBF1F0B3490860B34800680A21FD
:102A500090FBF1F0B0490860084601A9A1E8000F19
:102A600000680090AB480368A9480268A74801685D
:102A7000AAA0FFF79DFAA5480068A8EB0004A448A7
:102A80000068A9EB0005A3480068AAEB0006A2486D
:102A90000068ABEB0007A84800682044A64908601E
:102AA000A64800682844A5490860A5480068304445
:102AB000A3490860A34800683844A2490860A249B5
:102AC0000968022202FB1141A04A12688818FDF72A
:102AD0002CFD03909E4801680398FDF79DFB05902F
:102AE00095480068FDF721FD01909A48016801981A
:102AF000FDF792FB03902046FDF717FD01909648E5
:102B000001680198FDF788FB02900399FDF72CFB03
:102B100004900599FDF728FB079090480068FDF7A1
:102B200004FD06900799FDF71FFB0890FDF706FDD1
:102B30008A4908608A490968022202FB1151894AC0
:102B400012688818FDF7F1FC039087480168039824
:102B5000FDF762FB059079480068FDF7E6FC0190FF
:102B6000824801680198FDF757FB03902846FDF75E
:102B7000DCFC01907E4801680198FDF74DFB029056
:102B80000399FDF7F1FA04900599FDF7EDFA079026
:102B900078480068FDF7C9FC06900799FDF7E4FA4C
:102BA0000890FDF7CBFC734908607349096802225D
:102BB00002FB1161714A12688818FDF7B6FC039098
:102BC0006F4801680398FDF727FB05905C48006893
:102BD000FDF7ABFC01906B4801680198FDF71CFB09
:102BE00003903046FDF7A1FC019067480168019809
:102BF000FDF712FB02900399FDF7B6FA04900599D0
:102C0000FDF7B2FA079061480068FDF78EFC069068
:102C10000799FDF7A9FA0890FDF790FC5B49086059
:102C20005B490968022202FB11715A4A126888182E
:102C3000FDF77BFC0390584801680398FDF7ECFA18
:102C4000059040480068FDF770FC0190534801680A
:102C50000198FDF7E1FA03903846FDF766FC019014
:102C60004F4801680198FDF7D7FA02900399FDF7E4
:102C70007BFA04900599FDF777FA079049480068B8
:102C8000FDF753FC06900799FDF76EFA0890FDF7E3
:102C900055FC444908602C4800682C4908603048BD
:102CA0000068304908603448006834490860384892
:102CB00000683849086024480460294805602E48A7
:102CC000066033480760254800680C9A00FB02F153
:102CD000012000F005F9274800680B9A00FB02F17B
:102CE000022000F0FDF8294800680A9A00FB02F172
:102CF000032000F0F5F82B480068099A00FB02F168
:102D0000042000F0EDF80DB0BDE8F08F28000020A1
:102D10002C000020300000203400002025642C25E9
:102D2000642C25642C25642C25642C25642C2564B6
:102D30002C25642C00000000A0000020AC00002026
:102D4000B8000020C4000020A4000020A80000203B
:102D50005C0000205800002054000020900000205B
:102D6000B0000020B40000206800002064000020B3
:102D70006000002094000020BC000020C000002063
:102D800074000020700000206C00002098000020DB
:102D9000C8000020CC000020800000207C00002023
:102DA000780000209C0000202DE9FF473C48007877
:102DB000012806D002281FD0032838D004286CD15F
:102DC00050E038480068FDF7D2FB04460D4636480F
:102DD0000068FDF7CCFB06460F4634480068FDF757
:102DE000C6FB804642460B4631A0CDE90067CDE9DF
:102DF0000245FFF7DDF850E030480068FDF7B7FB0B
:102E000004460D462E480068FDF7B1FB06460F4606
:102E10002C480068FDF7ABFB804642460B4624A0D9
:102E2000CDE90067CDE90245FFF7C2F835E0264855
:102E30000068FDF79CFB04460D4624480068FDF73A
:102E400096FB8046894622480068FDF790FB0646BF
:102E500032460B4616A0CDE90089CDE90245FFF7C1
:102E6000A7F81AE01B480068FDF781FB04460D46F1
:102E700019480068FDF77BFB06460F4617480068B7
:102E8000FDF775FB804642460B4609A0CDE9006779
:102E9000CDE90245FFF78CF800BF00BFBDE8FF8712
:102EA0008C0000205C00002058000020540000200E
:102EB00025662C25662C25660A0000006800002087
:102EC00064000020600000207400002070000020DA
:102ED0006C000020800000207C0000207800002092
:102EE00070B506460C460125B4F57A7F02DB40F248
:102EF000E73005E014F57A7F01DC2F4800E020463A
:102F00000446002C01DA00256442012E06D0022E70
:102F100017D0032E28D0042E4CD138E045B1A1B2F1
:102F20002648FEF71EFE00212448FEF71CFE07E09F
:102F3000A1B22248FEF717FE00212048FEF711FE3D
:102F400038E045B1A1B21D48FEF711FE00211B4833
:102F5000FEF70BFE07E0A1B21848FEF706FE0021BF
:102F60001648FEF704FE25E045B1A1B21448FEF76D
:102F7000FCFD00211248FEF7FAFD07E0A1B210485F
:102F8000FEF7F5FD00210E48FEF7EFFD12E045B11A
:102F9000A1B20B48FEF7E7FD00210948FEF7E1FD6D
:102FA00007E0A1B20648FEF7DCFD00210448FEF769
:102FB000DAFD00BF00BF70BD19FCFFFF0034014007
:102FC00000040040E42F000800000020D4000000AE
:102FD000D01F0008B8300008D400002014040000FE
:102FE000E01F000800A24A040000000000000000EA
:102FF000010203040607080900000000010203049F
:103000000102030406070809020406080000000084
:103010000000000000000000000000001E00000092
:103020001E0000001E0000001E0000000000000046
:1030300000000000000000009A99593F8FC2753CC3
:10304000000000003333733F0AD7A33C00000000A8
:103050006666663FBC74933C000000006666663F8F
:103060000AD7A33C000000000000000000000000A0
:10307000010000000000000000000000000000004F
:103080000000000000000000000000000000000040
:103090000000000000000000000000000000000030
:1030A0000000000000000000000000000000000020
:0830B000000000000000000018
:0400000508000131BD
:00000001FF
