:020000040800F2
:10000000D86E00205D0200087D360008652B0008D0
:100010002136000897090008D13F000800000000C1
:100020000000000000000000000000009D0100082A
:10003000510B000800000000F901000849380008D1
:1000400077020008770200087702000877020008AC
:10005000770200087702000877020008770200089C
:100060007702000877020008770200089909000863
:10007000A5090008E9090008F50900087702000849
:10008000010A0008770200087702000877020008DA
:10009000770200087702000877020008770200085C
:1000A000770200087702000877020008770200084C
:1000B0004D390008593900086539000877020008F1
:1000C000770200087702000877020008770200082C
:1000D00077020008A13F0008AD3F0008B93F0008C3
:1000E000770200087702000877020008770200080C
:1000F00077020008770200087702000877020008FC
:1001000077020008770200087139000877020008BA
:10011000FD3B0008093C00087D39000889390008CA
:1001200077020008450A0008890A000877020008DB
:1001300077020008770200087702000877020008BB
:1001400077020008770200087702000877020008AB
:1001500077020008950A0008A10A0008C53F0008B8
:10016000770200087702000877020008770200088B
:1001700077020008770200087702000800000000FC
:100180007702000877020008DFF80CD000F0C6FB09
:1001900000480047D55F0008D86E00202C4B196836
:1001A0000868B0E8F04F80F30988BFF36F8F4FF015
:1001B000000080F3118870470000000008480068C4
:1001C000006880F308884FF0000080F3148862B65E
:1001D00061B6BFF34F8FBFF36F8F00DF00BF00BF6B
:1001E00008ED00E0DFF80C00016841F470010160E7
:1001F000704700BF88ED00E0EFF30980BFF36F8F19
:10020000134B1A681EF0100F08BF20ED108A20E96A
:10021000F04F106009B44FF0500080F31188BFF325
:100220004F8FBFF36F8F07F0B9FA4FF0000080F3E4
:10023000118809BC19680868B0E8F04F1EF0100F6B
:1002400008BFB0EC108A80F30988BFF36F8F704746
:1002500058040020EFF305807047000006488047EF
:1002600006480047FEE7FEE7FEE7FEE7FEE7FEE79B
:10027000FEE7FEE7FEE7FEE73139000889010008E6
:100280002DE9F05F0546002092469B4688460646CB
:10029000814640241BE0284641464746224600F05E
:1002A00057FA53465A46C01A914110D31146184680
:1002B000224600F03EFA2D1A67EB01084F4622460F
:1002C0000120002100F035FA17EB00094E41201EF5
:1002D000A4F10104DFDC484631462A464346BDE826
:1002E000F09F40EA01039B0703D009E008C9121FF1
:1002F00008C0042AFAD203E011F8013B00F8013BE0
:10030000521EF9D27047D2B201E000F8012B491E0B
:10031000FBD270470022F6E710B513460A460446A2
:100320001946FFF7F0FF204610BD421C10F8011BD4
:100330000029FBD1801A70472DE9FE4F804681EAE3
:100340000300C00F0C46009021F0004123F000454F
:10035000B8EB0200A94105D24046214690461C4612
:100360000B46024623F00040104347D0270DC7F349
:100370000A00C3F30A510290401A019040286BDA38
:10038000C3F3130040F4801B0098924620B1002371
:10039000D2EB030A63EB0B0B01985946C0F1400204
:1003A000504600F0C6F906460D4650465946019A99
:1003B00000F0DEF910EB08006141002487EA1152D9
:1003C00084EAE7731A4340D0009A62B3019A012A83
:1003D0004FEA075215DC001B61EB02014FF00042AF
:1003E00002EA0752CDE90042001C41F58011324675
:1003F0002B4600F015FA03B0BDE8F08F40462146C9
:10040000F9E7001B61EB0201001C41F580130018A5
:100410005B412018A2F5001747EB030140EAD570B5
:10042000B6196D4111E06D084FEA360645EAC07510
:100430004FEA0752001B61EB0201001C41F58011DD
:1004400049084FEA30000019514132462B4603B0AB
:10045000BDE8F04F00F0D5B900980122400000231C
:10046000D0EB020263EBE073009821464FEAE074A0
:10047000B8EB000061EB0401E9E783F000435BE7C0
:1004800081F0004158E72DE9FE4F81EA030404F0B2
:10049000004421F0004100944FF0000B23F0004392
:1004A00050EA01045ED052EA03045BD0C3F30A545D
:1004B000C1F30A552C44A4F2F3340194A0FB025476
:1004C000C1F3130141F48011C3F3130343F4801308
:1004D00001FB024400FB034E840A970A44EA81545C
:1004E00047EA8357A4FB076802958D0A05FB078539
:1004F0004FEA932C04FB0C542705029D4FEA065843
:1005000047EA1637B5EB08056EEB070C870E920E1F
:1005100047EA811742EA8312A7FB0201B6EB0B01FF
:1005200064EB00042B0D43EA0C335E1844EB1C50C3
:10053000DA465146E7FB0201C5F313044FEA0B33D9
:1005400043EA14534FEA0432019C43EA0603A4F140
:100550000C040294009CCDE900B400F061F903B0F2
:10056000BDE8F08F00200146F9E72DE9F04D81EA62
:10057000030404F0004B21F0004514464FF0000A3C
:1005800023F0004150EA050220D054EA01021DD0B8
:10059000C5F30A570246C5F31303C1F31300C1F3B1
:1005A0000A5640F4801543F48013A7EB0608101B8D
:1005B000D64608F2FD3873EB050002D308F10108B6
:1005C00001E092185B41B8F1000F03DA0020014608
:1005D000BDE8F08D00204FF48011064684460EE001
:1005E000171B73EB050705D3121B63EB05030643CB
:1005F0004CEA010C49084FEA300092185B4150EA7E
:100600000107EDD152EA030012D082EA040083EA26
:100610000501084305D0101BAB4106D2012200237F
:1006200006E000224FF0004302E06FF00102531099
:100630001AEB06004CEB085110EB0A0041EB0B01E2
:10064000BDE8F04D00F0DDB80EB5C10F80EAE070F6
:100650000844CA07002140F233438DE80E000A46E1
:100660000B4600F0DDF803B000BD70B5C1F30A52CF
:1006700001F000450024C1F3130140F2FF3341F4BF
:1006800080119A4201DA002070BD40F233439A4251
:10069000A2F2334203DC524200F05AF800E09040EC
:1006A0002C43F1D0404270BD00F0004230F00040D9
:1006B0000AD0C10D01F56071C0F3160042EA015184
:1006C000C20840071143704700200146704701F0FF
:1006D000004330B421F0004150EA010206D00A0D77
:1006E000A2F56072C1F31301002A02DC30BC0020C5
:1006F0007047440F44EAC104C100E01830BC00EB6D
:10070000C25000F047B830B50B4601460020202209
:10071000012409E021FA02F59D4205D303FA02F50E
:10072000491B04FA02F52844151EA2F10102F1DC6E
:1007300030BD202A04DB203A00FA02F10020704785
:100740009140C2F1200320FA03F31943904070470F
:10075000202A04DB203A21FA02F00021704721FA16
:1007600002F3D040C2F1200291400843194670477D
:10077000202A06DBCB17203A41FA02F043EAE07365
:1007800006E041FA02F3D040C2F120029140084352
:10079000194670470029A8BF7047401C490008BF90
:1007A00020F00100704710B4B0FA80FC00FA0CF0A1
:1007B00050EA010404BF10BC704749B1CCF12004D9
:1007C00021FA04F411FA0CF118BF01212143084366
:1007D000A3EB0C01CB1D4FEA00614FEA102042BF92
:1007E000002010BC704700EBC35010440029A4BF88
:1007F00010BC7047401C490008BF20F0010010BC2D
:10080000704710B5141E73F1000408DA401C41F162
:10081000000192185B411A4301D120F0010010BD84
:100820002DE9F04D92469B4611B1B1FA81F202E0FA
:10083000B0FA80F220329046FFF77BFF04460F4665
:1008400040EA0A0041EA0B0153465A46084313D0D6
:10085000114653EA010019D0C8F140025046FFF793
:1008600077FF05460E46504659464246FFF761FF60
:10087000084305D0012004E020463946BDE8F08D4C
:100880000020054346EAE0762C4337430A98630587
:10089000E40AA0EB08000022FD0A44EA47540A30AB
:1008A00002D500200146E9E7010510196941DDE99B
:1008B000084500196941BDE8F04DA2E7C1F30A52AD
:1008C000C1F3130140F2FF3341F480119A4202DA7E
:1008D00000200146704740F233439A42A2F233426D
:1008E00002DC5242FFF734BFFFF723BF30B5041ECE
:1008F00071F1000404DB4FF00044404264EB01015D
:10090000141E73F1000405DB1C464FF000435242F5
:1009100063EB0403994208BF904230BD064C074D7B
:1009200006E0E06840F0010394E8070098471034BF
:10093000AC42F6D3FFF72CFC1C8600083C8600086E
:1009400070B58C1810F8015B15F0070301D110F891
:10095000013B2A1106D110F8012B03E010F8016BBE
:1009600001F8016B5B1EF9D12B0705D40023521E41
:100970000DD401F8013BFAE710F8013BCB1A921CA9
:1009800003E013F8015B01F8015B521EF9D5A142A7
:10099000D8D3002070BDFEE7014800F0C5BA0000C2
:1009A000A426002008B5002000900B48007870B104
:1009B0000A486946006807F0B1F8009838B108495C
:1009C0004FF080500860BFF34F8FBFF36F8F054823
:1009D00000F0AAFA08BD0000C0030020D0030020E8
:1009E00004ED00E024280020014800F09DBA00003A
:1009F00044260020014800F097BA00008428002017
:100A000008B5002000900B48007870B10A4869468C
:100A1000006807F083F8009838B108494FF080501B
:100A20000860BFF34F8FBFF36F8F054800F07CFA6B
:100A300008BD0000C0030020CC03002004ED00E04E
:100A4000C427002008B5002000900B48007870B142
:100A50000A486946006807F061F8009838B108490B
:100A60004FF080500860BFF34F8FBFF36F8F054882
:100A700000F05AFA08BD0000C0030020D403002093
:100A800004ED00E0E4280020014800F04DBA000029
:100A900004270020014800F047BA00004429002044
:100AA000014800F041BA00006427002001681823C3
:100AB000CAB2103AB2FBF3F2054B6FF30901032AF5
:100AC0009B5CC36500D9091D81650846704700001D
:100AD0005885000810B5014600208B698A6A4FF0DE
:100AE000C07453B1B3F5005F15D072B1012A0CD0B8
:100AF000022A0AD0032A09D104E01AB1012A06D039
:100B0000022A03D1C96AC90100D5012010BDC96AF2
:100B1000A142FAD010BD002AF7D0012AF2D0022A51
:100B2000F3D0032AF3D010BD30B50468256825F44E
:100B300080252560046863608368402B036803D0C8
:100B400099600068C26030BD9A600068C16030BDC5
:100B5000704772B6FEE710B590B0044603AA322182
:100B6000684602F0C7FD6946204600F025F8684651
:100B700002F08DFD401E81B2684602F0A6FD10B065
:100B800010BD7FB516460D46044603AA03216846EC
:100B900002F0B0FD2946684602F0FDFD3146684688
:100BA00002F010FE0DF10D0303220921204600F092
:100BB00003F904B0002070BD70B50D4604460188ED
:100BC000284602F0FFFDA178284602F0E4FDE17816
:100BD000284602F0E0FDE278211D284602F0DDFD06
:100BE000284602F05FFD01462846BDE8704002F04D
:100BF000D2BD000037B58EB0154604460FAB0122BA
:100C00000A2100F0D9F86946204600F04FF80400A8
:100C100015D19DF804009DF83C10884202D00720B1
:100C200011B030BDBDF90500FFF70EFD9FED051BAE
:100C300053EC112BFFF799FCFFF749FD2860204684
:100C4000EEE70000000000000000244037B58EB041
:100C5000154604460FAB0122102100F0ADF869469D
:100C6000204600F023F8040019D19DF804009DF8F7
:100C70003C10884202D0072011B030BD9DF808100A
:100C8000DDF8050061F31F60FFF7DEFC9FED051B3B
:100C900053EC112BFFF769FCFFF719FD2860204684
:100CA000EAE7000000000000000024402DE9F041C8
:100CB0000646002081F83700074605460C466420AA
:100CC00002F092FD63E0B06802F0E1FC78B394F8C2
:100CD000370001071AD5B06802F05BFD84F83600D2
:100CE00094F8370040F0100084F837002046FFF7F2
:100CF00032FF94F83610884204D002F083FD0620BB
:100D0000BDE8F08102F07EFD0020F9E741070FD534
:100D1000B06802F03EFDE1197F1C0871E078FFB277
:100D2000B84234D194F8370040F0080010E02EE0CB
:100D3000810710D5B06802F02CFDE0702D2803D992
:100D400002F060FD0520DBE794F8370040F0040076
:100D500084F837001BE0C0070ED0B06802F019FD20
:100D6000A070112803D902F04DFD0420C8E794F8C3
:100D7000370040F00200EBE715B1052D0DD005E07E
:100D8000B06802F006FD0546052800D0002502F0F7
:100D900047FD002897D00220B2E7B06802F0F9FCC6
:100DA00045EA0025A5F5E0500538EFD1258094F8F7
:100DB000370040F00100CBE770B58EB0044644F632
:100DC0001240ADF800008DF802108DF803200021CC
:100DD000684603E05D5C4618491C35719142F9DBB9
:100DE0006168FFF7E9FE204603F0F3F80EB070BD2E
:100DF0002DE9F04116462DED028B86B00F46804658
:100E00001D46B0EE408A03AA072168460E9C02F0F8
:100E100071FC18EE100A1D49884202DD9FED1C8A04
:100E200006E018EE100A1B49884201D99FED1A8A84
:100E30003946684602F0AFFCB2EE040A28EE000A1A
:100E4000BDEEC00A10EE100A01B2684602F0B4FC12
:100E50003146684602F0B6FC2946684602F0B2FC0C
:100E60000DF10D03072208214046FFF7A5FF5CB1F5
:100E70000022B0EE480A3946404600F00FF806B0AE
:100E8000BDEC028BBDE8F0810020F8E700003443A0
:100E900000003443000034C3000034C32DE9F043A4
:100EA000174E15462DED028B81B0B0EE408A884674
:100EB0008146002442F210776A464146484615B101
:100EC000FFF7C4FE01E0FFF795FE9DED000A38EE46
:100ED000400AF0EEC00A10EE900AB04205DC002095
:100EE00001B0BDEC028BBDE8F083641CA4B2BC422F
:100EF00001D30120F4E7642002F09CFCDCE7000051
:100F0000CDCC4C3F90F83510022903D080214165AB
:100F100001207047052180F835100068016821F034
:100F200001010160002070472DE9F84304464FF0AD
:100F30000009CDF8009063484FF41651A56D006884
:100F4000B0FBF1F72E6894F85C10082000FA01F16C
:100F500031420FD021680A6852070BD50A6822F087
:100F600004020A6094F85C108840A860606D40F04C
:100F70000100606594F85C104FF0010808FA01F078
:100F8000304208D021684969090604D5A860606D1F
:100F900040F00200606594F85C1004208840304204
:100FA00008D021680968890704D5A860606D40F001
:100FB0000400606594F85C1010208840304218D01E
:100FC00021680968090714D5A860206801684903E9
:100FD00004D50068000308D5A16C07E00168C905C5
:100FE00003D4016821F008010160216C09B1204699
:100FF000884794F85C1020208840304231D0216826
:101000000968C9062DD5A86094F835000528206820
:10101000016806D0490347D5006800031DD4616C00
:101020001CE021F0160101602068416921F0800177
:101030004161206C08B9A06C20B12068016821F0E2
:101040000801016094F85C103F208840A86084F893
:10105000349084F83580216D1FE0E16B09B12046A2
:101060008847606D00282BD0606DC00714D0052024
:1010700084F835002068016821F0010101600098C2
:10108000401C0090B84203D820680068C007F6D121
:1010900084F8349084F83580E16C002910D001B0D8
:1010A0002046BDE8F04308470168C905D5D401686A
:1010B00021F01001016084F8349084F83580CCE789
:1010C000BDE8F883540400202DE9F041044600F007
:1010D00091F906465CB1002584F83450022084F86A
:1010E00035002068016821F0010101600DE0012058
:1010F000BDE8F08100F07EF9801B052805D920208D
:101100006065032084F83500F2E720680068C007B6
:10111000F0D12268116820480140D4E90103184346
:10112000D4E903363343184363691843A36918436A
:10113000E3691843236A18430843616A042903D109
:10114000D4E90B1319430843106020684069666AAC
:1011500020F0070130460E43012704280CD1A06A75
:101160000643E06A40B12046FFF7B4FC20B14020BE
:10117000606584F83570BAE7206846612046FFF75D
:1011800095FC94F85C203F2191408160656584F86E
:1011900035700020ACE700003F8010F02DE9F041F1
:1011A0000446866D90F83400002501280DD00120FA
:1011B00084F8340094F835700020012F07D084F8AB
:1011C000340002252846BDE8F0810220FBE7022713
:1011D00084F8357060652046FFF7A6FC94F85C1033
:1011E0003F208840B0602068016841F0160101602E
:1011F000206C20B12068016841F00801016020687E
:10120000016841F001010160DCE7000070B50446AF
:1012100000F0F0F80546601C02D004480078044451
:1012200000F0E8F8401BA042FAD370BD480400204B
:101230002DE9F84F00224FF0010803254FF00F0E63
:101240000B6808FA02F42340A3426ED14E68012EC7
:1012500005D0022E03D0112E01D0122E12D1866895
:101260004FEA420C05FA0CF7BE43CF6807FA0CF7B9
:10127000374387604668A6430C79C4F30014944052
:1012800034434460C668570005FA07FC8C6826EAB8
:101290000C06BC403443C4604C68022C01D0122CB4
:1012A00013D1D40800EB8404A346D4F8209054074B
:1012B0004FEAD46A0EFA0AF629EA06090E6906FA16
:1012C0000AF646EA0906CBF8206006680C7926EA99
:1012D0000C0604F00304BC40344304604C68E40092
:1012E00065D5364C266846F480462660246822F090
:1012F000030604F480440094314C3444A446D4F8EA
:1013000008489607370F0EFA07F6B4432D4EB04241
:1013100001D1002624E02C4EB04201D101261FE06D
:101320002A4EB04202D102261AE040E0284EB042D6
:1013300001D1032614E0274EB04201D104260FE06C
:10134000254EB04201D105260AE0244EB04201D11B
:10135000062605E0224EB04201D1072600E008260D
:10136000BE402643CCF808681E4E34684F689C4344
:10137000FF0300D51C4334601A4C241D26684F68B7
:101380009E43BF0300D51E432660164E08363468C0
:101390004F689C43FF0200D51C433460114E0C364D
:1013A00034684F689C43BF0200D51C433460521C14
:1013B000102AFFF445AFBDE8F88F00004438024022
:1013C00000300140000002400004024000080240DA
:1013D000000C0240001002400014024000180240BD
:1013E000001C0240003C01400AB1816170470904C1
:1013F000FBE70000014880687047000048040020B7
:1014000002488168027811448160704748040020D6
:101410000B4810B5016841F400710160016841F4A6
:1014200080610160016841F480710160032000F077
:101430008DF8002000F006F800F03EF8002010BD06
:10144000003C024010B5014688B00022372000F071
:101450005DF8372000F04CF813480024016841F093
:1014600020010160006805A900F020000690684690
:1014700000F018F900F036F90C494000B0FBF1F12A
:101480000C480B4A491E026040F2E732C0E90324CF
:10149000C0E9011400F098FB10B1012008B010BDA4
:1014A000044800F001FCF9E74038024040420F00D8
:1014B00000140040A42900200C4882B0016841F4C7
:1014C00080410160006800F4804000900748001FE0
:1014D000016841F0805101600068002200F08050F6
:1014E00000900F21901E02B000F010B84438024066
:1014F000002809DB00F01F02012191404009800013
:1015000000F1E020C0F8001170470000F0B40E4B6D
:101510001B680C46C3F30223C3F10705042D00D951
:101520000425191D072901D2002300E0DB1E012636
:1015300006FA05F1491E214099409E40761E16404C
:101540003143F0BC02F0A4BD0CED00E0064900F010
:10155000070208684FF6FF03184040EA0220034ADA
:1015600010430860704700000CED00E00000FA0531
:101570002DE9F0470E46050065D0DFF81481D8F854
:101580000000F7B200F00F00B04207D288F80070F8
:10159000D8F8000000F00F00B04254D128683D4C4C
:1015A000810712D5400703D5206840F4E050206041
:1015B0002878000703D5206840F460402060206848
:1015C000A96820F0F000084320602878C0072DD0DB
:1015D000304968680839012812D0022813D003283E
:1015E00011D00968890700292DDA216821F003014B
:1015F00001432160FFF7FEFE814641F2883A0EE08A
:1016000009688903EFE709688901ECE7FFF7F2FE53
:10161000A0EB0901514502D90320BDE8F0872068FD
:10162000696800F00C00B0EB810FEFD1D8F8001022
:10163000404601F00F01B14207D90770006800F081
:101640000F00B04201D00120E7E72878400705D518
:101650002068E96820F4E0500843206028780007FB
:1016600006D52068296920F4604040EAC100206066
:1016700000F058F82168084AC1F30311515CC840D2
:101680000649086006480068FFF7DCFE0020C4E752
:10169000003C0240083802406085000854040020E5
:1016A0004C0400200F2202600C4A136803F003036D
:1016B0004360136803F0F0038360136803F4E0539E
:1016C000C36012684FF4E05303EAD2020261044897
:1016D000006800F00F000860704700000838024002
:1016E000003C02400448054900680968044AC1F307
:1016F0008221515CC84070475404002008380240E1
:10170000708500080448054900680968044AC1F367
:101710004231515CC84070475404002008380240F0
:1017200070850008154810B5006810F00C021448C8
:1017300013D04110042A0FD0082A0ED10F4C241FB9
:101740002268236802F03F025B0207D52068C0F3DD
:101750008810A0FB010106E0084610BD2168C1F316
:101760008811A1FB00010023FEF78AFD2168C1F367
:101770000141491C4900B0FBF1F010BD083802409E
:101780000024F4002DE9F84F04006ED02078DFF833
:101790003C93C007A9F104054AD009F1040001688F
:1017A000C1F38101012908D00068C0F3810002283B
:1017B0000AD1D9F80000400206D52868800337D541
:1017C00060680028E1D033E06068B0F5803F10D059
:1017D000B0F5A02F286810D020F480302860286849
:1017E00020F4802028606068A8B1FFF703FE064659
:1017F0000DE0286840F48030F4E740F48020286051
:10180000F7E700BFFFF7F6FD801B642873D8286850
:101810008003F7D50CE0FFF7EDFD064605E000BFBD
:10182000FFF7E8FD801B6428F0D828688003F7D410
:101830002078DFF89C8280074FF0000A3ED5A3484D
:10184000001D016811F00C0F08D00068C0F3810082
:1018500002280BD1D9F80000400207D4286880077D
:1018600016D5E068012800D112E02BE1E068B8B19C
:101870000120C8F80000FFF7BDFD064605E000BFE7
:10188000FFF7B8FD801B0228C0D828688007F7D56D
:101890002868216920F0F80040EAC10028600DE0C6
:1018A000C8F800A0FFF7A6FD064604E0FFF7A2FD7A
:1018B000801B02281FD828688007F7D420780007EB
:1018C00022D5824E83486169703671B10121016071
:1018D000FFF790FD074604E0FFF78CFDC01B0228D0
:1018E00009D830688007F7D50EE0C0F800A0FFF7F0
:1018F00081FD074605E082E0FFF77CFDC01B022862
:101900007DD830688007F7D42078400768D5DFF8A5
:10191000BCB100270BF13C0BDBF80000C0000BD47E
:10192000DBF8001041F08051CBF80010DBF800002C
:10193000012700F080500090674E3068C00510D439
:10194000306840F480703060FFF754FD009005E08F
:10195000FFF750FD0099401A022850D83068C005A2
:10196000F6D55A4EA0686C3601280FD0052830688D
:1019700010D020F001003060306820F004003060AA
:10198000A068B8B1FFF736FD00900FE0306840F076
:101990000100F4E740F004003060F7E7FFF72AFDAC
:1019A0000099411A41F28830814266D83068800738
:1019B000F4D50EE0FFF71EFD009007E0FFF71AFDDB
:1019C0000099411A41F28830814256D83068800728
:1019D000F4D42FB1DBF8001021F08051CBF80010C7
:1019E000A069C8B33949091D0968C1F381010229F9
:1019F0004AD00228504607D0C8F8600000E03CE01A
:101A0000FFF7F8FC04463BE04746C8F86000FFF7E4
:101A1000F1FC064605E000BFFFF7ECFC801B022846
:101A20002BD828688001F7D4D4E907010843A16ABC
:101A30002A4A490802EB0141626A41EA82110843DD
:101A400094F82C1040EA0161C9F8001001203866B2
:101A5000FFF7D0FC044606E036E000BFFFF7CAFC03
:101A6000001B022809D828688001F7D52CE000BFA8
:101A7000FFF7C0FC001B022802D90320BDE8F88F45
:101A800028688001F4D41FE00128F7D0D9F80000BD
:101A9000E26900F48001914214D1226A00F03F0112
:101AA00091420FD147F6C071626A0140914209D15B
:101AB000A26A00F44031914204D1E16A00F0706002
:101AC000884201D00120D9E70020D7E7043802403E
:101AD00000004742800E4742007000400000FFFFB8
:101AE0007047704710B590F83C20012A22D001229F
:101AF00080F83C20CA688C6822F4407222434C680B
:101B000022F4806222430C6822F4006222430C69B2
:101B100022F4805222434C6922F400522243C969C4
:101B2000002322F480420A4301684A6480F83C3072
:101B3000002010BD022010BD70B590F83C20012A95
:101B400032D0012480F83C40022280F83D20036816
:101B50005A689D6822F070060A6832435A60134B37
:101B600002689A4214D0B2F1804F11D0104B9A42C1
:101B70000ED0104B9A420BD00F4B9A4208D00F4B0D
:101B80009A4205D00E4B9A4202D00E4B9A4204D193
:101B9000496825F080031943916080F83D40002199
:101BA00080F83C10084670BD022070BD0000014066
:101BB0000004004000080040000C00400004014008
:101BC000004001400018004010B5040003D094F814
:101BD0003D0010B107E0012010BD002084F83C005A
:101BE000204600F00DF8022084F83D00211D2068F9
:101BF00001F0D0FE012084F83D00002010BD00005F
:101C000008B52349026823488A4211D1016841F08E
:101C1000100101600068002200F010000090052112
:101C20003620FFF773FCBDE808403620FFF760BCA4
:101C30001849194B091D9A4207D1086840F4003031
:101C40000860086800F4003009E0144B9A4208D19B
:101C5000086840F480200860086800F48020009044
:101C600008BD0F498A4207D1016841F08001016037
:101C7000006800F08000F2E70A498A42F0D101686A
:101C800041F480710160006800F48070E7E70000B3
:101C9000001000404038024000440140004801402C
:101CA000001C0040002000400168CA6842F00102A8
:101CB000CA600068816801F00701062903D0016845
:101CC00041F001010160002070472DE9F0410D460F
:101CD000040003D094F83D0018B108E00120BDE8ED
:101CE000F081002084F83C00204600F03BF8022000
:101CF00084F83D002068816844F2070291438160C6
:101D0000211D206801F046FE226890689169166ADC
:101D10002B68AF69034340F20330814341EA072156
:101D2000A868EF6908434FF6FC418843E96840EA38
:101D30000720014328692F6A000140EA0730084361
:101D400069686D6926F0AA0646EA0515294393607D
:101D50002268906120680162012084F83D00002023
:101D6000BDE70000F0B587B0044614216846FEF7D1
:101D7000D1FA574923680024554810390225554A9D
:101D8000554EB3F1804F27D0544FBB4258D1026813
:101D900042F002020260006800F00200059008684C
:101DA00040F0020008600868694600F002000590F3
:101DB00030200090CDE901543046CDE90345FFF7CE
:101DC00037FA002205211D20FFF7A0FB5FF01D0060
:101DD000FFF78EFB07B0F0BD036843F0010303601B
:101DE000006800F001000590086840F001000860FC
:101DF000086800F001000590086840F002000860E3
:101E00000868012700F00200059020200090CDE92D
:101E10000154CDE9034769461046FFF709FA082047
:101E20000090CDE90154CDE9034769463046FFF7FC
:101E3000FFF9002205211C20FFF768FB1C20C7E7E3
:101E4000274FBB4220D1026842F0040202600068C2
:101E500000F004000590086840F00200086008687F
:101E6000694600F002000590C0200090CDE90154C1
:101E70003046CDE90345FFF7DBF9002205211E209E
:101E8000FFF744FB1E20A3E7164EB342A2D103681E
:101E900043F008030360006800F00800059008683C
:101EA00040F0010008600868694600F001000590F4
:101EB00003200090CDE901541046CDE90345FFF71A
:101EC000B7F9002205213220FFF720FB32207FE7FF
:101ED000403802400000024000040240000400407C
:101EE00000080040000C004010B50446006891B1A5
:101EF000042904D00122002101F0B0FD2068012254
:101F00005FF0040101F0AAFD2068016841F00101C1
:101F10000160002010BD01220021F3E7704770B579
:101F20000446006801694FF00005C943890715D4CC
:101F3000C168C943890711D4E91E016101202077D6
:101F4000206880698007204602D0FFF7E7FF04E0A1
:101F500000F02CF9204600F0DDF9257720680169B2
:101F6000C943490717D4C168C943490713D46FF05F
:101F700004010161022020772068806910F4407F0D
:101F8000204602D0FFF7CAFF04E000F00FF9204618
:101F900000F0C0F9257720680169C943090716D404
:101FA000C168C943090712D46FF008010161042018
:101FB00020772068C0698007204602D0FFF7AEFF77
:101FC00004E000F0F3F8204600F0A4F9257720683B
:101FD0000169C943C90617D4C168C943C90613D4E6
:101FE0006FF010010161082020772068C06910F4AB
:101FF000407F204602D0FFF791FF04E000F0D6F8C2
:10200000204600F087F9257720680169C943C90790
:1020100008D1C168C943C90704D1891E016120469E
:1020200000F09CF920680169C943090609D4C16818
:10203000C943090605D46FF0800101612046FFF70E
:102040004FFD20680169C943490609D4C168C943E5
:10205000490605D46FF040010161204600F098F96F
:1020600020680169C94389060BD4C168C943890640
:1020700007D46FF0200101612046BDE87040FFF7F2
:1020800030BD70BD70B586B0044614216846FEF7B9
:1020900041F924683A4D00223A4902233A48AC42B9
:1020A00011D10C6844F010040C60096801F01001B3
:1020B00005914FF4D4410091CDE901320121CDE9E0
:1020C000032169460DE0314E0325B4420DD10C6861
:1020D00044F010040C60096801F0100105916021C2
:1020E00046E0FFF7A5F806B070BD294E2948B44276
:1020F00009D10C6844F002040C60096801F0020187
:102100000591811534E0244EB44209D10C6844F0A5
:1021100002040C60096801F002010591711527E0C5
:102120001E4E0925B44209D10C6844F002040C602B
:10213000096801F002010591F10019E0184E1948F3
:10214000B44209D10C6844F001040C60096801F044
:102150000101059140210BE0134EB442C3D10C683C
:1021600044F001040C60096801F00101059180212F
:102170000091CDE90132CDE903256946B1E70000C0
:102180000000014030380240001002400040014091
:102190000044014000040240004801400018004093
:1021A000001C00400000024000200040704770B555
:1021B000044690F83C000D4601280DD0012684F815
:1021C0003C60022084F83D0042B1042A18D0082A5D
:1021D0002AD00C2A4DD139E0022070BD206801F0D0
:1021E0004BFC2068816941F00801816120688169A8
:1021F00021F004018161206881692A69114311E09D
:10220000206801F069FC2068816941F40061816106
:102210002068816921F480618161206881692A696F
:1022200041EA0221816124E0206801F08BFC2068F2
:10223000C16941F00801C1612068C16921F0040150
:10224000C1612068C1692A69114311E0206801F069
:10225000ADFC2068C16941F40061C1612068C169B9
:1022600021F48061C1612068C1692A6941EA0221C3
:10227000C16184F83D60002084F83C0070BD10B559
:10228000040003D094F83D0010B107E0012010BD18
:10229000002084F83C00204600F00CF8022084F86E
:1022A0003D00211D206801F075FB012084F83D00F0
:1022B000002010BD08B5134A01681348914207D1A8
:1022C000016841F001010160006800F0010009E0CF
:1022D0000E4A914208D1016841F4803101600068E2
:1022E00000F48030009008BD09488142FBD10648C7
:1022F000001F016841F040010160006800F04000EB
:10230000F0E7000000000140443802400040014076
:10231000001800407047000010B504460068012214
:1023200001F09CFB0B492068884202D00A49884290
:1023300003D1416C41F4004141642068816801F09F
:102340000701062903D0016841F001010160002066
:1023500010BD0000000001400004014010B504461B
:1023600000680849884201D1FFF74AF80649206809
:10237000884205D10548016809B10168491E01601C
:1023800010BD0000001400400010004000000020BC
:102390007047704770B5026804461068D168536989
:1023A00010F00F0F52D003F0010501F490762E4388
:1023B0005FD0C20705D0CA0503D5E26B42F0010227
:1023C000E263420705D5DA0703D0E26B42F002026E
:1023D000E263820705D5DA0703D0E26B42F004021C
:1023E000E263020707D501F020022A4303D0E26B23
:1023F00042F00802E263E26B002A33D0800604D583
:10240000880602D5204601F088FC20684069E16B0F
:10241000C0F38010090700D428B3204601F066FC01
:102420002068416949061AD5416921F0400141619E
:10243000606BA0B11B490165606BFEF763FD00286E
:1024400010D0606B016DBDE870400847830610D561
:102450008B060ED52046BDE8704001F05EBC2046DC
:10246000FFF797FF70BD2046FFF793FF0020E06362
:1024700070BD030606D50B0604D52046BDE87040A6
:1024800001F02ABD4006F3D54806F1D5D1682046B3
:1024900021F04001D160202184F8391000F060FB68
:1024A00070BD0000153C000870B5040004D094F81D
:1024B0003900002510B106E0012070BD84F83850C5
:1024C000204600F023F8242084F839002068C168F1
:1024D00021F40051C160204601F06AFC20680169C6
:1024E00021F4904101612068416921F02A01416194
:1024F0002068C16841F40051C160E563202084F880
:10250000390084F83A00002070BD00002DE9F04F3A
:1025100087B0044614216846FDF7FCFEE948DFF861
:10252000A0831038D4F800C0E64A0221032708230C
:10253000DFF894E3002506154FF0010B4FF000691A
:10254000C44535D1D2F800C04CF4002CC2F800C00C
:10255000126802F400220592026842F0040202604E
:10256000006800F004000590B8028DE80308CDE98A
:10257000037369467046FEF75BFED54FD34838605B
:10258000C7E90195C7E903567D61BD61FD613D6203
:1025900038467D62FEF798FD08B1FEF7DAFA676308
:1025A000002205213420BC63FEF7B0FF342052E046
:1025B000DFF82083C44553D1D2F800C04CF4801C0E
:1025C000C2F800C0126802F480120592026842F05C
:1025D00004020260026802F004020592026842F0FE
:1025E0000802026000688A4600F0080005904FF477
:1025F0008050D846CDE9000ACDE902879B4669465E
:1026000004937046FEF714FE0420CDE9000ACDE9DC
:1026100002876946CDF810B0AF48FEF709FEAC4F0F
:10262000AA48603730383860C7E90195C7E90356D2
:102630007D61BD61FD613D6238467D62FEF744FD0E
:1026400008B1FEF786FA6763002205213520BC63D6
:10265000FEF75CFF3520FEF74BFF07B0BDE8F08FBB
:10266000DFF878824FF0070A4FF0400BC4454CD199
:10267000944A121D136843F010031360126802F0AD
:1026800010020592026842F001020260006800F048
:10269000010005904FF4C0608DE8A304694690489E
:1026A000FEF7C6FD8A4F8F48C037B0463860C7E98D
:1026B0000195C7E903567D614FF48036BD61C7E9D6
:1026C000075638467D62FEF7FFFC08B1FEF741FA77
:1026D0006763BC63844F8348C7E903587D61BD616C
:1026E000C7E9075678307D6287E8010A3846FEF769
:1026F000EBFC08B1FEF72DFA276300220521252007
:10270000BC63FEF703FF2520A5E7DFF8E081C445A1
:1027100035D1136843F400331360126802F40032B9
:102720000592026842F001020260006800F00100B8
:1027300005900C208DE8A30469466948FEF778FDF2
:10274000694F6248603748303860C7E90195C7E98A
:1027500003567D614FF48030BD61C7E907503846AC
:102760007D62FEF7B1FC08B1FEF7F3F96763002262
:1027700005212620BC63FEF7C9FE26206BE7DFF8A3
:102780007081C44548D1136843F4802313601268F4
:1027900002F480220592026842F0020202600068A0
:1027A00000F0020005904FF440608DE8A3046946F4
:1027B0005048FEF73DFD4C4F4448C037183838604C
:1027C000C7E90195C7E903567D61BD61FD613D62C1
:1027D00038467D62FEF778FC08B1FEF7BAF9676308
:1027E000BC63454F3948C7E903567D61BD61FD6152
:1027F0003D6218307D6287E8010A3846FEF764FCC6
:1028000008B1FEF7A6F92763002205212720BC6343
:10281000FEF77CFE27201EE7384A94457FF41DAF63
:10282000284A121DD2F800C04CF0200CC2F800C09B
:10283000126802F020020592026842F0040202606F
:102840000068049300F004000590C0208DE8A30008
:1028500069467046FEF7ECFC274F2248603718386F
:1028600038604FF02068C7E90185C7E903567D61EC
:10287000BD61FD613D6238467D62FEF725FC08B111
:10288000FEF767F96763BC631B4F1648C0376030BB
:10289000C7E903567D61BD61FD613D627D6287E8E8
:1028A00001093846FEF710FC08B1FEF752F927631C
:1028B000002205214720BC63FEF728FE4720CAE618
:1028C000004C004040380240000802404060024096
:1028D0004426002000500040000C0240001001403F
:1028E0000000024040640240642700200044004091
:1028F00000480040000402408428002000140140E9
:10290000F8B5044690F83A0020283CD1C1B3BAB3D8
:1029100094F83800012836D0012084F83800A162EC
:10292000A2850025E563222084F83A00636B1748EE
:10293000D863636B16481864636B1648D864606B81
:10294000134605650846666B216802463046091D38
:10295000FEF724FC206801684168009184F8385033
:10296000C16841F48071C1602068416941F0010192
:1029700041612068416941F0400141610020F8BD9A
:10298000FFE70120FBE70220F9E700006F3C0008A9
:10299000AB3C0008253C000890F83A30202B22D1AF
:1029A000F9B1F2B190F83830012B1CD081628285E8
:1029B000C2850021C163222280F83A2080F83810B5
:1029C0000168CA6842F48072CA6001684A6942F0CC
:1029D00001024A610068C16841F02001C160002025
:1029E00070470120704702207047000010B5006852
:1029F000084988420CD1084808498068097800F0E5
:102A0000B3FEBDE81040012204490548FFF7C4BFEA
:102A100010BD0000004C0040381500204404002088
:102A2000C424002070472DE9F843044690F839008B
:102A30001F4616460D46202850D1B5B1AEB194F8C8
:102A4000380001284AD0012084F838004FF00008EF
:102A5000C4F83C80212084F83900FEF7CBFCA68422
:102A60008146E68484F8388026E00120BDE8F883BA
:102A7000E08C401EE084A0684B46B0F5805F4FF0CC
:102A800000024FF080012046009703D001F055FA74
:102A9000E8B90DE001F051FAC8B928882168C0F3FF
:102AA00008004860206908B16D1C05E0AD1C03E01A
:102AB000216815F8010B4860E08C0028D8D14B46FE
:102AC000002240212046009701F037FA08B1032088
:102AD000CCE7202084F839000020C7E70220C5E7B2
:102AE00070B5044690F83900202830D169B362B33C
:102AF00094F8380001282AD0012084F83800216297
:102B0000A284E2840025E563212084F83900236B48
:102B10001048D863236B10481864236B0F48D8649F
:102B2000206B134605652668206B321DFEF736FBC9
:102B300021686FF04000086084F8385020684169CF
:102B400041F080014161002070BD012070BD022074
:102B500070BD0000B53C0008E33C0008253C0008BF
:102B600070477047FEE700000EB5224C012050224E
:102B7000207021492148FFF7C3FE1F4E4FF0FF3759
:102B80003946E06805F04EF904F0F0FB00251A48DC
:102B9000715D803002F040F8C0B22071012805D08C
:102BA0006D1C502DF3DB10F0FF0F0ED0124A0020E9
:102BB0006946803202EB800393ED8E0A01EB8003BD
:102BC000401C83ED000A0328F4DB50220A490B481D
:102BD000FFF796FE04F0EAFB00231A466946606A96
:102BE00004F0ECFE00231A466946E06A04F0E6FEB3
:102BF000C6E70000C00300209C17002084250020A9
:102C00002D4808B5016841F480010160016801F4B4
:102C100080010091016841F4001101600068002208
:102C200000F40010009005210B20FEF76FFC0B2034
:102C3000FEF75EFC002205210C20FEF767FC0C204D
:102C4000FEF756FC002205210D20FEF75FFC0D204B
:102C5000FEF74EFC002205210E20FEF757FC0E2049
:102C6000FEF746FC002205211020FEF74FFC102045
:102C7000FEF73EFC002205213920FEF747FC3920F3
:102C8000FEF736FC002205213A20FEF73FFC3A20F1
:102C9000FEF72EFC002205214520FEF737FC4520DB
:102CA000FEF726FC002205214620FEF72FFCBDE89A
:102CB00008404620FEF71CBC3038024010B5D4B0A6
:102CC00003220021012004F011FE684C03220021A0
:102CD000E060012004F00AFE2061032200210120AF
:102CE00004F004FE606103220021012004F0FEFDD7
:102CF000A06100221021012004F0F8FDE061002213
:102D00001021022004F0F2FD206200220C2101209B
:102D100004F0ECFD606200221021012004F0E6FDC9
:102D2000A06200220C21012004F0E0FDE0620022FC
:102D30001C21012004F0DAFD206300221021012073
:102D400004F0D4FD606300220821012004F0CEFDD0
:102D5000A06300220421012004F0C8FDE0631C22CE
:102D600043496846FDF7BDFA0021684603F07CFA46
:102D70003F4960651C221C3107A8FDF7B2FA00210B
:102D800007A803F071FA3A49A0651C2238310EA851
:102D9000FDF7A7FA00210EA803F066FA3449E065B2
:102DA0001C22543115A8FDF79CFA002115A803F048
:102DB0005BFA2F4920661C2270311CA8FDF791FA9E
:102DC00000211CA803F050FA294960661C228C31AE
:102DD00023A8FDF786FA002123A803F045FA244929
:102DE000A0661C22A8312AA8FDF77BFA00212AA898
:102DF00003F03AFA1E49E0661C22C43131A8FDF7FF
:102E000070FA002131A803F02FFA194920671C221B
:102E1000E03138A8FDF765FA002138A803F024FA5C
:102E2000134960671C22FC313FA8FDF75AFA0021C4
:102E30003FA803F019FAA0671C220E4946A8FDF727
:102E400050FA002146A803F00FFA0A49E0671C2255
:102E50001C314DA8FDF745FA00214DA803F004FAF6
:102E600004F18001086054B010BD0000C0030020D0
:102E700008840008208500082DE9F04387B014215C
:102E80006846FDF747FA3F480024016841F0100109
:102E90000160016801F010010591016841F0040131
:102EA0000160016801F004010591016841F08001B1
:102EB0000160016801F080010591016841F00101A4
:102EC0000160016801F001010591016841F0020112
:102ED0000160016801F002010591016841F00801FB
:102EE00001600068284F00F008000590002246F2BB
:102EF00007213846FEF778FADFF89090002241F279
:102F000002014846FEF770FADFF884804FF47F46EE
:102F1000002231464046FEF767FA46F20420009050
:102F20000125CDE90154694638460394FEF780F93E
:102F300028030090CDE90154694648460394FEF702
:102F400077F90096CDE90154694640460394FEF7AF
:102F50006FF9E8038DE8310069460E48FEF768F91D
:102F600003208DE8310069463846FEF761F90220FA
:102F70008DE8310069464846FEF75AF907B0BDE8CA
:102F8000F083000030380240000802400010024088
:102F9000000C02400000024010B588B01C216846B9
:102FA000FDF7B8F91548144900240160A721C0E9CC
:102FB000011444F61F61C0E903148461FEF704FEA6
:102FC00008B1FDF7C6FD0D48FFF759F908B1FDF747
:102FD000C0FD6020CDE90004029400226946074844
:102FE0000494FFF7E4F808B1FDF7B3FD0348FFF7D9
:102FF00049F808B010BD00000044014084230020BF
:1030000010B588B01C216846FDF784F915481449AD
:1030100000240160A721C0E9011444F61F61C0E942
:1030200003148461FEF7D0FD08B1FDF792FD0D4851
:10303000FFF725F908B1FDF78CFD6020CDE900040C
:1030400002940022694607480494FFF7B0F808B1DB
:10305000FDF77FFD0348FFF715F808B010BD00002D
:1030600000480140C423002010B588B01C216846E8
:10307000FDF750F916481549002401605321C0E9B5
:10308000011444F61F61C0E903148461FFF7F7F8E7
:1030900008B1FDF75EFD6020CDE900040294002236
:1030A00069460B480494FFF782F808B1FDF751FD1B
:1030B000042269460648FFF77AF808B1FDF749FD92
:1030C0000348FEF7DFFF08B010BD00000018004005
:1030D0000424002010B588B01C216846FDF71AF9B9
:1030E000154814490024016040F28F61C0E90114C1
:1030F00040F2E731C0E903148461FEF765FD08B1D1
:10310000FDF727FD0C48FFF7BAF808B1FDF721FDE0
:103110006020CDE900040294002269460648049428
:10312000FFF745F808B1FDF714FD0348FEF7AAFFC5
:1031300008B010BD001C00404424002010B588B029
:103140001C216846FDF7E6F8154814490024016083
:1031500040F28F61C0E9011440F2E731C0E9031485
:103160008461FEF731FD08B1FDF7F3FC0C48FFF771
:1031700086F808B1FDF7EDFC6020CDE9000402946B
:103180000022694606480494FFF711F808B1FDF7DC
:10319000E0FC0348FEF776FF08B010BD00200040B9
:1031A0008424002010B592B000240F941C2168469E
:1031B0001094FDF7AFF8202107A8FDF7ABF82C48D5
:1031C0002A4901601021C0E9011440F2E731C0E949
:1031D000031444618461FFF752F808B1FDF7B9FCAC
:1031E0000F940FA922481094FEF7A6FC08B1FDF732
:1031F000B0FC6020CDE9000402940394049405948B
:10320000002269461A480694FEF7D1FF08B1FDF77F
:10321000A0FC042269461648FEF7C9FF08B1FDF775
:1032200098FC082269461248FEF7C1FF08B1FDF775
:1032300090FC0C2269460E48FEF7B9FF08B1FDF775
:1032400088FC0794089409944FF400500A94CDE93F
:103250000B4007A906480E94FEF744FC08B1FDF7A1
:1032600078FC0348FEF70EFF12B010BD00000140CD
:10327000C421002010B58CB024216846FDF74AF81F
:103280000024154809944FF080410A94C0E90014C5
:103290004FF45251C0E90241046184610320CDE939
:1032A00000040120CDE902040494CDE9054007940F
:1032B000694609480894FEF708FD08B1FDF749FC86
:1032C000099409A904480A94FEF736FC002801D0A5
:1032D000FDF73FFC0CB010BD0422002010B58CB0EF
:1032E00024216846FDF716F800241648099414496D
:1032F0000A94C0E900144FF45251C0E9024104613C
:1033000084610320CDE900040120CDE90204049486
:10331000CDE90540079469460A480894FEF7D5FCB4
:1033200008B1FDF716FC099409A906480A94FEF7AE
:1033300003FC002801D0FDF70CFC0CB010BD000010
:10334000000400404422002010B58CB024216846BF
:10335000FCF7E0FF00241648099414490A94C0E9D8
:1033600000144FF45251C0E902410461846103200A
:10337000CDE900040120CDE902040494CDE9054023
:10338000079469460A480894FEF79FFC08B1FDF7C8
:10339000E0FB099409A906480A94FEF7CDFB002832
:1033A00001D0FDF7D6FB0CB010BD000000080040B6
:1033B0008422002010B58CB024216846FCF7AAFFB7
:1033C00000241648099414490A94C0E900144FF4E3
:1033D0005251C0E90241046184610320CDE9000437
:1033E0000120CDE902040494CDE905400794694623
:1033F0000A480894FEF769FC08B1FDF7AAFB099496
:1034000009A906480A94FEF797FB002801D0FDF7AA
:10341000A0FB0CB010BD0000000C0040C422002036
:103420001CB500240E4800940C49019401605321FE
:10343000C0E9011442F20F718461C160FEF7C4FB60
:1034400008B1FDF786FB0094694605480194FEF734
:1034500073FB002801D0FDF77CFB1CBD0010004071
:103460000423002010B588B01C216846FCF752FFE9
:103470001648154900240160A721C0E9011444F64B
:103480001F61C0E903148461FEF7F9FE08B1FDF77E
:1034900060FB6020CDE900040294002269460B48DD
:1034A0000494FEF784FE08B1FDF753FB042269463D
:1034B0000648FEF77CFE08B1FDF74BFB0348FEF71C
:1034C000E1FD08B010BD0000004001404423002091
:1034D0000C4810B50A4901604FF4E1314160002108
:1034E00081600C22C160C0E904128161C161FEF7F4
:1034F000DBFF002803D0BDE81040FDF72ABB10BD5C
:10350000004C0040C42400200C4810B50A4901605A
:103510004FF4E1314160002181600C22C160C0E9BB
:1035200004128161C161FEF7BFFF002803D0BDE82E
:103530001040FDF70EBB10BD0050004004250020D8
:103540000C4810B50A4901604FF4E1314160002197
:1035500081600C22C160C0E904128161C161FEF783
:10356000A3FF002803D0BDE81040FDF7F2BA10BD5C
:1035700000100140442500200C4810B50A490160A4
:103580004FF4E1314160002181600C22C160C0E94B
:1035900004128161C161FEF787FF002803D0BDE8F6
:1035A0001040FDF7D6BA10BD00440040842500202D
:1035B0000C4810B50A4901604FF4E1314160002127
:1035C00081600C22C160C0E904128161C161FEF713
:1035D0006BFF002803D0BDE81040FDF7BABA10BD5C
:1035E00000480040C42500200C4810B50A4901607D
:1035F0004FF4E1314160002181600C22C160C0E9DB
:1036000004128161C161FEF74FFF002803D0BDE8BD
:103610001040FDF79EBA10BD0014014004260020A2
:10362000FEE70000144A08280ED00A2814D00C28FF
:103630001AD00E2807D1106820F44040106010689E
:1036400040EA813010607047106820F440701060CC
:10365000106840EA0120F5E7106820F4406010602F
:10366000106840EA8120EDE7106820F440501060B7
:10367000106840EA0130E5E7140C0240FEE700B5AF
:1036800003895B1E00F003F8181A80B200BD82881F
:10369000C1888A4203D90089511A401A00E0881A69
:1036A00080B27047F0B50746FFF7F1FF00240646E9
:1036B000254606E0A9B2384600F007F82044C4B217
:1036C0006D1CB542F6DB2046F0BD10B50C46034636
:1036D000FFF7DDFFA04201D8002010BD9888641CD0
:1036E00019892044B0FBF1F201FB1200196880B285
:1036F000085C10BD026000228280C280491C0181EA
:10370000114603E003685A54491C89B203898B426D
:10371000F8D8704710B50446FFF7B1FF2189491E5C
:1037200089B2884201D1012010BD002010BD00B532
:10373000FFF7A5FF08B1002000BD012000BD10B5B6
:103740000446FFF7E7FF08B1002010BDA0882189DB
:10375000401CB0FBF1F201FB120081B2A180226893
:103760000023505C535410BD30B50D460446FFF79E
:10377000DEFF10B12046FFF7E2FFE0882189401C00
:10378000B0FBF1F201FB120080B2E08021680D5421
:1037900030BDFFF7D4BFFFF7E7BFF0B515460E46C3
:1037A0000746002405E0315D3846FFF7DDFF641C65
:1037B000A4B2AC42F7D3F0BD03B501A90222FFF7D2
:1037C000ECFF0CBD03B501A90222FFF7E6FF0CBD1B
:1037D000044C206880F400502060642002F038FD22
:1037E000F7E700001408024001B50449009808609A
:1037F0000348016841F00101016008BD000000209C
:1038000000100040044900200860044801684FF699
:10381000FE7211400160704700000020001000405F
:103820000348006808B1002070470120704700007D
:103830000000002001B403490098086001B000F0C6
:1038400019B800000000002010B5502080F3118846
:10385000BFF34F8FBFF36F8F04F040FC18B10449E2
:103860004FF080500860002080F3118810BD0000E8
:1038700004ED00E00748016841F0010101600649DC
:103880000A68002AFCD101684FF6FE7211400160FF
:1038900070470000001000400000002030B593B0D9
:1038A00030216846FCF736FD14210CA8FCF732FDE8
:1038B0001D480025016841F080510160006800F05A
:1038C000805011901948016841F4804101600068FE
:1038D000022400F4804011900120039010200490F5
:1038E000009406940820CDE90750A820CDE90904EA
:1038F00004200B906846FDF745FF08B172B6FEE75D
:103900000CA90F2081E831004FF4A0500F904FF424
:103910008050109005210CA8FDF72AFE002801D048
:1039200072B6FEE713B030BD403802400070004070
:103930000548016841F47001016003494FF00060DF
:10394000803908607047000088ED00E00148FEF70C
:10395000E6BA0000042200200148FEF7E0BA0000A9
:10396000442200200148FEF7DABA00008422002039
:103970000148FEF7D4BA0000C42200200148FEF737
:10398000CEBA0000042300200148FEF7C8BA0000A8
:10399000A4290020F0B50268254C264D264E274F5D
:1039A000274B4FF0804CA04209D0604507D0A84279
:1039B00005D0B04203D0B84201D0984204D122F0E1
:1039C000700E4A6842EA0E02A0421BD0604519D030
:1039D000A84217D0B04215D0B84213D0984211D0A7
:1039E000184DA8420ED0184DA8420BD0174DA84232
:1039F00008D0174DA84205D0164DA84202D0164D4A
:103A0000A84203D122F44075CA682A434D6922F0C6
:103A100080022A4302608A68C2620A688262A04207
:103A200001D0984201D10969016301214161F0BDD2
:103A3000000001400004004000080040000C00406D
:103A400000040140004001400044014000480140A2
:103A500000180040001C00400020004010B501F09C
:103A60001F030121046A99408C430462016A9A4051
:103A70001143016210BD0000F0B5026A22F001029C
:103A80000262036A42688469124E24F073050C686E
:103A90002C4323F002058B682B430D4DA84201D027
:103AA000B04205D123F00807CB683B4323F0040361
:103AB000A84201D0B04205D14D6922F440721543AD
:103AC0008A692A4342608461496841630362F0BDA8
:103AD0000000014000040140F0B5026A22F010022B
:103AE0000262026A436884690D6824F4E64444EA89
:103AF00005248D6822F0200242EA05120F4D104E77
:103B0000A84201D0B04206D1CF6822F0800242EA3A
:103B1000071222F04002A84201D0B04207D14D69FD
:103B200023F4406343EA85038D6943EA85034360D8
:103B30008461496881630262F0BD000000000140B9
:103B400000040140F0B5026A22F480720262026A47
:103B50004368C46922F4007224F073050C68124EA5
:103B60002C438D6842EA05220E4DA84201D0B04296
:103B700006D1CF6822F4006242EA072222F4806272
:103B8000A84201D0B04207D14D6923F4405343EA23
:103B900005138D6943EA05134360C4614968C16335
:103BA0000262F0BD000001400004014030B5026A2D
:103BB00022F480520262046A4268C3690D6823F4E9
:103BC000E64343EA05238D6824F4005444EA0534AF
:103BD000084DA84202D0084DA84204D14D6922F4F4
:103BE000804242EA85124260C3614968016404620E
:103BF00030BD000000000140000401400148FEF714
:103C0000C9BB0000C42400200148FEF7C3BB00006C
:103C10000425002010B5806B0021C185C184FEF70A
:103C2000B8FB10BD70B5846B2068406994F83910FA
:103C3000C0F3C0100025212904D118B1E584204625
:103C400000F062F82068406994F83A10C0F38010E0
:103C5000222904D118B1E585204600F047F8E06B31
:103C600040F01000E0632046FEF793FB70BD10B5F6
:103C70000146806B09680968C90513D40021C18514
:103C80000168CA6822F48072CA6001684A6922F039
:103C900001024A6101684A6922F040024A6120211A
:103CA00080F83A10FEF7A2FE10BD10B5806BFEF74B
:103CB000B9FE10BD10B50146806B09680968C905D9
:103CC0000CD40021C18401684A6922F080024A6153
:103CD0000068C16841F04001C16010BDFEF740FFBF
:103CE00010BD10B5806BFEF73CFF10BD0168CA68BF
:103CF00022F49072CA6001684A6922F001024A61A6
:103D0000202180F83A1070470168CA6822F0C0028A
:103D1000CA60202180F83910704710B590F83A1029
:103D2000222901D0022010BD8168B1F5805F11D039
:103D30000169002901681FD0496801F07F03816A89
:103D40004A1C82620B70C18D491E0904090CC18591
:103D500018D02BE00269816A002A0268526805D0F7
:103D6000D2B20A80816A491C8162ECE7C2F3080280
:103D70000A80816A891CF7E74A68816A4B1C836262
:103D80000A70E0E70168CA6822F02002CA60016890
:103D9000CA6822F48072CA6001684A6922F001028E
:103DA0004A61202180F83A10FEF720FE002010BD65
:103DB0002DE9F041044600680169E26821F44051B0
:103DC000114301612169A068E269084361691143F7
:103DD00008432168CA6849F20C639A430243CA60E7
:103DE00020684169A26921F4407111434161E06991
:103DF000192764253226B0F5004F354A3549206829
:103E00004FF0000806D0884201D0904236D1FDF72D
:103E100079FC35E0884201D0904202D1FDF772FC76
:103E200001E0FDF75FFC61684A18A0FB070148EB61
:103E30000803FCF725FA0146B0FBF5F00201B1FBDF
:103E4000F5F06FF01803584301EB800006EBC0005B
:103E5000B0FBF5F000F0F80002EB4002B1FBF5F02A
:103E6000584301EB800006EBC000B0FBF5F000F01A
:103E70000700216810448860BDE8F081FDF732FC3E
:103E800061688B0F8A00A0FB0701FCF7F9F9014676
:103E9000B0FBF5F06FF01802504301EB800006EB29
:103EA0000010B0FBF5F000F0F002B1FBF5F002EB12
:103EB0000012B1FBF5F06FF01803584301EB8000DE
:103EC00006EB0010B0FBF5F000F00F00D1E70000AA
:103ED000001401400010014090F83910212901D050
:103EE000022070478168B1F5805F016A0BD04A1CDF
:103EF0000262026809785160C18C491E0904090CEC
:103F0000C1840ED017E009880268C1F3080151602E
:103F100001690029016A02D0491C0162ECE7891C91
:103F2000FBE70168CA6822F08002CA600068C168C5
:103F300041F04001C160002070472DE9F0419846F2
:103F400017460E460446069D1DE0681C1BD02DB189
:103F5000FDF750FAA0EB0800A84214D92068C16808
:103F600021F4D071C1602068416921F001014161F3
:103F7000202084F8390084F83A00002084F83800C2
:103F80000320BDE8F0812068006836EA000004D014
:103F90000020B842D9D00020F3E70120F9E7000063
:103FA0000148FEF7F7B90000442500200148FEF75C
:103FB000F1B90000842500200148FEF7EBB90000AC
:103FC000C42500200148FEF7E5B9000004260020C2
:103FD000FEE710B5044606E06068FFF7B0FB014657
:103FE000206800F006F86068FFF751FB0028F3D165
:103FF00010BD13B56423012201A9FEF714FD1CBDF9
:1040000070B5054600244FF47A762919334601220B
:104010000348FEF708FD641C285D0028F5D170BD3B
:10402000C425002001A0FFF7EBBF00004200000004
:1040300001A0FFF7E5BF00004100000001A0FFF76D
:10404000DFBF0000440000000FB4054B10B503A90A
:10405000044A029800F0FEF810BC5DF814FB000062
:10406000C15E0008B80400200FB4084B10B504A9C5
:1040700002AA039800F0EEF8044602A9002000F01E
:1040800080FC204610BC5DF814FB0000834900084A
:104090000907090E002804DB00F1E02080F8001475
:1040A000704700F00F0000F1E02080F8141D704709
:1040B00002E008C8121F08C1002AFAD170477047F1
:1040C000002001E001C1121F002AFBD1704700004F
:1040D0002DE9FF5F82B00021DDE90430020DDDF83B
:1040E00040B0034318D044F61050A2F2FF324243CE
:1040F0001514119801281FD0A5EB0B00401C5FEA96
:10410000000A4FF000064E4FDFF83891B046504697
:1041100015D5CAF1000413E0119801244AA301281F
:1041200001D16FEA0B010298119AC0E90031C0E990
:10413000024206B0BDE8F09FCBF10000DFE7044685
:104140000021404A491842EB0450CDE9001012E02A
:10415000E00707D032463B4640464946FCF793F914
:104160008046894632463B4610461946FCF78BF995
:1041700006460F466410002CEAD1DDE90401DDE9B2
:104180000023BAF1000F06DAFCF77DF942464B46F0
:10419000FCF779F905E0FCF7E8F942464B46FCF7F5
:1041A000E4F904460E460022284BFCF79FFB03D897
:1041B0004FF0FF30014607E00022254B20463146F4
:1041C000FCF7BAF8FCF77AFB102409E0002C0ADBB4
:1041D0000A220023FCF754F8039B30321A55641E60
:1041E00050EA0102F2D1641C039AC4F11103144491
:1041F000119A012A03D0012208430DD10AE0084395
:1042000004D000204FF0110B119072E7A3EB0B05C7
:104210006D1E0DE05B4504DD4FF0000205F1010568
:1042200004E003DA4FF00002A5F10105002AECD00A
:1042300002981199C0E90231C0E9004579E7000010
:10424000000014400000F03F300000000000F04388
:104250000000E03F2DE9FF4F95B09B46894606469A
:1042600000250FE2252877D100242746F84A0121AE
:10427000059400E0044316F8013F203B01FA03F0E7
:104280001042F7D130782A2811D06FF02F03307800
:10429000A0F13002092A16D8059A44F0020402EB74
:1042A000820203EB42021044761C0590EFE759F8B6
:1042B000042B0592002A03DA504244F4005405907E
:1042C00044F00204761C30782E2816D116F8010F1F
:1042D00044F004042A280DD06FF02F023078A0F1AA
:1042E0003003092B09D807EB870302EB4303C718F8
:1042F000761CF3E759F8047B761C30786C280FD0D5
:1043000006DC4C2817D068280DD06A2814D104E0A8
:10431000742810D07A280FD10DE044F400140AE07C
:1043200044F4801401E044F440147278824202D1D3
:1043300004F58014761C761C307866280BD013DCCC
:10434000582877D009DC002875D04528F6D04628B3
:10435000F4D047281AD19DE118E0632835D06428AD
:1043600079D0652812D195E1702873D008DC6728D0
:10437000F1D069286FD06E280DD06F2806D1B5E036
:1043800073282CD0752875D0782874D05A46179980
:1043900090476D1C75E1C4F30250022809D0032830
:1043A0000DD0D9F8001004280DD00D6009F10409D2
:1043B00067E1D9F80010EA17C1E90052F6E7D9F829
:1043C00000100D80F2E70D70F0E719F8041B8DF86E
:1043D000001000208DF80100EA46012003E059F8A2
:1043E00004AB4FF0FF3061074FF0000102D40DE045
:1043F00008F101018846B9420FDA8045F8DB1AF866
:1044000008100029F4D108E008F101018846814232
:10441000FADB1AF808100029F6D105985B46A0EBE4
:10442000080721463846179A00F094FA284400EB12
:10443000080507E04DE029E10DE01AF8010B5A46A6
:1044400017999047B8F10108F7D25B4621463846E4
:10445000179A13E142E00A220092C4F302524FF08D
:10446000000A022A08D059F804CB032A4FEAEC715B
:104470000AD00DE029E02AE009F1070121F0070246
:10448000F2E802C1914609E00FFA8CFC4FEAEC71A8
:10449000042A03D14FFA8CFC4FEAEC71002907DAA9
:1044A0000A460021DCF1000C61EB02012D2202E042
:1044B000220504D52B228DF80420012203E0E20717
:1044C00001D02022F7E7904659E00A2102E01022AD
:1044D0000DE010214FF0000A00910BE010224FF088
:1044E000000A44F004040827009203E008224FF079
:1044F000000A0092C4F30252022A05D059F804CBF4
:104500000021032A08D009E009F1070121F0070280
:10451000F2E802C1914605E01FFA8CFC042A01D1A1
:104520000CF0FF0C4FF00008220728D5702806D0A9
:10453000009B83F0100353EA0A0305D00EE04022EB
:104540008DF80420012208E05CEA010206D0302246
:104550008DF804208DF8050002229046009B83F020
:10456000080353EA0A030AD15CEA010201D1620797
:1045700005D530228DF804204FF001087F1E582801
:1045800004D034A003900EA802900DE036A0F9E705
:1045900053466046009AFBF773FE84460398825C9C
:1045A0000298401E029002705CEA0100F0D102986D
:1045B00006A9081A00F1200A600702D524F4803405
:1045C00000E00127574502DDA7EB0A0000E00020CC
:1045D00000EB0A01009005984144401A0590E00361
:1045E00006D45B462146179A059800F0B3F90544B6
:1045F000002706E001A85A46C05D179990476D1C38
:104600007F1C4745F6DBE0030CD55B462146179A35
:10461000059800F09FF9054404E030205A461799A8
:1046200090476D1C0099481E00900029F5DC08E0B9
:10463000029802995A460078491C029117999047AE
:104640006D1CBAF10001AAF1010AF1DC65E100007C
:104650000928010030313233343536373839616258
:10466000636465660000000030313233343536371C
:1046700038394142434445460000000000F058F9F3
:104680000544761C307800287FF4ECAD19B028463C
:10469000BDE8F08F620700D4062709F1070222F077
:1046A000070CFCE80223E14603F000485FEA080C2F
:1046B00002D00FF2702C0DE05FEA045C02D50FF21D
:1046C000682C07E05FEAC47C02D00FF2602C01E0A6
:1046D000AFF2700C4FF0FF3823F00043CDF850C01C
:1046E00065280CD006DC452809D046281DD047286F
:1046F0003DD13DE0662818D067287ED138E0002102
:10470000112F01DB112000E0781CCDE9000106A982
:104710000EA8FFF7DDFCDDE90F010E9A03910021E1
:10472000009207F1010A04914DE04FF0004000971C
:10473000CDE9011006A90EA8FFF7CAFCDDE90F02BA
:1047400003920E9B11990022DDF80CA000930492B5
:1047500011B9791C00EB010AB7EB0A0004D4C0F1CF
:10476000FF3007F1010A0490AAEB0700019044E032
:10477000012F00DA01270021112F01DD112000E0B7
:104780003846CDE9000106A90EA8FFF7A1FCDDE936
:104790000F010E9A0391002104910092BA4621075D
:1047A0000CD40399514500DA8A46BAF1010F05DDB0
:1047B000009AAAF10101515C302908D0B84202DA0E
:1047C00010F1040F06DA0121CDE9011015E0AAF17C
:1047D0000101E9E7002805DC049901440491AAEBF2
:1047E000000102E0411C514500DD8A460499401A4F
:1047F000401C01904FF000400290200704D4019823
:10480000504501DBCDF8048000208DF84F00029860
:104810000DF14F07B0F1004F25D02B200E900298DC
:104820004FF0020800280CDA404202902D200E9032
:1048300007E00A210298FBF766FF3031029007F883
:10484000011DB8F10001A8F10108F2DC029800286E
:10485000EFD1791E0E980870307800F0200040F0FB
:10486000450007F8020D12A8C01B00F107081498B4
:10487000007800B1012000EB0A01019801EBE07122
:1048800005984144401A401E0590E00306D45B465B
:104890002146179A059800F05DF8054414980078B1
:1048A00018B15A46179990476D1CE00324D55B4612
:1048B0002146179A059800F04DF805441CE004982D
:1048C000002807DBDDE90301884203DD0098405C36
:1048D000179901E0179930205A469047049805F13E
:1048E0000105401C04900198401E019004D12E2027
:1048F0005A46179990476D1CBAF10001AAF1010AB6
:10490000DDDC05E017F8010B5A46179990476D1C3E
:10491000B8F10001A8F10108F4DC5B462146179AC2
:104920000598ABE62D0000002B00000020000000E1
:104930002DE9F041044600251E461746880404D49C
:1049400005E039462020B0476D1C641EF9D5284685
:10495000BDE8F0812DE9F041044600251E46904651
:10496000C80301D5302700E02027880404D505E0DE
:1049700041463846B0476D1C641EF9D52846BDE84F
:10498000F0810A68531C0B601070704710B5F0EE90
:10499000603A0346B0EE404A9FED293ADFED292AFE
:1049A0009FED292AF0EE610A00F0E4FA10EE100AF9
:1049B0002649884207DDBDE81040F0EE630AB0EEFC
:1049C000440A00F073BBF0EE610AB0EE440A00F056
:1049D000D1FA1F491F4AD1ED020A70EE800A10EE8B
:1049E000900AC1ED020A904202DDDFED1B0A06E0EB
:1049F00010EE900A194A904201D3DFED190A20EE19
:104A0000031AC1ED020A81ED030A30EE400A00EEFE
:104A1000A21A4FF47A7000EE021ABDEEC10A10EE2F
:104A2000102A824202DC4042824200DC024699188F
:104A3000981ABDE810400B46024602F02BBA00005F
:104A4000666666408FC2F53D000000000000F04140
:104A5000040000200060EA460060EA460060EAC602
:104A60000060EAC62DE9F0410024069E40F21D15C3
:104A700006FB0546B0EE604AF0EE404A4FF448753A
:104A800027469FED583ADFED582A9FED582ADFED73
:104A9000583ADFED580A584CD4F824C0B44505D034
:104AA000DFF858C18CE80F00666211E0534FD7F869
:104AB00000C0A0EB0C0008447968401AB9681044A3
:104AC000401AF9681844401AC11700EB917087101A
:104AD000F11B00EE101AA06A494B0844B8EEC00A58
:104AE000A062226A2E4663EE803A8A1A00EE102AED
:104AF000B8EEC05AB0EE420A40EE053A00EE100A97
:104B0000B8EEC00A40EE803ABDEEE30A10EE102A7D
:104B1000AA4201DD324602E09A4200DC1A4641F226
:104B20008833984202DC5B42984200DC18462162DE
:104B30001331A062272908D200231A4619461846C5
:104B400002F0A8F90120BDE8F081F0EE610AB0EEB4
:104B5000640A00F00FFA10EE100A2A49884206DDB6
:104B6000F0EE440AB0EE640A00F0A0FA38E0F0EE8D
:104B7000610AB0EE640A00F0FDF9D4ED060A22499C
:104B800070EE800A10EE900AC4ED060A884202DD3B
:104B9000DFED1E0A06E010EE900A1D49884201D39F
:104BA000DFED1C0A20EE031AC4ED060A84ED070AA5
:104BB00030EE400A00EEA21A4FF4C87100EE021A5D
:104BC000BDEEC10A10EE100A884202DC494288425A
:104BD00000DC08461118101A02460B4602F05AF97A
:104BE0000020B0E7666666408FC2F53D0000000019
:104BF000CDCCCC3D0AD7233C04000020EC0400209F
:104C0000E0FCFFFF0000F04100409C4500409C4557
:104C100000409CC500409CC5FEB50B4604680026BC
:104C200000F1080134B1621C02606354741E062A4C
:104C30000CD014E04A780A704B70D1B25A2903D1D3
:104C4000A52B01D1022101600020FEBD4389ADF8F2
:104C500008304360B3F5FD7F01D9066018E0436872
:104C60009B1D9A42F0DB06600546ADF80860042201
:104C700002A800F013F805F10E0102A86A6800F01E
:104C80000DF8A889BDF80810ADF80000884201D0E1
:104C90002046FEBD284601F011FBFEBDF0B503889D
:104CA000002541F221070CE04C5D002683EA042335
:104CB0005C001B0400D57C40761C2346082EF7D3ED
:104CC0006D1C9542F0D30380F0BD000070B5F0EE8E
:104CD000603A0546B0EE404A9FED2A3ADFED2A2AB7
:104CE000B7EE002AF0EE610A00F044F910EE100A67
:104CF0002649884207DDBDE87040F0EE630AB0EE59
:104D0000440A00F0D3B9F0EE610AB0EE440A00F0B4
:104D100031F91F491F4AD1ED040A70EE800A10EEE6
:104D2000900AC1ED040A904202DDDFED1B0A06E0A5
:104D300010EE900A194A904201D3DFED190A20EED5
:104D4000031AC1ED040A81ED050A30EE400A00EEB7
:104D5000A21A4FF47A7000EE021ABDEEC10A10EEEC
:104D6000101A814202DC4042814200DC01466C1A8A
:104D70006B186242481941422046BDE8704002F07B
:104D800089B8000066662640000000000000F0417F
:104D9000040000200060EA460060EA460060EAC6BF
:104DA0000060EAC62DE9F0410024069E40F231156C
:104DB00006FB0546B0EE604AF0EE404A4FF4167529
:104DC0002746B3EE043A9FED5E2AF7EE002ADFEDA8
:104DD0005D3ADFED5D0A5D4C4FF0000ED4F838C04F
:104DE000B4450DD0DFF868C1B0EE420A8CE80F0080
:104DF000A66384ED0C0AC4F83CE084ED0B0A08E0DD
:104E000053490A68C968801A1844401A00EBD070E8
:104E10004710F11B00EE101AE06B4E4B0844B8EE41
:104E2000C00AE063626B63EE803A8A1A00EE102AD1
:104E3000B8EEC05AB0EE420A40EE053A00EE100A53
:104E4000B8EEC00A40EE803ABDEEE30A10EE102A3A
:104E5000AA4204DC9A4201DD154600E01D4647F2F5
:104E60003052904202DC5242904200DC10466163B4
:104E70001331E063272908D200231A461946184641
:104E800002F008F80120BDE8F081F0EE610AB0EE12
:104E9000640A00F06FF810EE100A2F49884206DD10
:104EA000F0EE440AB0EE640A00F000F946E0F0EEDD
:104EB000610AB0EE640A00F05DF810EE100A10F11D
:104EC000814F04D810EE100AB0F17E5F2EDDD4EDD4
:104ED0000B0A224970EE800A10EE900AC4ED0B0A0C
:104EE000884202DDDFED1E0A06E010EE900A1D4941
:104EF000884201D3DFED1C0A20EE031AC4ED0B0A31
:104F000084ED0C0A30EE400A00EE821A00EE221AFE
:104F1000BDEEC10A10EE100A962801DD962006E0CB
:104F20006FF09501884202DC084600E0002041193C
:104F30002B184A42281A414201F0ACFF0020A2E798
:104F400000000000CDCCCC3D0AD7233C040000205B
:104F5000FC040020A8FDFFFF0000F04100401C46BB
:104F600000401C4600401CC600401CC60A2001F040
:104F70006FF9FBE730EE600AB5EEC00AF1EE10FA09
:104F800004DD10EE100A0C49884211DD10EE101AF3
:104F90000A48814204D8B5EEC00AF1EE10FA07D9EA
:104FA00010EE101ADFED060A814202D930EE200A17
:104FB000704730EE600A704700003443000034C38D
:104FC0000000B4439AB02E4C0A220FA9606A02F086
:104FD0008DFE0A2216A9A06A02F088FE0A2212A9F2
:104FE000E06902F0E9FD00250DF1280606EB8502D7
:104FF0006D1CE9B2A068FBF7FDFD0A2001F028F95D
:10500000ADB2052DF2D302F0B1F91198FBF74CFBCC
:1050100006460F460E98FBF747FB04460D460D98D3
:10502000FBF742FBCDE900010C98FBF73DFB824604
:105030008B460B98FBF738FB804689460A98FBF7AE
:1050400033FB41EC100B06A853EC102B80E8F0006A
:10505000DDE90001CDE904018DE8000F09A1114847
:10506000FFF702F80F48FBF760F982B20D490E48CE
:10507000FDF736FD02F09AF90A2001F0E9F8A2E7FF
:10508000C0030020252E31662C252E31662C252EBE
:1050900031662C252E31662C252E31662C252E329C
:1050A000660A0000441500204425002010B5B0EE2B
:1050B0000C2A2DED028BB5EE001A9FED308AF0EE32
:1050C000610AFFF757FF2E4C2E49D4ED000A70EE0F
:1050D000800A10EE900AC4ED000A884202DDDFED7E
:1050E0002A0A06E010EE900A2849884201D3DFED33
:1050F000280A10EE100AC4ED000A84ED010AB0F18E
:105100003F4F1AD2F0EE401A11EE900AB0F17C5FD8
:1051100013DA00231A461946184601F0BBFE002395
:1051200084ED008A84ED018A1A461946184601F07A
:10513000B1FE0120BDEC028B10BDF0EE401A4FF421
:10514000FA7161EE821A40EE811AF0EE400A30EEFA
:10515000C00A40EE081ABDEEE10A10EE100A8842BD
:1051600002DC4942884200DC08464042434219467C
:10517000024601F08FFE0020DCE700000000000086
:105180000400002000007A4400007A4400007AC441
:1051900000007AC42DED048BFCA18EB0D1E9000192
:1051A000FC4C0027CDE90A013E46BB46606E02F08A
:1051B0008FFAB94684F8029084F801904B464A462B
:1051C0004946484601F066FEDFF8CC839FEDF38A3E
:1051D00008F520700D900A2203A9E06A02F086FD0E
:1051E0000A22EF49606B02F081FD0A2206A9E06BFA
:1051F00002F07CFD0021A06902F014FE012800D11C
:105200008246002207A9A06B02F070FD012800D1A0
:105210000126A0786178884200D00846A07018283E
:105220006FD2DFE800F00C32456F6EB8F9DEF8F7A8
:10523000F66EF5F4F3F2F16E6E6E6E6E6EF04FF484
:1052400087700090D6480DF10C0CB0EE480A0FC8DC
:10525000DCEC030AFFF706FC012815D100231A46EF
:105260001946184601F016FE01206070A070CA4869
:105270002C3007C88DE8070008F1200090E80E00E8
:10528000D8F81C0001F0F8FD02E203A8B0EE480ACD
:10529000D0EC030AFFF70AFF0128F5D100231A46D4
:1052A0001946184601F0F6FD02F070FA0220B4E04B
:1052B0004FF407700090BA480DF10C0CB0EE480A9C
:1052C0000FC8DCEC030AFFF76DFD0128DCD10023D9
:1052D0001A461946184601F0DDFD02F057FA032080
:1052E000A0706070AC48483007C88DE8070008F12E
:1052F0003C0090E80E00D8F8380001F0BDFD002613
:105300004FE2F0E33EB1BDF82000162806D0FEF7CC
:1053100095FE0026BCE1FEF78BFEBAE000231A469C
:105320001946184601F0B6FD02F030FABDF8220029
:10533000C0F381218DF82810C0F301218DF82910C8
:10534000C0F381118DF82A10C0F301118DF82B10D4
:10535000C0F381018DF82C1000F003008DF82D00B2
:1053600002F0F0FFFEF76AFE02F010FA0420A070CF
:10537000607008F1100108F104000EC98DE80E00FC
:1053800090E80E000026D8F8000001F075FD02F04C
:10539000D9FF0520F3E340F2EF10009080480DF1B3
:1053A0000C0CB0EE480A0FC8DCEC030AFFF75AFBFE
:1053B0000128AFD100231A461946184601F06AFDAC
:1053C00002F0E4F90720A070607040F2424060F300
:1053D0000F0540F24470002660F31F45FEF72EFED5
:1053E000DFE1BDF81800A9B2081A001D082817D976
:1053F000BDF81A10C1EB1540001D082810D902F0A5
:10540000C5F90720E1E1EEE3EEE3F6E2F2E1CBE1FC
:10541000ACE19EE18CE153E033E0A0706070C0E14C
:1054200002F0B4F90620A07060700026FEF706FEB8
:1054300002F088FFD8E90412D8F818000091CDE9ED
:10544000012008F1040090E80E00D8F8000001F0F7
:1054500013FDB8F8180000F0FBFE4F48643007C891
:105460008DE8070008F1580090E80E00D8F85400C5
:1054700001F002FDB8F86C0000F0EAFE494807C8E8
:1054800063E046B1BDF820000B280AD0FEF7D6FD38
:105490000026C820FCE2C82000F0DAFEFEF7C2FDBC
:1054A000F6E000231A461946184601F0F3FC02F014
:1054B0006DF908206070A0704FF0000A022770E1BB
:1054C000252F62D2DFE807F013394F83BDD1F26197
:1054D000616161F0EFEEED61616161616161ECEB71
:1054E000EAE961616161616161E8E7E6E500BAF1FD
:1054F000010F7CD0D8E90412D8F818000091CDE94A
:10550000012008F1040090E80E00D8F8000001F036
:10551000B3FCB8F8180000F09BFE1F4A643207CABB
:105520008DE8070008F1580090E80E00D8F8540004
:1055300001F0A2FCB8F86C00AAE2BAF1010F0ED09B
:10554000E078032878D0174A07CA8DE80700154885
:1055500010380FC801F090FCB8F8F002E4E04FF00A
:10556000000A022794E00AA9E0780A56BDF91E1045
:105570008A422AD1099A0A2A16D9401CE070C8B278
:1055800003270C900020099016E0CFE001020300F1
:1055900000000000C0030020780000200000000090
:1055A000601F002060030020501CADF81E90C0B2A8
:1055B0000990962000F04CFE0AA8E178BDF91E2063
:1055C0004156FAA0FEF740FD62E00020F0E7BAF194
:1055D000010F32D0F74A07CA8DE8070008F15800DA
:1055E00090E80E00D8F8540001F046FC00E08DE190
:1055F000B8F86C00C83000F02BFEEE4A1C3207CA27
:105600008DE8070008F1740090E80E00D8F87000EB
:1056100001F032FCB8F88800C83000F019FEE54A05
:10562000383207CA8DE80700E24828300FC801F079
:1056300023FCB8F8A40077E069E14FF0000A0427E2
:1056400026E0BAF1010F0CD0DA4A543207CA8DE8CD
:105650000700D84844300FC801F00EFCB8F8C0006D
:1056600062E04FF0000A052712E0BAF1010F0CD0FA
:10567000D04A703207CA8DE80700CE4860300FC8A4
:1056800001F0FAFBB8F8DC004EE04FF0000A062704
:1056900000E245E040E03BE036E031E02CE027E08E
:1056A00022E01DE018E013E00EE0FFE70C9801286F
:1056B00004D0022804D0032886D103E00B27F9E3A5
:1056C0002127F7E31627F5E3BAF1010F7ED0F9E1C0
:1056D000BAF1010F7BD00AE2BAF1010F78D01AE2D9
:1056E000BAF1010F75D0CCE0BAF1010F72D062E2CD
:1056F000BAF1010F6FD07BE2BAF1010F6CD08BE2EF
:10570000BAF1010FEED0ECE0BAF1010F6FD0CEE2AA
:10571000BAF1010F6CD0DEE2BAF1010F69D0EEE20E
:10572000BAF1010FDED00EE1C830B1E109200DE37E
:1057300040F262200090A0480DF10C0CB0EE480A37
:105740000FC8DCEC030AFFF78DF901288CD10A2081
:10575000FCE203A8B0EE480AD0EC030AFFF7A6FC6F
:10576000012895D102F012F80C2018E0934800901F
:1057700091480DF10C0C94ED140A0FC8DCEC030AEF
:10578000FFF710FB01289AD102F000F840F2977061
:1057900060F30F0540F2A64060F31F450D206070D6
:1057A000A07002F0CFFD85E3BDF81800A9B2081A79
:1057B000001D082814D9BDF81A10C1EB1540001DB2
:1057C00008280DD901F0E2FF0D2006E0CCE0D8E07A
:1057D000D8E0EAE0F6E00CE10CE1206417201CE6DA
:1057E00001F0D4FF0027BA46E7700E2015E61DE150
:1057F00037E137E1272F70D2DFE807F0142EE5E517
:10580000E5E5E5E5E5E5E5405054585C60E5E5E5AE
:10581000E5E57080848A8E92E5E5E5E5E5A2B2B71C
:10582000BBBFC600BAF1010F70D0E07803286ED07C
:10583000D8E90412D8F818000091CDE9012008F148
:10584000040090E80E00D8F8000001F015FBB8F84D
:10585000180000F5FA701BE10AA9E0780956012941
:1058600004D0022904D003299DD103E00B2702E0D4
:10587000212700E01627401CE0701BE3BAF1010F5E
:1058800072D04C4AE03207CA8DE807004948D03050
:105890000FC801F0F1FAB8F84C0145E7BAF1010F71
:1058A0006FD038E1BAF1010F6CD020E1BAF1010FED
:1058B00069D007E1BAF1010F76D0EFE0BAF1010F3C
:1058C00073D03F4A07CA8DE807003D4810380FC81B
:1058D00001F0D2FAB8F89C0226E774E0BAF1010FA1
:1058E00070D0374AE03A07CA8DE807003448F038EC
:1058F0000FC801F0C1FAB8F8BC0115E7BAF1010F01
:1059000077D089E1BAF1010F74D071E193E096E0AC
:10591000BAF1010F6FD04EE1BAF1010F6CD036E150
:10592000BAF1010F41D0264A383207CA8DE8070084
:10593000234828300FC801F09FFAB8F8D402F3E6E4
:10594000BAF1010F72D01E4A703A07CA8DE80700FB
:105950001B4880380FC801F08FFAB8F82C02E3E634
:10596000BAF1010F7DD0CAE18EE0BAF1010F79D012
:10597000B1E1BAF1010F76D099E1BAF1010F73D01C
:1059800081E198E0AAE0BFE0BAF1010F0DD00C4A26
:105990001C3207CA8DE8070009480C300FC801F017
:1059A0006BFAB8F8B802BFE6C2E0C5E025642C2562
:1059B000640A0000DC000020601F0020E4FDFFFFFF
:1059C0000C030020DCE008F11000474607C88DE812
:1059D000070098E80F0001F04FFA388B00F5FA70D5
:1059E00000F036FC0F2060700027A070BA46E77008
:1059F00060E2D9E0ECE008E11BE1272F72D2DFE89A
:105A000007F01918717171717171717171204A5EAD
:105A100073871771717171719FC3D7F4F01671712B
:105A2000717171EFEEEDECEB140079E624E167E6BD
:105A300056E611E7F6E64FF0000A01273AE2FA27A8
:105A400038E2BAF1010F1FD0F94A07CA8DE8070002
:105A5000F74810380FC801F00FFAB8F89C02C830A8
:105A600003E01DE130E143E156E100F0F1FBF04AD3
:105A7000703207CA8DE807000D9874300FC801F026
:105A8000FBF9B8F80C034FE64FF0000A0C2711E2BF
:105A900000F0DEFB0EE2BAF1010F0CD0E44A543AFA
:105AA00007CA8DE80700E24864380FC801F0E4F93E
:105AB000B8F8480238E64FF0000A0D27FAE1BAF1CB
:105AC000010F0BD0DB4A07CA8DE80700D948103810
:105AD0000FC801F0D1F9B8F8F80025E64FF0000A38
