:020000040800F2
:10000000688C00205D020008614200084935000844
:10001000E141000853090008815300080000000076
:100020000000000000000000000000009D0100082A
:10003000F30B000800000000F9010008A9440008C3
:1000400077020008770200087702000877020008AC
:10005000770200087702000877020008770200089C
:100060007702000877020008770200088909000873
:1000700099090008DD090008ED0900087702000869
:10008000FD090008770200087702000877020008DF
:10009000770200087702000877020008770200085C
:1000A000770200087702000877020008770200084C
:1000B000E1450008F1450008014600087702000804
:1000C000770200087702000877020008770200082C
:1000D00077020008994F0008A94F0008B94F00089F
:1000E000770200087702000877020008770200080C
:1000F00077020008770200087702000877020008FC
:10010000770200087702000811460008770200080D
:10011000094900081949000821460008314600082D
:1001200077020008410A0008850A000877020008E3
:1001300077020008770200087702000877020008BB
:1001400077020008770200087702000877020008AB
:1001500077020008C90A0008D90A0008C94F000838
:10016000770200087702000877020008770200088B
:1001700077020008770200087702000800000000FC
:100180007702000877020008DFF80CD000F0A0FB2F
:1001900000480047599A0008688C00202C4B1968C9
:1001A0000868B0E8F04F80F30988BFF36F8F4FF015
:1001B000000080F3118870470000000008480068C4
:1001C000006880F308884FF0000080F3148862B65E
:1001D00061B6BFF34F8FBFF36F8F00DF00BF00BF6B
:1001E00008ED00E0DFF80C00016841F470010160E7
:1001F000704700BF88ED00E0EFF30980BFF36F8F19
:10020000134B1A681EF0100F08BF20ED108A20E96A
:10021000F04F106009B44FF0500080F31188BFF325
:100220004F8FBFF36F8F0BF091FC4FF0000080F306
:10023000118809BC19680868B0E8F04F1EF0100F6B
:1002400008BFB0EC108A80F30988BFF36F8F704746
:10025000FC050020EFF3058070470000064880474A
:1002600006480047FEE7FEE7FEE7FEE7FEE7FEE79B
:10027000FEE7FEE7FEE7FEE7C54500088901000846
:100280002DE9F05F0546002092469B4688460646CB
:10029000814640241BE0284641464746224600F05E
:1002A00060FA53465A46C01A914110D31146184677
:1002B000224600F047FA2D1A67EB01084F46224606
:1002C0000120002100F03EFA17EB00094E41201EEC
:1002D000A4F10104DFDC484631462A464346BDE826
:1002E000F09F40EA01039B0703D009E008C9121FF1
:1002F00008C0042AFAD203E011F8013B00F8013BE0
:10030000521EF9D27047D2B201E000F8012B491E0B
:10031000FBD270470022F6E710B513460A460446A2
:100320001946FFF7F0FF204610BD421E12F8013FAC
:10033000002BFBD111F8013B02F8013B002BF9D156
:100340007047421C10F8011B0029FBD1801A70472E
:10035000034611F8012B00F8012B002AF9D11846A9
:1003600070472DE9FE4F804681EA0300C00F0C461E
:10037000009021F0004123F00045B8EB0200A941B4
:1003800005D24046214690461C460B46024623F0C5
:100390000040104347D0270DC7F30A00C3F30A51AA
:1003A0000290401A019040286BDAC3F3130040F426
:1003B000801B0098924620B10023D2EB030A63EB26
:1003C0000B0B01985946C0F14002504600F0BAF9B3
:1003D00006460D4650465946019A00F0D2F910EBF8
:1003E00008006141002487EA115284EAE7731A4346
:1003F00040D0009A62B3019A012A4FEA075215DCF5
:10040000001B61EB02014FF0004202EA0752CDE906
:100410000042001C41F5801132462B4600F009FADB
:1004200003B0BDE8F08F40462146F9E7001B61EBC1
:100430000201001C41F5801300185B412018A2F551
:10044000001747EB030140EAD570B6196D4111E082
:100450006D084FEA360645EAC0754FEA0752001BA1
:1004600061EB0201001C41F5801149084FEA3000A0
:100470000019514132462B4603B0BDE8F04F00F061
:10048000C9B90098012240000023D0EB020263EBBF
:10049000E073009821464FEAE074B8EB000061EB8E
:1004A0000401E9E783F000435BE781F0004158E78E
:1004B0002DE9FE4F81EA030404F0004421F00041DD
:1004C00000944FF0000B23F0004350EA01045ED08B
:1004D00052EA03045BD0C3F30A54C1F30A552C4417
:1004E000A4F2F3340194A0FB0254C1F3130141F4CC
:1004F0008011C3F3130343F4801301FB024400FB98
:10050000034E840A970A44EA815447EA8357A4FBBE
:10051000076802958D0A05FB07854FEA932C04FBBB
:100520000C542705029D4FEA065847EA1637B5EBEB
:1005300008056EEB070C870E920E47EA811742EA18
:100540008312A7FB0201B6EB0B0164EB00042B0D39
:1005500043EA0C335E1844EB1C50DA465146E7FB85
:100560000201C5F313044FEA0B3343EA14534FEA75
:100570000432019C43EA0603A4F10C040294009C9B
:10058000CDE900B400F055F903B0BDE8F08F0020CC
:100590000146F9E72DE9F04D81EA030404F0004B30
:1005A00021F0004514464FF0000A23F0004150EAC4
:1005B000050220D054EA01021DD0C5F30A570246B5
:1005C000C5F31303C1F31300C1F30A5640F48015B9
:1005D00043F48013A7EB0608101BD64608F2FD383B
:1005E00073EB050002D308F1010801E092185B41AA
:1005F000B8F1000F03DA00200146BDE8F08D0020BD
:100600004FF48011064684460EE0171B73EB050776
:1006100005D3121B63EB050306434CEA010C4908A2
:100620004FEA300092185B4150EA0107EDD152EADF
:10063000030012D082EA040083EA0501084305D0D2
:10064000101BAB4106D20122002306E000224FF02E
:10065000004302E06FF0010253101AEB06004CEB6E
:10066000085110EB0A0041EB0B01BDE8F04D00F022
:10067000D1B80EB5C10F80EAE0700844CA07002166
:1006800040F233438DE80E000A460B4600F0D1F8E5
:1006900003B000BD0EB540F2334102910021CDE917
:1006A00000110A460B4600F0C4F803B000BDC1F3C8
:1006B0000A5210B5C1F3130140F2FF3341F4801127
:1006C0009A4201DA002010BD40F233439A42A2F26E
:1006D000334203DC524200F044F810BD904010BD9C
:1006E00001F0004330B421F0004150EA010206D08D
:1006F0000A0DA2F56072C1F31301002A02DC30BCBE
:1007000000207047440F44EAC104C100E01830BC27
:1007100000EBC25000F047B830B50B460146002050
:100720002022012409E021FA02F59D4205D303FAB3
:1007300002F5491B04FA02F52844151EA2F1010234
:10074000F1DC30BD202A04DB203A00FA02F100205F
:1007500070479140C2F1200320FA03F319439040FF
:100760007047202A04DB203A21FA02F0002170476A
:1007700021FA02F3D040C2F1200291400843194609
:100780007047202A06DBCB17203A41FA02F043EAF1
:10079000E07306E041FA02F3D040C2F1200291403A
:1007A0000843194670470029A8BF7047401C4900FC
:1007B00008BF20F00100704710B4B0FA80FC00FAC6
:1007C0000CF050EA010404BF10BC704749B1CCF1F1
:1007D000200421FA04F411FA0CF118BF012121437D
:1007E0000843A3EB0C01CB1D4FEA00614FEA102038
:1007F00042BF002010BC704700EBC35010440029DA
:10080000A4BF10BC7047401C490008BF20F0010085
:1008100010BC704710B5141E73F1000408DA401CB8
:1008200041F1000192185B411A4301D120F001000F
:1008300010BD2DE9F04D92469B4611B1B1FA81F2FF
:1008400002E0B0FA80F220329046FFF77BFF0446C8
:100850000F4640EA0A0041EA0B0153465A46084354
:1008600013D0114653EA010019D0C8F14002504696
:10087000FFF777FF05460E46504659464246FFF7BA
:1008800061FF084305D0012004E020463946BDE859
:10089000F08D0020054346EAE0762C4337430A9862
:1008A0006305E40AA0EB08000022FD0A44EA47546D
:1008B0000A3002D500200146E9E701051019694117
:1008C000DDE9084500196941BDE8F04DA2E70000E7
:1008D000064C074D06E0E06840F0010394E807008D
:1008E00098471034AC42F6D3FFF752FCA4CD000871
:1008F000C4CD000870B58D1810F8014B14F0030238
:1009000001D110F8012B231106D110F8013B03E0AF
:1009100010F8016B01F8016B521EF9D1ABB110F860
:10092000012B04F00C048A1A0C2C03D0A2EB8412C5
:100930009B1C08E010F8014BA2EB0422F8E712F828
:10094000014B01F8014B5B1EF9D5A942D4D300201D
:1009500070BD00BFFEE7000010B502A004F02CFD42
:1009600010BD00004200000010B502A004F024FDFC
:1009700010BD00004100000010B502A004F01CFDF5
:1009800010BD00004400000010B5024800F058FB04
:1009900010BD00003828002008B5002000900B484A
:1009A000007870B169460A4800680BF019FB00989E
:1009B00038B14FF0805007490860BFF34F8FBFF345
:1009C0006F8F054800F03CFB08BD0000500500207B
:1009D0006005002004ED00E0B829002010B50248B1
:1009E00000F02EFB10BD0000D827002010B50248F3
:1009F00000F026FB10BD0000182A002008B50020DA
:100A000000900B48007870B169460A4800680BF006
:100A1000E7FA009838B14FF0805007490860BFF3FB
:100A20004F8FBFF36F8F054800F00AFB08BD000031
:100A3000500500205C05002004ED00E0582900204E
:100A400008B5002000900B48007870B169460A484C
:100A500000680BF0C5FA009838B14FF08050074994
:100A60000860BFF34F8FBFF36F8F054800F0E8FABF
:100A700008BD0000500500206405002004ED00E0E2
:100A8000782A002008B5002000900B48007870B14B
:100A900069460A4800680BF0A3FA009838B14FF095
:100AA000805007490860BFF34F8FBFF36F8F054831
:100AB00000F0C6FA08BD00005005002070050020B7
:100AC00004ED00E09828002010B5024800F0B8FAC4
:100AD00010BD0000D82A002010B5024800F0B0FA7E
:100AE00010BD0000F82800200146087810381823AF
:100AF000B0FBF3F20848805CC865032A05D9086892
:100B00006FF30900001D886503E008686FF30900B2
:100B10008865886D70470000E0CC00080146002021
:100B20008A6A8B69CBB932B1012A0DD0022A03D06F
:100B3000032A10D10EE000BFCB6A03F08073B3F13B
:100B4000807F00D1012007E0CB6AB3F1C07F00D1E4
:100B5000012001E000E000BF34E08B69B3F5005FE5
:100B60001AD132B1012A07D0022A03D0032A11D1A7
:100B70000AE000BF01200EE0CB6A03F08073B3F1FE
:100B8000807F00D1012006E0CB6AB3F1C07F00D1A5
:100B9000012000E000BF15E032B1012A05D0022A91
:100BA00004D0032A0CD103E000BF00BF012008E0FD
:100BB000CB6A03F08073B3F1807F00D1012000E0A5
:100BC00000BF00BF704730B50468246824F4802457
:100BD00005682C60046863608468402C04D1046854
:100BE000A2600468E16003E00468A1600468E26058
:100BF00030BD704772B600BFFEE770B590B00446D6
:100C00006A4632210DA803F083FB0DA9204600F0AF
:100C10000DF80DA803F038FB401E86B231460DA832
:100C200003F060FB0546284610B070BD70B5044661
:100C30000D462188284603F0ECFBA178284603F0F6
:100C4000C8FBE178284603F0C4FBE278211D284662
:100C500003F0C7FB284603F031FB06463146284621
:100C600003F0B7FB70BD00002DE9F7432DED048BB9
:100C70008EB0804614464FF0010913AB01220A21C1
:100C8000404600F011F96946404600F071F8074609
:100C900017BB9DF804509DF84C00854205D00720F5
:100CA0000EB0BDEC048BBDE8FE839DF805109DF8E9
:100CB000060041EA002006B23046FFF7DAFC41ECBC
:100CC000190B9FED060B53EC102BFFF763FC41EC67
:100CD000180BFFF705FD20603846E1E70000000033
:100CE000000024402DE9F7432DED048B8EB08046A3
:100CF00014464FF0010913AB01221021404600F0C9
:100D0000D3F86946404600F033F807464FBB9DF8DC
:100D100004509DF84C00854205D007200EB0BDEC74
:100D2000048BBDE8FE839DF805109DF8060041EA9E
:100D300000219DF8070041EA00419DF8080041EAC2
:100D400000663046FFF795FC41EC190B9FED060B52
:100D500053EC102BFFF71EFC41EC180BFFF7C0FC07
:100D600020603846DAE70000000000000000244060
:100D70002DE9F04105460C46002084F83700002795
:100D80000026642003F05CFB87E0A86803F07CFA8F
:100D900000B982E094F8370000F00800C8B1A868F4
:100DA00003F011FB04F8360F607840F0100060701B
:100DB000363C2046FFF721FF94F83610884204D0D5
:100DC00003F04EFB0620BDE8F08103F049FB002054
:100DD000F9E794F8370000F0040080B1A86803F048
:100DE000F2FA211DC855781CC7B2E078B84253D139
:100DF00094F8370040F0080084F837004CE094F88D
:100E0000370000F0020088B1A86803F0DCFAE07057
:100E1000E0782D2803DD03F023FB0520D3E794F8C9
:100E2000370040F0040084F8370035E094F83700CC
:100E300000F0010088B1A86803F0C5FAA070A0789E
:100E4000112803DD03F00CFB0420BCE794F8370005
:100E500040F0020084F837001EE03EB9A86803F0B5
:100E6000B2FA0646052E17D0002615E0052E12D13F
:100E7000A86803F0A8FA46EA002641F60540864233
:100E800001D0002608E0268094F8370040F00100E9
:100E900084F8370000E0002600BF03F0F1FA0028D4
:100EA0003FF473AF02208EE7F0B58FB005460E46D3
:100EB00014461F4644F61240ADF804008DF8066053
:100EC0008DF80740002003E03A5C02A90A54401C58
:100ED000A042F9DB01A86968FFF7A8FE284604F0E4
:100EE00051FA0FB0F0BD00002DE9F0432DED028B5B
:100EF00085B006460F46B0EE408A14461D46DDF822
:100F000038804FF0070903AA0721684603F000FA6A
:100F10009FED230AB4EEC08AF1EE10FA04DD9FEDD6
:100F2000200AB0EE408A0AE09FED1E0AB4EEC08AA5
:100F3000F1EE10FA03D29FED1B0AB0EE408A39465B
:100F4000684603F046FAB2EE040A28EE000ABDEE47
:100F5000C00A10EE100A01B2684603F051FA2146A9
:100F6000684603F056FA2946684603F052FA0DF136
:100F70000D03072208213046FFF796FFB8F1000F56
:100F80000BD00022B0EE480A3946304600F00CF88B
:100F900005B0BDEC028BBDE8F0830020F8E700004F
:100FA00000003443000034C3F0B52DED028B81B056
:100FB00006460F46B0EE408A1446002528E02CB1C4
:100FC0006A4639463046FFF78DFE04E06A463946E8
:100FD0003046FFF749FE9DED000A38EE400AF0EE7C
:100FE000C08A9FED0C0AF4EEC08AF1EE10FA04D824
:100FF000002001B0BDEC028BF0BD681C85B242F24E
:101000001070854201DB0120F3E7642003F042FA0F
:10101000D5E70000CDCC4C3F014691F835000228C1
:1010200003D08020486501207047052081F83500F5
:101030000868006820F001000A6810600020F3E7EB
:10104000F8B50446002000908C4800684FF4165113
:10105000B0FBF1F7A56D2E6894F85C10082088406D
:10106000304098B12068006800F0040070B120683A
:10107000006820F004002168086094F85C100820E3
:101080008840A860606D40F00100606594F85C10D5
:1010900001208840304068B12068406900F080003D
:1010A00040B194F85C1001208840A860606D40F069
:1010B0000200606594F85C1004208840304068B1FC
:1010C0002068006800F0020040B194F85C10042031
:1010D0008840A860606D40F00400606594F85C1082
:1010E00010208840304078B32068006800F0080085
:1010F00050B394F85C1010208840A8602068006805
:1011000000F4802080B12068006800F4002028B935
:10111000206CC8B12046216C884715E0A06C98B1BE
:101120002046A16C88470FE02068006800F48070BA
:1011300028B92068006820F0080021680860206C49
:1011400010B12046216C884794F85C10202088401C
:101150003040002865D02068006800F010000028AA
:101160005FD094F85C1020208840A86094F8350087
:10117000052828D12068006820F016002168086042
:101180002068406920F0800021684861206C08B91F
:10119000A06C28B12068006820F008002168086071
:1011A00094F85C103F208840A86000BF002084F8BD
:1011B000340000BF012084F83500206D10B12046B6
:1011C000216D8847F8BD2068006800F4802080B158
:1011D0002068006800F4002028B9606C10B1204637
:1011E000616C88471DE0E06BD8B12046E16B884711
:1011F00017E02068006800F4807068B92068006813
:1012000020F010002168086000BF002084F834003E
:1012100000BF012084F83500E06B10B12046E16B7F
:101220008847606D38B3606D00F00100F0B10520B3
:1012300084F835002068006820F00100216808600B
:1012400000BF0098401C0090B84200D905E020681B
:10125000006800F001000028F3D100BF00BF0020AB
:1012600084F8340000BF012084F83500E06C10B130
:101270002046E16C884700BFA4E70000F805002085
:101280002DE9F0410446002500F0D4F9074614B9D1
:101290000120BDE8F081606A00B100BF00BF0020FE
:1012A00084F8340000BF022084F83500206800680C
:1012B00020F00100216808600AE000F0BBF9C01BC3
:1012C000052805D920206065032084F83500E0E773
:1012D0002068006800F001000028EED12068056851
:1012E00021480540D4E901010843E1680843216928
:1012F000084361690843A1690843E1690843216A19
:1013000008430543606A042803D1D4E90B0108436C
:101310000543206805602068456925F00705606A77
:101320000543606A04280DD1A06A0543E06A48B10C
:101330002046FFF7F3FB28B140206065012084F8C8
:101340003500A6E7206845612046FFF7CDFB06463D
:1013500094F85C103F208840B06000206065012058
:1013600084F83500002094E73F8010F02DE9F04725
:1013700004460D4616461F464FF00008D4F8589014
:1013800000BF94F83400012802D10220BDE8F087A4
:10139000012084F8340000BF94F83500012825D1DD
:1013A000022084F83500002060653B46324629461D
:1013B0002046FFF708FC94F85C103F208840C9F8ED
:1013C00008002068006840F0160021680860206C62
:1013D00028B12068006840F0080021680860206893
:1013E000006840F001002168086006E000BF0020AE
:1013F00084F8340000BF4FF002084046C6E7000002
:1014000070B5044600F016F906462546681C10B172
:1014100004480078054400BF00F00CF9801BA84286
:10142000FAD370BDF4050020F8B502460B4600253E
:10143000002400200021DCE0012606FA01F51E68E8
:1014400006EA0504AC4273D15E68012E08D05E68DE
:10145000022E05D05E68112E02D05E68122E13D1C6
:1014600090684F000326BE40B0434F00DE68BE4088
:1014700030439060506801268E40B0431E79C6F319
:1014800000168E4030435060D0684F000326BE40A7
:10149000B0434F009E68BE403043D0605E68022E6D
:1014A00002D05E68122E13D1CF0802F1200656F842
:1014B00027004E07F70E0F26BE40B0434F07FF0E22
:1014C0001E69BE403043CF0802F1200646F82700CF
:1014D00010684F000326BE40B0431E7906F0030695
:1014E0004F00BE40304310605E6806F08056B6F193
:1014F000805F7DD100BF00260096404E366846F4DE
:1015000080463E4F3E603E46366806F48046009672
:1015100000BF00BF3A4E8F0856F827008E07370FDE
:101520000F26BE40B043374EB24202D1002624E01F
:101530005EE0354EB24201D101261EE0334EB2428A
:1015400001D1022619E0324EB24201D1032614E045
:10155000304EB24201D104260FE02F4EB24201D1EB
:1015600005260AE02D4EB24201D1062605E02C4E9A
:10157000B24201D1072600E008268F073F0FBE4088
:1015800030431F4E8F0846F82700264E3068A04390
:101590005E6806F48036B6F5803F00D12043214EC8
:1015A0003060361D3068A0435E6806F40036B6F53C
:1015B000003F00D120431B4E361D3060361D306881
:1015C000A0435E6806F48016B6F5801F00D1204364
:1015D000144E08363060361D3068A0435E6806F44D
:1015E0000016B6F5001F00D120430E4E0C363060B9
:1015F000491C1029FFF420AFF8BD00004438024018
:101600000838014000000240000402400008024087
:10161000000C02400010024000140240001802407A
:10162000001C0240003C01400AB1816101E00B0452
:10163000836170470148006870470000EC05002096
:101640000348006803490978084401490860704765
:10165000EC050020F405002010B50D48006840F4AA
:1016600000700B4908600846006840F4806008601C
:101670000846006840F480700860032000F0C8F855
:10168000002000F007F800F04BF8002010BD00002B
:10169000003C024070B588B00446002500260022B8
:1016A0002146372000F076F8372000F063F800BFBD
:1016B000002001901648006840F02000144908609E
:1016C0000846006800F02000019000BF00BF02A99A
:1016D00003A800F073F900F099F945000D48B5FB37
:1016E000F0F0461E0C480D49086040F2E7310B4807
:1016F000C160466000210161816000F0D9FC20B921
:10170000064800F06FFD08B070BD0120FBE7000047
:101710004038024040420F0000140040382B0020A7
:1017200008B500BF002000901148006840F48040D8
:101730000F4908600846006800F48040009000BF30
:1017400000BF00BF00200090081F006840F08050DC
:10175000091F08600846006800F08050009000BF34
:1017600000BF00220F21901E00F014F808BD0000F9
:101770004438024001460846002809DB00F01F03F8
:1017800001229A4043099B0003F1E023C3F80021A2
:1017900000BF70472DE9F05F80460D4616460027D2
:1017A00003F040FE074639462A46334601F007005B
:1017B000C0F1070ABAF1040F02D94FF0040A01E0A0
:1017C000C0F1070AD14600F1040ABAF1070F02D2AC
:1017D0004FF0000A01E0A0F1030AD4464FF0010ADD
:1017E0000AFA09FAAAF1010A0AEA020A0AFA0CFA42
:1017F0004FF0010B0BFA0CFBABF1010B0BEA030BE7
:101800004AEA0B042146404603F014FEBDE8F09F6F
:1018100000BF00F00702064B19684FF6FF0319409E
:10182000044B0B4343EA0221014B196000BF704790
:101830000CED00E00000FA0570B504460D460CB949
:10184000012070BD5848006800F00F00A84209D27E
:1018500055490D700846006800F00F00A84201D0FD
:101860000120EEE7207800F0020002281DD1207848
:1018700000F00400042805D14C48006840F4E05012
:101880004A490860207800F00800082805D1474838
:10189000006840F46040454908604448006820F012
:1018A000F000A168084341490860207800F0010079
:1018B000A8B36068012807D13C4808380068C0F325
:1018C0004040B8B90120BCE76068022802D06068D7
:1018D000032807D1354808380068C0F3406048B98C
:1018E0000120AEE7314808380068C0F3400008B96D
:1018F0000120A6E72D48006820F003006168084336
:101900002A490860FFF796FE064609E0FFF792FEB7
:10191000801B41F28831884202D9032091E707E019
:101920002248006800F00C006168B0EB810FEDD137
:101930001D48006800F00F00A84209D91A490D702F
:101940000846006800F00F00A84201D0012078E7A7
:10195000207800F00400042807D11448006820F41F
:10196000E050E168084311490860207800F0080061
:10197000082808D10D48006820F46040216940EA39
:10198000C1000A49086000F061F808490968C1F31C
:101990000311074A515CC8400649086006480068C0
:1019A000FFF778FE00204CE7003C02400838024078
:1019B000E8CC0008F8050020F00500200F220260A6
:1019C0000D4A126802F0030242600B4A126802F0EC
:1019D000F0028260084A126802F4E052C260064ACD
:1019E000126802F46042D2080261044A126802F0EE
:1019F0000F020A607047000008380240003C0240B5
:101A00000148006870470000F805002000B5FFF7A6
:101A1000F7FF04490968C1F38221034A515CC840B9
:101A200000BD000008380240F8CC000800B5FFF700
:101A3000E7FF04490968C1F34231034A515CC840D9
:101A400000BD000008380240F8CC00082DE9F0473E
:101A5000002400250026A1462548006800F00C005F
:101A600020B1042805D008283AD105E0DFF8849099
:101A700039E0DFF8849036E01D48001F006800F070
:101A80003F041B48001F006800F4800078B11A482A
:101A90001749091F0968C1F38811A0FB01700146AD
:101AA000224600233846FEF7EBFB05460EE01148C0
:101AB0000F49091F0968C1F38811A0FB0170014695
:101AC000224600233846FEF7DBFB05460848001F88
:101AD0000068C0F30140401C4600B5FBF6F902E087
:101AE000DFF8109000BF00BF4846BDE8F087000057
:101AF000083802400024F40000127A00F8B50446C9
:101B00000CB90120F8BD207800F00100002874D045
:101B1000F948006800F00C0004280DD0F648006871
:101B200000F00C00082813D1F348001F006800F4EF
:101B30008000B0F5800F0BD1EF4808380068C0F383
:101B40004040002859D06068002856D10120D9E7CC
:101B500000BF6068B0F5803F08D1E74808380068EA
:101B600040F48030E449083908601EE06068B0F550
:101B7000A02F0DD1E0480838006840F48020DE49ED
:101B8000083908600846006840F4803008600CE0BE
:101B9000D9480838006820F48030D74908390860EF
:101BA0000846006820F48020086000BF606890B19B
:101BB000FFF740FD054606E0FFF73CFD401B6428AB
:101BC00001D903209EE7CC4808380068C0F34040A4
:101BD0000028F1D011E0FFF72DFD054606E0FFF7E4
:101BE00029FD401B642801D903208BE7C24808382F
:101BF0000068C0F340400028F1D1207800F00200D6
:101C000002285FD1BC48006800F00C0058B1BA4807
:101C1000006800F00C0008281CD1B748001F0068BD
:101C200000F48000B0B9B44808380068C0F3400040
:101C300020B1E068012801D0012063E7AE480838F0
:101C4000006820F0F800216940EAC100AA4908397B
:101C5000086037E0E06800B30120A8490860FFF79A
:101C6000E9FC054606E0FFF7E5FC401B022801D928
:101C7000032047E7A04808380068C0F34000002868
:101C8000F1D09D480838006820F0F800216940EA4A
:101C9000C10099490839086014E00020974908609C
:101CA000FFF7C8FC054606E0FFF7C4FC401B02280E
:101CB00001D9032026E7904808380068C0F34000A7
:101CC0000028F1D1207800F0080008282CD16069A4
:101CD000A8B101208A490860FFF7ACFC054606E080
:101CE000FFF7A8FC401B022801D903200AE782481D
:101CF0006C300068C0F340000028F1D014E00020F0
:101D00007F490860FFF796FC054606E0FFF792FC66
:101D1000401B022801D90320F4E677486C300068A4
:101D2000C0F340000028F1D1207800F0040004281E
:101D300070D1002770483830006800F0805090B9AA
:101D400000BF002000906C483830006840F08050A0
:101D50006949383108600846006800F080500090FA
:101D600000BF00BF01276748006800F48070B0B969
:101D70006448006840F4807062490860FFF75AFCCC
:101D8000054606E0FFF756FC401B022801D9032058
:101D9000B8E65C48006800F480700028F2D000BF0C
:101DA000A068012808D154486830006840F001005C
:101DB0005149683108601DE0A06805280DD14E48E2
:101DC0006830006840F004004B49683108600846FC
:101DD000006840F0010008600CE047486830006887
:101DE00020F001004449683108600846006820F08E
:101DF0000400086000BFA068A8B1FFF71BFC0546FF
:101E000009E0FFF717FC401B41F28831884202D9F4
:101E1000032077E626E0384868300068C0F34000C9
:101E20000028EED013E0FFF705FC054608E0FFF7B9
:101E300001FC401B41F28831884201D9032061E650
:101E40002D4868300068C0F340000028EFD1012F12
:101E500007D129483830006820F0805026493831B1
:101E6000086000BFA069002845D02348006800F042
:101E70000C0008285DD0A069022845D100201F4928
:101E80000866FFF7D7FB054606E0FFF7D3FB401BCC
:101E9000022801D9032035E6174808380068C0F346
:101EA00040600028F1D1D4E907010843616A40EAA3
:101EB00081110122A06AC2EB500041EA00412C20AE
:101EC000005D41EA00600C49091F086001200B49D0
:101ED0000866FFF7AFFB054606E0FFF7ABFB401BCC
:101EE000022801D903200DE6034808380068C0F332
:101EF00040600028F1D03FE008380240000047422F
:101F0000800E47420070004000201C490866FFF721
:101F100091FB054606E0FFF78DFB401B022801D927
:101F20000320EFE516480068C0F340600028F2D1B6
:101F300022E0A069012800D1E4E51148001D0668EF
:101F400006F48001E069814214D106F03F01206A65
:101F500081420FD147F6C0703040616A884209D192
:101F600006F44031A06A814204D106F07061E06A53
:101F7000814201D00120C5E50020C3E500004742B1
:101F8000003802407047704710B50346002200BF7A
:101F900093F83C00012801D1022010BD012083F8F4
:101FA0003C0000BF22F0FF00CC6840EA040222F4AB
:101FB00040708C6840EA040222F480604C6840EA79
:101FC000040222F400600C6840EA040222F480500B
:101FD0000C6940EA040222F400504C6940EA040211
:101FE00022F48040CC6940EA04021868426400BFD1
:101FF000002083F83C0000BF00BFCEE730B50246AA
:102000000B4600BF92F83C00012801D1022030BDF0
:10201000012082F83C0000BF022082F83D001068D9
:1020200044681068816824F07004186804431068DC
:102030004460184D1068A8421BD01068B0F1804F62
:1020400017D0154D1068A84213D0144D1068A8423F
:102050000FD0134D1068A8420BD0124D1068A84243
:1020600007D0114D1068A84203D0104D1068A84247
:1020700005D121F08001586801431068816001207A
:1020800082F83D0000BF002082F83C0000BF00BF86
:10209000BDE70000000001400004004000080040CF
:1020A000000C0040000401400040014000180040C6
:1020B00010B504460CB9012010BD94F83D0028B9B4
:1020C000002084F83C00204600F00CF8022084F840
:1020D0003D00211D206802F0B3FA012084F83D0084
:1020E0000020E9E738B5044638492068884218D10D
:1020F00000BF002000903648006840F010003449CE
:1021000008600846006800F01000009000BF00BFA3
:10211000002205213620FFF73DFB3620FFF72AFB82
:1021200053E02C492068884211D100BF0020009064
:102130002748001D006840F400302549091D08604B
:102140000846006800F40030009000BF3DE02249DE
:102150002068884211D100BF002000901C48001D5B
:10216000006840F480201A49091D0860084600688C
:1021700000F48020009000BF27E0184920688842C2
:102180000FD100BF002000901148006840F080008F
:102190000F4908600846006800F08000009000BF0A
:1021A00013E00F49206888420FD100BF0020009043
:1021B0000748006840F480700549086008460068D8
:1021C00000F48070009000BF00BF38BD00100040D8
:1021D000403802400044014000480140001C0040DB
:1021E0000020004001460868C06840F001000B680C
:1021F000D8600868806800F00702062A05D00868E1
:10220000006840F001000B681860002070472DE95D
:10221000F04104460D4614B90120BDE8F08194F860
:102220003D0028B9002084F83C00204600F046F824
:10223000022084F83D002068806844F2070188434A
:1022400021688860211D206802F0FAF92068D0F822
:102250000880206886692068076A286840EA0808BC
:1022600040F203308643A969A86840EA012006438A
:1022700040F60C4086434FF2F0008643E969E86877
:1022800040EA0120064328690001296A40EA01303A
:10229000064327F0220727F088076969686840EA43
:1022A000011007432068C0F8088020688661206814
:1022B0000762012084F83D000020AEE710B586B02B
:1022C0000446142101A8FEF725F82068B0F1804FDC
:1022D00053D100BF002000908248006840F0010008
:1022E000804908600846006800F00100009000BFC7
:1022F00000BF00BF002000907A481038006840F00E
:1023000001007849103908600846006800F00100B3
:10231000009000BF00BF00BF00200090084600688A
:1023200040F0020008600846006800F002000090DB
:1023300000BF00BF202001900220029000200390E7
:1023400004900120059001A96748FFF76DF8082067
:10235000019002200290002003900490012005903B
:1023600001A96248FFF760F8002205211C20FFF751
:1023700011FA1C20FFF7FEF9B2E05D49206888429F
:1023800037D100BF002000905648006840F002009E
:10239000544908600846006800F00200009000BF41
:1023A00000BF00BF002000904E481038006840F089
:1023B00002004C49103908600846006800F002002D
:1023C000009000BF00BF302001900220029000204A
:1023D000039004900220059001A94448FFF724F8D7
:1023E000002205211D20FFF7D5F91D20FFF7C2F9B6
:1023F00076E040492068884237D100BF0020009035
:102400003848006840F00400364908600846006813
:1024100000F00400009000BF00BF00BF002000904B
:1024200030481038006840F002002E49103908602A
:102430000846006800F00200009000BF00BFC02006
:102440000190022002900020039004900220059049
:1024500001A92648FEF7E8FF002205211E20FFF70C
:1024600099F91E20FFF786F93AE02349206888424F
:1024700036D100BF002000901A48006840F00800E4
:10248000184908600846006800F00800009000BF86
:1024900000BF00BF0020009012481038006840F0D4
:1024A00001001049103908600846006800F001007A
:1024B000009000BF00BF0320019002200290002086
:1024C000039004900220059001A90748FEF7ACFF95
:1024D000002205213220FFF75DF93220FFF74AF98B
:1024E00006B010BD40380240000002400004024027
:1024F0000004004000080040000C004030B50446D5
:102500000D4615B1042D0CD105E0012200212068F3
:1025100002F002F910E001220421206802F0FCF828
:102520000AE001220021206802F0F6F801220421CD
:10253000206802F0F1F800BF00BF2068006840F09A
:10254000010021680860002030BD704710B50446C6
:1025500020680069C0F34000D8B12068C068C0F3AB
:102560004000B0B16FF002002168086101202077BF
:102570002068806900F0030018B12046FFF7E5FFEE
:1025800005E0204600F0BCF9204600F0A1FA00204A
:10259000207720680069C0F38000D8B12068C06847
:1025A000C0F38000B0B16FF0040021680861022020
:1025B00020772068806900F4407018B12046FFF74A
:1025C000C4FF05E0204600F09BF9204600F080FAA9
:1025D0000020207720680069C0F3C000D8B12068CF
:1025E000C068C0F3C000B0B16FF008002168086196
:1025F000042020772068C06900F0030018B120464D
:10260000FFF7A3FF05E0204600F07AF9204600F02E
:102610005FFA0020207720680069C0F30010D8B16D
:102620002068C068C0F30010B0B16FF010002168DE
:102630000861082020772068C06900F4407018B154
:102640002046FFF782FF05E0204600F059F92046BA
:1026500000F03EFA002020772068006900F00100B9
:1026600058B12068C06800F0010030B16FF001007F
:1026700021680861204600F059FA20680069C0F31B
:10268000C01058B12068C068C0F3C01030B16FF0FE
:102690008000216808612046FFF774FC206800690B
:1026A000C0F3801058B12068C068C0F3801030B10A
:1026B0006FF0400021680861204600F057FA20685A
:1026C0000069C0F3401058B12068C068C0F34010E2
:1026D00030B16FF02000216808612046FFF753FCFD
:1026E00010BD000010B586B00446142101A8FDF706
:1026F00011FE7849206888421ED100BF002000905A
:102700007548006840F0100073490860084600688A
:1027100000F01000009000BF00BF4FF4D4400190C3
:10272000022002900020039004900120059001A94E
:102730006A48FEF779FECBE06949206888421DD1DE
:1027400000BF002000906448006840F0100062491B
:1027500008600846006800F01000009000BF00BF4D
:10276000602001900220029000200390049003203A
:10277000059001A95948FEF757FEA9E0594920687C
:1027800088421DD100BF002000905348006840F0EF
:102790000200514908600846006800F002000090FD
:1027A00000BF00BF88150190022002900020039016
:1027B00004900320059001A94B48FEF735FE87E001
:1027C0004A49206888421DD100BF0020009042483D
:1027D000006840F00200404908600846006800F0C8
:1027E0000200009000BF00BF481501900220029037
:1027F0000020039004900320059001A93A48FEF7B9
:1028000013FE65E03A49206888421ED100BF0020CF
:1028100000903148006840F002002F4908600846E7
:10282000006800F00200009000BF00BF4FF440407D
:10283000019002200290002003900490092005904E
:1028400001A92948FEF7F0FD42E02A4920688842A4
:102850001DD100BF002000901F48006840F001001B
:102860001D4908600846006800F00100009000BFA4
:1028700000BF4020019002200290002003900490AD
:102880000920059001A91C48FEF7CEFD20E01B4958
:10289000206888421CD100BF002000900E480068CC
:1028A00040F001000C4908600846006800F0010093
:1028B000009000BF00BF8020019002200290002005
:1028C000039004900920059001A90B48FEF7ACFD88
:1028D00006B010BD00000140303802400010024038
:1028E0000040014000440140000402400048014013
:1028F00000180040001C0040000002400020004082
:10290000704770B504460D46164600BF94F83C006B
:10291000012801D1022070BD012084F83C0000BFD5
:10292000022084F83D0036B1042E1BD0082E31D091
:102930000C2E5ED145E02946206801F0FFFE20689C
:10294000806940F00800216888612068806920F073
:10295000040021688861206880692969084321682A
:10296000886147E02946206801F020FF20688069DF
:1029700040F40060216888612068806920F48060EC
:102980002168886120688069296940EA01202168FE
:1029900088612FE02946206801F046FF2068C06961
:1029A00040F008002168C8612068C06920F0040078
:1029B0002168C8612068C069296908432168C86125
:1029C00018E02946206801F06BFF2068C06940F4D8
:1029D00000602168C8612068C06920F480602168B7
:1029E000C8612068C069296940EA01202168C8617E
:1029F00000E000BF00BF012084F83D0000BF0020C0
:102A000084F83C0000BF00BF85E710B504460CB950
:102A1000012010BD94F83D0028B9002084F83C0046
:102A2000204600F00DF8022084F83D00211D2068AA
:102A300001F006FE012084F83D000020E9E70000D7
:102A400008B51F4A016891420FD100BF00210091D3
:102A50001C49096841F001011A4A116011460968D0
:102A600001F00101009100BF29E0174A016891427D
:102A70000FD100BF002100911249096841F4803153
:102A8000104A11601146096801F48031009100BFBD
:102A900015E00E4A0168914211D100BF002100915A
:102AA0000849091F096841F04001064A121F1160D8
:102AB0001146096801F04001009100BF00BF08BD48
:102AC000000001404438024000400140001800402E
:102AD0007047000070B504460E460122314620685A
:102AE00001F01AFE0F492068884203D00E49206881
:102AF000884201D1012000E0002028B12068406C0C
:102B000040F40040216848642068806800F00705B0
:102B1000062D05D02068006840F00100216808609B
:102B2000002070BD000001400004014010B50446C3
:102B30000B492068884201D1FEF782FD09492068CF
:102B400088420BD10848006828B107480068401E39
:102B50000549086002E000200349086010BD00003C
:102B60000014004000100040000000207047704733
:102B70002DE9F0470446206805682068C66820688B
:102B800047694FF00008C14605F00F08B8F1000F83
:102B90000AD105F0200038B106F0200020B120460F
:102BA00001F048FFBDE8F087B8F1000F72D007F0E0
:102BB000010018B906F4907000286BD005F00100F0
:102BC00030B106F4807018B1E06B40F00100E063B2
:102BD00005F0040030B107F0010018B1E06B40F0DF
:102BE0000200E06305F0020030B107F0010018B107
:102BF000E06B40F00400E06305F0080048B106F027
:102C0000200010B907F0010018B1E06B40F0080097
:102C1000E063E06B70B305F0200028B106F02000FF
:102C200010B1204601F006FF20684069C0F380190A
:102C3000E06B00F0080010B9B9F1000F23D0204676
:102C400001F0CEFE2068406900F04000402816D117
:102C50002068406920F0400021684861606B50B1F5
:102C60001748616B0865606BFEF7D6F910B1606BB1
:102C7000016D88470CE02046FFF779FF08E0204609
:102C8000FFF775FF04E02046FFF771FF0020E063C7
:102C900088E7FFE705F0800030B106F0800018B14A
:102CA000204602F00FF97DE705F0400030B106F054
:102CB000400018B1204601F0A3FE73E700BF71E7A2
:102CC0002949000810B504460CB9012010BDA069BF
:102CD00000B100E000BF94F8390028B9002084F862
:102CE0003800204600F028F8242084F839002068B5
:102CF000C06820F400502168C860204601F0EEFE54
:102D00002068006920F490402168086120684069CB
:102D100020F02A00216848612068C06840F4005013
:102D20002168C8600020E063202084F8390084F81E
:102D30003A000020CAE7000010B586B0044614210E
:102D400001A8FDF7E7FAFE492068884255D100BF87
:102D500000200090FB48006840F40020F94908601A
:102D60000846006800F40020009000BF00BF00BFCC
:102D700000200090F3481038006840F00400F1494A
:102D8000103908600846006800F00400009000BF99
:102D900000BF4FF440600190022002900120039098
:102DA000032004900820059001A9E748FEF73CFBAA
:102DB000E648E7490860400548600021E448816032
:102DC000C1604FF480610161002141618161C16195
:102DD00001624162FEF754FA08B1FDF70BFF00BF34
:102DE000DB486063846300BF002205213420FEF7C6
:102DF000D1FC3420FEF7BEFC6FE2D6492068884241
:102E000073D100BF00200090CE48006840F48010CD
:102E1000CC4908600846006800F48010009000BFAC
:102E200000BF00BF00200090C6481038006840F086
:102E30000400C449103908600846006800F0040026
:102E4000009000BF00BF00BF00200090084600684F
:102E500040F0080008600846006800F00800009094
:102E600000BF00BF8814019002200290012003904F
:102E7000032004900820059001A9B348FEF7D4FA76
:102E8000042001900220029001200390032004906E
:102E90000820059001A9B048FEF7C6FAAB483038C3
:102EA000AE490860C00548600021AC488160C1603F
:102EB0004FF480610161002141618161C161016262
:102EC0004162FEF7DDF908B1FDF794FE00BFA348AB
:102ED0006063846300BF002205213520FEF75AFCA1
:102EE0003520FEF747FCF8E1FFE79D49206888425E
:102EF0007ED100BF002000909248001D006840F085
:102F000010009049091D08600846006800F0100094
:102F1000009000BF00BF00BF00200090894810381B
:102F2000006840F0010087491039086008460068D1
:102F300000F00100009000BF00BF4FF4C06001909E
:102F400002200290002003900320049007200590A7
:102F500001A98448FEF768FA8348844908604FF065
:102F600000604860002181488160C1604FF4806149
:102F70000161002141618161C1614FF480310162D1
:102F800000214162FEF77CF908B1FDF733FE00BF76
:102F900076486063846300BF734878307449086082
:102FA0004FF0006048604021714881600021C1609D
:102FB0004FF480610161002141618161C1614FF481
:102FC0008031016200214162FEF75AF908B1FDF734
:102FD00011FE00BF66482063846300BF0022052104
:102FE0002520FEF7D7FB2520FEF7C4FB75E1FFE7A0
:102FF00060492068884259D100BF002000905148A4
:10300000006840F400304F4908600846006800F44A
:103010000030009000BF00BF00BF00200090494872
:103020001038006840F00100464910390860084631
:10303000006800F00100009000BF00BF0C2001906C
:1030400002200290002003900320049007200590A6
:1030500001A94448FEF7E8F93C4848304649086071
:103060004FF000604860002143488160C1604FF428
:1030700080610161002141618161C1614FF4803152
:10308000016200214162FEF7FBF808B1FDF7B2FDD5
:1030900000BF39486063846300BF002205212620F9
:1030A000FEF778FB2620FEF765FB16E13349206822
:1030B000884269D100BF002000902248006840F497
:1030C0008020204908600846006800F480200090B5
:1030D00000BF00BF00BF002000901A4810380068F1
:1030E00040F002001749103908600846006800F0F7
:1030F0000200009000BF00BF4FF44060019002202A
:10310000029000200390032004900720059001A95D
:103110001B48FEF789F90D4818381A4908604FF026
:1031200000604860002117488160C1604FF48061F1
:103130000161002141618161C1610162416224E05C
:10314000004C00404038024000080240406002400D
:10315000D827002000500040000C024038280020F2
:103160000010014000000240406402409828002006
:10317000F828002000440040582900200048004062
:1031800000040240B829002030E0FEF779F808B1C9
:10319000FDF730FD00BF52486063846300BF5148B3
:1031A000514908604FF00060486040214E488160FE
:1031B0000021C1604FF480610161002141618161A2
:1031C000C16101624162FEF75BF808B1FDF712FDD3
:1031D00000BF45482063846300BF002205212720EB
:1031E000FEF7D8FA2720FEF7C5FA76E03F492068B7
:1031F000884272D100BF002000903D48006840F036
:1032000020003B4908600846006800F0200000905C
:1032100000BF00BF00BF0020009035481438006890
:1032200040F004003249143908600846006800F094
:103230000400009000BF00BFC02001900220029057
:1032400000200390032004900820059001A929483C
:10325000FEF7EAF8284829490860800548600021FF
:1032600026488160C1604FF48061016100214161A5
:103270008161C16101624162FEF702F808B1FDF7A8
:10328000B9FC00BF1D486063846300BF1A487830F2
:103290001B4908604FF02060486040211848816059
:1032A0000021C1604FF480610161002141618161B1
:1032B000C16101624162FDF7E3FF08B1FDF79AFCCD
:1032C00000BF0F482063846300BF00220521472010
:1032D000FEF760FA4720FEF74DFA06B010BD000079
:1032E000B829002058600240182A0020001401402C
:1032F000443802400008024028640240782A002036
:10330000D82A002077B581B00446154694F83A00D3
:10331000202850D1029800B115B9012004B070BD29
:1033200000BF94F83800012801D10220F6E70120FF
:1033300084F8380000BF0298A062A5850020E063F1
:10334000222084F83A001D48616BC8631C48616BF9
:1033500008641C48616BC8640020616B086502AE9C
:1033600032682368191D2B46606BFDF7FFFF00BF15
:10337000002000902068006800902068406800905D
:1033800000BF00BF00BF002084F8380000BF2068E5
:10339000C06840F480702168C8602068406940F0CF
:1033A0000100216848612068406940F040002168C0
:1033B00048610020B2E70220B0E700008D49000814
:1033C000D34900083D49000810B5034693F83A0078
:1033D00020282FD101B10AB9012010BD00BF93F8F8
:1033E0003800012801D10220F7E7012083F83800D6
:1033F00000BF99629A85DA850020D863222083F87D
:103400003A0000BF002083F8380000BF1868C06889
:1034100040F480701C68E0601868406940F001006A
:103420001C6860611868C06840F020001C68E0609B
:103430000020D2E70220D0E710B5044607492068F3
:1034400088420AD1064988680649097800F0A5FF34
:10345000012204490448FFF7B7FF10BD004C0040AB
:10346000CC160020E90500205826002070472DE9E1
:10347000F84304460D4616461F464FF0000994F8DF
:10348000390020285DD105B116B90120BDE8F883C7
:1034900000BF94F83800012801D10220F6E701208E
:1034A00084F8380000BF0020E063212084F8390050
:1034B000FEF7C0F88146A684E68400BF002084F8A9
:1034C000380000BF2BE0E08C401EE084A068B0F51F
:1034D000805F16D14B46002280212046009701F0E4
:1034E00025FD08B10320D1E7A846B8F80000C0F3D5
:1034F000080021684860206908B9AD1C0FE06D1C08
:103500000DE04B46002280212046009701F00EFD81
:1035100008B10320BAE715F8010B21684860E08C78
:103520000028D0D14B46002240212046009701F0D0
:10353000FDFC08B10320A9E7202084F83900002011
:10354000A4E70220A2E7704700BFFEE70EB5012006
:1035500028490870502228492848FFF7D3FE00BFA9
:103560004FF0FF312648006808F016FF08F014F805
:1035700000240CE02048015D224802F031FA224983
:10358000087008460078012800D102E0641C502C25
:10359000F0DB00BF1C480078B0B100240AE01B48F3
:1035A00000EB840090ED000A684600EB840080ED9B
:1035B000000A641C032CF2DB9DED020AF7EE000A00
:1035C00030EE600A8DED020A50220B490B48FFF7DE
:1035D00099FE08F00BF800231A4669460C4800686B
:1035E00008F02AFC00231A4669460A48006808F0D9
:1035F00023FCB5E7500500203019002018270020D3
:103600005C050020B019002058050020E81B0020B0
:103610007C0500208405002008B500BF0020009034
:103620003248006840F4800030490860084600686D
:1036300000F48000009000BF00BF00BF0020009099
:103640000846006840F4001008600846006800F46E
:103650000010009000BF00BF002205210B20FEF7E4
:1036600099F80B20FEF786F8002205210C20FEF7C2
:1036700091F80C20FEF77EF8002205210D20FEF7C0
:1036800089F80D20FEF776F8002205210E20FEF7BE
:1036900081F80E20FEF76EF8002205211020FEF7BB
:1036A00079F81020FEF766F8002205213920FEF790
:1036B00071F83920FEF75EF8002205213A20FEF766
:1036C00069F83A20FEF756F8002205214520FEF75A
:1036D00061F84520FEF74EF8002205214620FEF74E
:1036E00059F84620FEF746F808BD00003038024081
:1036F00000B5D5B003220021012008F021FB7A4952
:10370000086003220021012008F01AFB77490860B5
:1037100003220021012008F013FB754908600322F1
:103720000021012008F00CFB7249086003220021EF
:10373000012008F005FB70490860032200210120E8
:1037400008F0FEFA6D49086000221021012008F0FF
:10375000F7FA6B49086000221021022008F0F0FA05
:103760006849086000220C21012008F0E9FA664946
:10377000086000221021012008F0E2FA6349086085
:1037800000220C21012008F0DBFA614908600022C8
:103790001C21012008F0D4FA5E49086000221021A3
:1037A000012008F0CDFA5C490860002208210120C0
:1037B00008F0C6FA5949086000220421012008F0E7
:1037C000BFFA574908601C2256494EA8FCF789FDEC
:1037D00000214EA806F090FA534908601C22514976
:1037E0001C3147A8FCF77DFD002147A806F084FAAC
:1037F0004E4908601C224B49383140A8FCF771FD46
:10380000002140A806F078FA494908601C22454981
:10381000543139A8FCF765FD002139A806F06CFA8F
:10382000444908601C223F49703132A8FCF759FD19
:10383000002132A806F060FA3F4908601C2239498D
:103840008C312BA8FCF74DFD00212BA806F054FA73
:103850003A4908601C223349A83124A8FCF741FDED
:10386000002124A806F048FA354908601C222D4999
:10387000C4311DA8FCF735FD00211DA806F03CFA57
:10388000304908601C222749E03116A8FCF729FDC1
:10389000002116A806F030FA2B4908601C222149A5
:1038A000FC310FA8FCF71DFD00210FA806F024FA3B
:1038B000264908601C22264908A8FCF712FD0021B1
:1038C00008A806F019FA234908601C2220491C3177
:1038D00001A8FCF706FD002101A806F00DFA1E491B
:1038E000086055B000BD00005C05002060050020A8
:1038F00064050020680500206C050020700500208C
:1039000074050020780500207C050020800500203B
:1039100084050020880500208C05002090050020EB
:103920009405002090CB0008980500209C050020FD
:10393000A0050020A4050020A8050020AC0500205B
:10394000B0050020B4050020B8050020BC0500200B
:10395000A8CC0008C0050020C405002000B587B031
:10396000142102A8FCF7D6FC00BF002001905748A4
:10397000006840F01000554908600846006800F0F3
:103980001000019000BF00BF00BF0020019008465A
:10399000006840F0040008600846006800F0040079
:1039A000019000BF00BF00BF0020019008460068E2
:1039B00040F0800008600846006800F08000019038
:1039C00000BF00BF00BF002001900846006840F023
:1039D000010008600846006800F00100019000BF87
:1039E00000BF00BF002001900846006840F00200C0
:1039F00008600846006800F00200019000BF00BFA8
:103A000000BF002001900846006840F008000860F0
:103A10000846006800F00800019000BF00BF0022C7
:103A200046F207212A48FDF7FFFD002241F202017C
:103A30002848FDF7F9FD00224FF47F412648FDF7A5
:103A4000F3FD46F204200290012003900020049030
:103A5000059002A91E48FDF7E7FC4FF48050029044
:103A60000120039000200490059002A91948FDF759
:103A7000DBFC4FF47F400290012003900020049073
:103A8000059002A91448FDF7CFFC4FF400400290C6
:103A9000002003900120049002A91048FDF7C4FC07
:103AA00003200290002003900120049002A90848FE
:103AB000FDF7BAFC02200290002003900120049040
:103AC00002A90448FDF7B0FC07B000BD3038024041
:103AD0000008024000100240000C024000000240BA
:103AE00000B587B01C216846FCF714FC1548164940
:103AF0000860A720486000211348816044F61F61D8
:103B0000C160002101618161FEF7D2FA08B1FDF7C1
:103B100071F80D48FEF779FF08B1FDF76BF86020EA
:103B2000009000200190029004900022694606480F
:103B3000FEF7E7FE08B1FDF75DF80348FEF7D2FD9A
:103B400007B000BD004401401825002000B587B033
:103B50001C216846FCF7DEFB154816490860A720C3
:103B6000486000211348816044F61F61C160002154
:103B700001618161FEF79CFA08B1FDF73BF80D4841
:103B8000FEF743FF08B1FDF735F8602000900020F4
:103B9000019002900490002269460648FEF7B1FEAB
:103BA00008B1FDF727F80348FEF79CFD07B000BDFC
:103BB000004801405825002000B587B01C21684608
:103BC000FCF7A8FB164817490860532048600021FD
:103BD0001448816044F61F61C16000210161816168
:103BE000FEF713FF08B1FDF705F8602000900020F4
:103BF000019002900490002269460A48FEF781FE77
:103C000008B1FCF7F7FF042269460648FEF779FE83
:103C100008B1FCF7EFFF0348FEF764FD07B000BDF5
:103C2000001800409825002000B587B01C21684688
:103C3000FCF770FB16481749086040F28F60486037
:103C400000211448816040F2E731C1600021016128
:103C50008161FEF72DFA08B1FCF7CCFF0D48FEF7A5
:103C6000D4FE08B1FCF7C6FF602000900020019050
:103C700002900490002269460648FEF742FE08B111
:103C8000FCF7B8FF0348FEF72DFD07B000BD0000AC
:103C9000001C0040D825002000B587B01C216846D4
:103CA000FCF738FB16481749086040F28F604860FF
:103CB00000211448816040F2E731C16000210161B8
:103CC0008161FEF7F5F908B1FCF794FF0D48FEF7A6
:103CD0009CFE08B1FCF78EFF602000900020019050
:103CE00002900490002269460648FEF70AFE08B1D9
:103CF000FCF780FF0348FEF7F5FC07B000BD0000AD
:103D0000002000401826002000B591B000200F9040
:103D100010901C2108A8FCF7FDFA20216846FCF74A
:103D2000F9FA2F482F4908600120486000212D48EA
:103D3000816040F6B831C16000210161416181615B
:103D4000FEF763FE08B1FCF755FF00200F901090BE
:103D50000FA92448FEF752F908B1FCF74BFF602089
:103D60000890002009900A900B900C900D900E90F6
:103D7000002208A91B48FEF7C4FD08B1FCF73AFF72
:103D8000042208A91748FEF7BCFD08B1FCF732FF72
:103D9000082208A91348FEF7B4FD08B1FCF72AFF72
:103DA0000C2208A90F48FEF7ACFD08B1FCF722FF72
:103DB0000020009001900290039004904FF4005076
:103DC00005900020079069460648FEF7DDF808B127
:103DD000FCF710FF0348FEF785FC11B000BD0000A2
:103DE000000001405823002000B58BB0242102A818
:103DF000FCF790FA0020009001904FF080401749A6
:103E00000860002048600021144881604FF452513E
:103E1000C1600021016181610320029000200390B4
:103E20000120049000200590069007900120089042
:103E3000002009900A9002A90848FEF7E8F908B1A5
:103E4000FCF7D8FE00200090019069460348FEF779
:103E5000D5F808B1FCF7CEFE0BB000BD98230020CA
:103E600000B58BB0242102A8FCF754FA0020009082
:103E70000190184818490860002048600021164841
:103E800081604FF45251C1600021016181610320C2
:103E900002900020039001200490002005900690DD
:103EA000079001200890002009900A9002A90A4872
:103EB000FEF7ADF908B1FCF79DFE002000900190DF
:103EC00069460548FEF79AF808B1FCF793FE0BB077
:103ED00000BD000000040040D823002000B58BB0D6
:103EE000242102A8FCF716FA00200090019018483F
:103EF00018490860002048600021164881604FF48E
:103F00005251C160002101618161032002900020B3
:103F10000390012004900020059006900790012056
:103F20000890002009900A9002A90A48FEF76FF94C
:103F300008B1FCF75FFE002000900190694605483B
:103F4000FEF75CF808B1FCF755FE0BB000BD0000B1
:103F5000000800401824002000B58BB0242102A8DE
:103F6000FCF7D8F900200090019018481849086023
:103F7000002048600021164881604FF45251C16012
:103F80000021016181610320029000200390012043
:103F900004900020059006900790012008900020D2
:103FA00009900A9002A90A48FEF731F908B1FCF716
:103FB00021FE00200090019069460548FEF71EF89A
:103FC00008B1FCF717FE0BB000BD0000000C00406C
:103FD000582400201CB50020009001900E480F4985
:103FE00008605320486000210C48816042F20F7144
:103FF000C16000218161FEF75BF808B1FCF7FAFDB2
:1040000000200090019069460448FDF7F7FF08B1D1
:10401000FCF7F0FD1CBD00000010004098240020BB
:1040200000B587B01C216846FCF774F9164817499B
:104030000860A720486000211448816044F61F6191
:10404000C160002101618161FEF7DFFC08B1FCF76E
:10405000D1FD602000900020019002900490002289
:1040600069460A48FEF74DFC08B1FCF7C3FD04227F
:1040700069460648FEF745FC08B1FCF7BBFD03485E
:10408000FEF730FB07B000BD00400140D8240020FF
:1040900010B50B480B4908604FF4E130486000212F
:1040A00008488160C16001610C214161002181618A
:1040B000C161FEF707FE08B1FCF79CFD10BD0000D2
:1040C000004C00405826002010B50B480B490860F2
:1040D0004FF416504860002108488160C1600161BA
:1040E0000C21416100218161C161FEF7EBFD08B146
:1040F000FCF780FD10BD0000005000409826002015
:1041000010B50B480B4908604FF4E13048600021BE
:1041100008488160C16001610C2141610021816119
:10412000C161FEF7CFFD08B1FCF764FD10BD0000D2
:1041300000100140D826002010B50B480B4908603C
:104140004FF4E1304860002108488160C16001619E
:104150000C21416100218161C161FEF7B3FD08B10D
:10416000FCF748FD10BD0000004400401827002067
:1041700010B50B480B4908604FF4E130486000214E
:1041800008488160C16001610C21416100218161A9
:10419000C161FEF797FD08B1FCF72CFD10BD0000D2
:1041A000004800405827002010B50B480B49086014
:1041B0004FF4E1304860002108488160C16001612E
:1041C0000C21416100218161C161FEF77BFD08B1D5
:1041D000FCF710FD10BD00000014014098270020DE
:1041E00000BFFEE7082806D00A2810D00C281AD0F5
:1041F0000E2830D123E0194A126822F44072174B7E
:104200001A601A46126842EA01221A6023E0134A31
:10421000126822F44062114B1A601A46126842EA90
:1042200081221A6017E00D4A126822F440520B4BAB
:104230001A601A46126842EA01321A600BE0074A15
:10424000126822F44042054B1A601A46126842EA8C
:1042500081321A6000BF00BF70470000140C02409A
:1042600000BFFEE708B5016800919DED000A08BD9A
:1042700030B50446204600F01CF80546204600F004
:1042800003F8281A80B230BD00B502469088D18864
:10429000884209DD104600F00CF89188D388C91ACD
:1042A000491E401A80B200BDD0889188401A80B261
:1042B000F9E701460889401E80B27047F0B506460E
:1042C0003046FFF7E1FF07460025002406E0A1B2D3
:1042D000304600F007F82844C5B2641CBC42F6DB47
:1042E000E8B2F0BD70B504460D462046FFF7CCFF9E
:1042F000A84201DC002070BDA0882844401C218910
:1043000090FBF1F201FB120086B22068805DF2E7BB
:1043100030B50B46026000218180C180591C0181AB
:10432000002104E0002405686C544C1CA1B20489EF
:104330008C42F7DC30BD10B504462046FFF798FFED
:1043400002462046FFF7B5FF824201D1012010BD91
:104350000020FCE710B504462046FFF789FF08B9A6
:10436000012010BD0020FCE730B504462046FFF7D1
:10437000E2FF08B1002030BDA088401C218990FBDD
:10438000F1F201FB1200A080A1882068455C0020AA
:10439000A288216888542846EDE730B504460D46CA
:1043A0002046FFF7D7FF10B12046FFF7DDFFE0887A
:1043B000401C218990FBF1F201FB1200E080E188B2
:1043C0002068455430BD10B504462046FFF7CCFFA9
:1043D00010BD30B504460D4629462046FFF7DDFFE7
:1043E00030BDF0B507460D461646002405E0295DB0
:1043F0003846FFF7D2FF601C84B2B442F7DBF0BD51
:1044000033B5044601AD022229462046FFF7E9FFF5
:104410003CBD33B5044601AD022229462046FFF7D4
:10442000E0FF3CBD00BF0548006880F40050034930
:104430000860642005F04FFCF5E700001408024016
:1044400001B50549009808600448006840F0010083
:104450000249086008BD0000000000200010004074
:10446000002005490860054800684FF6FE710840C5
:104470000249086070470000000000200010004062
:104480000348006808B9012070470020FCE70000DD
:104490000000002001B503490098086000F01EF8F4
:1044A00008BD00000000002010B500BF502080F3C0
:1044B0001188BFF34F8FBFF36F8F00BF08F02EF945
:1044C00018B14FF080500449086000BF002080F30D
:1044D000118800BF10BD000004ED00E0094800682D
:1044E00040F001000749086000BF07480068002845
:1044F000FBD1044800684FF6FE710840014908608E
:1045000070470000001000400000002000B593B08C
:10451000302107A8FBF7FEFE142102A8FBF7FAFEE4
:1045200000BF002001902548006840F080502349DA
:1045300008600846006800F08050019000BF00BF8E
:1045400000BF002001901E48006840F480401C49D4
:1045500008600846006800F48040019000BF00BF7A
:104560000220079001200A9010200B9002200D904D
:1045700000210E9108210F91A82110910221119183
:104580000421129107A8FDF7B9FA08B1FCF732FB34
:104590000F20029002200390002004904FF4A050BE
:1045A00005904FF480500690052102A8FDF744F9CC
:1045B00008B1FCF71FFB13B000BD000040380240FB
:1045C000007000400548006840F47000034908602E
:1045D0004FF00060014980390860704788ED00E0C5
:1045E00010B50248FDF7B2FF10BD0000982300206F
:1045F00010B50248FDF7AAFF10BD0000D823002027
:1046000010B50248FDF7A2FF10BD000018240020DD
:1046100010B50248FDF79AFF10BD00005824002095
:1046200010B50248FDF792FF10BD0000982400204D
:1046300010B50248FDF78AFF10BD0000382B00209E
:1046400010B50268294B98420ED0B0F1804F0BD0C4
:10465000274B984208D0274B984205D0264B9842CA
:1046600002D0264B984203D122F070024B681A43C5
:104670001E4B984220D0B0F1804F1DD01C4B984269
:104680001AD01C4B984217D01B4B984214D01B4B8E
:10469000984211D01A4B98420ED01A4B98420BD028
:1046A000194B984208D0194B984205D0184B9842A4
:1046B00002D0184B984203D122F44072CB681A43BF
:1046C00022F080034C6943EA040202608B68C362F3
:1046D0000B688362054B984202D0084B984201D187
:1046E0000B6903630123436110BD0000000001401A
:1046F0000004004000080040000C0040000401409D
:1047000000400140004401400048014000180040C2
:10471000001C00400020004030B501F01F050124BE
:1047200004FA05F3046A9C430462046A01F01F055D
:1047300002FA05F52C43046230BD000030B5056A6D
:1047400025F001050562026A4368846924F070045B
:1047500024F003040D682C4322F002028D682A43E2
:10476000104DA84200D103E00F4DA84206D100BF72
:1047700022F00802CD682A4322F00402094DA84223
:1047800002D0094DA84207D123F4807323F40073AB
:104790004D692B438D692B43436084614D684563AC
:1047A000026230BD000001400004014030B5056ADE
:1047B00025F010050562026A4368846924F4E04428
:1047C00024F440740D6844EA052422F020028D6828
:1047D00042EA0512124DA84200D103E0114DA84251
:1047E00007D100BF22F08002CD6842EA051222F014
:1047F00040020B4DA84202D00A4DA84209D123F431
:10480000806323F400634D6943EA85038D6943EABD
:104810008503436084614D688563026230BD00009A
:10482000000001400004014030B5056A25F48075A0
:104830000562026A4368C46924F0700424F003042A
:104840000D682C4322F400728D6842EA0522124D55
:10485000A84200D103E0114DA84207D100BF22F4C5
:104860000062CD6842EA052222F480620A4DA84225
:1048700002D00A4DA84209D123F4805323F40053F7
:104880004D6943EA05138D6943EA05134360C4612A
:104890004D68C563026230BD000001400004014064
:1048A00030B5056A25F480550562036A4468C2691B
:1048B00022F4E04222F440720D6842EA052223F419
:1048C00000538D6843EA0533084DA84202D0084DD5
:1048D000A84204D124F480444D6944EA851444601C
:1048E000C2614D680564036230BD000000000140F4
:1048F0000004014008B5014608880090BDF800009A
:1049000008BD01460868704710B50248FEF730F947
:1049100010BD00005826002010B50248FEF728F907
:1049200010BD00009826002070B50546AC6B002035
:10493000E085E0842046FEF71AF970BD70B50646A2
:104940000025B46B20684069C0F3C01594F83900A5
:10495000212805D125B10020E084204600F060F830
:1049600020684069C0F3801594F83A00222805D1E8
:1049700025B10020E085204600F032F8E06B40F0E1
:104980001000E0632046FEF7F2F870BD70B50546F2
:10499000AC6B2868006800F48070B0B90020E08536
:1049A0002068C06820F480702168C8602068406971
:1049B00020F00100216848612068406920F0400033
:1049C00021684861202084F83A002046FEF734FD33
:1049D00070BD70B50446A56B2846FEF747FD70BD57
:1049E0000168C96821F490710268D1600168496961
:1049F00021F0010102685161202180F83A107047CE
:104A000010B504462068C06820F040002168C860E6
:104A1000202084F839002046FEF795FD002010BDC7
:104A20000168C96821F0C0010268D160202180F8C6
:104A30003910704770B5044694F83A0022284AD1DC
:104A4000A068B0F5805F13D1A56A206940B92068DD
:104A50004068C0F308002880A06A801CA06219E0AA
:104A600020684068C0B22880A06A401CA06211E0A3
:104A7000206938B920684068C1B2A26A501CA0629F
:104A8000117007E02068406800F07F01A26A501CA6
:104A9000A0621170E08D401E80B2E085C8B9206828
:104AA000C06820F020002168C8602068C06820F439
:104AB00080702168C8602068406920F0010021688A
:104AC0004861202084F83A002046FEF7B5FC00201B
:104AD00070BD0020FCE70220FAE700002DE9F84F46
:104AE00004462068006920F44050E16808432168CA
:104AF00008612169A068084361690843E1690843C6
:104B000000902068C06849F20C618843009908430E
:104B10002168C8602068406920F44070A16908439A
:104B200021684861E069B0F5004F75D1E34920681C
:104B3000884203D0E249206888426FD1FCF776FFB3
:104B4000814602206168A0FB01510B461920A9FB98
:104B500000712A463846FBF793FB6421B0FBF1F065
:104B60004FEA001A02206168A0FB01510B46192090
:104B7000A9FB00712A463846FBF782FB0746022054
:104B80006168A0FB01510B461920A9FB00B12A4620
:104B90005846FBF775FB6421B0FBF1F000EBC00158
:104BA00001EB0010A7EB8000322101EBC000642173
:104BB000B0FBF1F000F0F8000AEB400A0220616857
:104BC000A0FB01510B461920A9FB00712A4638466B
:104BD000FBF756FB074602206168A0FB01510B461C
:104BE0001920A9FB00B12A465846FBF749FB64216E
:104BF000B0FBF1F000EBC00101EB0010A7EB80006F
:104C0000322101EBC0006421B0FBF1F000F007009D
:104C10005044216888604FE16EE0FFE7FCF7F6FE44
:104C2000814602206168A0FB01510B461920A9FBB7
:104C300000712A463846FBF723FB6421B0FBF1F0F4
:104C40004FEA001A02206168A0FB01510B461920AF
:104C5000A9FB00712A463846FBF712FB07460220E3
:104C60006168A0FB01510B461920A9FB00B12A463F
:104C70005846FBF705FB6421B0FBF1F000EBC001E7
:104C800001EB0010A7EB8000322101EBC000642192
:104C9000B0FBF1F000F0F8000AEB400A0220616876
:104CA000A0FB01510B461920A9FB00712A4638468A
:104CB000FBF7E6FA074602206168A0FB01500346B5
:104CC0001920A9FB00B12A465846FBF7D9FA6421FE
:104CD000B0FBF1F000EBC00101EB0010A7EB80008E
:104CE000322101EBC0006421B0FBF1F000F00700BD
:104CF000504421688860DFE070492068884203D012
:104D00006F49206888426BD1FCF790FE81460420F1
:104D10006168A0FB01510B461920A9FB00712A46CE
:104D20003846FBF7ADFA824604206168A0FB0151CA
:104D30000B461920A9FB00712A463846FBF7A0FA5A
:104D40006421B0FBF1F000EBC00101EB0010AAEB15
:104D50008000322101EB00106421B0FBF1F000F083
:104D6000F00A04206168A0FB015003461920A9FB4A
:104D700000712A463846FBF783FA6421B0FBF1F054
:104D80000AEB001A04206168A0FB01510B461920B0
:104D9000A9FB00712A463846FBF772FA0746042041
:104DA0006168A0FB015003461920A9FB00B12A4607
:104DB0005846FBF765FA6421B0FBF1F000EBC00147
:104DC00001EB0010A7EB8000322101EB0010642101
:104DD000B0FBF1F000F00F005044216888606BE0F8
:104DE000FCF714FE814604206168A0FB01500346D5
:104DF0001920A9FB00712A463846FBF741FA824682
:104E000004206168A0FB015003461920A9FB007132
:104E10002A463846FBF734FA6421B0FBF1F000EB88
:104E2000C00101EB0010AAEB8000322101EB001061
:104E30006421B0FBF1F000F0F00A04206168A0FBEF
:104E4000015003461920A9FB00712A463846FBF79A
:104E500017FA6421B0FBF1F00AEB001A0420616834
:104E6000A0FB017003461920A9FB005001463A46F9
:104E70002846FBF705FA074604206168A0FB0150AD
:104E800003461920A9FB00B12A465846FBF7F8F95A
:104E90006421B0FBF1F000EBC00101EB0010A7EBC7
:104EA0008000322101EB00106421B0FBF1F000F032
:104EB0000F00504421688860BDE8F88F0010014061
:104EC00000140140014691F8390021282CD188684E
:104ED000B0F5805F0FD10A6A1088C0F308000B6834
:104EE0005860086918B9086A801C086209E0086AF5
:104EF000401C086205E00B6A581C086218780B68B1
:104F00005860C88C401E80B2C88458B90868C06810
:104F100020F080000B68D8600868C06840F040004E
:104F20000B68D860002070470220FCE72DE9F041B3
:104F300004460D4617469846069E21E0701CF8B1BF
:104F40002EB1FCF777FBA0EB0800B04218D920681F
:104F5000C06820F4D0702168C8602068406920F0E3
:104F6000010021684861202084F8390084F83A0063
:104F700000BF002084F8380000BF0320BDE8F081A6
:104F8000206800682840A84201D1012000E00020EC
:104F9000B842D3D00020F1E710B50248FDF7E8FD94
:104FA00010BD0000D826002010B50248FDF7E0FD36
:104FB00010BD00001827002010B50248FDF7D8FDED
:104FC00010BD00005827002010B50248FDF7D0FDA5
:104FD00010BD00009827002030B58FB00446082C83
:104FE0007ED2DFE804F004132231404F5E6D3EA113
:104FF000684600F003FA6846FBF7A3F985B264231C
:105000002A4669463F48FEF732FA6AE03EA1684602
:1050100000F0F4F96846FBF794F985B264232A4658
:1050200069463848FEF723FA5BE03FA1684600F086
:10503000E5F96846FBF785F985B264232A46694697
:105040003048FEF714FA4CE03EA1684600F0D6F96D
:105050006846FBF776F985B264232A4669462948F3
:10506000FEF705FA3DE03FA1684600F0C7F9684643
:10507000FBF767F985B264232A4669462148FEF7A3
:10508000F6F92EE03EA1684600F0B8F96846FBF755
:1050900058F985B264232A4669461A48FEF7E7F9AB
:1050A0001FE041A1684600F0A9F96846FBF749F9FD
:1050B00085B264232A4669461248FEF7D8F910E003
:1050C00040A1684600F09AF96846FBF73AF985B2C4
:1050D00064232A4669460B48FEF7C9F901E0FFE759
:1050E00000BF00BF0FB030BD6D61696E2E7461737B
:1050F0006B2E7478743D22BFAACABCBFA922FFFFE1
:10510000FF000000982600206D61696E2E746173A7
:105110006B2E7478743D22C9A8C3E8B6FECEACC22B
:10512000EB22FFFFFF0000006D61696E2E7461735A
:105130006B2E7478743D22C4C3C8A1CEEFC1CF22B8
:10514000FFFFFF006D61696E2E7461736B2E7478C2
:10515000743D22D7DFBFA962697562697522FFFFBE
:10516000FF0000006D61696E2E7461736B2E7478A0
:10517000743D22B7C5D6C3CEEFC1CF22FFFFFF00DB
:105180006D61696E2E7461736B2E7478743D22D4D8
:10519000D9C4C3C6F0C0B4A3A8D5E6B7D1CAC2A3C8
:1051A000A922FFFFFF0000006D61696E2E7461731C
:1051B0006B2E7478743D22C2EBB6E2CED8CED822E4
:1051C000FFFFFF006D61696E2E7461736B2E747842
:1051D000743D22BBD8BCD2BFA922FFFFFF00000054
:1051E00030B52DED028B8BB0B0EE408A00249FEDE0
:1051F0000D0A28EE000ABDEEC00A10EE104A224643
:1052000009A101A800F0FAF801A8FBF79AF885B205
:1052100064232A4601A90A48FEF729F90BB0BDEC20
:10522000028B30BD0000C8426D61696E2E616E67F1
:105230006C652E76616C3D2564FFFFFF0000000069
:10524000982600202DE9F0478EB004460D461646FC
:105250001F46DDE916892B4622460AA104A88DE8DF
:10526000C00300F0CBF804A8FBF76BF81FFA80FA34
:105270006423524604A90B48FEF7F9F80EB0BDE8C6
:10528000F08700006D61696E2E6E756D2E747874F6
:105290003D222564256425642B256425642564222C
:1052A000FFFFFF009826002070B58AB004460D4627
:1052B00022460FA1684600F0A1F86846FBF741F8C6
:1052C00086B26423324669460E48FEF7D0F82A4675
:1052D0000DA1684600F092F86846FBF732F886B2F6
:1052E0006423324669460748FEF7C1F80AB070BD2C
:1052F0006D61696E2E782E76616C3D2564FFFFFF2F
:1053000000000000982600206D61696E2E792E76CF
:10531000616C3D2564FFFFFF0000000030B595B0D3
:10532000044610A30FCB02AD0FC512A103C9CDE9EE
:10533000000102A906A8FBF70BF8214606A8FAF718
:10534000F4FF694606A8FAF7F0FF06A8FAF7F9FF96
:1053500085B264232A4606A90848FEF788F815B0E6
:1053600030BD00006D61696E2E7461736B2E7478B0
:10537000743D220022FFFFFF00000000982600205D
:1053800000BFFEE770B5044607E06068FEF7ECFF7B
:1053900005462946206800F006F86068FEF774FFAD
:1053A0000028F2D170BD13B504466423012201A97F
:1053B0002046FEF75CF81CBD70B50446002500BF12
:1053C00061190A2301220448FEF751F86D1C605D43
:1053D0000028F5D170BD0000582700200FB4054B00
:1053E00010B503A9044A029800F048F810BC5DF813
:1053F00014FB0000D59900085C0600200FB4084B90
:1054000010B504A902AA039800F038F8044602A9CE
:10541000002000F0DDF8204610BC5DF814FB000011
:10542000D155000802480068C0F302207047000010
:105430000CED00E010B5002804DB0A07130E054A46
:10544000135406E00A07140E034A00F00F031B1F53
:10545000D45410BD00E400E018ED00E002E008C8FC
:10546000121F08C1002AFAD170477047002001E0DE
:1054700001C1121F002AFBD1704700002DE9FF4F28
:1054800089B09B460446002506E025280BD05A46E5
:105490000B999047641C6D1C20780028F5D10DB045
:1054A0002846BDE8F08F0027B8460122474900E0B2
:1054B000074314F8013F203B02FA03F00842F7D1FA
:1054C00020782E2819D114F8010F47F004072A2854
:1054D0000ED06FF02F022078A0F1300109290CD8EE
:1054E00008EB880102EB410100EB0108641CF2E7C4
:1054F0000A98641C50F8048B0A9020780028CED0BB
:10550000642808D0692806D075281ED05A460B9901
:1055100090476D1C58E00A994FF00A0901C90A9199
:10552000002802DA40422D2102E0390504D52B2162
:105530008DF82010012103E0F90704D02021F7E7BE
:105540008A4608AE0DE00021FAE70A994FF00A09F1
:1055500001C90A91F7E74946FBF7DEF8303106F852
:10556000011D0028F7D1ADEB060000F120097807F6
:1055700001D44FF00108C84502DDA8EB090000E0A6
:1055800000208046002706E008A85A46C05D0B9917
:1055900090476D1C7F1C5745F6DB04E030205A46CF
:1055A0000B9990476D1CB8F10001A8F10108F5DCDA
:1055B00005E016F8010B5A460B9990476D1CB9F19E
:1055C0000001A9F10109F4DC641C65E70928010068
:1055D0000A68531C0B60107070470000F1B52DED88
:1055E000040B2DED068BF0EE408A044600269FED5D
:1055F000420AB0EE409A9FED410AF0EE409A9FEDCC
:10560000400AB0EE40AA9DED090AF0EE400AB0EE65
:10561000680A00F075FCF3EE0E0AB4EEE00AF1EE53
:1056200010FA0ADDDDED091A9DED081ADDED070A15
:10563000B0EE680A00F0C6FC5BE09DED090AF0EEF2
:10564000400AB0EE680A00F05BFCB0EE408A2D48DC
:1056500090ED000A30EE080A80ED000A90ED000A95
:10566000DFED290AB4EEE00AF1EE10FA02DD9FED5B
:10567000260A0EE0234890ED000ADFED240AB4EE7E
:10568000E00AF1EE10FA02DD90ED000A01E09FED74
:105690001F0A1C4880ED000A1D4880ED008A28EE94
:1056A000090A1848D0ED000A00EEA90A1848D0ED02
:1056B000000A78EE600A00EE8A0ABDEEC00A10EE1B
:1056C000105AB5F5FA6F02DD4FF4FA6005E015F5F2
:1056D000FA6F01DD284600E00E4805466E42A31B26
:1056E000A219A11BA01905F0E5FBBDEC068B05B0C6
:1056F000F0BD00BFF9E70000666666408FC2F53D69
:10570000000000002C0000200060EA460060EAC6AD
:105710003000002030F8FFFF2DE9FF4F2DED040B86
:105720002DED088B81B0F0EE408ADDF8688006F040
:1057300005FA40F2915A4FF0000B08FB0AB84FF0FF
:10574000000940F628240026002000909FED960ACC
:10575000B0EE409AB7EE000AF0EE409A9FED930A41
:10576000B0EE40AA9FED920AF0EE40AA9FED910A9A
:10577000B0EE40BA9FED8D0AF0EE40BA8E48006858
:10578000404509D08D480DA991E80E10A0E80E10F3
:105790008948C0F8008017E0884A0D991268891A74
:1057A0000E9A1144854A52688A1A0F991144834A05
:1057B00092688A1A10991144804AD268881AC117CF
:1057C00000EB9171891000910098A8EB00067C48CD
:1057D000006830447A49086008460068B0F57A6F7E
:1057E00002DD4FF47A6008E07548006810F57A6FC2
:1057F00002DD7348006800E072487149086000EEFD
:10580000106AB8EEC00A2AEE800A6F480068301AA3
:1058100000EE900AF8EEE00A0BEEA00A0846D0ED82
:10582000000AF8EEE00A0BEE200ABDEEC00A10EE08
:10583000105AA54201DD204605E06042854201DDA7
:10584000284600E0604205465F48066007F01EF902
:10585000192E1EDA16F1190F1BDD00231A46194600
:10586000184605F027FB9FED510A584880ED000AC5
:1058700000205349086000231A461946544800681E
:1058800006F0DAFA012001B0BDEC088B08B0BDE8E3
:10589000F08F9DED0C0AF0EE400AB0EE680A00F0C1
:1058A0002FFBF3EE0E0AB4EEE00AF1EE10FA0ADD79
:1058B000DDED0C1A9DED0B1ADDED0A0AB0EE680A5B
:1058C00000F080FB6DE09DED0C0AF0EE400AB0EEBA
:1058D000680A00F015FBB0EE408A3C4890ED000AE3
:1058E00030EE080A80ED000A90ED000ADFED390A7B
:1058F000B4EEE00AF1EE10FA02DD9FED360A0EE09A
:10590000324890ED000ADFED340AB4EEE00AF1EE21
:1059100010FA02DD90ED000A01E09FED2F0A2B48FE
:1059200080ED000A2D4880ED008A28EE090A2748FC
:10593000D0ED000A00EEA90A2848D0ED000A78EE62
:10594000600A00EE8A0ABDEEC00A10EE107A234605
:1059500004EBD37C4FEA6C0CBC4505DA224602EB23
:10596000D27C4FEA6C0C0DE0614201EBD17C4FEA36
:105970006C0CBC4501DABC4604E0604200EBD07C14
:105980004FEA6C0C6746C7F10009A5EB090305EB6C
:105990000902A5EB090105EB090005F08BFA0020CF
:1059A00071E700206FE700006666664000000000B7
:1059B0000AD7233D6F12033C4800002090060020C8
:1059C0004C00002060F0FFFF440000203C0000205D
:1059D0006C05002000007A4400007AC440000020DA
:1059E00070B504460D46206858B9294604F10800F0
:1059F00005F030FB08B9002070BD022020600020B7
:105A0000FAE72168481C206004F10800455420682A
:105A100006280BD104F10A00FEF76CFF6060B0F5B8
:105A2000FD7F03DD00202060401EE5E7D4E9001083
:105A3000801D814201DA0020DEE700202060204640
:105A400000F03FFAD8E7F0B503460C46188800216D
:105A500013E0675C80EA072000250BE0460000F4B5
:105A6000004CBCF1000F03D041F2210C86EA0C0679
:105A700030466D1C082DF1D3491C9142E9D31880A2
:105A8000F0BD0000F1B52DED040B2DED068BF0EE11
:105A9000408A044600269FED430AB0EE409A9FEDEF
:105AA000420AF0EE409AB7EE000AB0EE40AA9DED31
:105AB000090AF0EE400AB0EE680A00F021FAF3EEAF
:105AC0000E0AB4EEE00AF1EE10FA0ADDDDED091A75
:105AD0009DED081ADDED070AB0EE680A00F072FAD3
